:100000000C94F40A0C94210B0C94210B0C94210BEE
:100010000C94210B0C94210B0C94210B0C94210BB0
:100020000C94210B0C94210B0C94210B0C94210BA0
:100030000C94210B0C94210B0C94210B0C94210B90
:100040000C94210B0C94F06E0C94210B0C94210B4E
:100050000C94210B0C94210B0C9406780C941485B1
:100060000C94210B0C9455230C94210B0C94210B14
:100070000C94210B0C94210B0C94210B0C94210B50
:100080000C94210B0C94210B0C94210B0C94210B40
:100090000C94210B0C94210B0C94210B0C946D836C
:1000A0000C94210B0C94210B0C94210B0C94210B20
:1000B0000C94210B0C94210B0C94210B0C94210B10
:1000C0000C94210B0C94210B0C94210B0C94210B00
:1000D0000C94210B0C94210B0C94210B0C94210BF0
:1000E0000C94210B084AD73B3BCE016E84BCBFFD6C
:1000F000C12F3D6C74319ABD56833DDA3D00C77FF8
:1001000011BED9E4BB4C3E916BAAAABE0000008090
:100110003F05A84CCDB2D44EB93836A9020C50B91F
:10012000918688083CA6AAAA2ABE000000803F4DFE
:10013000383420582059205A2045006563686F3AAA
:100140000043616E6E6F7420656E74657220737506
:10015000626469723A20004D3234004D32332025FA
:1001600073006175746F25692E67004572726F7236
:100170003A006572726F722077726974696E6720D7
:10018000746F2066696C65004E6F74205344207054
:1001900072696E74696E67002F0053442070726933
:1001A0006E74696E67206279746520002E00446564
:1001B0006C6574696F6E206661696C65642C20469D
:1001C000696C653A200046696C652064656C6574ED
:1001D00065643A002E006F70656E206661696C651B
:1001E000642C2046696C653A200057726974696E08
:1001F0006720746F2066696C653A20002E006F706E
:10020000656E206661696C65642C2046696C653A90
:1002100020002E006F70656E206661696C65642C2D
:100220002046696C653A200046696C652073656CF0
:100230006563746564002053697A653A20004669F5
:100240006C65206F70656E65643A20002E006F70DB
:10025000656E206661696C65642C2046696C653A40
:10026000200053442063617264206F6B006F7065DF
:100270006E526F6F74206661696C656400766F6C96
:10028000756D652E696E6974206661696C656400C0
:10029000534420696E6974206661696C0065636807
:1002A0006F3A0048617264636F64656420446566F8
:1002B00061756C742053657474696E6773204C6F3C
:1002C000616465640053746F72656420736574744F
:1002D000696E677320726574726965766564002063
:1002E00044002049002020204D3330312050005060
:1002F00049442073657474696E67733A00205A002C
:1003000020590020204D323036205800486F6D654E
:10031000206F666673657420286D6D293A0020454C
:1003200000205A0020580020420020540020204D78
:10033000323035205300416476616E636564207607
:1003400061726961626C65733A20533D4D696E203C
:10035000666565647261746520286D6D2F73292C44
:1003600020543D4D696E2074726176656C2066651F
:1003700065647261746520286D6D2F73292C20428D
:100380003D6D696E696D756D207365676D656E7421
:100390002074696D6520286D73292C20583D6D618E
:1003A00078696D756D205859206A65726B20286DCB
:1003B0006D2F73292C20205A3D6D6178696D756D04
:1003C000205A206A65726B20286D6D2F73292C20AE
:1003D00020453D6D6178696D756D2045206A6572B7
:1003E0006B20286D6D2F73290020540020204D3282
:1003F0003034205300416363656C65726174696FCA
:100400006E3A20533D616363656C65726174696F18
:100410006E2C20543D726574726163742061636355
:10042000656C65726174696F6E00204500205A002A
:1004300020590020204D3230312058004D6178691C
:100440006D756D20416363656C65726174696F6E73
:1004500020286D6D2F7332293A00204500205A0064
:1004600020590020204D3230332058004D617869EA
:100470006D756D2066656564726174657320286DA5
:100480006D2F73293A00204500205A002059002082
:10049000204D393220580053746570732070657296
:1004A00020756E69743A0053657474696E677320C1
:1004B00053746F726564006563686F3A00457272C9
:1004C0006F723A005072696E7465722073746F7047
:1004D0007065642064756520746F206572726F7238
:1004E000732E2046697820746865206572726F7279
:1004F00020616E6420757365204D39393920746F21
:1005000020726573746172742E202854656D706555
:100510007261747572652069732072657365742EDB
:100520002053657420697420616674657220726559
:100530007374617274696E6729005072696E7465B4
:10054000722068616C7465642E206B696C6C28295C
:100550002063616C6C656421006F6B00526573658C
:100560006E643A20002200556E6B6E6F776E2063CA
:100570006F6D6D616E643A202200486F74656E6421
:10058000206F6666736574733A007A5F6D696E3AC0
:100590002000795F6D696E3A2000785F6D696E3A70
:1005A00020005A3A00593A0020436F756E74205863
:1005B0003A2000453A005A3A00593A00583A004663
:1005C00049524D574152455F4E414D453A4D61723A
:1005D0006C696E2056313B20537072696E7465727F
:1005E0002F6772626C206D617368757020666F7220
:1005F0002067656E36204649524D574152455F553A
:10060000524C3A687474703A2F2F7777772E6D6555
:100610006E64656C2D70617274732E636F6D205003
:10062000524F544F434F4C5F56455253494F4E3AE9
:10063000312E30204D414348494E455F5459504575
:100640003A4D656E64656C20455854525544455288
:100650005F434F554E543A320A0020423A0020453B
:100660003A00543A0020573A0020453A00543A00E4
:100670002042403A0020403A00202F003A00205407
:1006800000202F0020423A00202F006F6B20543AA8
:10069000002569206D696E2C202569207365630033
:1006A000456E642066696C65206C697374004265F0
:1006B00067696E2066696C65206C69737400FFFF62
:1006C000FF00004D4300007F43000048430000A0AE
:1006D000400000A0400000803F000000000000003B
:1006E000000000000000000000000000000000000A
:1006F0000000004D4300007F43000048432569206F
:10070000686F757273202569206D696E75746573E5
:1007100000446F6E65207072696E74696E67206642
:10072000696C65005072696E7465722073746F70C5
:100730007065642064756520746F206572726F72D5
:10074000732E2046697820746865206572726F7216
:1007500020616E6420757365204D39393920746FBE
:1007600020726573746172742E202854656D7065F3
:100770007261747572652069732072657365742E79
:1007800020536574206974206166746572207265F7
:100790007374617274696E6729006F6B004E6F200D
:1007A0004C696E65204E756D62657220776974685C
:1007B00020636865636B73756D2C204C61737420C6
:1007C0004C696E653A20004E6F20436865636B7319
:1007D000756D2077697468206C696E65206E756D23
:1007E0006265722C204C617374204C696E653A20EE
:1007F00000636865636B73756D206D69736D6174FB
:1008000063682C204C617374204C696E653A20003B
:100810004C696E65204E756D626572206973206E3D
:100820006F74204C617374204C696E65204E756D39
:100830006265722B312C204C617374204C696E659B
:100840003A20004D31313000446F6E65207361767F
:10085000696E672066696C652E006F6B004D3239DA
:10086000002020506C616E6E65724275666665721E
:1008700042797465733A20002046726565204D65A3
:100880006D6F72793A20004A756C20313220323017
:10089000323200436F6D70696C65643A2000286ED7
:1008A0006F6E652C2064656661756C7420636F6E75
:1008B0006669672900207C20417574686F723A2050
:1008C000004A756C20313220323032322031323AD7
:1008D00031323A313200204C6173742055706461BA
:1008E0007465643A2000312E302E30004D61726CF8
:1008F000696E200020536F667477617265205265BF
:1009000073657400205761746368646F6720526573
:10091000736574002042726F776E206F7574205279
:1009200065736574002045787465726E616C205241
:100930006573657400506F776572557000737461EC
:100940007274002200656E717565696E6720220001
:100950002200656E717565696E67202200656368A7
:100960006F3A0020746F6F206C6F6E67206578742B
:10097000727573696F6E2070726576656E746564EA
:100980000020636F6C6420657874727573696F6E94
:100990002070726576656E746564007C3C3E5E2BEB
:1009A0003D3F2F5B5D3B2C2A225C0045313A200005
:1009B00045303A20005A3A2000593A2000583A204F
:1009C000004D53312C4D53322050696E730A002470
:1009D000F404D9201BC40C5C0E9804C4095F0265A2
:1009E000077101F405F900FB04B30048048700C156
:1009F0000369005803550003034500BE023A008412
:100A000002310053022A002902250004022000E4DA
:100A1000011C00C8011900AF0117009801140084DF
:100A2000011300710110006101100051010E00431B
:100A3000010D0036010B002B010B0020010B0015EE
:100A40000109000C01090003010800FB000800F384
:100A5000000800EB000700E4000600DE000600D8F6
:100A6000000600D2000600CC000500C7000500C249
:100A7000000500BD000400B9000400B5000400B189
:100A8000000400AD000400A9000400A5000300A2BA
:100A90000003009F0004009B0003009800030095E2
:100AA00000020093000300900003008D0002008B01
:100AB0000003008800020086000200840003008119
:100AC0000002007F0002007D0002007B000200792E
:100AD000000200770001007600020074000200723C
:100AE000000100710002006F0002006D0001006C47
:100AF0000002006A00010069000200670001006650
:100B00000001006500010064000200620001006154
:100B1000000100600001005F0002005D0001005C58
:100B20000001005B0001005A00010059000100585B
:100B3000000100570001005600010055000100545B
:100B40000001005300000053000100520001005159
:100B5000000100500001004F0001004E0000004E57
:100B60000001004D0001004C0001004B0000004B53
:100B70000001004A0001004900010048000000484F
:100B8000000100470001004600000046000100454A
:100B90000000004500010044000100430000004344
:100BA000000100420000004200010041000000413D
:100BB000000100400001003F0000003F0001003E36
:100BC0000000003E0001003D0000003D0001003C2F
:100BD0000000003C0000003C0001003B0000003B26
:100BE0000001003A0000003A00010039000000391D
:100BF0000001003800000038000000380001003714
:100C0000000000370001003600000036000000360A
:100C100000010035000000350000003500010034FF
:100C200000000034000000340001003300000033F5
:100C300000000033000100320000003200000032EA
:100C400000010031000000310000003100010030DF
:100C500000000030000000300001002F0000002FD5
:100C60000000002F0000002F0001002E0000002EC9
:100C70000000002E0001002D0000002D0000002DBE
:100C80000000002D0001002C0000002C0000002CB2
:100C90000000002C0001002B0000002B0000002BA6
:100CA0000000002B0001002A0000002A0000002A9A
:100CB0000000002A0001002900000029000000298E
:100CC0000000002900000029000100280000002881
:100CD0000000002800000028000000280001002774
:100CE0000000002700000027000000270000002768
:100CF000000100260000002600000026000000265B
:100D0000000000260001002500000025000000254D
:100D1000000000250000002500000025000100243F
:100D20000000002400000024000000240000002433
:100D30000001002300000023000000230000002326
:100D40000000002300000023000000230001002217
:100D5000000000220000002200000022000000220B
:100D600000000022000100210000002100000021FD
:100D700000000021000000210000002100000021EF
:100D800000010020000000200000002000000020E2
:100D900000000020000000200000002000000020D3
:100DA0000001001F0000001F0000001F0000001FC6
:100DB0000000001F0000001F0000001F0001001EB7
:100DC0000000001E0000001E0000001E00000024A5
:100DD000F4D43050C38E20C2A24017828B701112FF
:100DE0007A910D816CD90AA861E108C7586607613C
:100DF0005143061E4B5D05C145A7041A4111040964
:100E00003D9803713931034036DB0265339102D4DA
:100E1000305402802E1D02632CEE01752AC501B0EC
:100E200028A001102781018F2564012B244B01E0AC
:100E3000223401AC211F018D200D01801FFC008494
:100E40001EED00971DDF00B81CD200E61BC6002077
:100E50001BBC00641AB200B219A8000A19A0006AEB
:100E6000189900D117910040178B00B516840031F6
:100E7000167E00B31579003A157300C7146F005839
:100E8000146A00EE1366008813630025135E00C722
:100E9000125B006C12570015125400C11151007002
:100EA000114F0021114B00D61049008D104700460C
:100EB00010440002104200C00F4000800F3E00426C
:100EC0000F3C00060F3B00CB0E3800930E37005C42
:100ED0000E3500270E3400F30D3200C10D310090A5
:100EE0000D3000600D2E00320D2D00050D2C00D9A7
:100EF0000C2B00AE0C2900850C29005C0C2700355A
:100F00000C27000E0C2600E80B2400C40B2400A0C4
:100F10000B23007D0B23005A0B2100390B210018F5
:100F20000B2000F80A1F00D90A1E00BB0A1E009DF4
:100F30000A1D00800A1D00630A1C00470A1B002CC2
:100F40000A1B00110A1A00F7091A00DD091900C46A
:100F5000091900AB091900920917007B09180063F1
:100F60000917004C09160036091600200916000A58
:100F7000091500F5081500E0081400CC081400B8A5
:100F8000081400A4081400900813007D0812006BD8
:100F900008130058081200460812003408110023F4
:100FA0000811001208110001081100F0071000E0FC
:100FB000071000D0071000C0071000B0070F00A1F5
:100FC00007100091070E0083070F0074070F0065DC
:100FD000070E0057070E0049070E003B070D002EB5
:100FE000070E0020070D0013070D0006070D00F97E
:100FF000060C00ED060D00E0060C00D4060C00C83F
:10100000060C00BC060C00B0060C00A4060B0099F0
:10101000060C008D060B0082060B0077060B006C99
:10102000060B0061060A0057060B004C060A004238
:10103000060A0038060A002E060A0024060A001ACC
:10104000060A001006090007060A00FD050900F45B
:10105000050900EB050900E2050900D9050900D0E2
:10106000050900C7050900BE050900B5050800AD62
:10107000050800A50509009C050800940508008CDA
:10108000050800840508007C050800740508006C4C
:10109000050700650508005D050700560508004EB8
:1010A000050700470507004005080038050700311F
:1010B0000507002A050700230507001C0506001682
:1010C0000507000F0507000805060002050700FBDD
:1010D000040600F5040700EE040600E8040600E23A
:1010E000040700DB040600D5040600CF040600C98F
:1010F000040600C3040600BD040600B7040600B1E0
:10110000040500AC040600A6040600A00405009B2C
:1011100004060095040500900406008A0405008575
:10112000040500800406007A0405007504050070BB
:101130000405006B04050066040500610405005CFD
:1011400004050057040500520405004D040500483D
:10115000040500430405003E0404003A040500357C
:10116000040500300404002C0405002704040023B7
:101170000405001E0404001A0404001604050011EE
:101180000404000D04040009040500040404000024
:10119000040400FC030400F8030400F4030400F05A
:1011A000030400EC030400E8030400E4030400E08B
:1011B000030400DC030400D8030400D4030400D0BB
:1011C000030400CC030400C8030300C50303006547
:1011D00063686F3A00205A3A0020593A0020583A82
:1011E00000656E6473746F7073206869743A2000D0
:1011F0004572726F723A0054656D706572617475F4
:101200007265206865617465642062656420737727
:10121000697463686564206F66662E204D4158547A
:10122000454D50207472696767657265642021219D
:10123000003A20457874727564657220737769741A
:1012400063686564206F66662E204D494E54454D97
:1012500050207472696767657265642021003A20C6
:101260004578747275646572207377697463686514
:1012700064206F66662E204D415854454D502074B1
:101280007269676765726564202100202D20496EB0
:1012900076616C6964206578747275646572206E1D
:1012A000756D62657220210070012C01900127018B
:1012B000B0012201C0011D01F0011801100213014B
:1012C00030020E016002090190020401C002FF0019
:1012D0000003FA004003F5008003F000D003EB00A8
:1012E0002004E6007004E100E004DC004005D700C3
:1012F000C005D2004006CD00D006C8008007C3005C
:101300003008BE00F008B900C009B400B00AAF0050
:10131000B00BAA00D00CA500000EA000500F9B003F
:10132000C01096005012910000148C00C015870068
:10133000B0178200B0197D00D01B7800001E73002A
:1013400040206E0090226900F024640040275F0076
:1013500090295A00E02B5500102E500020304B00F1
:1013600010324600E033410090353C001037370022
:1013700070383200A0392D00B03A2800A03B23007D
:10138000603C1E00103D1900903D1400103E0F00FF
:10139000703E0A00C03E0500003F00005049442056
:1013A0004175746F74756E652066696E69736865E2
:1013B00064212050757420746865204B702C204B7C
:1013C0006920616E64204B6420636F6E7374616E7C
:1013D000747320696E746F20436F6E6669677572EF
:1013E0006174696F6E2E6800504944204175746FB6
:1013F00074756E65206661696C6564212074696D21
:10140000656F75740020403A006F6B20543A006F8E
:101410006B20423A00504944204175746F74756ED8
:1014200065206661696C6564212054656D70657224
:10143000617475726520746F6F2068696768002039
:101440004B643A2000204B693A2000204B703A2030
:101450000020436C6173696320504944200020548C
:10146000753A2000204B753A2000206D61783A20B3
:1014700000206D696E3A200020643A2000206269E5
:1014800061733A200000002100240027002A002D6B
:10149000003000330001010000040107010A0100CF
:1014A000002200250028002B002E0031003400020D
:1014B000010000050108010B0100002000230026A7
:1014C0000029002C002F003200000100000301065B
:1014D00001090105050505070508080808020202BB
:1014E000020A0A08080404040401010101010101BF
:1014F000010303030303030303040707070C0C0C96
:101500000C0C0C0C0C02020202060606060606066D
:10151000060B0B0B0B0B0B0B0B010210202008080A
:101520001020401020408002010201080402010145
:10153000020408102040808040201008040201802E
:101540000402018040201008040201080402010185
:10155000020408102040800102040810204080008E
:1015600000090A02080B0C0D070603040100000025
:10157000000000000000000000000000000000006B
:10158000000000000000000000000011100F00002B
:10159000000000000000000000000000000000004B
:1015A0000000000000494E46494E4954594E414EF4
:1015B000CDCCCC3D0AD7233C17B7D13877CC2B32D2
:1015C0009595E6241FB14F0A000020410000C84253
:1015D00000401C4620BCBE4CCA1B0E5AAEC59D74B2
:1015E000E9230526DC82002611241FBECFEFD1E2BD
:1015F000DEBFCDBF00E00CBF14E0A0E0B2E0E2E946
:10160000FBE101E00BBF02C007900D92A034B107CF
:10161000D9F71BBE11E1A0E4B4E001C01D92A53CC6
:10162000B107E1F715E1C6EED5E104C02297FE014E
:101630000E946F8DC03ED107C9F70E9425880C9487
:10164000BD8D0C940000A0E0B0E0E9E2FBE00C945A
:101650008C8DEC015B016115710519F0FB01918323
:101660008083F9908F2D90E00E94738D892BC9F7AC
:10167000FDE2FF1621F4F990EE24E39405C02BE27D
:10168000F21609F4F990EE248E0101501040C801C1
:1016900065EA75E143E050E069D2892BF9F48E01E7
:1016A0000E5F1F4FC80168EA75E145E050E05ED269
:1016B000892B19F48E01095F1F4FA114B10419F091
:1016C000F50111830083E0FC04C070E090E080E845
:1016D00013C070E090E080E86FEF07C1C8016DEAC9
:1016E00075E143E050E042D2892B69F4A114B104C2
:1016F00029F470E090E080EC6FE7F7C02296F501E6
:10170000D183C083F6CF8824992440E050E060E084
:1017100070E0EF2DE053EA30A0F5F2E0EF2A8E2DD5
:1017200090E09C0128703070E2FE06C0232B79F512
:101730000894811C911C2BC0232B19F0089481085C
:101740009108DB01CA0112E0880F991FAA1FBB1F75
:101750001A95D1F7480F591F6A1F7B1F440F551F59
:10176000661F771F4E0F511D611D711D483929E9F4
:10177000520729E9620729E1720748F084E0E82A64
:1017800006C0EE3F31F4E3FC39C098E0E92AF99055
:10179000C0CFE53311F0E53189F529912D3219F4E7
:1017A000E0E1EE2A05C02B3219F081E090E003C0A1
:1017B000299182E090E0E22FE053EA3018F0C81B54
:1017C000D90B1CC020E030E0FCE020383F075CF47F
:1017D000C901880F991F880F991F280F391F220FE1
:1017E000331F2E0F311DE991E053EA3068F3E4FE18
:1017F00003C0309521953F4F820E931ECE2CDD24E1
:10180000E1FE07C0A114B10421F02197F501D183B5
:10181000C083CB01BA010E94D8897B018C01F3E01F
:10182000CF22DD2423E0C216D10421F417FB10954A
:1018300017F9109557016801C801B70120E030E0A1
:1018400040E050E00E943889882309F44AC097FE9E
:101850000DC024ECE22E25E1F22E909481949108A3
:101860009394C0E2D0E000E010E012C09CEDE92EBD
:1018700095E1F92EF6CFF7012591359145915491D7
:10188000C601B5010E94188C5B016C018C1A9D0A7F
:101890008C169D0684F7D595C7950F5F1F4F0630B0
:1018A000110529F08CEF9FEFE80EF91EF1CFC5016D
:1018B000D6017C018D018C2D880F8D2D881F8F3FC7
:1018C00051F0C601B50120E030E040E050E00E9458
:1018D0003889882331F482E290E09093C411809398
:1018E000C3117E2D9F2D802F612F272F392F482F39
:1018F000562FB901CA01CDB7DEB7ECE00C94A88D24
:101900002F923F925F926F927F928F929F92AF92AF
:10191000BF92CF92DF92EF92FF920F931F93CF93DC
:10192000DF938C011B01EA016115710519F0FB01C0
:1019300091838083209749F0CE010297839728F006
:1019400020E030E040E050E0F6C0F801A1908F01C7
:101950008A2D90E00E94738D892BB9F7FDE2AF16B6
:1019600031F4F801A1908F015524539407C0FBE294
:10197000AF1619F4F801A1908F015524209719F0A2
:10198000C031D105C1F4F0E3AF1679F4F8018081DC
:10199000883711F0883549F4F801A1800E5F1F4F98
:1019A000F2E05F2AC0E1D0E006C0209721F480E396
:1019B000A816E9F427C0C830D10531F1C930D105E6
:1019C00024F4C230D10531F50CC0CA30D10589F0FC
:1019D000C031D105F9F4C12CD12CE12CB8E0FB2E9B
:1019E00028C0C12CD12CE12CA0E4FA2E22C0CAE0E0
:1019F000D0E0FCECCF2EFCECDF2EFCECEF2EFCE07C
:101A0000FF2E17C0C8E0D0E0C12CD12CE12CE0E1C2
:101A1000FE2E0FC09E01442737FD4095542F60E0F5
:101A200070E080E090E80E941C8DC901DA016C0131
:101A30007D0120E030E040E050E060E03E0188249D
:101A400077FC8094982C70EDB72EBA0CE9E0EB157A
:101A500070F48A2D81548A3118F499ECB92E06C09D
:101A60008A2D81568A3150F589EAB82EBA0C8B2D11
:101A700090E08C179D0714F56F3FE1F0C216D30676
:101A8000E406F506B0F0CA01B901A40193010E9471
:101A9000EA8C9B01AC012B0D311D411D511D2130E4
:101AA000F0E03F07F0E04F07F0E85F0710F461E077
:101AB00001C06FEFF801A1908F01C5CF211431044F
:101AC00081F0662331F001501040F1011183008351
:101AD00008C051FE1AC002501040F101118300836A
:101AE00014C067FF12C050FC05C02FEF3FEF4FEF4F
:101AF0005FE704C020E030E040E050E882E290E0A0
:101B00009093C4118093C31116C050FE08C0509525
:101B10004095309521953F4F4F4F5F4F0CC057FF79
:101B20000AC082E290E09093C4118093C3112FEF1A
:101B30003FEF4FEF5FE7B901CA01DF91CF911F91EE
:101B40000F91FF90EF90DF90CF90BF90AF909F905C
:101B50008F907F906F905F903F902F900895FB0142
:101B6000DC0105900D920020E1F70895FB01DC01F6
:101B70004150504088F08D9181341CF08B350CF42D
:101B8000805E659161341CF06B350CF4605E861BE1
:101B9000611171F3990B0895881BFCCFFB015591DE
:101BA0005523A9F0BF01DC014D9145174111E1F723
:101BB00059F4CD010590002049F04D914015411197
:101BC000C9F3FB014111EFCF81E090E00197089547
:101BD000FB01DC0104C08D910190801921F441507A
:101BE0005040C8F7881B990B0895FB01DC0102C027
:101BF00001900D9241505040D8F70895FB01DC014F
:101C00000D900020E9F7119701900D920020E1F767
:101C10000895FC018191861721F08823D9F799272F
:101C200008953197CF010895FB01DC0101900D92D9
:101C30000020E1F70895FB01DC014150504030F0F5
:101C40008D910190801919F40020B9F7881B990B28
:101C50000895FB01DC014150504048F001900D9285
:101C60000020C9F701C01D9241505040E0F708958F
:101C7000AEE0B0E0EEE3FEE00C94948D0E891F8997
:101C80008EE08C831A8309838FEF9FE79E838D8379
:101C90009E01265E3F4FCE010196688D798DA90188
:101CA0000AD02F813885020F131FF80110822E965B
:101CB000E4E00C94B08DABE0B0E0E1E6FEE00C9423
:101CC000868D3C012B015A01FC011782168283810B
:101CD00081FD03C06FEF7FEFB9C19AE0892E1E012D
:101CE0000894211C311CF3012381F20123FD85910D
:101CF00023FF81912F01882309F4A5C1853239F48E
:101D000023FD859123FF81912F01853221F490E0FD
:101D1000B301B7D1E8CF982FFF24EE249924FFE137
:101D2000FF15D0F09B3269F09C3228F4903259F0C4
:101D3000933291F40EC09D3249F0903369F441E042
:101D400024C052E0F52A84E0F82A28C098E0F92A55
:101D500025C0E0E1FE2A22C0F7FC29C0892F80536C
:101D60008A3070F4F6FE05C0989C902C1124980ED1
:101D700015C0E89CE02C1124E80EF0E2FF2A0EC00A
:101D80009E3229F4F6FC5FC140E4F42A07C09C3679
:101D900019F450E8F52A02C0983649F4F20123FDFF
:101DA000959123FF91912F01992309F0B8CF892FA5
:101DB0008554833018F08052833038F444E050E08A
:101DC000A40EB51E5FE359830FC0933631F09337ED
:101DD00079F0933509F052C01FC0F50180818983E5
:101DE00042E050E0A40EB51E610101E010E011C018
:101DF000F501C080D180F6FC03C06FEF7FEF02C019
:101E0000692D70E042E050E0A40EB51EC6012ED14F
:101E10008C015FE7F52213C0F501C080D180F6FC8C
:101E200003C06FEF7FEF02C0692D70E042E050E029
:101E3000A40EB51EC6010FD18C0150E8F52AF3FEA1
:101E400006C018C080E290E0B3011BD1EA948E2D49
:101E500090E008171907B0F30DC0F601F7FC859163
:101E6000F7FE81916F0190E0B3010BD1E110EA948C
:101E7000015010400115110581F7E2C0943611F0B0
:101E8000993661F5F7FE08C0F50120813181428164
:101E9000538184E090E00AC0F501808191819C012A
:101EA000442737FD4095542F82E090E0A80EB91EDC
:101EB0009FE6F92257FF09C050954095309521952E
:101EC0003F4F4F4F5F4FE0E8FE2ACA01B901A10121
:101ED0002AE030E002D1D82ED2183FC0953729F43D
:101EE0001F2D1F7E2AE030E01DC01F2D197F9F3659
:101EF00061F0903720F4983509F0A5C00FC09037F5
:101F000039F0983709F09FC004C028E030E00AC0DB
:101F1000106114FD146020E130E004C014FD16606F
:101F200020E132E017FF08C0F501608171818281F4
:101F3000938144E050E008C0F50180819181BC01AB
:101F400080E090E042E050E0A40EB51EA101C5D0B3
:101F5000D82ED2188FE7F82EF122F6FE0BC05EEFD6
:101F6000F522D91438F4F4FE07C0F2FC05C08FEE58
:101F7000F82202C01D2D01C0192DF4FE0DC0FE0176
:101F8000ED0DF11D8081803319F499EEF92208C01E
:101F90001F5FF2FE05C003C08F2D867809F01F5F1A
:101FA0000F2DF3FC13C0F0FE0EC01E1510F09D2C7B
:101FB0000AC09D2C9E0C911A1E2D05C080E290E057
:101FC000B3015FD01F5F1E15C8F304C01E1510F4C7
:101FD000E11A01C0EE2404FF0EC080E390E0B301DB
:101FE00050D002FF1BC001FD03C088E790E00EC087
:101FF00088E590E00BC0802F867881F001FF02C059
:102000008BE201C080E2F7FC8DE290E0B30139D0B1
:1020100005C080E390E0B30134D09A94D914C8F39A
:10202000DA94F101ED0DF11D808190E0B30129D02A
:10203000DD20B1F705C080E290E0B30122D0EA9440
:10204000EE20C9F750CEF30166817781CB012B9644
:10205000E2E10C94A28DFC010590615070400110EA
:10206000D8F7809590958E0F9F1F0895FC016150C1
:10207000704001900110D8F7809590958E0F9F1FAA
:1020800008950F931F93CF93DF938C01EB018B8106
:1020900081FF1BC082FF0DC02E813F818C819D81FD
:1020A0002817390764F4E881F9810193F983E883FB
:1020B00006C0E885F985802F1995892B31F48E812A
:1020C0009F8101969F838E8302C00FEF1FEFC8018F
:1020D000DF91CF911F910F910895FA01AA2728301F
:1020E00051F1203181F1E8946F936E7F6E5F7F4FE5
:1020F0008F4F9F4FAF4FB1E03ED0B4E03CD0670F61
:10210000781F891F9A1FA11D680F791F8A1F911DB3
:10211000A11D6A0F711D811D911DA11D20D009F403
:1021200068943F912AE0269F11243019305D319345
:10213000DEF6CF010895462F4770405D4193B3E02E
:102140000FD0C9F7F6CF462F4F70405D4A3318F0D5
:10215000495D31FD4052419302D0A9F7EACFB4E086
:10216000A6959795879577956795BA95C9F700973E
:102170006105710508959B01AC010A2E06945795DF
:10218000479537952795BA95C9F7620F731F841F36
:10219000951FA01D0895FC01128213820895FC0171
:1021A0008381882311F081E082830895FC0182817C
:1021B000811112820895FC0186E194E0918380836D
:1021C0008781882321F0CF0104960C94CA5F08957B
:1021D0000F931F93CF93DF938C010E94DD6E0E94BB
:1021E000C36CC80182539E4F0E94CA5FF8011282DD
:1021F0008FE291E00E94B04480913609882301F17A
:10220000109236098091EF06C82FD0E0CC0FDD1F69
:10221000CA58DF4E68817981882777FD8095982F8D
:102220000E94DA89209174033091750340917603FE
:10223000509177030E94468B181614F41982188265
:10224000DF91CF911F910F910895EF92FF920F931D
:102250001F938C014EECE42E41E0F42EE80EF91EA3
:10226000C7010E947C5FC7010E94CA5FF80110820B
:1022700011821F910F91FF90EF900895CF92DF92FE
:10228000EF92FF920F931F93CF93DF937C016B012B
:10229000DB010D900020E9F78D0101501040061B75
:1022A000170BEEECF1E0EE0EFF1ED7011C92E2E3FD
:1022B000FEEFEE0EFF1ECB016EE470E0AADCEC0137
:1022C000009731F4F8013197EC0DFD1D86010CC02B
:1022D00060E270E09EDC8C010F5F1F4FCE016AE26E
:1022E00070E097DCFC0131978DE081838AE0828386
:1022F0001382C70186539E4FB8010E9493678EECEC
:1023000091E0E80EF91ED7018C91882319F1EBE6D4
:10231000F1E0949108C08091C00085FFFCCF9093BC
:10232000C600319694919923B1F7E2E7F1E09491D8
:1023300008C08091C00085FFFCCF9093C600319605
:1023400094919923B1F78091C00085FFFCCF8AE07A
:102350008093C600DF91CF911F910F91FF90EF9076
:10236000DF90CF900895CF93DF93EC018B8188238A
:1023700009F43BC0EAE9F1E0949108C08091C00003
:1023800085FFFCCF9093C600319694919923B1F7C5
:10239000CF50DE4F488159816A817B81C15FD14036
:1023A00084EC94E02AE030E00E948224E8E9F1E045
:1023B000949108C08091C00085FFFCCF9093C60027
:1023C000319694919923B1F7C751DE4F48815981D5
:1023D0006A817B8184EC94E02AE030E00E948224D0
:1023E0008091C00085FFFCCF12C0E8E8F1E0949135
:1023F00008C08091C00085FFFCCF9093C600319645
:1024000094919923B1F78091C00085FFFCCF8AE0B9
:102410008093C600DF91CF9108952F923F924F9203
:102420005F926F927F928F929F92AF92BF92CF9264
:10243000DF92EF92FF920F931F93DF93CF93CDB76D
:10244000DEB7AD970FB6F894DEBF0FBECDBF5C010F
:102450004B014DA7FC018381882309F4DDC16EEC9B
:10246000462E61E0562E4A0C5B1CC2010E94CA5FD8
:10247000F50112821A8A1D8A198A188A86E194E067
:102480009F878E875EE4C52ED12CCA0CDB1C8FE2A1
:1024900090E0A80EB91EF601B182A08281ED9FEFF7
:1024A000A80EB91EF40180818F3209F089C0C401E1
:1024B0006FE270E0AEDB7C010894E11CF11C3E0190
:1024C0000894611C711C160176C0C7016FE270E0B0
:1024D000A0DB6C01009709F481C0E816F90608F04A
:1024E0007DC08C010E191F09C301B701A801B1DB22
:1024F000060D171DF8011082F30107C08091C0007E
:1025000085FFFCCF31969093C60090819923B1F757
:102510008091C00085FFFCCFFAE0F093C600F10186
:10252000608171816115710519F460E070E002C08D
:102530006C5F7F4FCE014296A30121E00E949A6614
:10254000882371F5EEE4F2E0949108C08091C00018
:1025500085FFFCCF9093C600319694919923B1F7F3
:10256000FE01319607C08091C00085FFFCCF3196F7
:102570009093C60090819923B1F7ECE4F2E0949136
:1025800008C08091C00085FFFCCF9093C6003196B3
:1025900094919923B1F78091C00085FFFCCF36C19B
:1025A0008EE090E08C0F9D1FF10191838083760176
:1025B0000894E11CF11CE114F10409F086CF0BC072
:1025C000E0E5F0E0AE0EBF1EF601B182A08280EB26
:1025D0009FEFA80EB91E082DF92C01C00E2DF50194
:1025E000E25BFF4F9DA5992309F4ADC06081718125
:1025F0006115710519F460E070E002C06C5F7F4FF7
:10260000C201402F5F2D21E00E949A66882309F4C1
:102610006AC0EFEDF1E0AE0EBF1EF50140815181C1
:10262000628173818AE090E0A80EB91EF5014083B3
:1026300051836283738387E19EEFA80EB91EEEE398
:10264000F2E0949108C08091C00085FFFCCF909388
:10265000C600319694919923B1F7802F9F2D9C014C
:10266000F90107C08091C00085FFFCCF319690939F
:10267000C60090819923B1F7E6E3F2E0949108C097
:102680008091C00085FFFCCF9093C6003196949155
:102690009923B1F784EC94E02AE030E00E94822490
:1026A0008091C00085FFFCCF8AE08093C600E1EFF7
:1026B000F1E0AE0EBF1EF50110821182128213826C
:1026C000E8E2F2E0949108C08091C00085FFFCCF61
:1026D0009093C600319694919923B1F78091C000F0
:1026E00085FFFCCF93C0E4E1F2E0949108C08091B3
:1026F000C00085FFFCCF9093C6003196949199233A
:10270000B1F7802F9F2D9C01F90107C08091C00077
:1027100085FFFCCF31969093C60090819923B1F745
:10272000E2E1F2E0949108C08091C00085FFFCCF07
:102730009093C600319694919923B1F78091C0008F
:1027400085FFFCCF63C0608171816115710519F44B
:1027500060E070E002C06C5F7F4FC201402F5F2DD0
:1027600026E50E949A66882381F5EEEFF1E09491C8
:1027700008C08091C00085FFFCCF9093C6003196C1
:1027800094919923B1F7802F9F2D9C01F90107C0E7
:102790008091C00085FFFCCF31969093C600908158
:1027A0009923B1F7ECEFF1E0949108C08091C0005B
:1027B00085FFFCCF9093C600319694919923B1F791
:1027C0008091C00085FFFCCF21C081E0F5018083AE
:1027D000EAEEF1E0949108C08091C00085FFFCCF43
:1027E0009093C600319694919923B1F7F40107C0F4
:1027F0008091C00085FFFCCF31969093C6009081F8
:102800009923B1F78091C00085FFFCCF8AE08093C7
:10281000C600CE010E96CFDCAD960FB6F894DEBFA3
:102820000FBECDBFCF91DF911F910F91FF90EF9021
:10283000DF90CF90BF90AF909F908F907F906F90E0
:102840005F904F903F902F900895FC0181E081832D
:10285000CF0140E0E2CD2F923F924F925F926F9274
:102860007F928F929F92AF92BF92CF92DF92EF9220
:10287000FF920F931F93DF93CF93CDB7DEB7AC9743
:102880000FB6F894DEBF0FBECDBF5C014B01FC015B
:102890008381882309F434C1C50182539E4F0E946D
:1028A000CA5FF50112821A8A1D8A198A188A86E17E
:1028B00094E09F878E87EEE4CE2ED12CCA0CDB1CD1
:1028C0002FE230E0A20EB31EF601B182A08221ED0C
:1028D0003FEFA20EB31EF40180818F3209F08DC04C
:1028E000C4016FE270E095D97C010894E11CF11CF1
:1028F0003E010894611C711C260172E1272E312CC7
:102900002C0E3D1E75C0C7016FE270E082D96C01CC
:10291000009709F480C0E816F90608F07CC08C0125
:102920000E191F09C301B701A80193D9060D171D80
:10293000F8011082F30107C08091C00085FFFCCF31
:1029400031969093C60090819923B1F78091C00091
:1029500085FFFCCFFAE0F093C600F201608171813F
:102960006115710519F460E070E002C06C5F7F4F83
:10297000C101A30121E00E949A66882371F5E6ED6A
:10298000F1E0949108C08091C00085FFFCCF909346
:10299000C600319694919923B1F7FE01319607C094
:1029A0008091C00085FFFCCF31969093C600908146
:1029B0009923B1F7E4EDF1E0949108C08091C00053
:1029C00085FFFCCF9093C600319694919923B1F77F
:1029D0008091C00085FFFCCF8DC02EE030E02C0F31
:1029E0003D1FF2013183208376010894E11CF11C24
:1029F000E114F10409F087CF0BC080E590E0A80E48
:102A0000B91EF601B182A08220EB3FEFA20EB31EE9
:102A1000D82C092D02C0DE2C0F2D8EE490E0A80EDC
:102A2000B91EF5018081918122EB3FEFA20EB31E0A
:102A3000009719F480E090E001C004966D2D702F8E
:102A40000E946667882339F1E6ECF1E0949108C0B2
:102A50008091C00085FFFCCF9093C6003196949181
:102A60009923B1F78D2D902F9C01F90107C080911A
:102A7000C00085FFFCCF31969093C60090819923CA
:102A8000B1F781EF91E0A80EB91EF5011082118215
:102A90001282138232C0EEEAF1E0949108C0809174
:102AA000C00085FFFCCF9093C60031969491992386
:102AB000B1F78D2D902F9C01F90107C08091C000C6
:102AC00085FFFCCF31969093C60090819923B1F792
:102AD000ECEAF1E0949108C08091C00085FFFCCF42
:102AE0009093C600319694919923B1F78091C000DC
:102AF00085FFFCCF8AE08093C600CE010E965BDB9B
:102B0000AC960FB6F894DEBF0FBECDBFCF91DF916C
:102B10001F910F91FF90EF90DF90CF90BF90AF90FB
:102B20009F908F907F906F905F904F903F902F90ED
:102B30000895EF92FF920F931F93CF93DF938C0131
:102B4000FC01138286A9882321F0C801C3960E9444
:102B5000CA5FF7EAEF2EF1E0FF2EE00EF11EC7018B
:102B600060E045E30E94995D882309F5EBE3F1E01D
:102B7000949108C08091C00085FFFCCF9093C6005F
:102B8000319694919923B1F7E0E9F2E0949108C06D
:102B90008091C00085FFFCCF9093C6003196949140
:102BA0009923B1F78091C00085FFFCCF7DC0E8017B
:102BB000C455DE4FCE01B70141E00E94246888234E
:102BC00041F5CE01B70140E00E942468882309F551
:102BD000EBE6F1E0949108C08091C00085FFFCCF46
:102BE0009093C600319694919923B1F7EDE7F2E006
:102BF000949108C08091C00085FFFCCF9093C600DF
:102C0000319694919923B1F78091C00085FFFCCF54
:102C10004BC0C801C396BE010E94A162882309F57A
:102C2000EBE6F1E0949108C08091C00085FFFCCFF5
:102C30009093C600319694919923B1F7EDE6F2E0B6
:102C4000949108C08091C00085FFFCCF9093C6008E
:102C5000319694919923B1F78091C00085FFFCCF04
:102C600023C081E0F8018383EBE3F1E0949108C095
:102C70008091C00085FFFCCF9093C600319694915F
:102C80009923B1F7E2E6F2E0949108C08091C00088
:102C900085FFFCCF9093C600319694919923B1F7AC
:102CA0008091C00085FFFCCF8AE08093C600D801E8
:102CB000AC5ABF4FF801F3968BE101900D92815011
:102CC000E1F7F80181A992A90E5A1F4FF8019183EB
:102CD000808302551040C8018F96025B1F4FF80198
:102CE00091838083DF91CF911F910F91FF90EF909F
:102CF00008952F923F924F925F926F927F929F9290
:102D0000AF92BF92CF92DF92EF92FF920F931F93F9
:102D1000DF93CF93CDB7DEB7CC55D0400FB6F89444
:102D2000DEBF0FBECDBF6C01662311F525EF31E08C
:102D3000C20ED31ED6018C91EBE0FEEFCE0EDF1E4D
:102D4000882309F4E3C02DEE31E0C20ED31ED60174
:102D5000ED90FD900D911C91E3E1FEEFCE0EDF1E94
:102D60000E945C85E616F7060807190708F4CEC02E
:102D700025EF31E0C20ED31ED6011C92EBE0FEEF30
:102D8000CE0EDF1ED60113968C91882339F4C6012E
:102D9000D0DEF6018381882309F4B8C000D000D0CA
:102DA000EDB7FEB731967E010894E11CF11CADB77A
:102DB000BEB71296FC92EE92119782E691E0938351
:102DC0008283D6019D968D919C919E979583848355
:102DD0000E94380E8701EDB7FEB736960FB6F8940D
:102DE000FEBF0FBEEDBF57010AC0D8018C919927D5
:102DF00087FD90950E947B8DF80181938F01F501ED
:102E000001900020E9F73197EA19FB09802F8E190C
:102E10008E175CF303E3A02EB12CAC0CBD1CC501D6
:102E200040E050E060E070E00E94B25E99241DE353
:102E3000E12EF12CEC0EFD1E2E010894411C511CBC
:102E4000BFE16B2E712C6C0E7D1EABE52A2EA1E02E
:102E50003A2E42C0D8018C9190E00E947B8DF801FF
:102E600081938F01D7010D900020E9F71197AE19DA
:102E7000BF09802F8E198A176CF327968FAD27977D
:102E80008E3751F1C701B20145E050E00E941B0EA0
:102E9000009711F500D000D0EDB7FEB73196ADB771
:102EA000BEB712967C926E9211973382228255821F
:102EB00044820E94380EEDB7FEB736960FB6F894EE
:102EC000FEBF0FBEEDBFC3010E94294587E591E01B
:102ED0000E94B04499249394C501B70140E050E0AA
:102EE0000E94C061181614F48701BCCF992041F4E8
:102EF0008FEF9FEFD6019E969C938E939D9706C071
:102F0000F60185A596A5019696A785A7C45ADF4F19
:102F10000FB6F894DEBF0FBECDBFCF91DF911F91EA
:102F20000F91FF90EF90DF90CF90BF90AF909F9068
:102F30007F906F905F904F903F902F9008952F92C9
:102F40003F924F925F926F927F928F929F92AF9239
:102F5000BF92CF92DF92EF92FF920F931F93DF9376
:102F6000CF93CDB7DEB7CF58D0400FB6F894DEBFC1
:102F70000FBECDBF8C013B016A0184E090E0C80E1A
:102F8000D91EF8017196C757DF4FF983E883C958F6
:102F9000D040C8010496CA57DF4F99838883C6582A
:102FA000D040C857DF4F1882C858D04046E6E42EBC
:102FB000F12CEC0EFD1EF7013B96C557DF4FF98350
:102FC000E883CB58D04036EF832E31E0932E800E2D
:102FD000911E28EFA22E21E0B22EA00EB11E9EE07F
:102FE000292E312C2C0E3D1E87E4482E512C4C0EE0
:102FF0005D1EC2010496C357DF4F99838883CD5865
:10300000D040EBE3F1E09491C157DF4F9883CF5864
:10301000D0404CC1F7018385482F50E0BA01687158
:1030200070706031710509F04FC1F4012081318168
:103030002130310509F448C12230310509F444C179
:10304000F701DE0111969081903239F08E2F8E19A2
:10305000883011F48EE28D939D933196C557DF4FE2
:1030600088819981CB58D040E817F90761F71C9205
:103070001E86F3018081882329F4C10160E072E09B
:103080000E94FE0DC101B3010E94FE0DC101BE01EF
:103090006F5F7F4F0E94FE0DC10160E072E00E94F1
:1030A000FE0D1CA61FA61BA61AA686E194E099A7F2
:1030B00088A7CE018C96B601AE014F5F5F4F21E02D
:1030C0000E949A66882309F03FC0F40180819181B3
:1030D000892BD1F5C157DF4F9881CF58D040EBE312
:1030E000F1E008C08091C00085FFFCCF9093C6003E
:1030F000319694919923B1F7E2E0F2E007C0809114
:10310000C00085FFFCCF31969093C6009081992333
:10311000B1F78091C00085FFFCCFFAE0F093C600C4
:10312000FE01319607C08091C00085FFFCCF31962B
:103130009093C60090819923B1F78091C00085FFDC
:10314000FCCF8AE08093C600C357DF4FA881B981C6
:10315000CD58D040FE01BC968BE101900D9281507C
:10316000E1F78AA59BA5F2019383828386E194E02F
:1031700091838083C801B101A201E1DEC2011BD8A5
:10318000CE01889618D892C0953E09F48FC09E3221
:1031900009F48CC09F3509F489C0F80191899923FD
:1031A00031F09E3209F482C09F3509F47FC043FD9F
:1031B0007DC080E06031710509F481E0F80184A7E9
:1031C000882349F4F7018085873409F06FC0818531
:1031D0008E3709F46BC0CA57DF4FA881B981C65832
:1031E000D040F7018081803241F08E2F8E198830D7
:1031F00011F48EE28D9380818D933196C557DF4F08
:1032000088819981CB58D040E817F90759F71C926B
:10321000F40180819181009729F5F30107C0809125
:10322000C00085FFFCCF31969093C6009081992312
:10323000B1F7CA57DF4FE881F981C658D04007C0BF
:103240008091C00085FFFCCF31969093C60090819D
:103250009923B1F78091C00085FFFCCFFAE0F0938D
:10326000C60024C08130910539F4F5018081918137
:103270000196918380831AC00297C1F4C857DF4F2B
:10328000F881C858D0402F2F30E0F501808191811E
:1032900028173907F1F0C857DF4FF881C858D040D8
:1032A000FF5FC857DF4FF883C858D040C601B70149
:1032B000C757DF4F48815981C958D0400E94C0612B
:1032C00018160CF4A7CE05C0F7019081992309F0D8
:1032D0005BCFC157DF4F0FB6F894DEBF0FBECDBF37
:1032E000CF91DF911F910F91FF90EF90DF90CF90E2
:1032F000BF90AF909F908F907F906F905F904F9016
:103300003F902F900895EF92FF920F931F93DF93BA
:10331000CF93CDB7DEB76F970FB6F894DEBF0FBE71
:10332000CDBF7C0186EF91E0E80EF91EF701118216
:1033300010828AE09EEFE80EF91E87010D5C1F4F98
:10334000C80140E050E060E070E00E94B25EDE0143
:103350001596F8018BE101900D928150E1F7F7018C
:1033600081A992A99C838B8386E194E09A838983C7
:10337000C70165E172E08E010F5F1F4FA801DFDD1D
:10338000C8010E94DB106F960FB6F894DEBF0FBE27
:10339000CDBFCF91DF911F910F91FF90EF900895D6
:1033A0000F931F93CF93DF93DC01D3961C92D39797
:1033B000D6961C92D697D2961C921E92D19786E1F1
:1033C00094E0D0969C938E939F97AC5ABF4F1C92DB
:1033D00013961C92A755B040FD01E05BFF4FAE5A1B
:1033E000BF4F11961C921E92A255B04091838083CC
:1033F000ED01C159DF4FFE0120E030E0482F14827B
:1034000017821382128240839183215E3F4F7F9601
:1034100081E02633380799F7A855BE4F89E18C9390
:1034200013961C9258961C921B961C9213961C92F3
:10343000A15DB140FD01E653FE4FA453BE4F11966E
:103440001C921E92408391835D961D921D921D9247
:103450001C92139718961D921D921D921C92139701
:10346000A15FB14012961C92129713961C9213976B
:103470001C9211961C9211978D0103511E4FF80159
:103480001082118212821382AB55BE4F11961C928C
:103490001E92FE01C90111920197E9F7A05BBF4F8F
:1034A00081E08C93A55FB1409E961C921E929D97E1
:1034B0000E945C8568577C4E8F4F9F4FF801608358
:1034C000718382839383DF91CF911F910F91089530
:1034D000DF93CF93CDB7DEB766970FB6F894DEBF14
:1034E0000FBECDBF8091160290911702A0911802D5
:1034F000B09119028F87988BA98BBA8BFE013F96EA
:1035000044E650E08081F999FECF1FBA52BD41BD1B
:1035100080BD0FB6F894FA9AF99A0FBE4F5F5F4FCD
:103520004836510511F03196EDCFEAEDF8E0808193
:10353000F999FECF1FBA52BD41BD80BD0FB6F894B8
:10354000FA9AF99A0FBE4F5F5F4F4837510511F055
:103550003196EDCFEAECF8E08081F999FECF1FBA01
:1035600052BD41BD80BD0FB6F894FA9AF99A0FBECC
:103570004F5F5F4F4838510511F03196EDCFEAEEBD
:10358000F8E08081F999FECF1FBA52BD41BD80BDE0
:103590000FB6F894FA9AF99A0FBE4F5F5F4F483909
:1035A000510511F03196EDCFEEEFF8E08081F999F9
:1035B000FECF1FBA52BD41BD80BD0FB6F894FA9A36
:1035C000F99A0FBE4F5F5F4F4C39510511F031969C
:1035D000EDCFE2E0F9E08081F999FECF1FBA52BD4C
:1035E00041BD80BD0FB6F894FA9AF99A0FBE4F5FAD
:1035F0005F4F403A510511F03196EDCFEAEFF8E018
:103600008081F999FECF1FBA52BD41BD80BD0FB672
:10361000F894FA9AF99A0FBE4F5F5F4F443A5105FA
:1036200011F03196EDCFE2E1F9E08081F999FECF1A
:103630001FBA52BD41BD80BD0FB6F894FA9AF99AEF
:103640000FBE4F5F5F4F483A510511F03196EDCFF5
:10365000E6ECF8E08081F999FECF1FBA52BD41BD7A
:1036600080BD0FB6F894FA9AF99A0FBE4F5F5F4F7C
:103670004C3A510511F03196EDCFE6E0F9E080814A
:10368000F999FECF1FBA52BD41BD80BD0FB6F89467
:10369000FA9AF99A0FBE4F5F5F4F403B510511F008
:1036A0003196EDCFEAE0F9E08081F999FECF1FBABB
:1036B00052BD41BD80BD0FB6F894FA9AF99A0FBE7B
:1036C0004F5F5F4F443B510511F03196EDCFEEE077
:1036D000F9E08081F999FECF1FBA52BD41BD80BD8E
:1036E0000FB6F894FA9AF99A0FBE4F5F5F4F483BB6
:1036F000510511F03196EDCFE7EDF6E08081F999B3
:10370000FECF1FBA52BD41BD80BD0FB6F894FA9AE4
:10371000F99A0FBE4F5F5F4F443C510511F031964F
:10372000EDCF84EB90E09A83898386E490E09C83DC
:103730008B832FEF30E03E832D8380EF90E09887DE
:103740008F8384E690E09A8789873C872B87FE01E8
:1037500031968081F999FECF1FBA52BD41BD80BD1F
:103760000FB6F894FA9AF99A0FBE4F5F5F4F463C36
:10377000510571F7FE0133968081F999FECF1FBA8A
:1037800052BD41BD80BD0FB6F894FA9AF99A0FBEAA
:103790004F5F5F4F483C510511F03196EDCFFE0170
:1037A00035968081F999FECF1FBA52BD41BD80BDCB
:1037B0000FB6F894FA9AF99A0FBE4F5F5F4F4A3CE2
:1037C000510511F03196EDCFFE0137968081F999C0
:1037D000FECF1FBA52BD41BD80BD0FB6F894FA9A14
:1037E000F99A0FBE4F5F5F4F4C3C510511F0319677
:1037F000EDCFFE0139968081F999FECF1FBA52BDF7
:1038000041BD80BD0FB6F894FA9AF99A0FBE4F5F8A
:103810005F4F4E3C510511F03196EDCFFE013B96C6
:103820008081F999FECF1FBA52BD41BD80BD0FB650
:10383000F894FA9AF99A0FBE4F5F5F4F403D5105D9
:1038400011F03196EDCFE5E8F3E08081F999FECFF4
:103850001FBA52BD41BD80BD0FB6F894FA9AF99ACD
:103860000FBE4F5F5F4F443D510511F03196EDCFD4
:10387000E9E8F3E08081F999FECF1FBA52BD41BD5E
:1038800080BD0FB6F894FA9AF99A0FBE4F5F5F4F5A
:10389000483D510511F03196EDCFEDE8F3E0808120
:1038A000F999FECF1FBA52BD41BD80BD0FB6F89445
:1038B000FA9AF99A0FBE4F5F5F4F4C3D510511F0D8
:1038C0003196EDCF80E290E09E878D87FE013D9698
:1038D0008081F999FECF1FBA52BD41BD80BD0FB6A0
:1038E000F894FA9AF99A0FBE4D3D510521F03196A0
:1038F0004DED50E0EDCF80911A0290911B02A09106
:103900001C02B0911D028B8B9C8BAD8BBE8BFE017C
:10391000739684E690E02081F999FECF1FBA92BD9C
:1039200081BD20BD0FB6F894FA9AF99A0FBE87367A
:10393000910519F001963196EECFEDE9F2E0949100
:1039400008C08091C00085FFFCCF9093C6003196DF
:1039500094919923B1F7E7EAF4E0949108C080913B
:10396000C00085FFFCCF9093C600319694919923B7
:10397000B1F78091C00085FFFCCF8AE08093C6003C
:1039800066960FB6F894DEBF0FBECDBFCF91DF9124
:103990000895DF93CF93CDB7DEB7E0970FB6F894D5
:1039A000DEBF0FBECDBFDE011196EEEBF3E080E18E
:1039B00001900D928150E1F7DE015196EEEAF3E0BD
:1039C00080E101900D928150E1F7DE019196EEE9E0
:1039D000F3E080E101900D928150E1F789819A81B5
:1039E000AB81BC818093DA089093DB08A093DC085C
:1039F000B093DD0889899A89AB89BC898093CA080C
:103A00009093CB08A093CC08B093CD0889A19AA13C
:103A1000ABA1BCA18093EA089093EB08A093EC08BB
:103A2000B093ED088D819E81AF81B8858093DE08CB
:103A30009093DF08A093E008B093E1088D899E89F8
:103A4000AF89B88D8093CE089093CF08A093D0080B
:103A5000B093D1088DA19EA1AFA1B8A58093EE0827
:103A60009093EF08A093F008B093F10889859A85A8
:103A7000AB85BC858093E2089093E308A093E408AB
:103A8000B093E508898D9A8DAB8DBC8D8093D2085B
:103A90009093D308A093D408B093D50889A59AA58C
:103AA000ABA5BCA58093F2089093F308A093F4080B
:103AB000B093F5088D859E85AF85B8898093E6081B
:103AC0009093E708A093E808B093E9088D8D9E8D48
:103AD000AF8DB8A18093D6089093D708A093D8084B
:103AE000B093D9088DA59EA5AFA5B8A98093F60877
:103AF0009093F708A093F808B093F9080E94464AFB
:103B000080E090E0AAEFB4E48093FE089093FF0871
:103B1000A0930009B093010980E090E8ABE3B5E41D
:103B20008093020990930309A0930409B0930509B7
:103B300020E030E040E050E02093FA083093FB08AA
:103B40004093FC085093FD0880E29EE4A0E0B0E0C2
:103B50008093C6089093C708A093C808B093C9087B
:103B600020931209309313094093140950931509B7
:103B700080E090E0A0E0B1E480930609909307090B
:103B8000A0930809B09309098DEC9CECACECBEE362
:103B900080930A0990930B09A0930C09B0930D0927
:103BA00080E090E0A0EAB0E480930E0990930F09C2
:103BB000A0931009B09311092093DF063093E0061B
:103BC0004093E1065093E2062093DB063093DC0637
:103BD0004093DD065093DE062093D7063093D80637
:103BE0004093D9065093DA0688EB9EE1AFECB1E43E
:103BF0008093850390938603A0938703B0938803F3
:103C00006CEE71E588EF9FE30E944A776093890329
:103C100070938A0380938B0390938C036CE57FE011
:103C20008DEA92E40E94567760938D0370938E0321
:103C300080938F03909390030E94477680E090E0FA
:103C4000A0E8BFE38093910390939203A093930322
:103C5000B0939403EDE9F2E0949108C08091C00024
:103C600085FFFCCF9093C600319694919923B1F7CC
:103C7000E3EAF2E0949108C08091C00085FFFCCF98
:103C80009093C600319694919923B1F78091C0002A
:103C900085FFFCCF8AE08093C600E0960FB6F894CB
:103CA000DEBF0FBECDBFCF91DF910895CF93DF93DD
:103CB000CDE9D2E0FE01949108C08091C00085FF5B
:103CC000FCCF9093C600319694919923B1F7E7E920
:103CD000F4E0949108C08091C00085FFFCCF9093E0
:103CE000C600319694919923B1F78091C00085FF69
:103CF000FCCF8AE08093C600FE019491EDE9F2E0EA
:103D000008C08091C00085FFFCCF9093C60031961B
:103D100094919923B1F74091DA085091DB086091B2
:103D2000DC087091DD088FE894E00E94482A4091F9
:103D3000DE085091DF086091E0087091E1088CE89E
:103D400094E00E94482A4091E2085091E308609173
:103D5000E4087091E50889E894E00E94482A4091BF
:103D6000E6085091E7086091E8087091E90886E854
:103D700094E00E94482AEEE1F2E007C08091C00082
:103D800085FFFCCF31969093C60090819923B1F7BF
:103D90008091C00085FFFCCF8AE08093C600FE01C1
:103DA0009491EDE9F2E008C08091C00085FFFCCF5E
:103DB0009093C600319694919923B1F7ECE6F4E024
:103DC000949108C08091C00085FFFCCF9093C600FD
:103DD000319694919923B1F78091C00085FFFCCF73
:103DE0008AE08093C600FE019491EDE9F2E008C0FC
:103DF0008091C00085FFFCCF9093C60031969491CE
:103E00009923B1F74091CA085091CB086091CC0832
:103E10007091CD0883E694E00E94482A4091CE0834
:103E20005091CF086091D0087091D10880E694E05D
:103E30000E94482A4091D2085091D3086091D4083A
:103E40007091D5088DE594E00E94482A4091D608EB
:103E50005091D7086091D8087091D9088AE594E00C
:103E60000E94482AEEE1F2E007C08091C00085FF81
:103E7000FCCF31969093C60090819923B1F7809141
:103E8000C00085FFFCCF8AE08093C600FE019491BC
:103E9000EDE9F2E008C08091C00085FFFCCF90936F
:103EA000C600319694919923B1F7ECE3F4E0949134
:103EB00008C08091C00085FFFCCF9093C60031966A
:103EC00094919923B1F78091C00085FFFCCF8AE0DF
:103ED0008093C600FE019491EDE9F2E008C0809164
:103EE000C00085FFFCCF9093C60031969491992332
:103EF000B1F74091EA085091EB086091EC0870919D
:103F0000ED0883E394E00E945A2A4091EE08509114
:103F1000EF086091F0087091F10880E394E00E944E
:103F20005A2A4091F2085091F3086091F408709178
:103F3000F5088DE294E00E945A2A4091F6085091CB
:103F4000F7086091F8087091F9088AE294E00E94FD
:103F50005A2AEEE1F2E007C08091C00085FFFCCF55
:103F600031969093C60090819923B1F78091C0005B
:103F700085FFFCCF8AE08093C600FE019491EDE9B5
:103F8000F2E008C08091C00085FFFCCF9093C6008E
:103F9000319694919923B1F7E5EFF3E0949108C03D
:103FA0008091C00085FFFCCF9093C600319694911C
:103FB0009923B1F78091C00085FFFCCF8AE0809300
:103FC000C600FE019491EDE9F2E008C08091C000C6
:103FD00085FFFCCF9093C600319694919923B1F759
:103FE0004091FE085091FF0860910009709101090D
:103FF0008CEE93E00E94482A4091020950910309F7
:10400000609104097091050989EE93E00E94482AA5
:10401000EEE1F2E007C08091C00085FFFCCF319651
:104020009093C60090819923B1F78091C00085FFDD
:10403000FCCF8AE08093C600FE019491EDE9F2E0A6
:1040400008C08091C00085FFFCCF9093C6003196D8
:1040500094919923B1F7E6E3F3E0949108C080913D
:10406000C00085FFFCCF9093C600319694919923B0
:10407000B1F78091C00085FFFCCF8AE08093C60035
:10408000FE019491EDE9F2E008C08091C00085FF47
:10409000FCCF9093C600319694919923B1F740914B
:1040A000FA085091FB086091FC087091FD088DE2C0
:1040B00093E00E94482A409112095091130960919F
:1040C0001409709115098AE293E00E94482A4091F0
:1040D000C6085091C7086091C8087091C90887E266
:1040E00093E00E945A2A4091060950910709609175
:1040F00008097091090984E293E00E94482A4091DE
:104100000A0950910B0960910C0970910D0981E227
:1041100093E00E94482A40910E0950910F09609146
:104120001009709111098EE193E00E94482AEEE196
:10413000F2E007C08091C00085FFFCCF31969093DC
:10414000C60090819923B1F78091C00085FFFCCF14
:104150008AE08093C600FE019491EDE9F2E008C088
:104160008091C00085FFFCCF9093C600319694915A
:104170009923B1F7ECE0F3E0949108C08091C0007E
:1041800085FFFCCF9093C600319694919923B1F7A7
:104190008091C00085FFFCCF8AE08093C600FE01BD
:1041A0009491EDE9F2E008C08091C00085FFFCCF5A
:1041B0009093C600319694919923B1F74091D70618
:1041C0005091D8066091D9067091DA0683E093E0A9
:1041D0000E94482A4091DB065091DC066091DD0682
:1041E0007091DE0680E093E00E94482A4091DF064D
:1041F0005091E0066091E1067091E2068DEF92E049
:104200000E94482AEEE1F2E007C08091C00085FFDD
:10421000FCCF31969093C60090819923B1F780919D
:10422000C00085FFFCCF8AE08093C600FE01949118
:10423000EDE9F2E008C08091C00085FFFCCF9093CB
:10424000C600319694919923B1F7EFEEF2E0949184
:1042500008C08091C00085FFFCCF9093C6003196C6
:1042600094919923B1F78091C00085FFFCCF8AE03B
:104270008093C600FE019491EDE9F2E008C08091C0
:10428000C00085FFFCCF9093C6003196949199238E
:10429000B1F7409185035091860360918703709137
:1042A000880385EE92E00E94482A6091890370910C
:1042B0008A0380918B0390918C030E945077AB010D
:1042C000BC0182EE92E00E94482A60918D037091B9
:1042D0008E0380918F03909190030E945C77AB01D5
:1042E000BC018FED92E00E94482AEEE1F2E007C0A7
:1042F0008091C00085FFFCCF31969093C6009081DD
:104300009923B1F78091C00085FFFCCF8AE08093AC
:10431000C600DF91CF9108950F931F93DF93CF9342
:10432000CDB7DEB766970FB6F894DEBF0FBECDBF30
:1043300080911A0290911B02A0911C02B0911D0263
:104340008B8B9C8BAD8BBE8BFE013F9604E610E001
:10435000F999FECF12BD01BDF89A80B580830F5F39
:104360001F4F0836110511F03196F2CFCE0143965A
:10437000BE01615F7F4F43E050E00E941B0E00973B
:1043800009F086C1EAEDF8E0F999FECF12BD01BD52
:10439000F89A80B580830F5F1F4F0837110511F021
:1043A0003196F2CFEAECF8E0F999FECF12BD01BDEB
:1043B000F89A80B580830F5F1F4F0838110511F000
:1043C0003196F2CFEAEEF8E0F999FECF12BD01BDC9
:1043D000F89A80B580830F5F1F4F0839110511F0DF
:1043E0003196F2CF0E94464AEEEFF8E0F999FECFFF
:1043F00012BD01BDF89A80B580830F5F1F4F0C3945
:10440000110511F03196F2CFE2E0F9E0F999FECF13
:1044100012BD01BDF89A80B580830F5F1F4F003A2F
:10442000110511F03196F2CFEAEFF8E0F999FECFDD
:1044300012BD01BDF89A80B580830F5F1F4F043A0B
:10444000110511F03196F2CFE2E1F9E0F999FECFD2
:1044500012BD01BDF89A80B580830F5F1F4F083AE7
:10446000110511F03196F2CFE6ECF8E0F999FECFA4
:1044700012BD01BDF89A80B580830F5F1F4F0C3AC3
:10448000110511F03196F2CFE6E0F9E0F999FECF8F
:1044900012BD01BDF89A80B580830F5F1F4F003BAE
:1044A000110511F03196F2CFEAE0F9E0F999FECF6B
:1044B00012BD01BDF89A80B580830F5F1F4F043B8A
:1044C000110511F03196F2CFEEE0F9E0F999FECF47
:1044D00012BD01BDF89A80B580830F5F1F4F083B66
:1044E000110511F03196F2CFE7EDF6E0F999FECF24
:1044F00012BD01BDF89A80B580830F5F1F4F043C49
:10450000110511F03196F2CFFE013196F999FECFE7
:1045100012BD01BDF89A80B580830F5F1F4F063C26
:10452000110599F7FE013396F999FECF12BD01BD31
:10453000F89A80B580830F5F1F4F083C110511F07A
:104540003196F2CFFE013596F999FECF12BD01BD2D
:10455000F89A80B580830F5F1F4F0A3C110511F058
:104560003196F2CFFE013796F999FECF12BD01BD0B
:10457000F89A80B580830F5F1F4F0C3C110511F036
:104580003196F2CFFE013996F999FECF12BD01BDE9
:10459000F89A80B580830F5F1F4F0E3C110511F014
:1045A0003196F2CFFE013B96F999FECF12BD01BDC7
:1045B000F89A80B580830F5F1F4F003D110511F001
:1045C0003196F2CFE5E8F3E0F999FECF12BD01BDD7
:1045D000F89A80B580830F5F1F4F043D110511F0DD
:1045E0003196F2CFE9E8F3E0F999FECF12BD01BDB3
:1045F000F89A80B580830F5F1F4F083D110511F0B9
:104600003196F2CFEDE8F3E0F999FECF12BD01BD8E
:10461000F89A80B580830F5F1F4F0C3D110511F094
:104620003196F2CFFE013D96F999FECF12BD01BD44
:10463000F89A80B580830D3D110521F031960DED7E
:1046400010E0F2CF0E944776EDE9F2E0949108C0C5
:104650008091C00085FFFCCF9093C6003196949165
:104660009923B1F7E5ECF2E0949108C08091C00085
:1046700085FFFCCF9093C600319694919923B1F7B2
:104680008091C00085FFFCCF8AE08093C60001C006
:1046900080D90CDB66960FB6F894DEBF0FBECDBF97
:1046A000CF91DF911F910F9108951F920F920FB636
:1046B0000F920BB60F9211242F933F934F938F932A
:1046C0009F93EF93FF934091C600E091C004F09157
:1046D000C10431969F012F77307031978091C204C9
:1046E0009091C3042817390739F0E05CFB4F4083F1
:1046F0003093C1042093C004FF91EF919F918F915B
:104700004F913F912F910F900BBE0F900FBE0F90C6
:104710001F9018959A01AB01203081EE380780E098
:10472000480780E0580749F182E08093C00060E0CC
:1047300079E08DE390E00E943E8D21503040404072
:104740005040CA01B90122E030E040E050E00E9450
:104750003E8D3093C5002093C4008091C1008061DC
:104760008093C1008091C10088608093C1008091D6
:10477000C10080688093C10008951092C00020E1BC
:1047800030E0E7CF2091C2043091C3048091C0048F
:104790009091C1048217930719F42FEF3FEF0EC0D9
:1047A000F901E05CFB4F80812F5F3F4F2F77307026
:1047B0003093C3042093C204282F30E0C901089528
:1047C0008091C2049091C3049093C1048093C0046B
:1047D000089508952F923F924F925F926F927F9229
:1047E0008F929F92AF92BF92CF92DF92EF92FF9201
:1047F0000F931F93DF93CF93CDB7DEB7A0970FB67C
:10480000F894DEBF0FBECDBF1C016A017B014115CC
:1048100051056105710541F440E350E060E070E04E
:1048200020E030E08BD055C0882499245401422EDA
:1048300055246624772401E010E00C0F1D1F080D9D
:10484000191DC701B601A30192010E941C8DF80138
:1048500060830894811C911CA11CB11CC701B60186
:10486000A30192010E941C8DC901DA016C017D0136
:10487000C114D104E104F104F1F681E0E82EF12C39
:10488000EC0EFD1EE80CF91C3E010894611C711C25
:10489000D501C4010197A109B1096C01C818D90853
:1048A00015C0F601EE0DFF1D40814A3010F4405D49
:1048B00001C0495C552747FD5095652F752FC101F3
:1048C00020E030E03BD00894E108F1086E147F044A
:1048D00041F7A0960FB6F894DEBF0FBECDBFCF91C3
:1048E000DF911F910F91FF90EF90DF90CF90BF90DD
:1048F000AF909F908F907F906F905F904F903F9080
:104900002F9008952115310539F48091C00085FF5D
:10491000FCCF4093C60008955DCFEF92FF920F93B6
:104920001F939A01E62EFF2400E010E0B801A701D2
:10493000E9DF1F910F91FF90EF900895EF92FF92A2
:104940000F931F93CF93DF93EC017A018B01211515
:10495000310539F48091C00085FFFCCFE092C6009C
:1049600019C02A303105A9F477FF0FC04DE250E09D
:1049700060E070E020E030E0E1DF10950095F09419
:10498000E094E11CF11C011D111DCE01B801A7012D
:104990002AE020DFDF91CF911F910F91FF90EF90E0
:1049A0000895EF92FF920F931F937B019A010027C6
:1049B000F7FC0095102FB801A701C0DF1F910F91E0
:1049C000FF90EF9008950F931F938C014DE050E0FE
:1049D00060E070E020E030E0B1DFC8014AE050E084
:1049E00060E070E020E030E0A9DF1F910F910895B2
:1049F000CF92DF92EF92FF920F931F938C019A0157
:104A00006B01EE24FF24B701A6017CDFC801DBDFC8
:104A10001F910F91FF90EF90DF90CF9008959F929C
:104A2000AF92BF92CF92DF92EF92FF920F931F93BC
:104A3000CF93DF93EC017A018B01922ECB01BA0167
:104A400020E030E040E050E00E943889882364F4A0
:104A5000CE014DE250E060E070E020E030E06EDF3B
:104A600017FB109517F9109520E030E040E05FE368
:104A7000AA240BC0CA01B90120E030E040E251E4B1
:104A80000E943F899B01AC01A394A91498F3C8012B
:104A9000B7010E945F887B018C010E94AC895B0199
:104AA0006C010E94D8899B01AC01C801B7010E942A
:104AB0005E887B018C01CE01B601A5012AE030E0C1
:104AC00021DF992099F1EFE1F2E007C08091C00069
:104AD00085FFFCCF31969093C60090819923B1F762
:104AE00025C0C801B70120E030E040E251E40E9457
:104AF000188C7B018C010E94A7895B016C01CC247E
:104B0000B7FCC094DC2CCE01B601A5012AE030E050
:104B100015DFC601B5010E94DA899B01AC01C8010D
:104B2000B7010E945E887B018C019A949920C9F696
:104B3000DF91CF911F910F91FF90EF90DF90CF9079
:104B4000BF90AF909F9008956ACF08950895809187
:104B5000FA0608950F931F93CF93DF938130910549
:104B600049F46F5F7F4F09F046C085EC94E00E94E6
:104B7000D01941C0892B09F03EC06F5F7F4FD9F536
:104B800086E194E09093900680938F06809196063C
:104B9000882321F083E996E00E94CA5FCBE4D6E047
:104BA00006E114E005C06F9785E0C531D80751F0E4
:104BB000198308838F818823B1F3CE0104960E9464
:104BC000CA5FF1CF86E194E0998388838F8188233F
:104BD00021F0CE0104960E94CA5F86E194E0909392
:104BE000F5048093F4048091FB04882321F088EF7E
:104BF00094E00E94CA5FDF91CF911F910F910895B9
:104C000080E090E06FEF7FEFA5CF81E090E06FEF65
:104C10007FEFA0CF0E9426778091FA06882309F0C3
:104C200036C081E08093FA068091FD069091FE06E1
:104C3000A091FF06B09100078093010790930207AF
:104C4000A0930307B0930407EDEBF4E0949108C040
:104C50008091C00085FFFCCF9093C600319694915F
:104C60009923B1F7E4ECF4E0949108C08091C0007E
:104C700085FFFCCF9093C600319694919923B1F7AC
:104C80008091C00085FFFCCF8AE08093C600089524
:104C9000F8940E942677179A169A159A149A139ADE
:104CA00084E060E00E941187EDEBF4E0949108C08D
:104CB0008091C00085FFFCCF9093C60031969491FF
:104CC0009923B1F7EAE3F5E0949108C08091C00020
:104CD00085FFFCCF9093C600319694919923B1F74C
:104CE0008091C00085FFFCCF8AE08093C600FFCF93
:104CF0000E945C8560930507709306078093070701
:104D000090930807E0912E07F0912F07E05DF84F90
:104D100080818823A9F4E9E5F5E0949108C08091A9
:104D2000C00085FFFCCF9093C600319694919923E3
:104D3000B1F78091C00085FFFCCF8AE08093C60068
:104D40000895EF92FF920F931F930E945C85E0906D
:104D50000907F0900A0700910B0710910C072091AA
:104D60000507309106074091070750910807621B1D
:104D7000730B840B950BE616F7060807190730F43A
:104D8000E114F1040105110509F082DF8091670348
:104D900090916803A0916903B0916A030097A105FF
:104DA000B10531F10E945C8520910507309106071D
:104DB0004091070750910807621B730B840B950BFA
:104DC00020916703309168034091690350916A0311
:104DD000261737074807590758F49091070E809116
:104DE000080E981729F4179A169A159A149A139A76
:104DF0000E94B34C1F910F91FF90EF9008956F9216
:104E00007F928F929F92AF92BF92CF92DF92EF925A
:104E1000FF920F931F93F82E60910D0770910E076C
:104E200080910F0790911007209111073091120780
:104E300040911307509114070E94538B3B014C0182
:104E400000D000D00DB71EB70F5F1F4F6091460313
:104E500070914703882777FD8095982F0E94DA8903
:104E600020916B0330916C0340916D0350916E0360
:104E70000E94188C20E030E040E752E40E943F8915
:104E800020E030E048EC52E40E943F895B016C0175
:104E9000F8016082718282829382F4828091EF06AF
:104EA000858387EC96E069E177E04DE057E020E00C
:104EB00001E032E0E32E0E94A24580911907909113
:104EC0001A07A0911B07B0911C078093C706909307
:104ED000C806A093C906B093CA0680911D07909199
:104EE0001E07A0911F07B09120078093CB069093D7
:104EF000CC06A093CD06B093CE0680912107909169
:104F00002207A0912307B09124078093CF069093A6
:104F1000D006A093D106B093D20680912507909138
:104F20002607A0912707B09128078093D306909376
:104F3000D406A093D506B093D6068DB79EB7069635
:104F40000FB6F8949EBF0FBE8DBF0E945C85609324
:104F500005077093060780930707909308071F9132
:104F60000F91FF90EF90DF90CF90BF90AF909F9008
:104F70008F907F906F900895CF92DF92EF92FF9283
:104F80000F931F930E945C8560930507709306073B
:104F900080930707909308076091C7067091C80631
:104FA0008091C9069091CA062091190730911A077D
:104FB00040911B0750911C070E943889882309F0F3
:104FC0007AC06091CB067091CC068091CD0690910D
:104FD000CE0620911D0730911E0740911F0750916A
:104FE00020070E943889882309F065C060916B030F
:104FF00070916C0380916D0390916E0320E030E01E
:1050000040E752E40E943F897B018C0189E197E0EF
:105010006DE177E041E257E025E237E0EFEECE2E9A
:10502000E6E0DE2E0E949A4F8091190790911A07B0
:10503000A0911B07B0911C078093C7069093C806E8
:10504000A093C906B093CA0680911D0790911E07D0
:10505000A0911F07B09120078093CB069093CC06B8
:10506000A093CD06B093CE068091210790912207A0
:10507000A0912307B09124078093CF069093D00688
:10508000A093D106B093D206809125079091260770
:10509000A0912707B09128078093D3069093D40658
:1050A000A093D506B093D6061F910F91FF90EF9075
:1050B000DF90CF9008956091460370914703882751
:1050C00077FD8095982F0E94DA8920916B033091AB
:1050D0006C0340916D0350916E030E94188C20E088
:1050E00030E040E752E40E943F8920E030E048ECA5
:1050F00052E488CF84EC94E063DBECE5F5E0949136
:1051000008C08091C00085FFFCCF9093C600319607
:1051100094919923B1F74091FD065091FE0660915C
:10512000FF06709100074F5F5F4F6F4F7F4F84EC1A
:1051300094E02AE030E002DC8091C00085FFFCCFE3
:105140008AE08093C600D4CD2F923F924F925F9217
:105150006F927F928F929F92AF92BF92CF92DF9287
:10516000EF92FF920F931F93DF93CF9300D000D065
:10517000CDB7DEB78330910508F050C1FC01E25491
:10518000F94FD4903C01660C771C660C771C930198
:105190002953394F3A83298380E090E0A0E0B0E0C2
:1051A000F90180839183A283B38387EC96E06BEC53
:1051B00076E04FEC56E023ED36E00E948E4AF30194
:1051C000EF53F94FE590F590059114916D2D7727E8
:1051D00067FD7095882777FD8095982F0E94DA8962
:1051E0001B012C019301275E384F3E832D83C8019C
:1051F000B70120E030E040EC5FE30E94188CA20190
:1052000091010E94188CAD81BE816D937D938D9329
:105210009C931397F301EA5CFC4FFC83EB83608162
:1052200071818281938160936B0370936C0380938F
:105230006D0390936E0320E030E040E752E40E945B
:105240003F897B018C0189E197E06DE177E041E2E4
:1052500057E025E237E0AFEECA2EA6E0DA2E0E9434
:105260009A4F0E94DD6E80E090E0A0E0B0E0E9811E
:10527000FA8180839183A283B38387EC96E06BEC01
:1052800076E04FEC56E023ED36E00E948E4AF301C3
:10529000E353F94F85909590A590B490C501B40162
:1052A0009058A20191010E94188CAD81BE816D932E
:1052B0007D938D939C93139760916B0370916C0316
:1052C00080916D0390916E0320E030E040E752E45E
:1052D0000E943F897B018C0189E197E06DE177E0D5
:1052E00041E257E025E237E00E949A4F0E94DD6ECE
:1052F000C501B401A50194010E945F88A20191013A
:105300000E94188CED81FE81608371838283938378
:10531000AB81BC816D917D918D919C9120E030E0BD
:1053200040E05FE30E94188C60936B0370936C0302
:1053300080936D0390936E0320E030E040E752E4E9
:105340000E943F897B018C0189E197E06DE177E064
:1053500041E257E025E237E00E949A4F0E94DD6E5D
:10536000F301E752F94F6591759185919491F3019D
:10537000E952F94FA080B180C280D380A601950187
:105380000E945F887B018C01CB01D801E981FA8101
:1053900080839183A283B383F301EB51F94F65912D
:1053A000759185919491F3EE8F2EF6E09F2E860CE9
:1053B000971CA60195010E945F88D4016D937D938F
:1053C0008D939C931397F301EF50F94F659175916D
:1053D00085919491EAE4F3E06E0E7F1EA60195019B
:1053E0000E945F88D3016D937D938D939C93139757
:1053F000C701D801ED81FE8180839183A283B383AD
:1054000080E090E0A0E0B0E080936B0390936C03A9
:10541000A0936D03B0936E030E94566C26960FB650
:10542000F894DEBF0FBECDBFCF91DF911F910F91DA
:10543000FF90EF90DF90CF90BF90AF909F908F90B4
:105440007F906F905F904F903F902F900895409184
:105450002E0750912F0720E630E0B901469F9001BA
:10546000479F300D569F300D1124682F772767FD19
:105470007095C901865C984F0E94090E9C0190931B
:1054800039078093380780E0232B09F081E00895E5
:10549000FC01949108C08091C00085FFFCCF9093DF
:1054A000C600319694919923B1F784EC94E022E000
:1054B00030E04ACBFC01949108C08091C00085FF88
:1054C000FCCF9093C600319694919923B1F784EC68
:1054D00094E02AE030E016CA8091380790913907AD
:1054E000019660E070E04AE050E00C94800C8091FE
:1054F000380790913907019660E070E00C94230B17
:10550000CF93DF93EC018091EF068093FC0684E556
:105510009EDF882309F46DC0EADF0E94AC89262F44
:105520006093FC06623008F464C0E7EBF4E0949109
:1055300008C08091C00085FFFCCF9093C6003196D3
:1055400094919923B1F7C936D10599F0CA36D1059E
:1055500024F4C836D105F1F50FC0CD36D10531F0B0
:10556000CA3DD105B9F5E1E2F2E031C0E8E3F2E08D
:1055700023C0EFE4F2E015C0E6E6F2E007C0809158
:10558000C00085FFFCCF31969093C600908199238F
:10559000B1F720C08091C00085FFFCCF3196909379
:1055A000C60090819923B1F715C08091C00085FF96
:1055B000FCCF31969093C60090819923B1F70AC031
:1055C0008091C00085FFFCCF31969093C6009081FA
:1055D0009923B1F784EC94E0622F40E050E09DD92C
:1055E0008091C00085FFFCCF8AE08093C60081E0F7
:1055F00001C080E0DF91CF910895AF92BF92CF922A
:10560000DF92EF92FF920F931F93CF93DF9317ECEC
:10561000E12E16E0F12EC9E1D7E000E010E0F8013C
:10562000E253FC4F808113DF882331F160DF5B019F
:105630006C01F801EF53F94F8081882311F061E08C
:1056400002C06091290770E0882777FD8095982F28
:105650000E94DA89F70120813181428153810E94C1
:10566000188C9B01AC01C601B5010E945F8868835C
:1056700079838A839B8309C0F70180819181A2810C
:10568000B38188839983AA83BB830F5F1F4F84E014
:1056900090E0E80EF91E24960430110509F0BFCF02
:1056A00086E4D5DE8823D9F022DF7B018C0160936C
:1056B0002A0770932B0780932C0790932D0720E0E7
:1056C00030E040E050E00E94468B181644F4E0922F
:1056D0006B03F0926C0300936D0310936E03DF91E4
:1056E000CF911F910F91FF90EF90DF90CF90BF90DF
:1056F000AF90089582DF89E4AADE882351F0F7DEB7
:1057000060930D0770930E0780930F079093100717
:105710000CC080E090E0A0E0B0E080930D07909393
:105720000E07A0930F07B09310078AE490DE88233A
:1057300051F0DDDE60931107709312078093130719
:1057400090931407089580E090E0A0E0B0E080938B
:10575000110790931207A0931307B09314070895AD
:105760002F923F924F925F926F927F928F929F9271
:10577000AF92BF92CF92DF92EF92FF920F931F935F
:10578000DF93CF93CDB7DEB76E970FB6F894DEBF39
:105790000FBECDBF87E45BDE882309F402C2A7DE1B
:1057A0000E94A7896430710509F43CC06530710519
:1057B00054F46230710531F16330710554F577238B
:1057C000CCF40C94343E6A35710509F499C16B35FB
:1057D000710534F46C31710511F00C94343E5FC0E6
:1057E0006B35710509F490C16C35710511F00C949D
:1057F000343E8FC18091FA06882321F4FEDEBCDBA3
:105800000C94553E8091FA06882319F473DF81E0E9
:1058100006C08091FA06882329F46CDF80E0EFDA75
:105820000C94553E80E513DE882321F4CC24DD243E
:10583000760105C05CDE0E94AC896B017C0183E5CA
:1058400006DE882359F053DE20E030E04AE754E4D6
:105850000E94188C0E94AC896B017C010E94DD6E55
:105860000E945C854B015C018C0C9D1CAE1CBF1C16
:105870000E945C8560930507709306078093070775
:105880009093080703C00E940B7C5BDA0E945C8542
:10589000681579058A059B05B0F30C94343E809118
:1058A0006B0390916C03A0916D03B0916E03809394
:1058B000340790933507A0933607B093370780914C
:1058C0004603909147039093C6068093C50684E6ED
:1058D00090E090934703809346030E945C85609319
:1058E000050770930607809307079093080781E0E8
:1058F0000E945D6C8091C7069091C806A091C90670
:10590000B091CA068093190790931A07A0931B07BA
:10591000B0931C078091CB069091CC06A091CD0648
:10592000B091CE0680931D0790931E07A0931F078A
:10593000B09320078091CF069091D006A091D10618
:10594000B091D2068093210790932207A09323075A
:10595000B09324078091D3069091D406A091D506E8
:10596000B091D6068093250790932607A09327072A
:10597000B093280780E090E0A0E0B0E080936B0354
:1059800090936C03A0936D03B0936E0388E55FDD85
:10599000882351F489E55BDD882331F48AE557DDFE
:1059A000882311F481E001C080E080936F03882395
:1059B00021F488E54CDD882319F080E090E0C4DB19
:1059C00080916F03882321F489E541DD882319F054
:1059D00081E090E0B9DB80916F03882321F48AE5B0
:1059E00036DD882319F082E090E0AEDB88E52FDD1C
:1059F0008823C9F071DD611571058105910599F064
:105A000076DD2091D7063091D8064091D906509185
:105A1000DA060E945F886093C7067093C806809379
:105A2000C9069093CA0689E512DD8823C9F054DDC2
:105A3000611571058105910599F059DD2091DB060D
:105A40003091DC064091DD065091DE060E945F88B1
:105A50006093CB067093CC068093CD069093CE06D0
:105A60008AE5F5DC8823C9F037DD6115710581050C
:105A7000910599F03CDD2091DF063091E0064091E0
:105A8000E1065091E2060E945F886093CF06709312
:105A9000D0068093D1069093D20687EC96E06BEC0B
:105AA00076E04FEC56E023ED36E00E948E4A80E02F
:105AB0000E945D6C8091340790913507A091360764
:105AC000B091370780936B0390936C03A0936D03A1
:105AD000B0936E038091C5069091C60690934703DC
