:100000000C945C0A0C94890A0C94890A0C94890A51
:100010000C94890A0C94890A0C94890A0C94890A14
:100020000C94890A0C94890A0C94890A0C94890A04
:100030000C94890A0C94890A0C94890A0C94890AF4
:100040000C94890A0C94EC680C94890A0C94890A23
:100050000C94890A0C94890A0C94DF740C94217C0A
:100060000C94890A0C94EA3E0C94890A0C94890A2F
:100070000C94890A0C94890A0C94890A0C94890AB4
:100080000C94890A0C94890A0C94890A0C94890AA4
:100090000C94890A0C94890A0C94890A0C94890A94
:1000A0000C94890A0C94890A0C94890A0C94890A84
:1000B0000C94890A0C94890A0C94890A0C94890A74
:1000C0000C94890A0C94890A0C94890A0C94890A64
:1000D0000C94890A0C94890A0C94890A0C94890A54
:1000E0000C94890A084AD73B3BCE016E84BCBFFD05
:1000F000C12F3D6C74319ABD56833DDA3D00C77FF8
:1001000011BED9E4BB4C3E916BAAAABE0000008090
:100110003F05A84CCDB2D44EB93836A9020C50B91F
:10012000918688083CA6AAAA2ABE000000803F65E6
:1001300063686F3A0043616E6E6F7420656E74651C
:1001400072207375626469723A004572726F723A16
:10015000006572726F722077726974696E672074BD
:100160006F2066696C65004E6F7420534420707276
:10017000696E74696E67002F005344207072696E57
:1001800074696E67206279746520002E0044656C86
:100190006574696F6E206661696C65642C204669C0
:1001A0006C653A200046696C652064656C65746511
:1001B000643A002E006F70656E206661696C65643C
:1001C0002C2046696C653A200057726974696E6725
:1001D00020746F2066696C653A20002E006F706590
:1001E0006E206661696C65642C2046696C653A20F6
:1001F000002E006F70656E206661696C65642C204E
:1002000046696C653A200046696C652073656C65CB
:1002100063746564002053697A653A0046696C65C9
:10022000206F70656E65643A002E006F70656E20F9
:100230006661696C65642C2046696C653A200053E0
:10024000442063617264206F6B006F70656E526F43
:100250006F74206661696C656400766F6C756D659E
:100260002E696E6974206661696C65640053442070
:10027000696E6974206661696C004572726F723ACA
:10028000005072696E7465722073746F707065646B
:100290002064657520746F206572726F72732E20F2
:1002A00046697820746865206572726F7220616E8D
:1002B0006420757365204D39393920746F2072655B
:1002C0007374617274212E202854656D706572619B
:1002D000747572652069732072657365742E20537E
:1002E0006574206974206265666F7265207265733B
:1002F00074617274696E6729005072696E746572F8
:100300002068616C7465642E206B696C6C282920F0
:1003100063616C6C6564202121006F6B0052657312
:10032000656E643A006563686F3A002200556E6B33
:100330006E6F776E20636F6D6D616E643A22007A26
:100340005F6D61783A007A5F6D696E3A00795F6D32
:1003500061783A00795F6D696E3A00785F6D617817
:100360003A00785F6D696E3A005A3A00593A0020B7
:10037000436F756E7420583A00453A005A3A005956
:100380003A00583A004649524D574152455F4E4156
:100390004D453A4D61726C696E2056313B20537069
:1003A00072696E7465722F6772626C206D6173681A
:1003B000757020666F722067656E36204649524D13
:1003C000574152455F55524C3A687474703A2F2F1A
:1003D0007777772E6D656E64656C2D7061727473BE
:1003E0002E636F6D2050524F544F434F4C5F564514
:1003F0005253494F4E3A312E30204D414348494ED9
:10040000455F545950453A4D656E64656C204558BA
:100410005452554445525F434F554E543A310A00A9
:1004200020423A0020453A00543A0020573A002032
:10043000453A00543A0020403A00202F0020423A2A
:1004400000202F006F6B20543A00456E64206669CF
:100450006C65206C69737400426567696E2066691B
:100460006C65206C6973740053657474696E67738E
:100470002053746F7265640053746F7265642073E7
:10048000657474696E6773207265747265697665E8
:10049000643A002044002049002020204D333031B0
:1004A0002050005049442073657474696E67733A34
:1004B00000204500205A002058002042002054000F
:1004C00020204D323035205300416476616E6365E3
:1004D00064207661726961626C65733A20533D4DA8
:1004E000696E20666565647261746520286D6D2F84
:1004F00073292C20543D4D696E2074726176656CB1
:1005000020666565647261746520286D6D2F73299E
:100510002C20423D6D696E696D756D207365676D48
:10052000656E742074696D6520286D73292C2058C0
:100530003D6D6178696D756D207859206A65726BC3
:1005400020286D6D2F73292C20205A3D6D6178690C
:100550006D756D205A206A65726B20286D6D2F7342
:10056000290020540020204D3230342053004163B4
:1005700063656C65726174696F6E3A20533D6163A7
:1005800063656C65726174696F6E2C20543D726591
:10059000747261637420616363656C657261746910
:1005A0006F6E00204500205A0020590020204D3257
:1005B00030312058004D6178696D756D204163635D
:1005C000656C65726174696F6E20286D6D2F733272
:1005D000293A00204500205A0020590020204D32A1
:1005E00030332058004D6178696D756D2066656502
:1005F00064726174657320286D6D2F73293A002031
:100600004500205A0020590020204D393220580042
:1006100053746570732070657220756E69743A004A
:10062000446F6E65207072696E74696E67206669CA
:100630006C65005072696E7465722073746F7070AF
:1006400065642064657520746F206572726F7273C3
:100650002E2046697820746865206572726F72205A
:10066000616E6420757365204D39393920746F20AF
:1006700072657374617274212E202854656D7065E3
:100680007261747572652069732072657365742E6A
:1006900020536574206974206265666F72652072EC
:1006A000657374617274696E6729006F6B004E6FB9
:1006B000204C696E65204E756D6265722077697495
:1006C0006820636865636B73756D2C204C6173746F
:1006D000204C696E653A004E6F20436865636B730A
:1006E000756D2077697468206C696E65206E756D14
:1006F0006265722C204C617374204C696E653A00FF
:10070000636865636B73756D206D69736D61746388
:10071000682C204C617374204C696E653A004C69FA
:100720006E65204E756D626572206973206E6F7400
:10073000204C617374204C696E65204E756D626546
:10074000722B312C204C617374204C696E653A0019
:10075000446F6E6520736176696E672066696C65AB
:100760002E006F6B002020506C616E6E65724275BA
:100770006666657242797465733A20002046726538
:1007800065204D656D6F72793A20006A6F686E6EF4
:100790007900207C20417574686F723A20003230F5
:1007A00031322D30352D333000204C61737420559B
:1007B0007064617465643A2000312E302E3020520E
:1007C000433220666F72204D616B657247656172BE
:1007D000204D32004D61726C696E3A200020536FDB
:1007E0006674776172652052657365740020576185
:1007F000746368646F672052657365740020427289
:100800006F776E206F757420526573657400204594
:10081000787465726E616C20526573657400506FF8
:100820007765725570007374617274002200656E92
:10083000717565696E672022006563686F3A0020F4
:10084000746F6F206C6F6E67206578747275736952
:100850006F6E2070726576656E7465640020636FDC
:100860006C6420657874727573696F6E2070726540
:1008700076656E746564007C3C3E5E2B3D3F2F5B6D
:100880005D3B2C2A225C0024F404D9201BC40C5CA0
:100890000E9804C4095F0265077101F405F900FBB5
:1008A00004B30048048700C10369005803550003DE
:1008B000034500BE023A008402310053022A002997
:1008C00002250004022000E4011C00C8011900AF49
:1008D00001170098011400840113007101100061D8
:1008E00001100051010E0043010D0036010B002BD9
:1008F000010B0020010B00150109000C0109000388
:10090000010800FB000800F3000800EB000700E40A
:10091000000600DE000600D8000600D2000600CC6B
:10092000000500C7000500C2000500BD000400B9B5
:10093000000400B5000400B1000400AD000400A9EB
:10094000000400A5000300A20003009F0004009B18
:10095000000300980003009500020093000300903C
:100960000003008D0002008B000300880002008657
:1009700000020084000300810002007F0002007D6D
:100980000002007B0002007900020077000100767F
:100990000002007400020072000100710002006F8A
:1009A0000002006D0001006C0002006A0001006995
:1009B000000200670001006600010065000100649C
:1009C0000002006200010061000100600001005FA0
:1009D0000002005D0001005C0001005B0001005AA4
:1009E00000010059000100580001005700010056A5
:1009F00000010055000100540001005300000053A5
:100A00000001005200010051000100500001004FA0
:100A10000001004E0000004E0001004D0001004C9E
:100A20000001004B0000004B0001004A000100499A
:100A30000001004800000048000100470001004696
:100A40000000004600010045000000450001004490
:100A5000000100430000004300010042000000428A
:100A60000001004100000041000100400001003F82
:100A70000000003F0001003E0000003E0001003D7C
:100A80000000003D0001003C0000003C0000003C74
:100A90000001003B0000003B0001003A0000003A6A
:100AA0000001003900000039000100380000003862
:100AB0000000003800010037000000370001003658
:100AC000000000360000003600010035000000354F
:100AD0000000003500010034000000340000003444
:100AE0000001003300000033000000330001003239
:100AF000000000320000003200010031000000312F
:100B00000000003100010030000000300000003023
:100B10000001002F0000002F0000002F0000002F18
:100B20000001002E0000002E0000002E0001002D0C
:100B30000000002D0000002D0000002D0001002C01
:100B40000000002C0000002C0000002C0001002BF5
:100B50000000002B0000002B0000002B0001002AE9
:100B60000000002A0000002A0000002A00010029DD
:100B700000000029000000290000002900000029D1
:100B800000010028000000280000002800000028C4
:100B900000000028000100270000002700000027B7
:100BA00000000027000000270001002600000026AA
:100BB000000000260000002600000026000100259D
:100BC0000000002500000025000000250000002591
:100BD0000000002500010024000000240000002483
:100BE0000000002400000024000100230000002376
:100BF0000000002300000023000000230000002369
:100C0000000000230001002200000022000000225A
:100C1000000000220000002200000022000100214C
:100C20000000002100000021000000210000002140
:100C30000000002100000021000100200000002031
:100C40000000002000000020000000200000002024
:100C500000000020000000200001001F0000001F15
:100C60000000001F0000001F0000001F0000001F08
:100C70000000001F0001001E0000001E0000001EFA
:100C80000000001E00000024F4D43050C38E20C2A7
:100C9000A24017828B7011127A910D816CD90AA82B
:100CA00061E108C7586607615143061E4B5D05C1E7
:100CB00045A7041A411104093D98037139310340D5
:100CC00036DB0265339102D4305402802E1D02635C
:100CD0002CEE01752AC501B028A001102781018FD3
:100CE0002564012B244B01E0223401AC211F018D2E
:100CF000200D01801FFC00841EED00971DDF00B851
:100D00001CD200E61BC600201BBC00641AB200B255
:100D100019A8000A19A0006A189900D1179100407B
:100D2000178B00B516840031167E00B31579003A92
:100D3000157300C7146F0058146A00EE136600881C
:100D400013630025135E00C7125B006C1257001579
:100D5000125400C111510070114F0021114B00D6E7
:100D60001049008D1047004610440002104200C098
:100D70000F4000800F3E00420F3C00060F3B00CBAF
:100D80000E3800930E37005C0E3500270E3400F34A
:100D90000D3200C10D3100900D3000600D2E00327B
:100DA0000D2D00050D2C00D90C2B00AE0C29008553
:100DB0000C29005C0C2700350C27000E0C2600E8DF
:100DC0000B2400C40B2400A00B23007D0B23005A2E
:100DD0000B2100390B2100180B2000F80A1F00D945
:100DE0000A1E00BB0A1E009D0A1D00800A1D00632A
:100DF0000A1C00470A1B002C0A1B00110A1A00F7E4
:100E0000091A00DD091900C4091900AB091900927B
:100E10000917007B091800630917004C09160036F2
:100E2000091600200916000A091500F5081500E04A
:100E3000081400CC081400B8081400A4081400908A
:100E40000813007D0812006B0813005808120046B2
:100E500008120034081100230811001208110001C3
:100E6000081100F0071000E0071000D0071000C0C4
:100E7000071000B0070F00A107100091070E0083B4
:100E8000070F0074070F0065070E0057070E004993
:100E9000070E003B070D002E070E0020070D001364
:100EA000070D0006070D00F9060C00ED060D00E029
:100EB000060C00D4060C00C8060C00BC060C00B0E2
:100EC000060C00A4060B0099060C008D060B008290
:100ED000060B0077060B006C060B0061060A005734
:100EE000060B004C060A0042060A0038060A002ECD
:100EF000060A0024060A001A060A0010060900075E
:100F0000060A00FD050900F4050900EB050900E2E9
:100F1000050900D9050900D0050900C7050900BE6B
:100F2000050900B5050800AD050800A50509009CE8
:100F3000050800940508008C050800840508007C5D
:100F4000050800740508006C050700650508005DCC
:100F5000050700560508004E050700470507004035
:100F600005080038050700310507002A050700239A
:100F70000507001C050600160507000F05070008F9
:100F800005060002050700FB040600F5040700EE55
:100F9000040600E8040600E2040700DB040600D5AE
:100FA000040600CF040600C9040600C3040600BD01
:100FB000040600B7040600B1040500AC040600A650
:100FC000040600A00405009B04060095040500909B
:100FD0000406008A04050085040500800406007AE2
:100FE00004050075040500700405006B0405006627
:100FF000040500610405005C040500570405005267
:101000000405004D04050048040500430405003EA6
:101010000404003A04050035040500300404002CE3
:1010200004050027040400230405001E0404001A1C
:1010300004040016040500110404000D0404000952
:101040000405000404040000040400FC030400F888
:10105000030400F4030400F0030400EC030400E8BC
:10106000030400E4030400E0030400DC030400D8EC
:10107000030400D4030400D0030400CC030400C81C
:10108000030300C50303006563686F3A00205A3A02
:101090000020593A0020583A00656E6473746F70EE
:1010A00073206869743A20004572726F723A005476
:1010B000656D7065726174757265206865617465CF
:1010C0006420626564207377697463686564206F67
:1010D00066662E204D415854454D50207472696704
:1010E0006765726564202121003A20457874727525
:1010F000646572207377697463686564206F6666DF
:101100002E204D494E54454D5020747269676765D5
:101110007265642021003A204578747275646572A6
:10112000207377697463686564206F66662E204D4E
:10113000415854454D502074726967676572656403
:1011400020210070012C0190012701B0012201C073
:10115000011D01F00118011002130130020E01609F
:1011600002090190020401C002FF000003FA0040DE
:1011700003F5008003F000D003EB002004E60070CC
:1011800004E100E004DC004005D700C005D20040C7
:1011900006CD00D006C8008007C3003008BE00F0AE
:1011A00008B900C009B400B00AAF00B00BAA00D063
:1011B0000CA500000EA000500F9B00C01096005020
:1011C00012910000148C00C0158700B0178200B087
:1011D000197D00D01B7800001E730040206E009027
:1011E000226900F024640040275F0090295A00E043
:1011F0002B5500102E500020304B0010324600E0DE
:1012000033410090353C001037370070383200A071
:10121000392D00B03A2800A03B2300603C1E00108E
:101220003D1900903D1400103E0F00703E0A00C0B2
:101230003E0500003F0000202D20496E76616C695C
:1012400064206578747275646572206E756D626570
:1012500072202100202D20496E76616C6964206522
:1012600078747275646572206E756D6265722100A6
:10127000504944204175746F74756E652066696EBF
:101280006973686564202120506C6163652074680F
:1012900065204B702C204B6920616E64204B6420CC
:1012A000636F6E7374616E747320696E2074686509
:1012B00020636F6E66696775726174696F6E2E6800
:1012C00000504944204175746F74756E65206661E5
:1012D000696C6564212074696D656F7574002040C8
:1012E0003A006F6B20543A00504944204175746FA6
:1012F00074756E65206661696C6564212054656D46
:10130000706572617475726520746F2068696768B2
:1013100000204B643A2000204B693A2000204B709B
:101320003A200020436C61736963205049442000D7
:101330002054753A2000204B753A2000206D6178CA
:101340003A2000206D696E3A200020643A20002087
:10135000626961733A200000002100240027002AFE
:10136000002D003000330001010000040107010AD4
:101370000100002200250028002B002E003100343F
:101380000002010000050108010B010000200023FC
:1013900000260029002C002F00320000010000036D
:1013A00001060109010505050507050808080802E9
:1013B0000202020A0A0808040404040101010101EE
:1013C0000101010303030303030303040707070CDD
:1013D0000C0C0C0C0C0C0C02020202060606060693
:1013E0000606060B0B0B0B0B0B0B0B010210202040
:1013F0000808102040102040800201020108040269
:1014000001010204081020408080402010080402DE
:101410000180040201804020100804020108040237
:10142000010102040810204080010204081020403D
:10143000800000090A02080B0C0D070603040100D6
:10144000000000000000000000000000000000009C
:101450000000000000000000000000000011100F5C
:10146000000000000000000000000000000000007C
:1014700000000000000000494E46494E4954594EB4
:10148000414ECDCCCC3D0AD7233C17B7D13877CCD1
:101490002B329595E6241FB14F0A00002041000031
:1014A000C84200401C4620BCBE4CCA1B0E5AAEC5EA
:1014B0009D748E1B7E3F891B11241FBECFEFD1E28E
:1014C000DEBFCDBF00E00CBF13E0A0E0B2E0EEE471
:1014D000F9E001E00BBF02C007900D92AC3DB107EF
:1014E000D9F71BBE1FE0ACEDB3E001C01D92A934DB
:1014F000B107E1F714E1C6EBD4E104C02297FE0185
:101500000E944D84C23BD107C9F70E94037F0C940F
:101510009B840C940000A0E0B0E0E1E9FAE00C94B8
:101520006A84EC015B016115710519F0FB0191837F
:101530008083F9908F2D90E00E945184892BC9F708
:10154000FDE2FF1621F4F990EE24E39405C02BE2AE
:10155000F21609F4F990EE248E0101501040C801F2
:1015600067E774E143E050E062D2892BF9F48E0121
:101570000E5F1F4FC8016AE774E145E050E057D2A3
:10158000892B19F48E01095F1F4FA114B10419F0C2
:10159000F50111830083E0FC04C070E090E080E876
:1015A00013C070E090E080E86FEF07C1C8016FE7FB
:1015B00074E143E050E03BD2892B69F4A114B104FB
:1015C00029F470E090E080EC6FE7F7C02296F50117
:1015D000D183C083F6CF8824992440E050E060E0B6
:1015E00070E0EF2DE053EA30A0F5F2E0EF2A8E2D07
:1015F00090E09C0128703070E2FE06C0232B79F544
:101600000894811C911C2BC0232B19F0089481088D
:101610009108DB01CA0112E0880F991FAA1FBB1FA6
:101620001A95D1F7480F591F6A1F7B1F440F551F8A
:10163000661F771F4E0F511D611D711D483929E925
:10164000520729E9620729E1720748F084E0E82A95
:1016500006C0EE3F31F4E3FC39C098E0E92AF99086
:10166000C0CFE53311F0E53189F529912D3219F418
:10167000E0E1EE2A05C02B3219F081E090E003C0D2
:10168000299182E090E0E22FE053EA3018F0C81B85
:10169000D90B1CC020E030E0FCE020383F075CF4B0
:1016A000C901880F991F880F991F280F391F220F12
:1016B000331F2E0F311DE991E053EA3068F3E4FE49
:1016C00003C0309521953F4F820E931ECE2CDD2412
:1016D000E1FE07C0A114B10421F02197F501D183E7
:1016E000C083CB01BA010E94B6807B018C01F3E07C
:1016F000CF22DD2423E0C216D10421F417FB10957C
:1017000017F9109557016801C801B70120E030E0D2
:1017100040E050E00E941680882309F44AC097FEFA
:101720000DC026E9E22E24E1F22E909481949108D6
:101730009394C0E2D0E000E010E012C09EEAE92EEF
:1017400094E1F92EF6CFF701259135914591549109
:10175000C601B5010E94F6825B016C018C1A9D0ADC
:101760008C169D0684F7D595C7950F5F1F4F0630E1
:10177000110529F08CEF9FEFE80EF91EF1CFC5019E
:10178000D6017C018D018C2D880F8D2D881F8F3FF8
:1017900051F0C601B50120E030E040E050E00E9489
:1017A0001680882331F482E290E09093480F809372
:1017B000470F7E2D9F2D802F612F272F392F482FE8
:1017C000562FB901CA01CDB7DEB7ECE00C94868480
:1017D0002F923F925F926F927F928F929F92AF92E1
:1017E000BF92CF92DF92EF92FF920F931F93CF930E
:1017F000DF938C011B01EA016115710519F0FB01F2
:1018000091838083209749F0CE010297839728F037
:1018100020E030E040E050E0F6C0F801A1908F01F8
:101820008A2D90E00E945184892BB9F7FDE2AF1612
:1018300031F4F801A1908F015524539407C0FBE2C5
:10184000AF1619F4F801A1908F015524209719F0D3
:10185000C031D105C1F4F0E3AF1679F4F80180810D
:10186000883711F0883549F4F801A1800E5F1F4FC9
:10187000F2E05F2AC0E1D0E006C0209721F480E3C7
:10188000A816E9F427C0C830D10531F1C930D10517
:1018900024F4C230D10531F50CC0CA30D10589F02D
:1018A000C031D105F9F4C12CD12CE12CB8E0FB2ECC
:1018B00028C0C12CD12CE12CA0E4FA2E22C0CAE011
:1018C000D0E0FCECCF2EFCECDF2EFCECEF2EFCE0AD
:1018D000FF2E17C0C8E0D0E0C12CD12CE12CE0E1F4
:1018E000FE2E0FC09E01442737FD4095542F60E027
:1018F00070E080E090E80E94FA83C901DA016C018F
:101900007D0120E030E040E050E060E03E018824CE
:1019100077FC8094982C70EDB72EBA0CE9E0EB15AB
:1019200070F48A2D81548A3118F499ECB92E06C0CE
:101930008A2D81568A3150F589EAB82EBA0C8B2D42
:1019400090E08C179D0714F56F3FE1F0C216D306A7
:10195000E406F506B0F0CA01B901A40193010E94A2
:10196000C8839B01AC012B0D311D411D511D213040
:10197000F0E03F07F0E04F07F0E85F0710F461E0A8
:1019800001C06FEFF801A1908F01C5CF2114310480
:1019900081F0662331F001501040F1011183008382
:1019A00008C051FE1AC002501040F101118300839B
:1019B00014C067FF12C050FC05C02FEF3FEF4FEF80
:1019C0005FE704C020E030E040E050E882E290E0D1
:1019D0009093480F8093470F16C050FE08C0509553
:1019E0004095309521953F4F4F4F5F4F0CC057FFAB
:1019F0000AC082E290E09093480F8093470F2FEF48
:101A00003FEF4FEF5FE7B901CA01DF91CF911F911F
:101A10000F91FF90EF90DF90CF90BF90AF909F908D
:101A20008F907F906F905F903F902F900895FB0173
:101A3000DC014150504088F08D9181341CF08B3591
:101A40000CF4805E659161341CF06B350CF4605EC3
:101A5000861B611171F3990B0895881BFCCFFB0164
:101A6000DC0104C08D910190801921F44150504057
:101A7000C8F7881B990B0895FB01DC0102C0019097
:101A80000D9241505040D8F70895FB01DC010D90B4
:101A90000020E9F7119701900D920020E1F70895D9
:101AA000FC018191861721F08823D9F799270895A1
:101AB0003197CF010895FB01DC0101900D920020C8
:101AC000E1F70895FB01DC014150504030F08D9169
:101AD0000190801919F40020B9F7881B990B08951B
:101AE000FB01DC014150504048F001900D92002074
:101AF000C9F701C01D9241505040E0F70895FB0125
:101B000051915523A9F0BF01DC014D9145174111B9
:101B1000E1F759F4CD010190002049F04D914015B5
:101B20004111C9F3FB014111EFCF81E090E0019732
:101B30000895AEE0B0E0EFE9FDE00C9472840E8908
:101B40001F8986E08C831A8309838FEF9FE79E832A
:101B50008D839E01265E3F4FCE010196688D798D63
:101B6000A9010AD02F813885020F131FF8011082B6
:101B70002E96E4E00C948E84ABE0B0E0E2ECFDE065
:101B80000C9464843C012B015A01FC0117821682DB
:101B9000838181FD03C06FEF7FEFB9C19AE0892E89
:101BA0001E010894211C311CF3012381F20123FD45
:101BB000859123FF81912F01882309F4A5C18532E6
:101BC00039F423FD859123FF81912F01853221F482
:101BD00090E0B301B7D1E8CF982FFF24EE249924E9
:101BE000FFE1FF15D0F09B3269F09C3228F490326F
:101BF00059F0933291F40EC09D3249F0903369F45C
:101C000041E024C052E0F52A84E0F82A28C098E098
:101C1000F92A25C0E0E1FE2A22C0F7FC29C0892F5D
:101C200080538A3070F4F6FE05C0989C902C1124E5
:101C3000980E15C0E89CE02C1124E80EF0E2FF2A73
:101C40000EC09E3229F4F6FC5FC140E4F42A07C0BE
:101C50009C3619F450E8F52A02C0983649F4F2018E
:101C600023FD959123FF91912F01992309F0B8CF7E
:101C7000892F8554833018F08052833038F444E043
:101C800050E0A40EB51E5FE359830FC0933631F0C8
:101C9000933779F0933509F052C01FC0F501808168
:101CA000898342E050E0A40EB51E610101E010E01E
:101CB00011C0F501C080D180F6FC03C06FEF7FEF4B
:101CC00002C0692D70E042E050E0A40EB51EC601CE
:101CD0002ED18C015FE7F52213C0F501C080D180C1
:101CE000F6FC03C06FEF7FEF02C0692D70E042E0A9
:101CF00050E0A40EB51EC6010FD18C0150E8F52AA4
:101D0000F3FE06C018C080E290E0B3011BD1EA9454
:101D10008E2D90E008171907B0F30DC0F601F7FCFF
:101D20008591F7FE81916F0190E0B3010BD1E11035
:101D3000EA94015010400115110581F7E2C0943674
:101D400011F0993661F5F7FE08C0F5012081318167
:101D50004281538184E090E00AC0F5018081918145
:101D60009C01442737FD4095542F82E090E0A80E57
:101D7000B91E9FE6F92257FF09C05095409530954E
:101D800021953F4F4F4F5F4FE0E8FE2ACA01B9014E
:101D9000A1012AE030E002D1D82ED2183FC09537F9
:101DA00029F41F2D1F7E2AE030E01DC01F2D197F52
:101DB0009F3661F0903720F4983509F0A5C00FC028
:101DC000903739F0983709F09FC004C028E030E020
:101DD0000AC0106114FD146020E130E004C014FD5D
:101DE000166020E132E017FF08C0F50160817181C3
:101DF0008281938144E050E008C0F50180819181A7
:101E0000BC0180E090E042E050E0A40EB51EA101CC
:101E1000C5D0D82ED2188FE7F82EF122F6FE0BC0CF
:101E20005EEFF522D91438F4F4FE07C0F2FC05C0C9
:101E30008FEEF82202C01D2D01C0192DF4FE0DC039
:101E4000FE01ED0DF11D8081803319F499EEF92228
:101E500008C01F5FF2FE05C003C08F2D867809F011
:101E60001F5F0F2DF3FC13C0F0FE0EC01E1510F007
:101E70009D2C0AC09D2C9E0C911A1E2D05C080E23F
:101E800090E0B3015FD01F5F1E15C8F304C01E159C
:101E900010F4E11A01C0EE2404FF0EC080E390E0CC
:101EA000B30150D002FF1BC001FD03C088E790E0E2
:101EB0000EC088E590E00BC0802F867881F001FF8E
:101EC00002C08BE201C080E2F7FC8DE290E0B3013A
:101ED00039D005C080E390E0B30134D09A94D9148E
:101EE000C8F3DA94F101ED0DF11D808190E0B301AA
:101EF00029D0DD20B1F705C080E290E0B30122D007
:101F0000EA94EE20C9F750CEF30166817781CB01C8
:101F10002B96E2E10C948084FC01059061507040A6
:101F20000110D8F7809590958E0F9F1F0895FC01A2
:101F30006150704001900110D8F7809590958E0FF8
:101F40009F1F08950F931F93CF93DF938C01EB0195
:101F50008B8181FF1BC082FF0DC02E813F818C8150
:101F60009D812817390764F4E881F9810193F98389
:101F7000E88306C0E885F985802F1995892B31F40F
:101F80008E819F8101969F838E8302C00FEF1FEF8A
:101F9000C801DF91CF911F910F910895FA01AA27EF
:101FA000283051F1203181F1E8946F936E7F6E5F9C
:101FB0007F4F8F4F9F4FAF4FB1E03ED0B4E03CD04A
:101FC000670F781F891F9A1FA11D680F791F8A1F2D
:101FD000911DA11D6A0F711D811D911DA11D20D094
:101FE00009F468943F912AE0269F11243019305D4E
:101FF0003193DEF6CF010895462F4770405D41933F
:10200000B3E00FD0C9F7F6CF462F4F70405D4A338B
:1020100018F0495D31FD4052419302D0A9F7EACF53
:10202000B4E0A6959795879577956795BA95C9F782
:1020300000976105710508959B01AC010A2E069475
:102040005795479537952795BA95C9F7620F731F2E
:10205000841F951FA01D0895FC011182128208950E
:10206000FC018281882311F081E081830895FC01C5
:1020700081818111118208950F931F938C010E9419
:10208000D9680E943668F801118280E092E00E94CF
:10209000713E8091AE078823B1F11092AE07609136
:1020A000E404E62FF0E0EE0FFF1FE051F14F8081D6
:1020B00091810E94477220913F03309140034091EB
:1020C0004103509142030E9424821816E4F4609167
:1020D000E404062F10E080E090E00E946873000F97
:1020E000111FF801E051F14F91838083000F111F00
:1020F0000850114F80E090E0A0E0B0E0F80180834C
:102100009183A283B3831F910F910895FC0183ED06
:1021100093E0918380838781882321F0CF01049607
:102120000C94345B0895EF92FF920F931F937C0100
:102130008C0109541F4FC8010E94E85AC8010E942F
:10214000345BF70110821F910F91FF90EF9008957B
:102150000F931F93FC01168A118E158A148A23EDA2
:1021600033E0338B228B17AA12AE16AA15AA34AB12
:1021700023ABEA5AFF4F10823396108235971182B3
:10218000108232932293B396108233961082359741
:102190001182108232932293B09689E18083339624
:1021A0001082789610823B96108233961082359773
:1021B00011821082329322937F96108211821282B2
:1021C000138238961082118212821382EA5DF040E7
:1021D0001182128210828F010A521F4FD8011D9264
:1021E0001D921D921C921397E252FF4F81E0808353
:1021F000EE5DF040118A108A0E94697C68577C4E1F
:102200008F4F9F4FF80160837183828393831F9167
:102210000F910895CF92DF92EF92FF920F931F9349
:10222000CF93DF937C016B01DB010D900020E9F778
:102230008D0101501040061B170BE7EBF0E0EE0E8E
:10224000FF1ED7011C92E9E4FFEFEE0EFF1ECB014B
:102250006EE470E025DCEC01009731F4F801319771
:10226000EC0DFD1D86010CC060E270E019DC8C01F4
:102270000F5F1F4FCE016AE270E012DCFC01319764
:102280008DE081838AE082831382C7018D549F4F42
:10229000B8010E94A36287EB90E0E80EF91ED70117
:1022A0008C91882319F1EAE4F1E0949108C08091BF
:1022B000C00085FFFCCF9093C6003196949199237E
:1022C000B1F7E1E5F1E0949108C08091C00085FF8D
:1022D000FCCF9093C600319694919923B1F78091E9
:1022E000C00085FFFCCF8AE08093C600DF91CF91CC
:1022F0001F910F91FF90EF90DF90CF900895CF93B3
:10230000DF93EC018A81882309F43BC0E9E7F1E01F
:10231000949108C08091C00085FFFCCF9093C600C7
:10232000319694919923B1F7C652DF4F4881598174
:102330006A817B81CA5DD0408DE397E02AE030E07E
:102340000E941740E7E7F1E0949108C08091C00037
:1023500085FFFCCF9093C600319694919923B1F7F5
:10236000CE52DF4F488159816A817B818DE397E0AE
:102370002AE030E00E9417408091C00085FFFCCF2A
:1023800012C0E7E6F1E0949108C08091C00085FF9B
:10239000FCCF9093C600319694919923B1F7809128
:1023A000C00085FFFCCF8AE08093C600DF91CF910B
:1023B00008952F923F924F925F926F927F928F92E9
:1023C0009F92AF92BF92CF92DF92EF92FF920F93C4
:1023D0001F93DF93CF93CDB7DEB7AD970FB6F894C9
:1023E000DEBF0FBECDBF5C014B014DA7FC0182815A
:1023F000882309F4C9C177EB472E512C4A0C5B1C8A
:10240000C2010E94345BF50111821A8A1D8A198A61
:10241000188A83ED93E09F878E87C501429692AB21
:1024200081ABF40180818F3209F08CC0C4016FE26E
:1024300070E036DB7C010894E11CF11C3E0108943D
:10244000611C711C62E1262E312C2C0E3D1E75C0C4
:10245000C7016FE270E024DB6C01009709F47AC0D9
:10246000E816F90608F076C08C010E191F09C301A1
:10247000B701A80135DB060D171DF8011082F30125
:1024800007C08091C00085FFFCCF31969093C600B5
:1024900090819923B1F78091C00085FFFCCFFAE0CD
:1024A000F093C600F50161A972A96115710519F4CF
:1024B00060E070E002C06C5F7F4FC101A30121E0CA
:1024C0000E94AA61882371F5EBE2F2E0949108C0C2
:1024D0008091C00085FFFCCF9093C6003196949107
:1024E0009923B1F7FE01319607C08091C00085FFA6
:1024F000FCCF31969093C60090819923B1F7E9E221
:10250000F2E0949108C08091C00085FFFCCF9093C9
:10251000C600319694919923B1F78091C00085FF50
:10252000FCCF2CC18EE090E08C0F9D1FF50192AB8B
:1025300081AB76010894E11CF11CE114F10409F06F
:1025400087CF05C0C501C396F50192AB81AB082DBD
:10255000F92C01C00E2DF50161A972A9FDA5FF237B
:1025600009F4ABC06115710519F460E070E002C0B8
:102570006C5F7F4FC201402F5F2D21E00E94AA6156
:10258000882309F46AC088EC90E0A80EB91EF50112
:1025900040815181628173818AE090E0A80EB91E6A
:1025A000F50140835183628373838EE29FEFA80E0F
:1025B000B91EECE1F2E0949108C08091C00085FF63
:1025C000FCCF9093C600319694919923B1F7802F58
:1025D0009F2D9C01F90107C08091C00085FFFCCFB1
:1025E00031969093C60090819923B1F7E5E1F2E02E
:1025F000949108C08091C00085FFFCCF9093C600E5
:10260000319694919923B1F78DE397E02AE030E079
:102610000E9417408091C00085FFFCCF8AE0809324
:10262000C600EAEDF0E0AE0EBF1EF5011082118289
:1026300012821382E7E0F2E0949108C08091C0001A
:1026400085FFFCCF9093C600319694919923B1F702
:102650008091C00085FFFCCF91C0E3EFF1E0949141
:1026600008C08091C00085FFFCCF9093C6003196D2
:1026700094919923B1F7802F9F2D9C01F90107C0F8
:102680008091C00085FFFCCF31969093C600908169
:102690009923B1F7E1EFF1E0949108C08091C00077
:1026A00085FFFCCF9093C600319694919923B1F7A2
:1026B0008091C00085FFFCCF61C06115710519F4E0
:1026C00060E070E002C06C5F7F4FC201402F5F2D61
:1026D00026E50E94AA61882381F5EDEDF1E0949151
:1026E00008C08091C00085FFFCCF9093C600319652
:1026F00094919923B1F7802F9F2D9C01F90107C078
:102700008091C00085FFFCCF31969093C6009081E8
:102710009923B1F7EBEDF1E0949108C08091C000EE
:1027200085FFFCCF9093C600319694919923B1F721
:102730008091C00085FFFCCF21C081E0F50180833E
:10274000E9ECF1E0949108C08091C00085FFFCCFD6
:102750009093C600319694919923B1F7F40107C084
:102760008091C00085FFFCCF31969093C600908188
:102770009923B1F78091C00085FFFCCF8AE0809358
:10278000C600CE010E96C2DCAD960FB6F894DEBF41
:102790000FBECDBFCF91DF911F910F91FF90EF90B2
:1027A000DF90CF90BF90AF909F908F907F906F9071
:1027B0005F904F903F902F9008952F923F924F92AD
:1027C0005F926F927F928F929F92AF92BF92CF92C1
:1027D000DF92EF92FF920F931F93DF93CF93CDB7CA
:1027E000DEB7AC970FB6F894DEBF0FBECDBF5C016D
:1027F0004B01FC018281882309F41AC1C501895467
:102800009F4F0E94345BF50111821A8A1D8A198A32
:10281000188A83ED93E09F878E87C501429692AB1D
:1028200081ABF40180818F3209F08DC0C4016FE269
:1028300070E036D97C010894E11CF11C3E0108943B
:10284000611C711CFEE02F2E312C2C0E3D1EE2E18E
:102850004E2E512C4C0E5D1E71C0C7016FE270E010
:102860001FD96C01009709F476C0E816F90608F044
:1028700072C08C010E191F09C301B701A80130D91C
:10288000060D171DF8011082F30107C08091C000EA
:1028900085FFFCCF31969093C60090819923B1F7C4
:1028A0008091C00085FFFCCFFAE0F093C600F501EF
:1028B00061A972A96115710519F460E070E002C0A8
:1028C0006C5F7F4FC201A30121E00E94AA618823AF
:1028D00071F5E5EBF1E0949108C08091C00085FFAF
:1028E000FCCF9093C600319694919923B1F7FE01E5
:1028F000319607C08091C00085FFFCCF3196909340
:10290000C60090819923B1F7E3EBF1E0949108C000
:102910008091C00085FFFCCF9093C60031969491C2
:102920009923B1F78091C00085FFFCCF7BC0F501F2
:1029300032AA21AA76010894E11CF11CE114F104E9
:1029400009F08BCF05C0C501C396F50192AB81ABF1
:10295000D82C092D02C0DE2C0F2DF50181A992A9DA
:10296000009719F480E090E001C004966D2D702F5F
:102970000E947662882339F1E5EAF1E0949108C07B
:102980008091C00085FFFCCF9093C6003196949152
:102990009923B1F78D2D902F9C01F90107C08091EB
:1029A000C00085FFFCCF31969093C600908199239B
:1029B000B1F78AED90E0A80EB91EF50110821182E0
:1029C0001282138232C0EDE8F1E0949108C0809148
:1029D000C00085FFFCCF9093C60031969491992357
:1029E000B1F78D2D902F9C01F90107C08091C00097
:1029F00085FFFCCF31969093C60090819923B1F763
:102A0000EBE8F1E0949108C08091C00085FFFCCF15
:102A10009093C600319694919923B1F78091C000AC
:102A200085FFFCCF8AE08093C600CE010E966EDB58
:102A3000AC960FB6F894DEBF0FBECDBFCF91DF913D
:102A40001F910F91FF90EF90DF90CF90BF90AF90CC
:102A50009F908F907F906F905F904F903F902F90BE
:102A60000895EF92FF920F931F93CF93DF937C0112
:102A7000FC011282818D882321F0C70146960E94B5
:102A8000345B870100571F4FC80160E045E30E9497
:102A90000559882309F5EFE2F1E0949108C080918F
:102AA000C00085FFFCCF9093C60031969491992386
:102AB000B1F7EDE6F2E0949108C08091C00085FF87
:102AC000FCCF9093C600319694919923B1F78091F1
:102AD000C00085FFFCCF7DC0E701CB56DF4FCE01A4
:102AE000B80141E00E943463882341F5CE01B8016A
:102AF00040E00E943463882309F5EAE4F1E0949110
:102B000008C08091C00085FFFCCF9093C60031962D
:102B100094919923B1F7EAE5F2E0949108C080918D
:102B2000C00085FFFCCF9093C60031969491992305
:102B3000B1F78091C00085FFFCCF4BC0C70146961E
:102B4000BE010E94B15D882309F5EAE4F1E09491A9
:102B500008C08091C00085FFFCCF9093C6003196DD
:102B600094919923B1F7EAE4F2E0949108C080913E
:102B7000C00085FFFCCF9093C600319694919923B5
:102B8000B1F78091C00085FFFCCF23C081E0F70141
:102B90008283EFE2F1E0949108C08091C00085FF4C
:102BA000FCCF9093C600319694919923B1F7EFE34F
:102BB000F2E0949108C08091C00085FFFCCF909313
:102BC000C600319694919923B1F78091C00085FF9A
:102BD000FCCF8AE08093C600D701D796F70176969E
:102BE0008BE101900D928150E1F7F701848995897D
:102BF00096AB85ABC701429692AB81ABDF91CF918B
:102C00001F910F91FF90EF9008952F923F924F9256
:102C10005F927F928F929F92AF92BF92CF92DF92FC
:102C2000EF92FF920F931F93DF93CF93CDB7DEB751
:102C3000CC55D0400FB6F894DEBF0FBECDBF6C01AF
:102C4000662311F52EED30E0C20ED31ED6018C9115
:102C5000E2E2FFEFCE0EDF1E882309F4E6C026ED88
:102C600030E0C20ED31ED601ED90FD900D911C9167
:102C7000EAE2FFEFCE0EDF1E0E94697CE616F70641
:102C80000807190708F4D1C02EED30E0C20ED31E9C
:102C9000D6011C92E2E2FFEFCE0EDF1ED6011296A5
:102CA0008C91882339F4C601DCDEF6018281882309
:102CB00009F4BBC000D000D0EDB7FEB731968E014D
:102CC0000F5F1F4FADB7BEB712961C930E931197AF
:102CD0008CE092E093838283D60150968D919C91F3
:102CE0005197958384830E94990DEE24FF24EDB7BC
:102CF000FEB736960FB6F894FEBF0FBEEDBF580173
:102D00000AC0D8018C91992787FD90950E9459841B
:102D1000F80181938F01C701F50101900020E9F7C7
:102D20003197EA19FB090894E11CF11C8E179F07E3
:102D300044F316E1812E912C8C0C9D1CC40140E0C3
:102D400050E060E070E00E941E5A7724BDE3AB2E95
:102D5000B12CAC0EBD1E1E010894211C311CAFE12C
:102D60004A2E512C4C0E5D1E46C0D7018C9190E02E
:102D70000E945984F70181937F01C801F5010190F8
:102D80000020E9F73197EA19FB090F5F1F4F8E17F3
:102D90009F075CF327968FAD27978E3761F1C501AA
:102DA000B10145E050E00E94620D009721F500D08E
:102DB00000D0EDB7FEB73196ADB7BEB712965C92B4
:102DC0004E92119725E132E03383228335822482AB
:102DD0000E94990D8DB79EB706960FB6F8949EBFC8
:102DE0000FBE8DBFC2010E94713E8CE192E00E9435
:102DF000713E77247394C401B5010E942A5D1816B0
:102E000024F4750100E010E0B8CF772041F48FEF93
:102E10009FEFD60151969C938E93509706C0F60172
:102E2000808991890196918B808BC45ADF4F0FB6B0
:102E3000F894DEBF0FBECDBFCF91DF911F910F91F0
:102E4000FF90EF90DF90CF90BF90AF909F908F90CA
:102E50007F905F904F903F902F9008952F923F92D8
:102E60004F925F926F927F928F929F92AF92BF929A
:102E7000CF92DF92EF92FF920F931F93DF93CF9346
:102E8000CDB7DEB7CD58D0400FB6F894DEBF0FBE39
:102E9000CDBF7C013B016A0184E090E0C80ED91EE1
:102EA000F7013396CA57DF4FF983E883C658D040FD
:102EB000C857DF4F1882C858D0408E010A591F4F9B
:102EC000C8010B96C757DF4F99838883C958D040F4
:102ED0003FED832E912C8E0C9F1C21EEA22EB12C47
:102EE000AE0CBF1C9EE0292E312C2C0E3D1E87E41B
:102EF000482E512C4C0E5D1EF2013496C557DF4F03
:102F0000F983E883CB58D040EFE2F1E08491C357D6
:102F1000DF4F8883CD58D04042C1F8018385482FC8
:102F200050E0BA01687170706031710509F03FC1FD
:102F3000F401208131812130310509F438C122307A
:102F4000310509F434C1F801DE0111969081903207
:102F500039F08E2F801B883011F48EE28D939D9373
:102F60003196C757DF4F88819981C958D040E817FB
:102F7000F90761F71C921E86F3018081882329F4EA
:102F8000C10160E272E00E94450DC101B3010E94DF
:102F9000450DC101BE016F5F7F4F0E94450DC1010C
:102FA00060E272E00E94450D1CA61FA61BA61AA691
:102FB00083ED93E099A788A7CE018C96B601AE0168
:102FC0004F5F5F4F21E00E94AA61882309F03FC054
:102FD000F40180819181892BD1F5C357DF4F98810E
:102FE000CD58D040EFE2F1E008C08091C00085FFED
:102FF000FCCF9093C600319694919923B1F7E2E209
:10300000F2E007C08091C00085FFFCCF319690931D
:10301000C60090819923B1F78091C00085FFFCCF55
:10302000FAE0F093C600FE01319607C08091C0001F
:1030300085FFFCCF31969093C60090819923B1F71C
:103040008091C00085FFFCCF8AE08093C600C55701
:10305000DF4FA881B981CB58D040FE01BC968BE1EF
:1030600001900D928150E1F78AA59BA5F20193830F
:10307000828383ED93E091838083C701B101A20134
:10308000EDDEC20143D8CE01889640D888C0953E77
:1030900009F485C09E3209F482C09F3509F47FC0CF
:1030A00043FD7DC080E06031710509F481E0F701E6
:1030B0008787882349F4F8018085873409F06FC039
:1030C00081858E3709F46BC0CA57DF4FA881B9815B
:1030D000C658D040F8018081803241F08E2F801B8D
:1030E000883011F48EE28D9380818D933196C7578D
:1030F000DF4F88819981C958D040E817F90759F7FF
:103100001C92F40180819181009729F5F30107C099
:103110008091C00085FFFCCF31969093C6009081CE
:103120009923B1F7CA57DF4FE881F981C658D040DB
:1031300007C08091C00085FFFCCF31969093C600F8
:1031400090819923B1F78091C00085FFFCCFFAE010
:10315000F093C60024C08130910539F4F5018081D7
:1031600091810196918380831AC00297C1F4C85758
:10317000DF4FF881C858D0402F2F30E0F501808113
:10318000918128173907C1F0C857DF4FF881C85817
:10319000D040FF5FC857DF4FF883C858D040C60102
:1031A000B8010E942A5D18160CF4B7CE05C0F801CC
:1031B0009081992309F06BCFC357DF4F0FB6F89476
:1031C000DEBF0FBECDBFCF91DF911F910F91FF905A
:1031D000EF90DF90CF90BF90AF909F908F907F90B7
:1031E0006F905F904F903F902F900895EF92FF92D5
:1031F0000F931F93DF93CF93CDB7DEB76F970FB6C3
:10320000F894DEBF0FBECDBF7C018FED90E0E80EDD
:10321000F91EF7011182108281E29FEFE80EF91E7C
:1032200087010A5E1F4FC80140E050E060E070E097
:103230000E941E5ADE011596F8018BE101900D9255
:103240008150E1F7F701848995899C838B8383ED15
:1032500093E09A838983C70165E372E08E010F5F73
:103260001F4FA801FBDDC8010E9486106F960FB6A4
:10327000F894DEBF0FBECDBFCF91DF911F910F91AC
:10328000FF90EF900895DF93CF93CDB7DEB72897E7
:103290000FB6F894DEBF0FBECDBF8091360290917D
:1032A0003702A0913802B091390289839A83AB83A7
:1032B000BC8380E090E09E012F5F3F4FF901E80F53
:1032C000F91FE081F999FECF1FBA8C599F4F92BD2B
:1032D00081BDE0BD0FB6F894FA9AF99A0FBE8356F5
:1032E00090408430910551F7E2E5F7E088E690E000
:1032F0002191F999FECF1FBA92BD81BD20BD0FB6B5
:10330000F894FA9AF99A0FBE019627E0E236F2078E
:1033100079F7E2E4F7E088E790E02191F999FECFB0
:103320001FBA92BD81BD20BD0FB6F894FA9AF99AE2
:103330000FBE019627E0E235F20779F7E2E6F7E003
:1033400088E890E02191F999FECF1FBA92BD81BD26
:1033500020BD0FB6F894FA9AF99A0FBE019627E0AD
:10336000E237F20779F7E6E7F7E088E990E02191A4
:10337000F999FECF1FBA92BD81BD20BD0FB6F8945A
:10338000FA9AF99A0FBE019627E0EA37F20779F721
:10339000EAE7F7E08CE990E02191F999FECF1FBAB6
:1033A00092BD81BD20BD0FB6F894FA9AF99A0FBE6E
:1033B000019627E0EE37F20779F7E2E7F7E080EAD7
:1033C00090E02191F999FECF1FBA92BD81BD20BD39
:1033D0000FB6F894FA9AF99A0FBE019627E0E637ED
:1033E000F20779F7EAE8F7E084EA90E02191F999A9
:1033F000FECF1FBA92BD81BD20BD0FB6F894FA9AD8
:10340000F99A0FBE019627E0EE38F20779F7EEE35E
:10341000F7E088EA90E02191F999FECF1FBA92BDBA
:1034200081BD20BD0FB6F894FA9AF99A0FBE0196A5
:1034300027E0E234F20779F7EEE7F7E08CEA90E074
:103440002191F999FECF1FBA92BD81BD20BD0FB663
:10345000F894FA9AF99A0FBE019627E0E238F2073B
:1034600079F7E2E8F7E080EB90E02191F999FECF5F
:103470001FBA92BD81BD20BD0FB6F894FA9AF99A91
:103480000FBE019627E0E638F20779F7E6E8F7E0A5
:1034900084EB90E02191F999FECF1FBA92BD81BDD6
:1034A00020BD0FB6F894FA9AF99A0FBE019627E05C
:1034B000EA38F20779F7ECE4F3E088EB90E0219149
:1034C000F999FECF1FBA92BD81BD20BD0FB6F89409
:1034D000FA9AF99A0FBE019623E0E035F20779F7E0
:1034E000E0E5F3E08CEB90E02191F999FECF1FBA73
:1034F00092BD81BD20BD0FB6F894FA9AF99A0FBE1D
:10350000019623E0E435F20779F7E4E5F3E080EC97
:1035100090E02191F999FECF1FBA92BD81BD20BDE7
:103520000FB6F894FA9AF99A0FBE019623E0E8359F
:10353000F20779F780913A0290913B02A0913C0208
:10354000B0913D028D839E83AF83B88780E090E089
:103550009E012B5F3F4FF901E80FF91FE081F999B8
:10356000FECF1FBA8C599F4F92BD81BDE0BD0FB6F3
:10357000F894FA9AF99A0FBE8356904084309105D8
:1035800051F7E5E2F3E0949108C08091C00085FF17
:10359000FCCF9093C600319694919923B1F7E8E659
:1035A000F4E0949108C08091C00085FFFCCF909317
:1035B000C600319694919923B1F78091C00085FFA0
:1035C000FCCF8AE08093C60028960FB6F894DEBF41
:1035D0000FBECDBFCF91DF9108958091E60408958D
:1035E00067707070E82FF0E0EF5CFB4E84918B30D9
:1035F00028F48830A0F4863090F106C08E30D0F0E8
:103600008F50833060F521C08091B1008C7F809312
:10361000B1008091B100862B8093B1000895809114
:1036200091008C7F8093910080919100862B8093F4
:10363000910008958091A1008C7F8093A1008091DA
:10364000A100862B8093A1000895809121018C7F99
:103650008093210180912101862B8093210108957F
:103660008130910541F46F5F7F4F09F051C08CEDBF
:1036700093E00C94A810892B09F04AC06F5F7F4F2C
:1036800009F046C083ED93E09093900480938F04FB
:1036900080919604882321F083E994E00E94345BB2
:1036A00083ED93E090934E0480934D0480915404F5
:1036B000882321F081E594E00E94345B83ED93E060
:1036C00090932F0480932E0480913504882321F059
:1036D00082E394E00E94345B83ED93E090931004C6
:1036E00080930F0480911604882321F083E194E0F5
:1036F0000E94345B83ED93E09093EF038093EE039D
:103700008091F503882321F082EF93E00C94345BE1
:10371000089580E090E06FEF7FEFA2CF81E090E02E
:103720006FEF7FEF9DCF0E9430748091E604882375
:1037300009F036C081E08093E6048091E70490911F
:10374000E804A091E904B091EA048093EB0490931B
:10375000EC04A093ED04B093EE04EAE7F2E0949158
:1037600008C08091C00085FFFCCF9093C6003196C1
:1037700094919923B1F7E1E8F2E0949108C0809127
:10378000C00085FFFCCF9093C60031969491992399
:10379000B1F78091C00085FFFCCF8AE08093C6001E
:1037A0000895F8940E943074179A169A159A149AEC
:1037B00084E060E00E941E7EEAE7F2E0949108C097
:1037C0008091C00085FFFCCF9093C6003196949104
:1037D0009923B1F7E9EFF2E0949108C08091C0001D
:1037E00085FFFCCF9093C600319694919923B1F751
:1037F0008091C00085FFFCCF8AE08093C600FFCF98
:103800000E94697C6093EF047093F0048093F1044C
:103810009093F204E0911805F0911905E65EFA4FD5
:1038200080818823A9F4EAE1F3E0949108C08091B3
:10383000C00085FFFCCF9093C600319694919923E8
:10384000B1F78091C00085FFFCCF8AE08093C6006D
:103850000895EF92FF920F931F930E94697CE0906E
:10386000F304F090F4040091F5041091F604209113
:10387000EF043091F0044091F1045091F204621B86
:10388000730B840B950BE616F7060807190730F43F
:10389000E114F1040105110509F083DF8091320381
:1038A00090913303A0913403B09135030097A105A3
:1038B000B10529F10E94697C2091EF043091F00458
:1038C0004091F1045091F204621B730B840B950B31
:1038D00020913203309133034091340350913503EA
:1038E000261737074807590750F490917F0C8091AD
:1038F000800C981721F4179A169A159A149A0E9418
:1039000058481F910F91FF90EF9008956F927F920A
:103910008F929F92AF92BF92CF92DF92EF92FF92DF
:103920000F931F93F82E6091F7047091F804809123
:10393000F9049091FA042091FB043091FC04409129
:10394000FD045091FE040E9431823B014C016091C4
:103950002E0370912F0300D000D00DB71EB70F5F5C
:103960001F4F882777FD8095982F0E94B88020915F
:1039700036033091370340913803509139030E9448
:10398000F68220E030E040E752E40E941D8020E013
:1039900030E048EC52E40E941D805B016C01F801AC
:1039A0006082718282829382F4828091E4048583B2
:1039B00088EC94E063E075E047EF54E020E001E03C
:1039C00032E0E32E0E943B41809103059091040573
:1039D000A0910505B09106058093C8049093C90491
:1039E000A093CA04B093CB04809107059091080579
:1039F000A0910905B0910A058093CC049093CD0461
:103A0000A093CE04B093CF0480910B0590910C0548
:103A1000A0910D05B0910E058093D0049093D10430
:103A2000A093D204B093D30480910F059091100518
:103A3000A0911105B09112058093D4049093D50400
:103A4000A093D604B093D7048DB79EB706960FB651
:103A5000F8949EBF0FBE8DBF0E94697C6093EF04F7
:103A60007093F0048093F1049093F2041F910F91EE
:103A7000FF90EF90DF90CF90BF90AF909F908F908E
:103A80007F906F900895CF92DF92EF92FF920F9305
:103A90001F93609103057091040580910505909135
:103AA000060520E030E04DE453E40E94248218161D
:103AB00064F480E090E0ADE4B3E480930305909378
:103AC0000405A0930505B093060560910705709164
:103AD00008058091090590910A0520E030E04FE744
:103AE00053E40E942482181664F480E090E0AFE76B
:103AF000B3E48093070590930805A0930905B0935C
:103B00000A0560910B0570910C0580910D0590914F
:103B10000E0520E030E04DE453E40E9424821816A4
:103B200064F480E090E0ADE4B3E480930B059093FF
:103B30000C05A0930D05B0930E050E94697C60935F
:103B4000EF047093F0048093F1049093F204609179
:103B50002E0370912F03882777FD8095982F0E9460
:103B6000B88020913603309137034091380350914B
:103B700039030E94F68220E030E040E752E40E94E0
:103B80001D8020E030E048EC52E40E941D807B0163
:103B90008C0183E095E067E075E04BE055E02FE0B5
:103BA00035E0E4EECE2EE4E0DE2E0E94754B8091EF
:103BB000030590910405A0910505B0910605809339
:103BC000C8049093C904A093CA04B093CB04809115
:103BD000070590910805A0910905B0910A05809309
:103BE000CC049093CD04A093CE04B093CF048091E5
:103BF0000B0590910C05A0910D05B0910E058093D9
:103C0000D0049093D104A093D204B093D3048091B4
:103C10000F0590911005A0911105B09112058093A8
:103C2000D4049093D504A093D604B093D7041F91E5
:103C30000F91FF90EF90DF90CF9008958DE397E084
:103C40000E94753FEDE1F3E0949108C08091C000BF
:103C500085FFFCCF9093C600319694919923B1F7DC
:103C60004091E7045091E8046091E9047091EA04FE
:103C70004F5F5F4F6F4F7F4F8DE397E02AE030E05B
:103C80000E9433408091C00085FFFCCF8AE0809382
:103C9000C600B6CD409118055091190520E630E0D8
:103CA000B901469F9001479F300D569F300D11245A
:103CB000682F772767FD7095C901885D9A4F0E942C
:103CC000500D9C01909323058093220580E0232BC7
:103CD00009F081E00895CF93DF93C5E2D3E0FE01C0
:103CE000949108C08091C00085FFFCCF9093C600DE
:103CF000319694919923B1F7E0E1F6E0949108C0F0
:103D00008091C00085FFFCCF9093C60031969491BE
:103D10009923B1F78091C00085FFFCCF8AE08093A2
:103D2000C600FE019491E5E2F3E008C08091C00076
:103D300085FFFCCF9093C600319694919923B1F7FB
:103D4000E8E0F6E0949108C08091C00085FFFCCFC8
:103D50009093C600319694919923B1F74091520700
:103D60005091530760915407709155078DE397E088
:103D700022E030E00E943941E5E0F6E0949108C08D
:103D80008091C00085FFFCCF9093C600319694913E
:103D90009923B1F740915607509157076091580702
:103DA000709159078DE397E022E030E00E9439419D
:103DB000E2E0F6E0949108C08091C00085FFFCCF5E
:103DC0009093C600319694919923B1F740915A0788
:103DD00050915B0760915C0770915D078DE397E000
:103DE00022E030E00E943941EFEFF5E0949108C005
:103DF0008091C00085FFFCCF9093C60031969491CE
:103E00009923B1F740915E0750915F076091600779
:103E1000709161078DE397E022E030E00E94394124
:103E2000EEE3F2E007C08091C00085FFFCCF319641
:103E30009093C60090819923B1F78091C00085FFCF
:103E4000FCCF8AE08093C600FE019491E5E2F3E0A6
:103E500008C08091C00085FFFCCF9093C6003196CA
:103E600094919923B1F7E5EEF5E0949108C0809123
:103E7000C00085FFFCCF9093C600319694919923A2
:103E8000B1F78091C00085FFFCCF8AE08093C60027
:103E9000FE019491E5E2F3E008C08091C00085FF47
:103EA000FCCF9093C600319694919923B1F7ECED35
:103EB000F5E0949108C08091C00085FFFCCF9093FD
:103EC000C600319694919923B1F7409142075091E1
:103ED000430760914407709145078DE397E022E026
:103EE00030E00E943941E9EDF5E0949108C08091FD
:103EF000C00085FFFCCF9093C60031969491992322
:103F0000B1F740914607509147076091480770917B
:103F100049078DE397E022E030E00E943941E6ED69
:103F2000F5E0949108C08091C00085FFFCCF90938C
:103F3000C600319694919923B1F740914A07509168
:103F40004B0760914C0770914D078DE397E022E09D
:103F500030E00E943941E3EDF5E0949108C0809192
:103F6000C00085FFFCCF9093C600319694919923B1
:103F7000B1F740914E0750914F07609150077091F3
:103F800051078DE397E022E030E00E943941EEE3F3
:103F9000F2E007C08091C00085FFFCCF319690937E
:103FA000C60090819923B1F78091C00085FFFCCFB6
:103FB0008AE08093C600FE019491E5E2F3E008C038
:103FC0008091C00085FFFCCF9093C60031969491FC
:103FD0009923B1F7E5EBF5E0949108C08091C0001A
:103FE00085FFFCCF9093C600319694919923B1F749
:103FF0008091C00085FFFCCF8AE08093C600FE015F
:104000009491E5E2F3E008C08091C00085FFFCCF09
:104010009093C600319694919923B1F7ECEAF5E0BC
:10402000949108C08091C00085FFFCCF9093C6009A
:10403000319694919923B1F74091620750916307AB
:1040400060916407709165078DE397E02AE030E0A6
:104050000E941740E9EAF5E0949108C08091C00001
:1040600085FFFCCF9093C600319694919923B1F7C8
:1040700040916607509167076091680770916907E2
:104080008DE397E02AE030E00E941740E6EAF5E091
:10409000949108C08091C00085FFFCCF9093C6002A
:1040A000319694919923B1F740916A0750916B072B
:1040B00060916C0770916D078DE397E02AE030E026
:1040C0000E941740E3EAF5E0949108C08091C00097
:1040D00085FFFCCF9093C600319694919923B1F758
:1040E00040916E0750916F07609170077091710752
:1040F0008DE397E02AE030E00E941740EEE3F2E023
:1041000007C08091C00085FFFCCF31969093C60018
:1041100090819923B1F78091C00085FFFCCF8AE0A0
:104120008093C600FE019491E5E2F3E008C080911F
:10413000C00085FFFCCF9093C600319694919923DF
:10414000B1F7EEE6F5E0949108C08091C00085FFDC
:10415000FCCF9093C600319694919923B1F780914A
:10416000C00085FFFCCF8AE08093C600FE019491D9
:10417000E5E2F3E008C08091C00085FFFCCF90939A
:10418000C600319694919923B1F7E5E6F5E0949154
:1041900008C08091C00085FFFCCF9093C600319687
:1041A00094919923B1F740917607509177076091E8
:1041B0007807709179078DE397E022E030E00E9464
:1041C0003941E2E6F5E0949108C08091C00085FF96
:1041D000FCCF9093C600319694919923B1F740910A
:1041E0007A0750917B0760917C0770917D078DE382
:1041F00097E022E030E00E943941EEE3F2E007C0B0
:104200008091C00085FFFCCF31969093C6009081CD
:104210009923B1F78091C00085FFFCCF8AE080939D
:10422000C600FE019491E5E2F3E008C08091C00071
:1042300085FFFCCF9093C600319694919923B1F7F6
:10424000E9ECF4E0949108C08091C00085FFFCCFB8
:104250009093C600319694919923B1F78091C00054
:1042600085FFFCCF8AE08093C600FE019491E5E2D1
:10427000F3E008C08091C00085FFFCCF9093C6009A
:10428000319694919923B1F7E0ECF4E0949108C051
:104290008091C00085FFFCCF9093C6003196949129
:1042A0009923B1F740917207509173076091740799
:1042B000709175078DE397E022E030E00E9439416C
:1042C000EDEBF4E0949108C08091C00085FFFCCF35
:1042D0009093C600319694919923B1F740918A0743
:1042E00050918B0760918C0770918D078DE397E05B
:1042F00022E030E00E943941EAEBF4E0949108C0FA
:104300008091C00085FFFCCF9093C60031969491B8
:104310009923B1F740913E0750913F0760914007C4
:10432000709141078DE397E02AE030E00E9417404A
:10433000E7EBF4E0949108C08091C00085FFFCCFCA
:104340009093C600319694919923B1F740917E07DE
:1043500050917F0760918007709181078DE397E00E
:1043600022E030E00E943941E4EBF4E0949108C08F
:104370008091C00085FFFCCF9093C6003196949148
:104380009923B1F740918207509183076091840788
:10439000709185078DE397E022E030E00E9439417B
:1043A000E1EBF4E0949108C08091C00085FFFCCF60
:1043B0009093C600319694919923B1F74091860766
:1043C0005091870760918807709189078DE397E086
:1043D00022E030E00E943941EEE3F2E007C0809134
:1043E000C00085FFFCCF31969093C6009081992341
:1043F000B1F78091C00085FFFCCF8AE08093C600B2
:10440000FE019491E5E2F3E008C08091C00085FFD1
:10441000FCCF9093C600319694919923B1F7E3EACB
:10442000F4E0949108C08091C00085FFFCCF909388
:10443000C600319694919923B1F78091C00085FF11
:10444000FCCF8AE08093C600FE019491E5E2F3E0A0
:1044500008C08091C00085FFFCCF9093C6003196C4
:1044600094919923B1F7E9E9F4E0949108C080911F
:10447000C00085FFFCCF9093C6003196949199239C
:10448000B1F740914C0350914D0360914E037091F0
:104490004F038DE397E022E030E00E943941E6E9E6
:1044A000F4E0949108C08091C00085FFFCCF909308
:1044B000C600319694919923B1F7609150037091A1
:1044C000510380915203909153032DEB37E346E063
:1044D0005EE30E941D80AB01BC018DE397E022E00A
:1044E00030E00E943941E3E9F4E0949108C0809102
:1044F000C00085FFFCCF9093C6003196949199231C
:10450000B1F76091540370915503809156039091D7
:1045100057032DEB37E346E05EE30E94F682AB01E2
:10452000BC018DE397E022E030E00E943941EEE3E8
:10453000F2E007C08091C00085FFFCCF31969093D8
:10454000C60090819923B1F78091C00085FFFCCF10
:104550008AE08093C600DF91CF910895DF93CF93D7
:10456000CDB7DEB7E8970FB6F894DEBF0FBECDBF6C
:10457000682F80913A0290913B02A0913C02B09149
:104580003D028D839E83AF83B887FE01319624E67A
:1045900030E0AE014C5F5F4FF999FECF32BD21BDD7
:1045A000F89A80B580832F5F3F4FE417F50711F02D
:1045B0003196F2CF662309F037C1CE010596BE01D0
:1045C0006F5F7F4F43E050E00E94620D009709F05B
:1045D0002BC1E2E5F7E028E630E0F999FECF32BDE5
:1045E00021BDF89A80B580832F5F3F4F87E0E13689
:1045F000F80711F03196F1CFE2E4F7E028E730E078
:10460000F999FECF32BD21BDF89A80B580832F5F26
:104610003F4F87E0E135F80711F03196F1CFE2E640
:10462000F7E028E830E0F999FECF32BD21BDF89AD5
:1046300080B580832F5F3F4F87E0E137F80711F0A7
:104640003196F1CFE6E7F7E028E930E0F999FECFBF
:1046500032BD21BDF89A80B580832F5F3F4F87E040
:10466000E937F80711F03196F1CFEAE7F7E02CE9E6
:1046700030E0F999FECF32BD21BDF89A80B5808334
:104680002F5F3F4F87E0ED37F80711F03196F1CFFC
:10469000E2E7F7E020EA30E0F999FECF32BD21BD34
:1046A000F89A80B580832F5F3F4F87E0E537F807A2
:1046B00011F03196F1CFEAE8F7E024EA30E0F99919
:1046C000FECF32BD21BDF89A80B580832F5F3F4F6A
:1046D00087E0ED38F80711F03196F1CFEEE3F7E01F
:1046E00028EA30E0F999FECF32BD21BDF89A80B5B5
:1046F00080832F5F3F4F87E0E134F80711F0319658
:10470000F1CFEEE7F7E02CEA30E0F999FECF32BDC9
:1047100021BDF89A80B580832F5F3F4F87E0E13855
:10472000F80711F03196F1CFE2E8F7E020EB30E046
:10473000F999FECF32BD21BDF89A80B580832F5FF5
:104740003F4F87E0E538F80711F03196F1CFE6E802
:10475000F7E024EB30E0F999FECF32BD21BDF89AA5
:1047600080B580832F5F3F4F87E0E938F80711F06D
:104770003196F1CFECE4F3E028EB30E0F999FECF8D
:1047800032BD21BDF89A80B580832F5F3F4F83E013
:10479000EF34F80711F03196F1CFE0E5F3E02CEBC0
:1047A00030E0F999FECF32BD21BDF89A80B5808303
:1047B0002F5F3F4F83E0E335F80711F03196F1CFDB
:1047C000E4E5F3E020EC30E0F999FECF32BD21BD05
:1047D000F89A80B580832F5F3F4F83E0E735F80775
:1047E00011F03196F1CFE5E2F3E0949108C08091A9
:1047F000C00085FFFCCF9093C60031969491992319
:10480000B1F7E8E7F4E0949108C08091C00085FF1B
:10481000FCCF9093C600319694919923B1F7809183
:10482000C00085FFFCCF22C1DE011996EFEBF3E05B
:1048300080E101900D928150E1F7DE015996EFEA97
:10484000F3E080E101900D928150E1F7DE0199964D
:10485000EFE9F3E080E101900D928150E1F7898565
:104860009A85AB85BC858093520790935307A0939C
:104870005407B0935507898D9A8DAB8DBC8D80936D
:10488000420790934307A0934407B093450789A537
:104890009AA5ABA5BCA58093620790936307A093EC
:1048A0006407B09365078D859E85AF85B889809331
:1048B000560790935707A0935807B09359078D8DCB
:1048C0009E8DAF8DB8A18093460790934707A09324
:1048D0004807B09349078DA59EA5AFA5B8A98093B9
:1048E000660790936707A0936807B0936907898963
:1048F0009A89AB89BC8980935A0790935B07A093F0
:104900005C07B0935D0789A19AA1ABA1BCA180937C
:104910004A0790934B07A0934C07B0934D0789A982
:104920009AA9ABA9BCA980936A0790936B07A0933F
:104930006C07B0936D078D899E89AF89B88D809380
:104940005E0790935F07A0936007B09361078DA106
:104950009EA1AFA1B8A580934E0790934F07A09357
:104960005007B09351078DA99EA9AFA9B8AD809308
:104970006E0790936F07A0937007B093710780E064
:1049800090E8ABE3B5E48093760790937707A09324
:104990007807B093790780937A0790937B07A09369
:1049A0007C07B0937D0720E030E040E050E02093AA
:1049B000720730937307409374075093750780E232
:1049C0009EE4A0E0B0E080933E0790933F07A09361
:1049D0004007B093410720938A0730938B07409399
:1049E0008C0750938D0780E090E0A0EAB1E48093BB
:1049F0007E0790937F07A0938007B09381078DEC8B
:104A00009CECACECBEE38093820790938307A09369
:104A10008407B093850780E090E0A0EAB0E480933B
:104A2000860790938707A0938807B0938907E5E2EC
:104A3000F3E0949108C08091C00085FFFCCF909373
:104A4000C600319694919923B1F7EFE3F2E007C0E5
:104A50008091C00085FFFCCF31969093C600908175
:104A60009923B1F78091C00085FFFCCF8AE0809345
:104A7000C60031D9E8960FB6F894DEBF0FBECDBFA1
:104A8000CF91DF91089580912205909123050196A1
:104A900060E070E04AE050E00C94E80B8091220561
:104AA00090912305019660E070E00C948B0AAF9220
:104AB000BF92CF92DF92EF92FF920F931F93CF930B
:104AC000DF93F8ECEF2EF4E0FF2EC3E0D5E000E03A
:104AD00010E0F801EF59FC4F8081DCD8882331F1D8
:104AE000DDDF5B016C01F801EF53FB4F8081882310
:104AF00011F061E002C06091130570E0882777FD36
:104B00008095982F0E94B880F701208131814281E1
:104B100053810E94F6829B01AC01C601B5010E943F
:104B20003D7F688379838A839B8309C0F7018081F5
:104B30009181A281B38188839983AA83BB830F5F0C
:104B40001F4F84E090E0E80EF91E24960430110512
:104B500009F0BFCF86E49ED88823D9F09FDF7B0180
:104B60008C0160931405709315058093160590933E
:104B7000170520E030E040E050E00E942482181643
:104B800044F4E0923603F092370300933803109315
:104B90003903DF91CF911F910F91FF90EF90DF903C
:104BA000CF90BF90AF90089582DF89E473D88823B7
:104BB00051F074DF6093F7047093F8048093F90464
:104BC0009093FA040CC080E090E0A0E0B0E0809305
:104BD000F7049093F804A093F904B093FA048AE4DC
:104BE00059D8882351F05ADF6093FB047093FC047A
:104BF0008093FD049093FE04089580E090E0A0E08F
:104C0000B0E08093FB049093FC04A093FD04B09368
:104C1000FE0408952F923F924F925F926F927F927F
:104C20008F929F92AF92BF92CF92DF92EF92FF92BC
:104C30000F931F93DF93CF93CDB7DEB7A1970FB636
:104C4000F894DEBF0FBECDBF87E424D8882309F4D3
:104C50009BC424DF0E9485806430710509F43EC046
:104C60006530710554F46230710539F163307105B6
:104C70005CF57723CCF40C940B386A35710509F494
:104C800030C46B35710534F46C31710511F00C943E
:104C90000B3865C06B35710509F427C46C35710597
:104CA00011F00C940B3826C48091E604882329F473
:104CB000FEDE0E94431D0C942C388091E60488236C
:104CC00019F472DF81E006C08091E604882331F494
:104CD0006BDF80E00E94861C0C942C3880E50E94DB
:104CE0004A1E882321F4EE24FF24870105C0D6DE66
:104CF0000E948A807B018C0183E50E944A1E8823E2
:104D000059F0CCDE20E030E04AE754E40E94F6821D
:104D10000E948A807B018C010E94D9680E94697C74
:104D20005B016C01AE0CBF1CC01ED11E0E94697CD1
:104D30006093EF047093F0048093F1049093F20475
:104D400005C00E94A57681E00E94291C0E94697C12
:104D50006A157B058C059D05A0F30C940B3880919A
:104D6000360390913703A0913803B09139038093B3
:104D70001E0590931F05A0932005B09321058091F7
:104D80002E0390912F039093C6048093C50484E66C
:104D900090E090932F0380932E030E94697C609390
:104DA000EF047093F0048093F1049093F20481E097
:104DB0000E946D678091C8049091C904A091CA04B3
:104DC000B091CB048093030590930405A09305054F
:104DD000B09306058091CC049091CD04A091CE04AF
:104DE000B091CF048093070590930805A09309051F
:104DF000B0930A058091D0049091D104A091D2047F
:104E0000B091D30480930B0590930C05A0930D05EE
:104E1000B0930E058091D4049091D504A091D6044E
:104E2000B091D70480930F0590931005A0931105BE
:104E3000B093120580E090E0A0E0B0E080933603EC
:104E400090933703A0933803B093390388E50E9409
:104E50004A1E882361F489E50E944A1E882339F49A
:104E60008AE50E944A1E882311F481E001C080E097
:104E700080933A03882331F488E50E944A1E8823F0
:104E800009F4DAC00F2EF0E08F2EF0E09F2EF0E054
:104E9000AF2EF0E0BF2EF02D8092C8049092C9048E
:104EA000A092CA04B092CB0488EC94E06CEC74E05D
:104EB00040ED54E024ED34E00E940E4580E090EC9B
:104EC000A9E9B3EC8093030590930405A09305052D
:104ED000B093060560911E0370911F03809120031B
:104EE00090912103609336037093370380933803C6
:104EF0009093390320E030E040E752E40E941D80A7
:104F00007B018C0183E095E067E075E04BE055E0C4
:104F10002FE035E0A4EECA2EA4E0DA2E0E94754BF5
:104F20000E94D9688092C8049092C904A092CA04D1
:104F3000B092CB0488EC94E06CEC74E040ED54E06B
:104F400024ED34E00E940E4580E090E0A0EAB0E459
:104F50008093030590930405A0930505B09306057F
:104F60006091360370913703809138039091390333
:104F700020E030E040E752E40E941D807B018C017C
:104F800083E095E067E075E04BE055E02FE035E029
:104F90000E94754B0E94D96880E090E0A0E2B1ECDD
:104FA0008093030590930405A0930505B09306052F
:104FB00060911E0370911F03809120039091210343
:104FC00020E030E040E05FE30E94F6826093360329
:104FD00070933703809338039093390320E030E0D7
:104FE00040E752E40E941D807B018C0183E095E044
:104FF00067E075E04BE055E02FE035E00E94754B2F
:105000000E94D9688092C8049092C904A092CA04F0
:10501000B092CB048092030590920405A0920505FE
:10502000B09206058092360390923703A09238031F
:10503000B09239030E94666780913A03882331F465
:1050400089E50E944A1E882309F4DAC00F2EF0E099
:105050008F2EF0E09F2EF0E0AF2EF0E0BF2EF02D6F
:105060008092CC049092CD04A092CE04B092CF0452
:1050700088EC94E06CEC74E040ED54E024ED34E016
:105080000E940E4580E090E4AFEBB3EC80930705FF
:1050900090930805A0930905B0930A056091220337
:1050A000709123038091240390912503609336032C
:1050B00070933703809338039093390320E030E0F6
:1050C00040E752E40E941D807B018C0183E095E063
:1050D00067E075E04BE055E02FE035E0F4EECF2ED1
:1050E000F4E0DF2E0E94754B0E94D9688092CC04B8
:1050F0009092CD04A092CE04B092CF0488EC94E0BC
:105100006CEC74E040ED54E024ED34E00E940E4578
:1051100080E090E0A0EAB0E4809307059093080552
:10512000A0930905B0930A05609136037091370387
:10513000809138039091390320E030E040E752E459
:105140000E941D807B018C0183E095E067E075E0A3
:105150004BE055E02FE035E00E94754B0E94D96886
:1051600080E090E0A0E2B1EC809307059093080501
:10517000A0930905B0930A0560912203709123035F
:10518000809124039091250320E030E040E05FE32C
:105190000E94F6826093360370933703809338033E
:1051A0009093390320E030E040E752E40E941D80F4
:1051B0007B018C0183E095E067E075E04BE055E012
:1051C0002FE035E00E94754B0E94D9688092CC0494
:1051D0009092CD04A092CE04B092CF0480920705A5
:1051E00090920805A0920905B0920A0580923603B4
:1051F00090923703A0923803B09239030E946667F9
:1052000080913A03882331F48AE50E944A1E88235C
:1052100009F4DAC00F2EF0E08F2EF0E09F2EF0E0C0
:10522000AF2EF0E0BF2EF02D8092D0049092D104EA
:10523000A092D204B092D30488EC94E06CEC74E0B9
:1052400040ED54E024ED34E00E940E4580E090EC07
:10525000A9E9B3EC80930B0590930C05A0930D0581
:10526000B0930E0560912603709127038091280367
:10527000909129036093360370933703809338032A
:105280009093390320E030E040E752E40E941D8013
:105290007B018C0183E095E067E075E04BE055E031
:1052A0002FE035E0E4EECE2EE4E0DE2E0E94754BDA
:1052B0000E94D9688092D0049092D104A092D20426
:1052C000B092D30488EC94E06CEC74E040ED54E0D0
:1052D00024ED34E00E940E4580E090E0A0E8BFE3BA
:1052E00080930B0590930C05A0930D05B0930E05CC
:1052F00060913603709137038091380390913903A0
:1053000020E030E040E752E40E941D807B018C01E8
:1053100083E095E067E075E04BE055E02FE035E095
:105320000E94754B0E94D96880E090E0A0E0B0EC4C
:1053300080930B0590930C05A0930D05B0930E057B
:10534000609126037091270380912803909129038F
:1053500020E030E040E05FE30E94F6826093360395
:1053600070933703809338039093390320E030E043
:1053700040E752E40E941D807B018C0183E095E0B0
:1053800067E075E04BE055E02FE035E00E94754B9B
:105390000E94D9688092D0049092D104A092D20445
:1053A000B092D30480920B0590920C05A0920D054B
:1053B000B0920E058092360390923703A092380384
:1053C000B09239030E94666788E50E944A1E8823CE
:1053D000C9F059DB611571058105910599F05EDB16
:1053E0002091D8043091D9044091DA045091DB0423
:1053F0000E943D7F6093C8047093C9048093CA04DF
:105400009093CB0489E50E944A1E8823C9F03BDBB8
:10541000611571058105910599F040DB2091DC044F
:105420003091DD044091DE045091DF040E943D7F05
:105430006093CC047093CD048093CE049093CF04FA
:105440008AE50E944A1E8823C9F01DDB611571059B
:105450008105910599F022DB2091E0043091E1046F
:105460004091E2045091E3040E943D7F6093D00498
:105470007093D1048093D2049093D30488EC94E089
:105480006CEC74E040ED54E024ED34E00E940E45F5
:1054900080E00E946D6780911E0590911F05A0918C
:1054A0002005B09121058093360390933703A09394
:1054B0003803B09339038091C5049091C60490934A
:1054C0002F0380932E030E94697C6093EF047093F6
:1054D000F0048093F1049093F2040E9466670C94A8
:1054E0000B38109213050C940B3881E08093130550
:1054F0000C940B3885E40E944A1E882311F40E9404
:10550000D96818ECE12E14E0F12EB8EDCB2EB4E002
:10551000DB2E00E010E0F801EF59FC4F80810E9483
:105520004A1E882321F1033059F4B8DAF701608369
:1055300071838283938384ED94E00E94F14417C0C9
:10554000ADDAF60120813181428153810E943D7F95
:10555000F701608371838283938388EC94E06CEC21
:1055600074E040ED54E024ED34E00E940E450F5FFE
:105570001F4F24E030E0E20EF31EC20ED31E0430B3
:10558000110549F60C940B388DE40E944A1E8823BD
:1055900011F40C94553782DA0E9485806B367105C0
:1055A00009F466C76C3671050CF085C06E31710563
:1055B00009F4F3C16F317105ECF56731710509F438
:1055C0005EC168317105DCF46431710509F41EC1F6
:1055D0006531710554F46131710509F411C162310D
:1055E000710511F00C940B3863C76531710509F42E
:1055F0003AC16631710511F00C940B383AC16A3129
:10560000710509F46AC16B31710554F46831710593
:1056100009F44DC16931710511F00C940B3857C173
:105620006B31710509F477C16C31710511F00C947F
:105630000B3877C16335710509F436C764357105D8
:10564000DCF46035710509F427C76135710554F440
:105650006F31710509F4E6C16A32710511F00C94DD
:105660000B389FC26135710509F419C762357105A0
:1056700011F00C940B3815C76C35710509F477C718
:105680006D35710554F46435710509F411C765353C
:10569000710511F00C940B3854C76936710509F483
:1056A0003AC36A3671050CF0BBC66836710511F055
:1056B0000C940B38B9C26D3C710511F40C949435FF
:1056C0006E3C71050CF047C06837710511F40C94FD
:1056D0003C3469377105E4F46237710509F4DBC7BE
:1056E0006337710554F46C36710509F4C4C66D3620
:1056F000710511F00C940B38F3C36337710509F48D
:10570000BBC76737710511F00C940B380C94423409
:105710006E3B710509F4D9C56F3B71055CF46937BF
:10572000710511F40C943E346C38710511F00C9431
:105730000B38DCC26B3C710511F40C9456356C3C93
:10574000710514F00C947435693C710511F00C94DA
:105750000B380C941C3531E06F32730711F40C9444
:10576000223741E0603374070CF56D3D710511F48B
:105770000C9422366E3D710564F46E3C710511F493
:105780000C94F2356C3D710511F00C940B380C94AF
:10579000103651E06D32750711F40C9431366E52AB
:1057A000714011F00C940B380C941E3791E0653F5A
:1057B000790711F40C943737E1E0663F7E076CF40B
:1057C000F1E060397F0711F40C943137645F714068
:1057D00011F00C940B380C94343731E0673F7307A9
:1057E00011F40C943D3741E0673F740714F40C94B6
:1057F0003937675E734011F00C940B380C944037C6
:1058000017981698159814980C940B38E8E5F4E05E
:10581000949108C08091C00085FFFCCF9093C60092
:10582000319694919923B1F78091C00085FFFCCF08
:105830008AE08093C6008CED93E00E94F618EAE4BB
:10584000F4E0949108C08091C00085FFFCCF909354
:10585000C600319694919923B1F78091C00085FFDD
:10586000FCCF0C9408388CED93E00E9431150C9419
:105870000B388CED93E00E942C100C940B38809127
:1058800022059091230504966AE270E00E94500D73
:10589000FC01009711F03197108260912205709100
:1058A00023056C5F7F4F8CED93E041E072C08CED7F
:1058B00093E00E9430100E94697C609324057093ED
:1058C000250580932605909327050C940B388CEDC5
:1058D00093E00E9437100C940B388091DE038823EC
:1058E00011F40C940B3883E50E944A1E882311F4AE
:1058F0000C940B38C8D8AB01BC014093B60450934C
:10590000B7048093B8047093B90483E994E00E94CB
:105910001E5A0C940B388CED93E00E947F110C946E
:105920000B38809122059091230504966AE270E07D
:105930000E94500D8C01009719F1209118053091AB
:10594000190580E690E0FC012E9FC0012F9F900D6D
:105950003E9F900D1124885D9A4F6EE470E00E9486
:10596000500D60E270E00E94500D9C012F5F3F4F90
:10597000309323052093220501501040F801108236
:1059800060912205709123056C5F7F4F8CED93E051
:1059900040E00E94D9110C940B388091DE038823DB
:1059A00011F40C940B388CED93E00E9493108091CD
:1059B00022059091230504966AE270E00E94500D42
:1059C0008C01009719F1209118053091190580E696
:1059D00090E0AC01249FC001259F900D349F900D55
:1059E0001124885D9A4F6EE470E00E94500D60E2D1
:1059F00070E00E94500D9C012F5F3F4F30932305B4
:105A00002093220501501040F80110826091220578
:105A1000709123056C5F7F4F8CED93E00E94DD1346
:105A20000C940B380E94697C6093A8067093A906B9
:105A30008093AA069093AB0620912405309125050A
:105A40004091260550912705621B730B840B950B23
:105A500028EE33E040E050E00E94FA83F22EE32E7D
:105A6000D42EC52E2DB73EB7285030400FB6F8942F
:105A70003EBF0FBE2DBF0DB71EB70F5F1F4FCE012C
:105A80000196EDB7FEB79283818387E592E0F80136
:105A9000938382836F2D7E2D842F952F2CE330E00E
:105AA00040E050E00E94FA83F801358324836F2D93
:105AB0007E2D8D2D9C2D2CE330E040E050E00E94A7
:105AC000FA83F801778366830E94990DE5E2F3E09B
:105AD00094912DB73EB7285F3F4F0FB6F8943EBF65
