:100000000C94C70D0C94F40D0C94F40D0C94F40D99
:100010000C94F40D0C94F40D0C94F40D0C94F40D5C
:100020000C94F40D0C94F40D0C94F40D0C94F40D4C
:100030000C94F40D0C94A1CC0C94F40D0C94F40DD0
:100040000C94F40D0C94EF770C94F40D0C94F40DC7
:100050000C94F40D0C94F40D0C94E7800C94BAC835
:100060000C94F40D0C94BE2B0C94F40D0C94F40D24
:100070000C94F40D0C94F40D0C94F40D0C94F40DFC
:100080000C94F40D0C94F40D0C94F40D0C94F40DEC
:100090000C94F40D0C94F40D0C94F40D0C94F7C620
:1000A0000C94F40D0C94F40D0C94F40D0C94F40DCC
:1000B0000C94F40D0C94F40D0C94F40D0C94F40DBC
:1000C0000C94F40D0C94F40D0C94F40D0C94F40DAC
:1000D0000C94F40D0C94F40D0C94F40D0C94F40D9C
:1000E0000C94F40D084AD73B3BCE016E84BCBFFD97
:1000F000C12F3D6C74319ABD56833DDA3D00C77FF8
:1001000011BED9E4BB4C3E916BAAAABE0000008090
:100110003F05A84CCDB2D44EB93836A9020C50B91F
:10012000918688083CA6AAAA2ABE000000803F4DFE
:10013000383420582059205A2045006563686F3AAA
:100140000043616E6E6F7420656E74657220737506
:10015000626469723A20004D3234004D32332025FA
:1001600073006175746F25692E67004572726F7236
:100170003A006572726F722077726974696E6720D7
:10018000746F2066696C65004E6F74205344207054
:1001900072696E74696E67002F0053442070726933
:1001A0006E74696E67206279746520002E00446564
:1001B0006C6574696F6E206661696C65642C20469D
:1001C000696C653A200046696C652064656C6574ED
:1001D00065643A002E006F70656E206661696C651B
:1001E000642C2046696C653A200057726974696E08
:1001F0006720746F2066696C653A20002E006F706E
:10020000656E206661696C65642C2046696C653A90
:1002100020002E006F70656E206661696C65642C2D
:100220002046696C653A200046696C652073656CF0
:100230006563746564002053697A653A20004669F5
:100240006C65206F70656E65643A20002E006F70DB
:10025000656E206661696C65642C2046696C653A40
:10026000200053442063617264206F6B006F7065DF
:100270006E526F6F74206661696C656400766F6C96
:10028000756D652E696E6974206661696C656400C0
:10029000534420696E6974206661696C0065636807
:1002A0006F3A0048617264636F64656420446566F8
:1002B00061756C742053657474696E6773204C6F3C
:1002C000616465640053746F72656420736574744F
:1002D000696E677320726574726965766564002063
:1002E00044002049002020204D3330312050005060
:1002F00049442073657474696E67733A00205A002C
:1003000020590020204D323036205800486F6D654E
:10031000206F666673657420286D6D293A0020454C
:1003200000205A0020580020420020540020204D78
:10033000323035205300416476616E636564207607
:1003400061726961626C65733A20533D4D696E203C
:10035000666565647261746520286D6D2F73292C44
:1003600020543D4D696E2074726176656C2066651F
:1003700065647261746520286D6D2F73292C20428D
:100380003D6D696E696D756D207365676D656E7421
:100390002074696D6520286D73292C20583D6D618E
:1003A00078696D756D205859206A65726B20286DCB
:1003B0006D2F73292C20205A3D6D6178696D756D04
:1003C000205A206A65726B20286D6D2F73292C20AE
:1003D00020453D6D6178696D756D2045206A6572B7
:1003E0006B20286D6D2F73290020540020204D3282
:1003F0003034205300416363656C65726174696FCA
:100400006E3A20533D616363656C65726174696F18
:100410006E2C20543D726574726163742061636355
:10042000656C65726174696F6E00204500205A002A
:1004300020590020204D3230312058004D6178691C
:100440006D756D20416363656C65726174696F6E73
:1004500020286D6D2F7332293A00204500205A0064
:1004600020590020204D3230332058004D617869EA
:100470006D756D2066656564726174657320286DA5
:100480006D2F73293A00204500205A002059002082
:10049000204D393220580053746570732070657296
:1004A00020756E69743A0053657474696E677320C1
:1004B00053746F726564006563686F3A00457272C9
:1004C0006F723A0053544F505045442E20005072E2
:1004D000696E7465722073746F70706564206475E2
:1004E0006520746F206572726F72732E2046697872
:1004F00020746865206572726F7220616E64207569
:100500007365204D39393920746F207265737461B9
:1005100072742E202854656D7065726174757265F1
:100520002069732072657365742E20536574206989
:100530007420616674657220726573746172746987
:100540006E6729004B494C4C45442E20005072697F
:100550006E7465722068616C7465642E206B696CC2
:100560006C28292063616C6C656421006F6B0052FC
:100570006573656E643A20002200556E6B6E6F776E
:100580006E20636F6D6D616E643A2022007A5F6D3C
:10059000696E3A2000795F6D696E3A2000785F6D70
:1005A000696E3A20005A3A00593A0020436F756E3E
:1005B0007420583A2000453A005A3A00593A0058F7
:1005C0003A004649524D574152455F4E414D453ADA
:1005D0004D61726C696E2056313B20537072696EAA
:1005E0007465722F6772626C206D6173687570201C
:1005F000666F722067656E36204649524D574152EC
:10060000455F55524C3A687474703A2F2F7777775C
:100610002E6D656E64656C2D70617274732E636FE0
:100620006D2050524F544F434F4C5F5645525349E3
:100630004F4E3A312E30204D414348494E455F548C
:100640005950453A4D616B657247656172204D3274
:100650002045585452554445525F434F554E543AE5
:10066000310A004D616B657247656172204D322021
:100670004F66662E004D616B657247656172204D55
:10068000322052656164792E0042656420646F6E89
:10069000652E0020423A0020453A00543A00426557
:1006A000642048656174696E672E004865617469ED
:1006B0006E6720646F6E652E0020573A0020453A21
:1006C00000543A0048656174696E672E2E2E002032
:1006D00042403A0020403A00202F003A00205400C7
:1006E000202F0020423A00202F006F6B20543A0048
:1006F0002569206D696E2C2025692073656300458E
:100700006E642066696C65206C697374004265676D
:10071000696E2066696C65206C697374004E6F2089
:100720006D6F76652E00526573756D696E6720700A
:1007300072696E74005761697420666F72207573F8
:1007400065722E2E2E00536C6565702E2E2E00FFC6
:10075000FFFF00004D4300007F43000048430000BE
:10076000A0400000A0400000803F0000000000000A
:100770000000000000000000000000000000000079
:10078000000000004D4300007F43000048432569FE
:1007900020686F757273202569206D696E757465A8
:1007A0007300446F6E65207072696E74696E6720A5
:1007B00066696C650053544F505045442E200050DC
:1007C00072696E7465722073746F707065642064F2
:1007D000756520746F206572726F72732E20466982
:1007E0007820746865206572726F7220616E642073
:1007F000757365204D39393920746F2072657374B3
:100800006172742E202854656D7065726174757202
:10081000652069732072657365742E20536574209A
:100820006974206166746572207265737461727494
:10083000696E6729006F6B004E6F204C696E6520F2
:100840004E756D62657220776974682063686563B0
:100850006B73756D2C204C617374204C696E653A16
:1008600020004E6F20436865636B73756D20776958
:100870007468206C696E65206E756D6265722C20DF
:100880004C617374204C696E653A2000636865633F
:100890006B73756D206D69736D617463682C204C8A
:1008A000617374204C696E653A20004C696E652056
:1008B0004E756D626572206973206E6F74204C6195
:1008C0007374204C696E65204E756D6265722B31B4
:1008D0002C204C617374204C696E653A20004D31B8
:1008E000313000446F6E6520736176696E672066F3
:1008F000696C652E006F6B004D3239002020506C02
:10090000616E6E6572427566666572427974657372
:100910003A20002046726565204D656D6F72793A08
:1009200020004A756C203132203230323200436F61
:100930006D70696C65643A2000286E6F6E652C20BE
:1009400064656661756C7420636F6E666967290003
:10095000207C20417574686F723A20004A756C20C3
:10096000313220323032322031323A31393A333179
:1009700000204C61737420557064617465643A2082
:1009800000312E302E30004D61726C696E200020D7
:10099000536F6674776172652052657365740020C9
:1009A0005761746368646F672052657365740020D3
:1009B00042726F776E206F75742052657365740094
:1009C0002045787465726E616C20526573657400A1
:1009D000506F7765725570007374617274002200F5
:1009E000656E717565696E672022002200656E7103
:1009F0007565696E672022006563686F3A00207430
:100A00006F6F206C6F6E6720657874727573696F95
:100A10006E2070726576656E7465640020636F6C1D
:100A20006420657874727573696F6E207072657674
:100A3000656E746564007C3C3E5E2B3D3F2F5B5DC4
:100A40003B2C2A225C0045313A200045303A2000F8
:100A50005A3A2000593A2000583A20004D53312C80
:100A60004D53322050696E730A0024F404D9201BC0
:100A7000C40C5C0E9804C4095F0265077101F4059B
:100A8000F900FB04B30048048700C1036900580360
:100A9000550003034500BE023A00840231005302B0
:100AA0002A002902250004022000E4011C00C801DC
:100AB0001900AF011700980114008401130071019F
:100AC00010006101100051010E0043010D003601BC
:100AD0000B002B010B0020010B00150109000C017C
:100AE000090003010800FB000800F3000800EB0008
:100AF0000700E4000600DE000600D8000600D20071
:100B00000600CC000500C7000500C2000500BD00BE
:100B10000400B9000400B5000400B1000400AD00F9
:100B20000400A9000400A5000300A20003009F0028
:100B300004009B000300980003009500020093004E
:100B40000300900003008D0002008B00030088006A
:100B500002008600020084000300810002007F0082
:100B600002007D0002007B00020079000200770095
:100B700001007600020074000200720001007100A2
:100B800002006F0002006D0001006C0002006A00AC
:100B900001006900020067000100660001006500B5
:100BA00001006400020062000100610001006000B9
:100BB00001005F0002005D0001005C0001005B00BD
:100BC00001005A00010059000100580001005700BF
:100BD00001005600010055000100540001005300BF
:100BE00000005300010052000100510001005000BC
:100BF00001004F0001004E0000004E0001004D00BA
:100C000001004C0001004B0000004B0001004A00B5
:100C100001004900010048000000480001004700B1
:100C200001004600000046000100450000004500AC
:100C300001004400010043000000430001004200A5
:100C4000000042000100410000004100010040009E
:100C500001003F0000003F0001003E0000003E0098
:100C600001003D0000003D0001003C0000003C0090
:100C700000003C0001003B0000003B0001003A0086
:100C800000003A000100390000003900010038007E
:100C90000000380000003800010037000000370075
:100CA000010036000000360000003600010035006B
:100CB0000000350000003500010034000000340061
:100CC0000000340001003300000033000000330056
:100CD000010032000000320000003200010031004B
:100CE0000000310000003100010030000000300041
:100CF0000000300001002F0000002F0000002F0036
:100D000000002F0001002E0000002E0000002E0029
:100D100001002D0000002D0000002D0000002D001E
:100D200001002C0000002C0000002C0000002C0012
:100D300001002B0000002B0000002B0000002B0006
:100D400001002A0000002A0000002A0000002A00FA
:100D500001002900000029000000290000002900EE
:100D600000002900010028000000280000002800E1
:100D700000002800000028000100270000002700D4
:100D800000002700000027000000270001002600C7
:100D900000002600000026000000260000002600BB
:100DA00001002500000025000000250000002500AE
:100DB00000002500000025000100240000002400A0
:100DC0000000240000002400000024000100230093
:100DD0000000230000002300000023000000230087
:100DE0000000230000002300010022000000220078
:100DF000000022000000220000002200000022006B
:100E0000010021000000210000002100000021005D
:100E1000000021000000210000002100010020004E
:100E20000000200000002000000020000000200042
:100E300000002000000020000000200001001F0032
:100E400000001F0000001F0000001F0000001F0026
:100E500000001F0000001F0001001E0000001E0017
:100E600000001E0000001E00000024F4D43050C317
:100E70008E20C2A24017828B7011127A910D816C64
:100E8000D90AA861E108C7586607615143061E4B9D
:100E90005D05C145A7041A411104093D9803713944
:100EA00031034036DB0265339102D4305402802E88
:100EB0001D02632CEE01752AC501B028A001102780
:100EC00081018F2564012B244B01E0223401AC21E8
:100ED0001F018D200D01801FFC00841EED00971D59
:100EE000DF00B81CD200E61BC600201BBC00641A41
:100EF000B200B219A8000A19A0006A189900D11707
:100F0000910040178B00B516840031167E00B31592
:100F100079003A157300C7146F0058146A00EE1375
:100F200066008813630025135E00C7125B006C1215
:100F3000570015125400C111510070114F002111BA
:100F40004B00D61049008D10470046104400021097
:100F50004200C00F4000800F3E00420F3C00060FD1
:100F60003B00CB0E3800930E37005C0E3500270E89
:100F70003400F30D3200C10D3100900D3000600DD2
:100F80002E00320D2D00050D2C00D90C2B00AE0CBF
:100F90002900850C29005C0C2700350C27000E0C5D
:100FA0002600E80B2400C40B2400A00B23007D0BBB
:100FB00023005A0B2100390B2100180B2000F80ADE
:100FC0001F00D90A1E00BB0A1E009D0A1D00800AD0
:100FD0001D00630A1C00470A1B002C0A1B00110A93
:100FE0001A00F7091A00DD091900C4091900AB0934
:100FF0001900920917007B091800630917004C09B2
:10100000160036091600200916000A091500F50811
:101010001500E0081400CC081400B8081400A40857
:101020001400900813007D0812006B081300580884
:10103000120046081200340811002308110012089B
:10104000110001081100F0071000E0071000D007A0
:101050001000C0071000B0070F00A1071000910793
:101060000E0083070F0074070F0065070E00570777
:101070000E0049070E003B070D002E070E0020074B
:101080000D0013070D0006070D00F9060C00ED0614
:101090000D00E0060C00D4060C00C8060C00BC06CF
:1010A0000C00B0060C00A4060B0099060C008D067F
:1010B0000B0082060B0077060B006C060B00610626
:1010C0000A0057060B004C060A0042060A003806C2
:1010D0000A002E060A0024060A001A060A00100654
:1010E000090007060A00FD050900F4050900EB05E3
:1010F0000900E2050900D9050900D0050900C70566
:101100000900BE050900B5050800AD050800A505E4
:1011100009009C050800940508008C05080084055A
:1011200008007C050800740508006C0507006505CB
:1011300008005D050700560508004E050700470535
:1011400007004005080038050700310507002A059B
:101150000700230507001C050600160507000F05FC
:1011600007000805060002050700FB040600F50459
:101170000700EE040600E8040600E2040700DB04B2
:101180000600D5040600CF040600C9040600C30407
:101190000600BD040600B7040600B1040500AC0457
:1011A0000600A6040600A00405009B0406009504A2
:1011B0000500900406008A040500850405008004EB
:1011C00006007A04050075040500700405006B0430
:1011D000050066040500610405005C040500570471
:1011E0000500520405004D040500480405004304B1
:1011F00005003E0404003A040500350405003004EF
:1012000004002C04050027040400230405001E0428
:1012100004001A04040016040500110404000D045F
:101220000400090405000404040000040400FC0395
:101230000400F8030400F4030400F0030400EC03CA
:101240000400E8030400E4030400E0030400DC03FA
:101250000400D8030400D4030400D0030400CC032A
:101260000400C8030300C50303006563686F3A0008
:10127000656E6473746F7073206869743A205A00E5
:10128000205A3A00656E6473746F707320686974D5
:101290003A20590020593A00656E6473746F707378
:1012A000206869743A20580020583A00656E6473CB
:1012B000746F7073206869743A20004572726F729F
:1012C0003A004572723A204D415854454D502042E3
:1012D00045440054656D706572617475726520686F
:1012E00065617465642062656420737769746368FE
:1012F0006564206F66662E204D415854454D502040
:101300007472696767657265642021210045727295
:101310003A204D494E54454D50003A20457874725C
:1013200075646572207377697463686564206F669D
:10133000662E204D494E54454D50207472696767A2
:10134000657265642021004572723A204D415854FF
:10135000454D50003A20457874727564657220736B
:1013600077697463686564206F66662E204D415806
:1013700054454D5020747269676765726564202119
:1013800000202D20496E76616C6964206578747246
:1013900075646572206E756D626572202100700142
:1013A0002C0190012701B0012201C0011D01F001B3
:1013B00018011002130130020E01600209019002AF
:1013C0000401C002FF000003FA004003F50080039F
:1013D000F000D003EB002004E6007004E100E0041C
:1013E000DC004005D700C005D2004006CD00D00685
:1013F000C8008007C3003008BE00F008B900C0096B
:10140000B400B00AAF00B00BAA00D00CA500000ECB
:10141000A000500F9B00C0109600501291000014C5
:101420008C00C0158700B0178200B0197D00D01B5A
:101430007800001E730040206E0090226900F024A6
:10144000640040275F0090295A00E02B5500102EC1
:10145000500020304B0010324600E0334100903500
:101460003C001037370070383200A0392D00B03AF8
:101470002800A03B2300603C1E00103D1900903D59
:101480001400103E0F00703E0A00C03E0500003FF1
:101490000000504944204175746F74756E65206674
:1014A000696E69736865642120507574207468657D
:1014B000204B702C204B6920616E64204B642063AC
:1014C0006F6E7374616E747320696E746F20436FF6
:1014D0006E66696775726174696F6E2E6800504937
:1014E00044204175746F74756E65206661696C6522
:1014F00064212074696D656F75740020403A006F37
:101500006B20543A006F6B20423A0050494420410E
:1015100075746F74756E65206661696C65642120F1
:1015200054656D706572617475726520746F6F209B
:101530006869676800204B643A2000204B693A20B4
:1015400000204B703A200020436C61736963205087
:10155000494420002054753A2000204B753A200061
:10156000206D61783A2000206D696E3A2000206479
:101570003A200020626961733A20002D2D3A2D2D0A
:10158000002D2D2D00534400205900012000012082
:10159000004E6F2043617264005072696E74206661
:1015A000726F6D2053440053746F70205072696ED7
:1015B0007400526573756D65205072696E740050C9
:1015C00061757365205072696E7400436F6E74723A
:1015D0006F6C00507265706172650054756E6500C5
:1015E000496E666F2073637265656E00052E2E006E
:1015F0004D61696E004D3234004D32332025730049
:101600004D383420582059205A20450052657374B3
:101610006F7265204661696C73616665004C6F612D
:1016200064206D656D6F72790053746F7265206D03
:10163000656D6F7279004D6F74696F6E0054656DE2
:101640007065726174757265004D61696E004573F5
:10165000746570732F6D6D004573746570732F6DB5
:101660006D005A73746570732F6D6D005A737465D5
:1016700070732F6D6D005973746570732F6D6D00ED
:101680005973746570732F6D6D0058737465707342
:101690002F6D6D005873746570732F6D6D00412D43
:1016A0007265747261637400412D72657472616356
:1016B0007400416D6178206500416D61782065009E
:1016C000416D6178207A00416D6178207A00416D2A
:1016D0006178207900416D6178207900416D6178F1
:1016E000207800416D617820780056547261762030
:1016F0006D696E005654726176206D696E00566D8C
:10170000696E00566D696E00566D617820650056F1
:101710006D6178206500566D6178207A00566D61A4
:1017200078207A00566D6178207900566D617820B6
:101730007900566D6178207800566D6178207800C8
:1017400056652D6A65726B0056652D6A65726B0071
:10175000567A2D6A65726B00567A2D6A65726B0037
:101760005678792D6A65726B005678792D6A6572A4
:101770006B00416363656C00416363656C00436F9C
:101780006E74726F6C0050726568656174204142BE
:101790005320436F6E660050726568656174205017
:1017A0004C4120436F6E66005049442D4300504920
:1017B000442D43005049442D44005049442D4400D9
:1017C0005049442D49005049442D49005049442D69
:1017D00050005049442D500020022046616374009F
:1017E00020022046616374002002204D61780020B1
:1017F00002204D6178002002204D696E00200220F9
:101800004D696E004F6666004F6E20004F666600A1
:101810004F6E20004175746F74656D700046616E87
:101820002073706565640046616E20737065656441
:101830000042656400426564004E6F7A7A6C650010
:101840004E6F7A7A6C6500436F6E74726F6C0053E2
:10185000746F7265206D656D6F727900426564000A
:10186000426564004E6F7A7A6C65004E6F7A7A6CCE
:10187000650046616E2073706565640046616E2088
:1018800073706565640054656D706572617475721E
:10189000650053746F7265206D656D6F72790042DB
:1018A000656400426564004E6F7A7A6C65004E6F25
:1018B0007A7A6C650046616E2073706565640046D7
:1018C000616E2073706565640054656D706572614A
:1018D00074757265004D6F76652041786973004DAF
:1018E00038300053776974636820506F77657220D1
:1018F0004F6E004D38310053776974636820506F24
:10190000776572204F666600436F6F6C646F776E09
:1019100000507265686561742041425300507265E1
:101920006865617420504C4100473238004175743D
:101930006F20486F6D65004D3834004469736162F3
:101940006C65205374657070657273004D61696ECB
:10195000004D6F766520302E316D6D004D6F7665D0
:1019600020316D6D004D6F76652031306D6D00500A
:101970007265706172650045787472756465720095
:101980004D6F7665205A004D6F76652059004D6F7A
:1019900076652058004D6F76652041786973004563
:1019A00078747275646572005A0059005800466C6C
:1019B0006F7700466C6F770046616E2073706565C7
:1019C000640046616E207370656564004265640062
:1019D000426564004E6F7A7A6C65004E6F7A7A6C5D
:1019E00065005370656564005370656564004D6102
:1019F000696E00526573756D65205072696E740072
:101A00005061757365205072696E74004361726431
:101A10002072656D6F766564004361726420696E43
:101A20007365727465640000002100240027002A99
:101A3000002D003000330001010000040107010AFD
:101A40000100002200250028002B002E0031003468
:101A50000002010000050108010B01000020002325
:101A600000260029002C002F003200000100000396
:101A70000106010901050505050705080808080212
:101A80000202020A0A080804040404010101010117
:101A90000101010303030303030303040707070C06
:101AA0000C0C0C0C0C0C0C020202020606060606BC
:101AB0000606060B0B0B0B0B0B0B0B010210202069
:101AC0000808102040102040800201020108040292
:101AD0000101020408102040808040201008040208
:101AE0000180040201804020100804020108040261
:101AF0000101020408102040800102040810204067
:101B0000800000090A02080B0C0D070603040100FF
:101B100000000000000000000000000000000000C5
:101B20000000000000000000000000000011100F85
:101B300000000000000000000000000000000000A5
:101B40000000000000000002494E46494E49545929
:101B50004E414ECDCCCC3D0AD7233C17B7D1387778
:101B6000CC2B329595E6241FB14F0A00002041008E
:101B700000C84200401C4620BCBE4CCA1B0E5AAED8
:101B8000C59D7400522CBD2E4DBF9DC5B82E11248D
:101B90001FBECFEFD1E2DEBFCDBF00E00CBF14E02F
:101BA000A0E0B2E0E4EBFAEA01E00BBF02C007906C
:101BB0000D92A638B107D9F71BBE12E1A6E8B4E032
:101BC00001C01D92A036B107E1F71BE1CCE8DBE1D3
:101BD00004C02297FE010E9400D5C438D107C9F77E
:101BE0000E94FBCB0C944ED50C940000A0E0B0E01A
:101BF000ECEFFDE00C941DD5EC015B016115710566
:101C000019F0FB0191838083F9908F2D90E00E9461
:101C100004D5892BC9F7FDE2FF1621F4F990EE24D3
:101C2000E39405C02BE2F21609F4F990EE248E013C
:101C300001501040C80168E47BE143E050E072D2FB
:101C4000892BF9F48E010E5F1F4FC8016BE47BE115
:101C500045E050E067D2892B19F48E01095F1F4FD0
:101C6000A114B10419F0F50111830083E0FC04C054
:101C700070E090E080E813C070E090E080E86FEFE3
:101C800007C1C80160E57BE143E050E04BD2892BFE
:101C900069F4A114B10429F470E090E080EC6FE7DE
:101CA000F7C02296F501D183C083F6CF882499240A
:101CB00040E050E060E070E0EF2DE053EA30A0F546
:101CC000F2E0EF2A8E2D90E09C0128703070E2FE49
:101CD00006C0232B79F50894811C911C2BC0232B63
:101CE00019F0089481089108DB01CA0112E0880FFD
:101CF000991FAA1FBB1F1A95D1F7480F591F6A1FBA
:101D00007B1F440F551F661F771F4E0F511D611D0E
:101D1000711D483929E9520729E9620729E172074B
:101D200048F084E0E82A06C0EE3F31F4E3FC39C015
:101D300098E0E92AF990C0CFE53311F0E53189F553
:101D400029912D3219F4E0E1EE2A05C02B3219F069
:101D500081E090E003C0299182E090E0E22FE0531F
:101D6000EA3018F0C81BD90B1CC020E030E0FCE0C2
:101D700020383F075CF4C901880F991F880F991F0D
:101D8000280F391F220F331F2E0F311DE991E05309
:101D9000EA3068F3E4FE03C0309521953F4F820E90
:101DA000931ECE2CDD24E1FE07C0A114B10421F066
:101DB0002197F501D183C083CB01BA010E9469D17B
:101DC0007B018C01F3E0CF22DD2423E0C216D10495
:101DD00021F417FB109517F9109557016801C801F8
:101DE000B70120E030E040E050E00E94C9D08823F5
:101DF00009F44AC097FE0DC027E6E22E2BE1F22E31
:101E00009094819491089394C0E2D0E000E010E0B7
:101E100012C09FE7E92E9BE1F92EF6CFF70125913D
:101E2000359145915491C601B5010E94A9D35B013A
:101E30006C018C1A9D0A8C169D0684F7D595C79562
:101E40000F5F1F4F0630110529F08CEF9FEFE80E52
:101E5000F91EF1CFC501D6017C018D018C2D880FB3
:101E60008D2D881F8F3F51F0C601B50120E030E075
:101E700040E050E00E94C9D0882331F482E290E033
:101E800090935F1280935E127E2D9F2D802F612F85
:101E9000272F392F482F562FB901CA01CDB7DEB7EA
:101EA000ECE00C9439D52F923F925F926F927F9223
:101EB0008F929F92AF92BF92CF92DF92EF92FF925A
:101EC0000F931F93CF93DF938C011B01EA016115E0
:101ED000710519F0FB0191838083209749F0CE01B1
:101EE0000297839728F020E030E040E050E0F6C011
:101EF000F801A1908F018A2D90E00E9404D5892BD2
:101F0000B9F7FDE2AF1631F4F801A1908F01552425
:101F1000539407C0FBE2AF1619F4F801A1908F01AA
:101F20005524209719F0C031D105C1F4F0E3AF1664
:101F300079F4F8018081883711F0883549F4F80187
:101F4000A1800E5F1F4FF2E05F2AC0E1D0E006C023
:101F5000209721F480E3A816E9F427C0C830D10502
:101F600031F1C930D10524F4C230D10531F50CC0AE
:101F7000CA30D10589F0C031D105F9F4C12CD12C7A
:101F8000E12CB8E0FB2E28C0C12CD12CE12CA0E420
:101F9000FA2E22C0CAE0D0E0FCECCF2EFCECDF2E03
:101FA000FCECEF2EFCE0FF2E17C0C8E0D0E0C12C07
:101FB000D12CE12CE0E1FE2E0FC09E01442737FD1D
:101FC0004095542F60E070E080E090E80E94C1D41A
:101FD000C901DA016C017D0120E030E040E050E011
:101FE00060E03E01882477FC8094982C70EDB72E39
:101FF000BA0CE9E0EB1570F48A2D81548A3118F49B
:1020000099ECB92E06C08A2D81568A3150F589EA9D
:10201000B82EBA0C8B2D90E08C179D0714F56F3FEE
:10202000E1F0C216D306E406F506B0F0CA01B90124
:10203000A40193010E947BD49B01AC012B0D311DA7
:10204000411D511D2130F0E03F07F0E04F07F0E85F
:102050005F0710F461E001C06FEFF801A1908F01FC
:10206000C5CF2114310481F0662331F001501040B6
:10207000F1011183008308C051FE1AC002501040C4
:10208000F1011183008314C067FF12C050FC05C02A
:102090002FEF3FEF4FEF5FE704C020E030E040E07C
:1020A00050E882E290E090935F1280935E1216C037
:1020B00050FE08C050954095309521953F4F4F4FA9
:1020C0005F4F0CC057FF0AC082E290E090935F120E
:1020D00080935E122FEF3FEF4FEF5FE7B901CA0128
:1020E000DF91CF911F910F91FF90EF90DF90CF90F4
:1020F000BF90AF909F908F907F906F905F903F9038
:102100002F900895FB01DC0105900D920020E1F76E
:102110000895FC0105900020E9F7809590958E0FB9
:102120009F1F0895FB01DC014150504088F08D91C4
:1021300081341CF08B350CF4805E659161341CF0A9
:102140006B350CF4605E861B611171F3990B089579
:10215000881BFCCFFB01DC014150504048F005904A
:102160000D920020C9F701C01D9241505040E0F788
:102170000895FB0155915523A9F0BF01DC014D9154
:1021800045174111E1F759F4CD010590002049F0C0
:102190004D9140154111C9F3FB014111EFCF81E091
:1021A00090E001970895FB01DC0104C08D9101903E
:1021B000801921F441505040C8F7881B990B0895AD
:1021C000FB01DC0102C001900D9241505040D8F754
:1021D0000895FB01DC010D900020E9F711970190B3
:1021E0000D920020E1F70895FC018191861721F0FE
:1021F0008823D9F7992708953197CF010895FB01D6
:10220000DC0101900D920020E1F70895FB01DC0153
:102210004150504030F08D910190801919F4002008
:10222000B9F7881B990B0895FB01DC014150504020
:1022300048F001900D920020C9F701C01D92415055
:102240005040E0F70895AEE0B0E0E9E2F1E10C942F
:1022500025D50E891F898EE08C831A8309838FEF21
:102260009FE79E838D839E01265E3F4FCE010196A0
:10227000688D798DA9010AD02F813885020F131F2F
:10228000F80110822E96E4E00C9441D5ABE0B0E06A
:10229000ECE4F1E10C9417D53C012B015A01FC014F
:1022A00017821682838181FD03C06FEF7FEFB9C172
:1022B0009AE0892E1E010894211C311CF301238110
:1022C000F20123FD859123FF81912F01882309F4D9
:1022D000A5C1853239F423FD859123FF81912F011A
:1022E000853221F490E0B301B7D1E8CF982FFF24D5
:1022F000EE249924FFE1FF15D0F09B3269F09C3267
:1023000028F4903259F0933291F40EC09D3249F086
:10231000903369F441E024C052E0F52A84E0F82AC1
:1023200028C098E0F92A25C0E0E1FE2A22C0F7FC87
:1023300029C0892F80538A3070F4F6FE05C0989C1E
:10234000902C1124980E15C0E89CE02C1124E80E66
:10235000F0E2FF2A0EC09E3229F4F6FC5FC140E491
:10236000F42A07C09C3619F450E8F52A02C09836C2
:1023700049F4F20123FD959123FF91912F019923B7
:1023800009F0B8CF892F8554833018F080528330FC
:1023900038F444E050E0A40EB51E5FE359830FC04B
:1023A000933631F0933779F0933509F052C01FC05E
:1023B000F5018081898342E050E0A40EB51E6101E1
:1023C00001E010E011C0F501C080D180F6FC03C02F
:1023D0006FEF7FEF02C0692D70E042E050E0A40E85
:1023E000B51EC6012ED18C015FE7F52213C0F501A1
:1023F000C080D180F6FC03C06FEF7FEF02C0692D73
:1024000070E042E050E0A40EB51EC6010FD18C0171
:1024100050E8F52AF3FE06C018C080E290E0B30150
:102420001BD1EA948E2D90E008171907B0F30DC068
:10243000F601F7FC8591F7FE81916F0190E0B30101
:102440000BD1E110EA94015010400115110581F7FC
:10245000E2C0943611F0993661F5F7FE08C0F50137
:10246000208131814281538184E090E00AC0F501EE
:10247000808191819C01442737FD4095542F82E053
:1024800090E0A80EB91E9FE6F92257FF09C05095AB
:102490004095309521953F4F4F4F5F4FE0E8FE2A22
:1024A000CA01B901A1012AE030E002D1D82ED21828
:1024B0003FC0953729F41F2D1F7E2AE030E01DC054
:1024C0001F2D197F9F3661F0903720F4983509F061
:1024D000A5C00FC0903739F0983709F09FC004C0ED
:1024E00028E030E00AC0106114FD146020E130E003
:1024F00004C014FD166020E132E017FF08C0F501AA
:10250000608171818281938144E050E008C0F501CF
:1025100080819181BC0180E090E042E050E0A40E17
:10252000B51EA101C5D0D82ED2188FE7F82EF12202
:10253000F6FE0BC05EEFF522D91438F4F4FE07C0A6
:10254000F2FC05C08FEEF82202C01D2D01C0192D2E
:10255000F4FE0DC0FE01ED0DF11D8081803319F4F4
:1025600099EEF92208C01F5FF2FE05C003C08F2D4F
:10257000867809F01F5F0F2DF3FC13C0F0FE0EC02C
:102580001E1510F09D2C0AC09D2C9E0C911A1E2D1C
:1025900005C080E290E0B3015FD01F5F1E15C8F355
:1025A00004C01E1510F4E11A01C0EE2404FF0EC091
:1025B00080E390E0B30150D002FF1BC001FD03C0D7
:1025C00088E790E00EC088E590E00BC0802F867809
:1025D00081F001FF02C08BE201C080E2F7FC8DE2D6
:1025E00090E0B30139D005C080E390E0B30134D06E
:1025F0009A94D914C8F3DA94F101ED0DF11D80819C
:1026000090E0B30129D0DD20B1F705C080E290E071
:10261000B30122D0EA94EE20C9F750CEF3016681CF
:102620007781CB012B96E2E10C9433D5FC01059028
:10263000615070400110D8F7809590958E0F9F1FC4
:102640000895FC016150704001900110D8F7809509
:1026500090958E0F9F1F08950F931F93CF93DF9335
:102660008C01EB018B8181FF1BC082FF0DC02E818D
:102670003F818C819D812817390764F4E881F981B5
:102680000193F983E88306C0E885F985802F1995C1
:10269000892B31F48E819F8101969F838E8302C0A6
:1026A0000FEF1FEFC801DF91CF911F910F91089598
:1026B000FA01AA27283051F1203181F1E8946F9373
:1026C0006E7F6E5F7F4F8F4F9F4FAF4FB1E03ED019
:1026D000B4E03CD0670F781F891F9A1FA11D680FB7
:1026E000791F8A1F911DA11D6A0F711D811D911DEA
:1026F000A11D20D009F468943F912AE0269F11245F
:102700003019305D3193DEF6CF010895462F4770C2
:10271000405D4193B3E00FD0C9F7F6CF462F4F701D
:10272000405D4A3318F0495D31FD4052419302D07B
:10273000A9F7EACFB4E0A695979587957795679521
:10274000BA95C9F700976105710508959B01AC0121
:102750000A2E06945795479537952795BA95C9F748
:10276000620F731F841F951FA01D0895FC01128224
:1027700013820895FC018381882311F081E0828314
:102780000895FC018281811112820895CF93DF9315
:10279000DC01FC01EB55FE4F808191810097C9F16E
:1027A000019791838083ED01CC5ADF4FFD01ED58F5
:1027B000FF4F8BE1019009928150E1F7FD01EE5A44
:1027C000FF4FAF58BF4F8D919C911197A157B040CB
:1027D00091838083FD01ED58FF4F20E030E0AD0193
:1027E0004B555E4F10C02F5F3F4FEF01DF015F96EB
:1027F0008BE10D9009928150E1F7858D968D32978E
:1028000091838083B196DA018D919C9128173907C5
:1028100050F3DF91CF910895FC0180E294E0918321
:1028200080838781882321F0CF0104960C94B468BB
:1028300008950F931F93CF93DF938C010E94DB7752
:102840000E94C975C80182539E4F0E94B468F80166
:1028500012828FE291E00E94704D80917C09882362
:1028600001F110927C0980913507C82FD0E0CC0F80
:10287000DD1FC454DF4E68817981882777FD8095FC
:10288000982F0E946BD12091610330916203409197
:102890006303509164030E94D7D2181614F419826E
:1028A0001882DF91CF911F910F910895CF92DF92FF
:1028B000EF92FF920F931F93DF93CF93CDB7DEB7C5
:1028C0006F970FB6F894DEBF0FBECDBF8C016B01C2
:1028D000095A1F4FD8018C9107551040882321F4C5
:1028E0003FE2E32EF12C03C020E5E22EF12CE00EB6
:1028F000F11E80E294E09A8389831C821B821886F1
:102900001D82B7016C5F7F4FCE010596A60121E0C5
:102910000E94A06F882391F5EBE3F1E0949108C049
:102920008091C00085FFFCCF9093C60031969491B2
:102930009923B1F7E1E4F1E0949108C08091C000DF
:1029400085FFFCCF9093C600319694919923B1F7FF
:1029500009C08091C00085FFFCCF0894C11CD11C28
:102960009093C600F6019081992399F78091C00059
:1029700085FFFCCF8AE08093C6005AC0F801EB5572
:10298000FE4F208131812A30310508F040C02F5F91
:102990003F4F3183208321503040F90195E0EE0F05
:1029A000FF1F9A95E1F7E21BF30BED58FF4FE00F85
:1029B000F11F13C0AF01415E5F4FBF018BE1DB012F
:1029C0000D90BD01DA010D92AD018150C1F79291D8
:1029D00082913296968F858F7F9721503040BFEF3E
:1029E0002E3F3B0739F7D801AD58BF4FF70134965A
:1029F0008BE101900D928150E1F70F581F4FF701C5
:102A000082819381D8018D939C9301571040D80106
:102A1000AC5ABF4FFE0135968BE101900D9281506B
:102A2000E1F70E5A1F4F8B819C81F80191838083BF
:102A3000CE010196F1DE6F960FB6F894DEBF0FBEA1
:102A4000CDBFCF91DF911F910F91FF90EF90DF905D
:102A5000CF900895EF92FF920F931F938C014EEC4D
:102A6000E42E41E0F42EE80EF91EC7010E946568CD
:102A7000C7010E94B468F801108211821F910F9162
:102A8000FF90EF900895CF92DF92EF92FF920F9315
:102A90001F93CF93DF937C016B01DB010D9000202E
:102AA000E9F78D0101501040061B170BEEECF1E029
:102AB000EE0EFF1ED7011C92E2E3FEEFEE0EFF1EAC
:102AC000CB016EE470E090DBEC01009731F4F8018B
:102AD0003197EC0DFD1D86010CC060E270E084DBD7
:102AE0008C010F5F1F4FCE016AE270E07DDBFC01BD
:102AF00031978DE081838AE082831382C7018653F8
:102B00009E4FB8010E9499708EEC91E0E80EF91E7C
:102B1000D7018C91882319F1EBE6F1E0949108C07C
:102B20008091C00085FFFCCF9093C60031969491B0
:102B30009923B1F7E2E7F1E0949108C08091C000D9
:102B400085FFFCCF9093C600319694919923B1F7FD
:102B50008091C00085FFFCCF8AE08093C600DF91A2
:102B6000CF911F910F91FF90EF90DF90CF9008953C
:102B7000CF93DF93EC018B81882309F43BC0EAE912
:102B8000F1E0949108C08091C00085FFFCCF909344
:102B9000C600319694919923B1F7CF50DE4F48810A
:102BA00059816A817B81C15FD1408AE095E02AE04A
:102BB00030E00E94EB2CE8E9F1E0949108C08091AC
:102BC000C00085FFFCCF9093C60031969491992365
:102BD000B1F7C751DE4F488159816A817B818AE014
:102BE00095E02AE030E00E94EB2C8091C00085FF48
:102BF000FCCF12C0E8E8F1E0949108C08091C000D9
:102C000085FFFCCF9093C600319694919923B1F73C
:102C10008091C00085FFFCCF8AE08093C600DF91E1
:102C2000CF9108952F923F924F925F926F927F9231
:102C30008F929F92AF92BF92CF92DF92EF92FF92CC
:102C40000F931F93DF93CF93CDB7DEB7AC970FB63B
:102C5000F894DEBF0FBECDBF5C014B01FC01838148
:102C6000882309F434C1C50182539E4F0E94B46881
:102C7000F50112821A8A1D8A198A188A80E294E064
:102C80009F878E876EE4C62ED12CCA0CDB1C2FE2E8
:102C900030E0A20EB31EF601B182A08221ED3FEF1B
:102CA000A20EB31EF40180818F3209F08DC0C401E1
:102CB0006FE270E099DA7C010894E11CF11C3E019E
:102CC0000894611C711C260152E1252E312C2C0E1A
:102CD0003D1E75C0C7016FE270E086DA6C01009797
:102CE00009F480C0E816F90608F07CC08C010E19C2
:102CF0001F09C301B701A80197DA060D171DF801D6
:102D00001082F30107C08091C00085FFFCCF31968F
:102D10009093C60090819923B1F78091C00085FF00
:102D2000FCCFFAE0F093C600F20160817181611579
:102D3000710519F460E070E002C06C5F7F4FC10163
:102D4000A30121E00E94A06F882371F5E6EDF1E078
:102D5000949108C08091C00085FFFCCF9093C6007D
:102D6000319694919923B1F7FE01319607C0809175
:102D7000C00085FFFCCF31969093C60090819923C7
:102D8000B1F7E4EDF1E0949108C08091C00085FFB7
:102D9000FCCF9093C600319694919923B1F780911E
:102DA000C00085FFFCCF8DC02EE030E02C0F3D1F12
:102DB000F2013183208376010894E11CF11CE114B7
:102DC000F10409F087CF0BC080E590E0A80EB91E92
:102DD000F601B182A08220EB3FEFA20EB31ED82CE9
:102DE000092D02C0DE2C0F2D8EE490E0A80EB91E36
:102DF000F5018081918122EB3FEFA20EB31E009777
:102E000019F480E090E001C004966D2D702F0E94AF
:102E10006C70882339F1E6ECF1E0949108C0809160
:102E2000C00085FFFCCF9093C60031969491992302
:102E3000B1F78D2D902F9C01F90107C08091C00042
:102E400085FFFCCF31969093C60090819923B1F70E
:102E500081EF91E0A80EB91EF50110821182128255
:102E6000138232C0EEEAF1E0949108C08091C00074
:102E700085FFFCCF9093C600319694919923B1F7CA
:102E80008D2D902F9C01F90107C08091C00085FF16
:102E9000FCCF31969093C60090819923B1F7ECEA6C
:102EA000F1E0949108C08091C00085FFFCCF909321
:102EB000C600319694919923B1F78091C00085FFA7
:102EC000FCCF8AE08093C600CE010E96A5DCAC96BE
:102ED0000FB6F894DEBF0FBECDBFCF91DF911F912B
:102EE0000F91FF90EF90DF90CF90BF90AF909F90A9
:102EF0008F907F906F905F904F903F902F900895AC
:102F00002F923F924F925F926F927F928F929F92F9
:102F1000AF92BF92CF92DF92EF92FF920F931F93E7
:102F2000DF93CF93CDB7DEB7AD970FB6F894DEBF82
:102F30000FBECDBF5C014B014DA7FC0183818823EF
:102F400009F4E5C1EEEC4E2EE1E05E2E4A0C5B1C6E
:102F5000C2010E94B468F50112821A8A1D8A198A78
:102F6000188A80E294E09F878E877EE4C72ED12C5A
:102F7000CA0CDB1C8FE290E0A80EB91EF601B182EC
:102F8000A08281ED9FEFA80EB91EF40180818F32DF
:102F900009F089C0C4016FE270E026D97C01089471
:102FA000E11CF11C3E010894611C711C160176C0E5
:102FB000C7016FE270E018D96C01009709F481C075
:102FC000E816F90608F07DC08C010E191F09C3012F
:102FD000B701A80129D9060D171DF8011082F301C8
:102FE00007C08091C00085FFFCCF31969093C6004A
:102FF00090819923B1F78091C00085FFFCCFFAE062
:10300000F093C600F101608171816115710519F4B9
:1030100060E070E002C06C5F7F4FCE014296A3017A
:1030200021E00E94A06F882371F5EEE4F2E0949114
:1030300008C08091C00085FFFCCF9093C6003196F8
:1030400094919923B1F7FE01319607C08091C00099
:1030500085FFFCCF31969093C60090819923B1F7FC
:10306000ECE4F2E0949108C08091C00085FFFCCFB1
:103070009093C600319694919923B1F78091C00046
:1030800085FFFCCF15C18EE090E08C0F9D1FF101F4
:103090009183808376010894E11CF11CE114F10412
:1030A00009F086CF0BC0E0E5F0E0AE0EBF1EF601E2
:1030B000B182A08280EB9FEFA80EB91E082DF92CDB
:1030C00001C00E2DF501E25BFF4F9DA5992309F488
:1030D000ADC0608171816115710519F460E070E027
:1030E00002C06C5F7F4FC201402F5F2D21E00E9424
:1030F000A06F882309F46AC0EFEDF1E0AE0EBF1EA9
:10310000F50140815181628173818AE090E0A80ECF
:10311000B91EF501408351836283738387E19EEF7B
:10312000A80EB91EEEE3F2E0949108C08091C000B1
:1031300085FFFCCF9093C600319694919923B1F707
:10314000802F9F2D9C01F90107C08091C00085FF51
:10315000FCCF31969093C60090819923B1F7E6E3B6
:10316000F2E0949108C08091C00085FFFCCF90935D
:10317000C600319694919923B1F78AE095E02AE050
:1031800030E00E94EB2C8091C00085FFFCCF8AE0EC
:103190008093C600E1EFF1E0AE0EBF1EF501108294
:1031A000118212821382E8E2F2E0949108C08091C9
:1031B000C00085FFFCCF9093C6003196949199236F
:1031C000B1F78091C00085FFFCCF97C0E4E1F2E049
:1031D000949108C08091C00085FFFCCF9093C600F9
:1031E000319694919923B1F7802F9F2D9C01F9017D
:1031F00007C08091C00085FFFCCF31969093C60038
:1032000090819923B1F7E2E1F2E0949108C08091B6
:10321000C00085FFFCCF9093C6003196949199230E
:10322000B1F78091C00085FFFCCF42C06081718101
:103230006115710519F460E070E002C06C5F7F4FAA
:10324000C201402F5F2D26E50E94A06F882309F060
:1032500033C0EEEFF1E0949108C08091C00085FF8B
:10326000FCCF9093C600319694919923B1F7802FAB
:103270009F2D9C01F90107C08091C00085FFFCCF04
:1032800031969093C60090819923B1F7ECEFF1E06D
:10329000949108C08091C00085FFFCCF9093C60038
:1032A000319694919923B1F78091C00085FFFCCFAE
:1032B0008AE08093C60028C081E0F5018083EAEEB1
:1032C000F1E0949108C08091C00085FFFCCF9093FD
:1032D000C600319694919923B1F7F40107C080910B
:1032E000C00085FFFCCF31969093C6009081992352
:1032F000B1F78091C00085FFFCCF8AE08093C600C3
:10330000802F9F2D0E949DBFCE010E9685DAAD962F
:103310000FB6F894DEBF0FBECDBFCF91DF911F91E6
:103320000F91FF90EF90DF90CF90BF90AF909F9064
:103330008F907F906F905F904F903F902F90089567
:10334000FC0181E08183CF0140E0DACDEF92FF9272
:103350000F931F93CF93DF938C01FC01138286A9F7
:10336000882321F0C801C3960E94B468F7EAEF2EC3
:10337000F1E0FF2EE00EF11EC70160E045E30E9480
:103380006166882309F5EBE3F1E0949108C0809130
:10339000C00085FFFCCF9093C6003196949199238D
:1033A000B1F7E0E9F2E0949108C08091C00085FF98
:1033B000FCCF9093C600319694919923B1F78091F8
:1033C000C00085FFFCCF7DC0E801C455DE4FCE01B3
:1033D000B70141E00E942A71882341F5CE01B7016F
:1033E00040E00E942A71882309F5EBE6F1E0949110
:1033F00008C08091C00085FFFCCF9093C600319635
:1034000094919923B1F7EDE7F2E0949108C080918F
:10341000C00085FFFCCF9093C6003196949199230C
:10342000B1F78091C00085FFFCCF4BC0C801C396A7
:10343000BE010E94A66B882309F5EBE6F1E09491AA
:1034400008C08091C00085FFFCCF9093C6003196E4
:1034500094919923B1F7EDE6F2E0949108C0809140
:10346000C00085FFFCCF9093C600319694919923BC
:10347000B1F78091C00085FFFCCF23C081E0F80147
:103480008383EBE3F1E0949108C08091C00085FF55
:10349000FCCF9093C600319694919923B1F7E2E660
:1034A000F2E0949108C08091C00085FFFCCF90931A
:1034B000C600319694919923B1F78091C00085FFA1
:1034C000FCCF8AE08093C600D801AC5ABF4FF80108
:1034D000F3968BE101900D928150E1F7F80181A9FB
:1034E00092A90E5A1F4FF801918380830255104014
:1034F000C8018F96025B1F4FF80191838083DF9193
:10350000CF911F910F91FF90EF9008952F923F92CE
:103510004F925F926F927F929F92AF92BF92CF92A3
:10352000DF92EF92FF920F931F93DF93CF93CDB76C
:10353000DEB7CC55D0400FB6F894DEBF0FBECDBF7E
:103540006C01662311F525EF31E0C20ED31ED601C2
:103550008C91EBE0FEEFCE0EDF1E882309F4E3C072
:103560002DEE31E0C20ED31ED601ED90FD900D91EF
:103570001C91E3E1FEEFCE0EDF1E0E9402C9E616AB
:10358000F7060807190708F4CEC025EF31E0C20E90
:10359000D31ED6011C92EBE0FEEFCE0EDF1ED6014D
:1035A00013968C91882339F4C601D0DEF60183810D
:1035B000882309F4B8C000D000D0EDB7FEB731962B
:1035C0007E010894E11CF11CADB7BEB71296FC92C7
:1035D000EE92119782E691E093838283D6019D96C5
:1035E0008D919C919E97958384830E9423118701DE
:1035F000EDB7FEB736960FB6F894FEBF0FBEEDBF1F
:1036000057010AC0D8018C91992787FD90950E9497
:103610000CD5F80181938F01F50101900020E9F7A5
:103620003197EA19FB09802F8E198E175CF303E39B
:10363000A02EB12CAC0CBD1CC50140E050E060E0F8
:1036400070E00E949B6799241DE3E12EF12CEC0EA3
:10365000FD1E2E010894411C511CBFE16B2E712CE4
:103660006C0E7D1EABE52A2EA1E03A2E42C0D80199
:103670008C9190E00E940CD5F80181938F01D701C5
:103680000D900020E9F71197AE19BF09802F8E1910
:103690008A176CF327968FAD27978E3751F1C701A4
:1036A000B20145E050E00E940611009711F500D0EC
:1036B00000D0EDB7FEB73196ADB7BEB712967C928B
:1036C0006E92119733822282558244820E94231186
:1036D000EDB7FEB736960FB6F894FEBF0FBEEDBF3E
:1036E000C3010E94E94D87E591E00E94704D992445
:1036F0009394C501B70140E050E00E94C56A1816D6
:1037000014F48701BCCF992041F48FEF9FEFD601CD
:103710009E969C938E939D9706C0F60185A596A5CF
:10372000019696A785A7C45ADF4F0FB6F894DEBF5F
:103730000FBECDBFCF91DF911F910F91FF90EF9002
:10374000DF90CF90BF90AF909F907F906F905F90F1
:103750004F903F902F9008952F923F924F925F92FB
:103760006F927F928F929F92AF92BF92CF92DF9291
:10377000EF92FF920F931F93DF93CF93CDB7DEB7F6
:10378000CF58D0400FB6F894DEBF0FBECDBF8C012E
:103790003B016A0184E090E0C80ED91EF8017196E1
:1037A000C757DF4FF983E883C958D040C801049652
:1037B000CA57DF4F99838883C658D040C857DF4F18
:1037C0001882C858D04046E6E42EF12CEC0EFD1EBF
:1037D000F7013B96C557DF4FF983E883CB58D040BC
:1037E00036EF832E31E0932E800E911E28EFA22E0D
:1037F00021E0B22EA00EB11E9EE0292E312C2C0EFF
:103800003D1E87E4482E512C4C0E5D1EC2010496CD
:10381000C357DF4F99838883CD58D040EBE3F1E065
:103820009491C157DF4F9883CF58D0404EC1F701D4
:103830008385482F50E0BA0168717070603171055E
:1038400009F051C1F401208131812130310509F4A1
:103850004AC12230310509F446C1F701DE01119653
:103860009081903239F08E2F8E19883011F48EE2CB
:103870008D939D933196C557DF4F88819981CB58A1
:10388000D040E817F90761F71C921E86F30180818A
:10389000882329F4C10160E072E00E94E910C101AF
:1038A000B3010E94E910C101BE016F5F7F4F0E940A
:1038B000E910C10160E072E00E94E9101CA61FA699
:1038C0001BA61AA680E294E099A788A7CE018C9641
:1038D000B601AE014F5F5F4F21E00E94A06F8823C9
:1038E00009F03FC0F40180819181892BD1F5C15746
:1038F000DF4F9881CF58D040EBE3F1E008C08091D2
:10390000C00085FFFCCF9093C60031969491992317
:10391000B1F7E2E0F2E007C08091C00085FFFCCF84
:1039200031969093C60090819923B1F78091C000A1
:1039300085FFFCCFFAE0F093C600FE01319607C088
:103940008091C00085FFFCCF31969093C600908196
:103950009923B1F78091C00085FFFCCF8AE0809366
:10396000C600C357DF4FA881B981CD58D040FE01B2
:10397000BC968BE101900D928150E1F78AA59BA541
:10398000F2019383828380E294E091838083C80173
:10399000B101A201E1DEC2010E940C14CE018896A1
:1039A0000E940C1492C0953E09F48FC09E3209F417
:1039B0008CC09F3509F489C0F8019189992331F0B1
:1039C0009E3209F482C09F3509F47FC043FD7DC05B
:1039D00080E06031710509F481E0F80184A7882353
:1039E00049F4F7018085873409F06FC081858E37EF
:1039F00009F46BC0CA57DF4FA881B981C658D040BF
:103A0000F7018081803241F08E2F8E19883011F4B9
:103A10008EE28D9380818D933196C557DF4F8881DB
:103A20009981CB58D040E817F90759F71C92F40157
:103A300080819181009729F5F30107C08091C00032
:103A400085FFFCCF31969093C60090819923B1F702
:103A5000CA57DF4FE881F981C658D04007C080912E
:103A6000C00085FFFCCF31969093C60090819923CA
:103A7000B1F78091C00085FFFCCFFAE0F093C6005B
:103A800024C08130910539F4F5018081918101963E
:103A9000918380831AC00297C1F4C857DF4FF88121
:103AA000C858D0402F2F30E0F50180819181281730
:103AB0003907F1F0C857DF4FF881C858D040FF5F91
:103AC000C857DF4FF883C858D040C601B701C75761
:103AD000DF4F48815981C958D0400E94C56A1816E5
:103AE0000CF4A5CE05C0F7019081992309F05BCFB6
:103AF000C157DF4F0FB6F894DEBF0FBECDBFCF91D9
:103B0000DF911F910F91FF90EF90DF90CF90BF90CA
:103B1000AF909F908F907F906F905F904F903F906D
:103B20002F900895EF92FF920F931F93DF93CF93FF
:103B3000CDB7DEB76F970FB6F894DEBF0FBECDBF1F
:103B40007C018C01025B1F4F805B9F4FF8019183CA
:103B5000808326EF31E0E20EF31E21E030E0F70132
:103B6000219331937F011182108228E03EEFE20E13
:103B7000F31E049640E050E060E070E00E949B6716
:103B8000F80120813181DE011596F90134968BE12F
:103B900001900D928150E1F7F901828193819C831C
:103BA0008B8380E294E09A838983C70165E172E0A8
:103BB0008E010F5F1F4FA801CFDDC8010E940C14BA
:103BC000F701E850FE4F808191816F960FB6F8940F
:103BD000DEBF0FBECDBFCF91DF911F910F91FF9040
:103BE000EF900895EF92FF920F931F93DF93CF937F
:103BF000CDB7DEB76F970FB6F894DEBF0FBECDBF5F
:103C00007C018C01025B1F4F805B9F4FF801918309
:103C1000808326EF31E0E20EF31E22E030E0F70170
:103C2000318320832AE03EEFE20EF31EF701E850D5
:103C3000FE4F60831182049640E050E060E070E047
:103C40000E949B67F80120813181DE011596F90100
:103C500034968BE101900D928150E1F7F901828158
:103C600093819C838B8380E294E09A838983C7014C
:103C700065E172E08E010F5F1F4FA8016DDDC80185
:103C80000E940C146F960FB6F894DEBF0FBECDBF26
:103C9000CF91DF911F910F91FF90EF900895EF92D8
:103CA000FF920F931F93DF93CF93CDB7DEB76F973C
:103CB0000FB6F894DEBF0FBECDBF7C0186EF91E05A
:103CC000E80EF91EF701118210828AE09EEFE80EDD
:103CD000F91E87010D5C1F4FC80140E050E060E015
:103CE00070E00E949B67DE011596F8018BE1019060
:103CF0000D928150E1F7F70181A992A99C838B83F2
:103D000080E294E09A838983C70165E172E08E01C5
:103D10000F5F1F4FA80120DDC8010E940C146F9691
:103D20000FB6F894DEBF0FBECDBFCF91DF911F91CC
:103D30000F91FF90EF9008950F931F93CF93DF9310
:103D4000DC01D3961C92D397D6961C92D697D29626
:103D50001C921E92D19780E294E0D0969C938E9311
:103D60009F97AC5ABF4F1C9213961C92A755B04018
:103D7000FD01E05BFF4FAE5ABF4F11961C921E92A1
:103D8000A255B04091838083ED01C159DF4FFE0100
:103D900020E030E0482F1482178213821282408381
:103DA0009183215E3F4F7F9681E02633380799F754
:103DB000A855BE4F89E18C9313961C9258961C927D
:103DC0001B961C9213961C92A15DB140FD01E65317
:103DD000FE4FA453BE4F11961C921E9240839183B6
:103DE0005D961D921D921D921C92139718961D921E
:103DF0001D921D921C921397A15FB14012961C92C6
:103E0000129713961C9213971C9211961C9211975D
:103E10008D0103511E4FF80110821182128213820C
:103E2000AB55BE4F11961C921E92FE01C901119214
:103E30000197E9F7A05BBF4F81E08C93A55FB1408C
:103E40009E961C921E929D970E9402C968577C4EB6
:103E50008F4F9F4FF8016083718382839383DF913B
:103E6000CF911F910F910895DF93CF93CDB7DEB718
:103E70002A970FB6F894DEBF0FBECDBF8091160211
:103E800090911702A0911802B09119028B839C8324
:103E9000AD83BE83FE01339624E630E08081F9993C
:103EA000FECF1FBA32BD21BD80BD0FB6F894FA9A7D
:103EB000F99A0FBE2F5F3F4F2836310511F031962A
:103EC000EDCFE0E2F9E08081F999FECF1FBA32BD73
:103ED00021BD80BD0FB6F894FA9AF99A0FBE2F5FF4
:103EE0003F4F2837310511F03196EDCFE0E1F9E091
:103EF0008081F999FECF1FBA32BD21BD80BD0FB6BA
:103F0000F894FA9AF99A0FBE2F5F3F4F283831057F
:103F100011F03196EDCFE0E3F9E08081F999FECF21
:103F20001FBA32BD21BD80BD0FB6F894FA9AF99A36
:103F30000FBE2F5F3F4F2839310511F03196EDCF7D
:103F4000E4E4F9E08081F999FECF1FBA32BD21BDCA
:103F500080BD0FB6F894FA9AF99A0FBE2F5F3F4FC3
:103F60002C39310511F03196EDCFE8E4F9E080818C
:103F7000F999FECF1FBA32BD21BD80BD0FB6F894AE
:103F8000FA9AF99A0FBE2F5F3F4F203A310511F090
:103F90003196EDCFE0E4F9E08081F999FECF1FBAC8
:103FA00032BD21BD80BD0FB6F894FA9AF99A0FBEC2
:103FB0002F5F3F4F243A310511F03196EDCFE8E500
:103FC000F9E08081F999FECF1FBA32BD21BD80BDD5
:103FD0000FB6F894FA9AF99A0FBE2F5F3F4F283A1E
:103FE000310511F03196EDCFECE0F9E08081F999DF
:103FF000FECF1FBA32BD21BD80BD0FB6F894FA9A2C
:10400000F99A0FBE2F5F3F4F2C3A310511F03196D0
:10401000EDCFECE4F9E08081F999FECF1FBA32BD13
:1040200021BD80BD0FB6F894FA9AF99A0FBE2F5FA2
:104030003F4F203B310511F03196EDCFE0E5F9E03F
:104040008081F999FECF1FBA32BD21BD80BD0FB668
:10405000F894FA9AF99A0FBE2F5F3F4F243B31052F
:1040600011F03196EDCFE4E5F9E08081F999FECFCA
:104070001FBA32BD21BD80BD0FB6F894FA9AF99AE5
:104080000FBE2F5F3F4F283B310511F03196EDCF2A
:10409000EDE1F7E08081F999FECF1FBA32BD21BD75
:1040A00080BD0FB6F894FA9AF99A0FBE2F5F3F4F72
:1040B000243C310511F03196EDCFEFE0F1E1808144
:1040C000F999FECF1FBA32BD21BD80BD0FB6F8945D
:1040D000FA9AF99A0FBE2F5F3F4F263C310511F037
:1040E0003196EDCFE1E1F1E18081F999FECF1FBA80
:1040F00032BD21BD80BD0FB6F894FA9AF99A0FBE71
:104100002F5F3F4F283C310511F03196EDCFE3E1B1
:10411000F1E18081F999FECF1FBA32BD21BD80BD8A
:104120000FB6F894FA9AF99A0FBE2F5F3F4F2A3CC8
:10413000310511F03196EDCFE5E1F1E18081F9999A
:10414000FECF1FBA32BD21BD80BD0FB6F894FA9ADA
:10415000F99A0FBE2F5F3F4F2C3C310511F031967D
:10416000EDCFE7E1F1E18081F999FECF1FBA32BDD1
:1041700021BD80BD0FB6F894FA9AF99A0FBE2F5F51
:104180003F4F2E3C310511F03196EDCFE9E1F1E1E1
:104190008081F999FECF1FBA32BD21BD80BD0FB617
:1041A000F894FA9AF99A0FBE2F5F3F4F203D3105E0
:1041B00011F03196EDCFE2E7F3E08081F999FECF7F
:1041C0001FBA32BD21BD80BD0FB6F894FA9AF99A94
:1041D0000FBE2F5F3F4F243D310511F03196EDCFDB
:1041E000E6E7F3E08081F999FECF1FBA32BD21BD29
:1041F00080BD0FB6F894FA9AF99A0FBE2F5F3F4F21
:10420000283D310511F03196EDCFEAE7F3E08081EA
:10421000F999FECF1FBA32BD21BD80BD0FB6F8940B
:10422000FA9AF99A0FBE2F5F3F4F2C3D310511F0DE
:104230003196EDCF80E290E09A838983FE0131963A
:104240008081F999FECF1FBA32BD21BD80BD0FB666
:10425000F894FA9AF99A0FBE2D3D310521F0319666
:104260002DED30E0EDCF80911A0290911B02A091CC
:104270001C02B0911D028F839887A987BA87FE011F
:10428000379684E690E02081F999FECF1FBA92BD5F
:1042900081BD20BD0FB6F894FA9AF99A0FBE873601
:1042A000910519F001963196EECFEDE9F2E0949187
:1042B00008C08091C00085FFFCCF9093C600319666
:1042C00094919923B1F7E7EAF4E0949108C08091C2
:1042D000C00085FFFCCF9093C6003196949199233E
:1042E000B1F78091C00085FFFCCF8AE08093C600C3
:1042F0002A960FB6F894DEBF0FBECDBFCF91DF91E7
:104300000895DF93CF93CDB7DEB7E0970FB6F8945B
:10431000DEBF0FBECDBFDE011196E0ECF3E080E121
:1043200001900D928150E1F7DE015196E0EBF3E050
:1043300080E101900D928150E1F7DE019196E0EA73
:10434000F3E080E101900D928150E1F789819A813B
:10435000AB81BC818093200990932109A09322090D
:10436000B093230989899A89AB89BC898093100904
:1043700090931109A0931209B093130989A19AA1EE
:10438000ABA1BCA18093300990933109A09332096D
:10439000B09333098D819E81AF81B88580932409C4
:1043A00090932509A0932609B09327098D899E89AA
:1043B000AF89B88D8093140990931509A0931609BD
:1043C000B09317098DA19EA1AFA1B8A58093340920
:1043D00090933509A0933609B093370989859A855A
:1043E000AB85BC858093280990932909A0932A095D
:1043F000B0932B09898D9A8DAB8DBC8D8093180954
:1044000090931909A0931A09B0931B0989A59AA53D
:10441000ABA5BCA58093380990933909A0933A09BC
:10442000B0933B098D859E85AF85B88980932C0913
:1044300090932D09A0932E09B0932F098D8D9E8DF9
:10444000AF8DB8A180931C0990931D09A0931E09FC
:10445000B0931F098DA59EA5AFA5B8A980933C096F
:1044600090933D09A0933E09B0933F090E940D53DC
:1044700080E090E8ABE3B5E480934409909345096C
:10448000A0934609B093470980934809909349093E
:10449000A0934A09B0934B0920E030E040E050E09F
:1044A00020934009309341094093420950934309B6
:1044B00080E29EE4A0E0B0E080930C0990930D09A7
:1044C000A0930E09B0930F0920935809309359090E
:1044D00040935A0950935B0980E090E0A0EAB1E470
:1044E00080934C0990934D09A0934E09B0934F09C6
:1044F0008DEC9CECACECBEE3809350099093510999
:10450000A0935209B093530980E090E0A0EAB0E490
:104510008093540990935509A0935609B093570975
:1045200020932507309326074093270750932807A9
:1045300020932107309322074093230750932407A9
:1045400020931D0730931E0740931F0750932007A9
:1045500084EB90E09093101180930F1186E490E02B
:1045600090931211809311112FEF30E030931411BA
:104570002093131180EF90E0909316118093151102
:1045800084E690E0909318118093171130931A11DC
:104590002093191180E090E0A0EEB0E480937203C4
:1045A00090937303A0937403B09375036DEC7CEC4C
:1045B0008CEC9DE30E941D806093760370937703DB
:1045C000809378039093790360E070E080E491E455
:1045D0000E94298060937A0370937B0380937C030D
:1045E00090937D030E94267F80E090E0A0E8BFE3E7
:1045F00080937E0390937F03A0938003B093810305
:10460000EDE9F2E0949108C08091C00085FFFCCFF5
:104610009093C600319694919923B1F7E3EAF2E0C2
:10462000949108C08091C00085FFFCCF9093C60094
:10463000319694919923B1F78091C00085FFFCCF0A
:104640008AE08093C600E0960FB6F894DEBF0FBEF6
:10465000CDBFCF91DF910895CF93DF93CDE9D2E025
:10466000FE01949108C08091C00085FFFCCF90931B
:10467000C600319694919923B1F7E7E9F4E094915B
:1046800008C08091C00085FFFCCF9093C600319692
:1046900094919923B1F78091C00085FFFCCF8AE007
:1046A0008093C600FE019491EDE9F2E008C080918C
:1046B000C00085FFFCCF9093C6003196949199235A
:1046C000B1F7409120095091210960912209709120
:1046D00023098FE894E00E946033409124095091AF
:1046E000250960912609709127098CE894E00E94C1
:1046F0006033409128095091290960912A097091ED
:104700002B0989E894E00E94603340912C09509174
:104710002D0960912E0970912F0986E894E00E947E
:104720006033EEE1F2E007C08091C00085FFFCCF6E
:1047300031969093C60090819923B1F78091C00083
:1047400085FFFCCF8AE08093C600FE019491EDE9DD
:10475000F2E008C08091C00085FFFCCF9093C600B6
:10476000319694919923B1F7ECE6F4E0949108C066
:104770008091C00085FFFCCF9093C6003196949144
:104780009923B1F78091C00085FFFCCF8AE0809328
:10479000C600FE019491EDE9F2E008C08091C000EE
:1047A00085FFFCCF9093C600319694919923B1F781
:1047B00040911009509111096091120970911309EB
:1047C00083E694E00E9460334091140950911509EA
:1047D000609116097091170980E694E00E94603399
:1047E000409118095091190960911A0970911B099B
:1047F0008DE594E00E94603340911C0950911D09A1
:1048000060911E0970911F098AE594E00E9460334F
:10481000EEE1F2E007C08091C00085FFFCCF319649
:104820009093C60090819923B1F78091C00085FFD5
:10483000FCCF8AE08093C600FE019491EDE9F2E09E
:1048400008C08091C00085FFFCCF9093C6003196D0
:1048500094919923B1F7ECE3F4E0949108C080912E
:10486000C00085FFFCCF9093C600319694919923A8
:10487000B1F78091C00085FFFCCF8AE08093C6002D
:10488000FE019491EDE9F2E008C08091C00085FF3F
:10489000FCCF9093C600319694919923B1F7409143
:1048A000300950913109609132097091330983E3E5
:1048B00094E00E947233409134095091350960911F
:1048C00036097091370980E394E00E947233409179
:1048D00038095091390960913A0970913B098DE28C
:1048E00094E00E94723340913C0950913D096091DF
:1048F0003E0970913F098AE294E00E947233EEE132
:10490000F2E007C08091C00085FFFCCF3196909304
:10491000C60090819923B1F78091C00085FFFCCF3C
:104920008AE08093C600FE019491EDE9F2E008C0B0
:104930008091C00085FFFCCF9093C6003196949182
:104940009923B1F7E5EFF3E0949108C08091C0009E
:1049500085FFFCCF9093C600319694919923B1F7CF
:104960008091C00085FFFCCF8AE08093C600FE01E5
:104970009491EDE9F2E008C08091C00085FFFCCF82
:104980009093C600319694919923B1F740914409D0
:104990005091450960914609709147098CEE93E06A
:1049A0000E946033409148095091490960914A0939
:1049B00070914B0989EE93E00E946033EEE1F2E0E2
:1049C00007C08091C00085FFFCCF31969093C60050
:1049D00090819923B1F78091C00085FFFCCF8AE0D8
:1049E0008093C600FE019491EDE9F2E008C0809149
:1049F000C00085FFFCCF9093C60031969491992317
:104A0000B1F7E6E3F3E0949108C08091C00085FF20
:104A1000FCCF9093C600319694919923B1F7809181
:104A2000C00085FFFCCF8AE08093C600FE01949110
:104A3000EDE9F2E008C08091C00085FFFCCF9093C3
:104A4000C600319694919923B1F740914009509155
:104A5000410960914209709143098DE293E00E94FF
:104A60006033409158095091590960915A097091E9
:104A70005B098AE293E00E94603340910C095091F7
:104A80000D0960910E0970910F0987E293E00E9471
:104A9000723340914C0950914D0960914E097091CB
:104AA0004F0984E293E00E94603340915009509195
:104AB0005109609152097091530981E293E00E947B
:104AC0006033409154095091550960915609709195
:104AD00057098EE193E00E946033EEE1F2E007C0F7
:104AE0008091C00085FFFCCF31969093C6009081E5
:104AF0009923B1F78091C00085FFFCCF8AE08093B5
:104B0000C600FE019491EDE9F2E008C08091C0007A
:104B100085FFFCCF9093C600319694919923B1F70D
:104B2000ECE0F3E0949108C08091C00085FFFCCFD9
:104B30009093C600319694919923B1F78091C0006B
:104B400085FFFCCF8AE08093C600FE019491EDE9D9
:104B5000F2E008C08091C00085FFFCCF9093C600B2
:104B6000319694919923B1F740911D0750911E07FA
:104B700060911F077091200783E093E00E946033EB
:104B800040912107509122076091230770912407DB
:104B900080E093E00E946033409125075091260702
:104BA00060912707709128078DEF92E00E94603393
:104BB000EEE1F2E007C08091C00085FFFCCF3196A6
:104BC0009093C60090819923B1F78091C00085FF32
:104BD000FCCF8AE08093C600FE019491EDE9F2E0FB
:104BE00008C08091C00085FFFCCF9093C60031962D
:104BF00094919923B1F7EFEEF2E0949108C080917F
:104C0000C00085FFFCCF9093C60031969491992304
:104C1000B1F78091C00085FFFCCF8AE08093C60089
:104C2000FE019491EDE9F2E008C08091C00085FF9B
:104C3000FCCF9093C600319694919923B1F740919F
:104C4000720350917303609174037091750385EE44
:104C500092E00E94603360917603709177038091B7
:104C60007803909179030E942380AB01BC0182EE0E
:104C700092E00E94603360917A0370917B0380918F
:104C80007C0390917D030E942F80AB01BC018FEDCE
:104C900092E00E946033EEE1F2E007C08091C00034
:104CA00085FFFCCF31969093C60090819923B1F790
:104CB0008091C00085FFFCCF8AE08093C600DF9121
:104CC000CF9108950F931F93DF93CF93CDB7DEB7A6
:104CD0002A970FB6F894DEBF0FBECDBF80911A029F
:104CE00090911B02A0911C02B0911D028F839887A6
:104CF000A987BA87FE01339604E610E0F999FECF42
:104D000012BD01BDF89A80B580830F5F1F4F083632
:104D1000110511F03196F2CFCE010796BE016D5FFD
:104D20007F4F43E050E00E940611009709F088C1D0
:104D3000E0E2F9E0F999FECF12BD01BDF89A80B525
:104D400080830F5F1F4F0837110511F03196F2CFA6
:104D5000E0E1F9E0F999FECF12BD01BDF89A80B506
:104D600080830F5F1F4F0838110511F03196F2CF85
:104D7000E0E3F9E0F999FECF12BD01BDF89A80B5E4
:104D800080830F5F1F4F0839110511F03196F2CF64
:104D90000E940D53E4E4F9E0F999FECF12BD01BD84
:104DA000F89A80B580830F5F1F4F0C39110511F001
:104DB0003196F2CFE8E4F9E0F999FECF12BD01BDDA
:104DC000F89A80B580830F5F1F4F003A110511F0EC
:104DD0003196F2CFE0E4F9E0F999FECF12BD01BDC2
:104DE000F89A80B580830F5F1F4F043A110511F0C8
:104DF0003196F2CFE8E5F9E0F999FECF12BD01BD99
:104E0000F89A80B580830F5F1F4F083A110511F0A3
:104E10003196F2CFECE0F9E0F999FECF12BD01BD79
:104E2000F89A80B580830F5F1F4F0C3A110511F07F
:104E30003196F2CFECE4F9E0F999FECF12BD01BD55
:104E4000F89A80B580830F5F1F4F003B110511F06A
:104E50003196F2CFE0E5F9E0F999FECF12BD01BD40
:104E6000F89A80B580830F5F1F4F043B110511F046
:104E70003196F2CFE4E5F9E0F999FECF12BD01BD1C
:104E8000F89A80B580830F5F1F4F083B110511F022
:104E90003196F2CFEDE1F7E0F999FECF12BD01BDF9
:104EA000F89A80B580830F5F1F4F043C110511F005
:104EB0003196F2CFEFE0F1E1F999FECF12BD01BDDD
:104EC000F89A80B580830F5F1F4F063C110511F0E3
:104ED0003196F2CFE1E1F1E1F999FECF12BD01BDCA
:104EE000F89A80B580830F5F1F4F083C110511F0C1
:104EF0003196F2CFE3E1F1E1F999FECF12BD01BDA8
:104F0000F89A80B580830F5F1F4F0A3C110511F09E
:104F10003196F2CFE5E1F1E1F999FECF12BD01BD85
:104F2000F89A80B580830F5F1F4F0C3C110511F07C
:104F30003196F2CFE7E1F1E1F999FECF12BD01BD63
:104F4000F89A80B580830F5F1F4F0E3C110511F05A
:104F50003196F2CFE9E1F1E1F999FECF12BD01BD41
:104F6000F89A80B580830F5F1F4F003D110511F047
:104F70003196F2CFE2E7F3E0F999FECF12BD01BD21
:104F8000F89A80B580830F5F1F4F043D110511F023
:104F90003196F2CFE6E7F3E0F999FECF12BD01BDFD
:104FA000F89A80B580830F5F1F4F083D110511F0FF
:104FB0003196F2CFEAE7F3E0F999FECF12BD01BDD9
:104FC000F89A80B580830F5F1F4F0C3D110511F0DB
:104FD0003196F2CFFE013196F999FECF12BD01BD97
:104FE000F89A80B580830D3D110521F031960DEDC5
:104FF00010E0F2CF0E94267FEDE9F2E0949108C024
:105000008091C00085FFFCCF9093C60031969491AB
:105010009923B1F7E5ECF2E0949108C08091C000CB
:1050200085FFFCCF9093C600319694919923B1F7F8
:105030008091C00085FFFCCF8AE08093C60001C04C
:1050400060D90ADB2A960FB6F894DEBF0FBECDBF3B
:10505000CF91DF911F910F910895FC01138212826D
:1050600084ED93E091838083442311F481E001C0B7
:1050700082E082876187148215860895682F8DEA01
:1050800091E10C94E4C52F923F924F925F926F9200
:105090007F928F929F92AF92BF92CF92DF92EF92C8
:1050A000FF920F931F93DF93CF93CDB7DEB728976F
:1050B0000FB6F894DEBF0FBECDBF9E838D835A011D
:1050C0006B017901DC0119966C9160628DEA91E1C6
:1050D00070E00E9463C582E1D1DF8DEA91E10E9418
:1050E00025C6ED81FE81618560628DEA91E170E007
:1050F00041E050E00E9433C68DEA91E10E9476C5FE
:10510000282F30E038872F8300E010E060E472E45D
:105110008FE090E0A80197010E94C1D479018A0133
:10512000C601B50128EE33E040E050E00E947BD498
:10513000A80197010E94C1D4C901DA013C014D01C7
:10514000D801C701B695A7959795879589839A83C6
:10515000AB83BC8363C00E9410C91B012C01AD81CD
:10516000BE8119966C9160628DEA91E170E00E94B7
:1051700063C582E183DFEF81F885E062F887EF8322
:105180008F817CDF8DEA91E10E9425C68823D1F7CB
:10519000A980BA80CB80DC80A20CB31CC41CD51CB7
:1051A0000E9410C9A6019501261B370B480B590B0D
:1051B00012161306140615069CF3AD81BE811996CE
:1051C0006C9160628DEA91E170E00E9463C582E1BA
:1051D00055DFEF81F885EF7DF887EF838F814EDF14
:1051E0008DEA91E10E9425C68823D1F76201510121
:1051F000AE0CBF1CC01ED11E0E9410C9A601950195
:10520000261B370B480B590B1216130614061506EE
:105210009CF3089461087108810891086114710475
:105220008104910409F097CF28960FB6F894DEBF59
:105230000FBECDBFCF91DF911F910F91FF90EF90E7
:10524000DF90CF90BF90AF909F908F907F906F90A6
:105250005F904F903F902F9008951F93162FFC0161
:10526000618560628DEA91E170E00E9463C589E02A
:1052700005DF812F03DF8DEA91E10E9425C6882397
:10528000D1F71F9108951F93162FFC01618560626D
:105290008DEA91E170E00E9463C583E1EFDE812F2A
:1052A000EDDE8DEA91E10E9425C68823D1F71F919A
:1052B0000895DF92EF92FF920F931F93CF93DF93A6
:1052C0007C01062FD42EFC018585C62FD0E08130CD
:1052D00081F5648504FD6061C5FD6860C6FD64609C
:1052E00007FD6260DD2019F0162F106A02C0162F2C
:1052F0001062C701612FC7DF1F7DC701612FC3DFA8
:10530000F7016485C0FD6061C1FD6860C2FD646035
:10531000C3FD6260DD2019F0162F106A02C0162F3F
:105320001062C701612FAFDF1F7DC701612FABDFA7
:1053300033C0D695C7959E012877442319F0922F44
:10534000966002C0922F9460F701858183FD02C0B0
:1053500010E001C010E8192BC701612F7EDF1B7F11
:10536000C701612F7ADF602F6F70660F660F660FBF
:10537000DD2011F0666001C06460F701858183FD66
:1053800002C010E001C010E8162BC701612F65DFD5
:105390001B7FC701612F61DFDF91CF911F910F91BB
:1053A000FF90EF90DF90089541E083DF81E090E08F
:1053B000089540E07ECFEF92FF920F931F93CF931B
:1053C000DF938C017A01DC011A968C918823C9F055
:1053D0006770660F660F660F6064C801EADFC0E0A1
:1053E000D0E0D801ED91FC91D701AC0FBD1F019029
:1053F000F081E02DC8016C9119952196C830D10536
:1054000081F7DF91CF911F910F91FF90EF90089559
:10541000FC018285882339F06581862F846085832D
:105420006C60CF01C6CF0895DF93CF93CDB7DEB7C1
:1054300028970FB6F894DEBF0FBECDBF9C01FC01CC
:1054400082858823D1F0FE013196A8EDB3E088E093
:105450000D9001928150E1F7F9018781841710F4D2
:10546000482F4150E42FF0E0EE0FFF1FEC0FFD1F1F
:105470008181680F6068C9019CDF28960FB6F89497
:10548000DEBF0FBECDBFCF91DF9108950F931F9365
:10549000162F072FFC01618560628DEA91E170E0B3
:1054A0000E9463C582E1EADD812FE8DD802FE6DD21
:1054B0008DEA91E10E9425C68823D1F71F910F91B3
:1054C0000895FC018285882371F185858130E1F49E
:1054D00080EC91E09487838760FF04C080E891E0CE
:1054E0009487838761FF05C0838594858F77948730
:1054F000838762FF05C0838594859E7F9487838719
:1055000063857485CF01C2CF8581662311F08860E1
:1055100001C0877F8583858183FD02C060E001C073
:1055200060E8CF019ACE0895CF93DF93EC018A858E
:105530008823E1F0698560628DEA91E170E00E9464
:1055400063C582E19BDD8DEA91E10E9425C66985F4
:1055500060628DEA91E170E041E050E00E9433C664
:105560008DEA91E10E9476C580958F71DF91CF9190
:105570000895FC018285882339F0CF0161E019DFAD
:1055800080ED97E00C9436C90895EF92FF920F9347
:105590001F93DF93CF930F92CDB7DEB77C01042F1B
:1055A000122F62E370E080E090E00E94A2C98DEAD1
:1055B00091E10E9435C6F70185856185813041F50D
:1055C00060628DEA91E170E00E9463C580E056DD83
:1055D0008FE154DD8DEA91E10E9425C6F7016185D6
:1055E00060628DEA91E170E00E9463C58CE046DD67
:1055F0008FE144DD8DEA91E10E9425C6F7016185C6
:1056000060628DEA91E170E00E9463C581E029C08B
:1056100060628DEA91E170E00E9463C580E02EDD5A
:105620008FEF2CDD80E02ADD80E028DD80E026DDC4
:1056300080E024DD80E022DD80E020DD80E01EDDF2
:1056400080E01CDD80E01ADD8DEA91E10E9425C634
:10565000F701618560628DEA91E170E00E9463C5A7
:1056600080E00CDD80E00ADD8DEA91E10E9425C634
:10567000023020F0F701848188608483F70107837A
:105680001086112329F0013019F484818460848309
:10569000F7018285823091F48185BE016F5F7F4F73
:1056A00040E021E000E00E9487C6882321F481E0E9
:1056B000F701828703C0F701128658C0F70185857C
:1056C000813099F41486138600E0C70168E3DBDDBE
:1056D000C70168E1D8DD0F5F0330B9F7C70168E2A1
:1056E000D2DDC70168E0CFDD18C0C7016CE9B5DDC8
:1056F000C70168E9B2DDC7016CE9AFDDC70168E940
:10570000ACDDC7016CE9A9DDC70168E9A6DDC70109
:1057100064E9A3DDC70160E9A0DD65E070E080E039
:1057200090E00E94A2C9F70164816062C70141DE76
:1057300065E070E080E090E00E94A2C9F70164811A
:105740006062C70136DE65E070E080E090E00E94B4
:10575000A2C98CE0F7018583C7015ADEC70109DFC2
:1057600082E0F7018683C70166E023DE0F90CF91C8
:10577000DF911F910F91FF90EF9008951F920F926C
:105780000FB60F920BB60F9211242F933F934F93A6
:105790008F939F93EF93FF934091C600E09106058E
:1057A000F091070531969F012F77307031978091E6
:1057B0000805909109052817390739F0EA57FB4F7A
:1057C00040833093070520930605FF91EF919F9149
:1057D0008F914F913F912F910F900BBE0F900FBE65
:1057E0000F901F9018959A01AB01203081EE380779
:1057F00080E0480780E0580749F182E08093C000CC
:1058000060E079E08DE390E00E94E3D421503040E5
:1058100040405040CA01B90122E030E040E050E091
:105820000E94E3D43093C5002093C4008091C1004E
:1058300080618093C1008091C10088608093C10025
:105840008091C10080688093C10008951092C000CB
:1058500020E130E0E7CF20910805309109058091E3
:105860000605909107058217930719F42FEF3FEF74
:105870000EC0F901EA57FB4F80812F5F3F4F2F7712
:1058800030703093090520930805282F30E0C901B6
:1058900008958091080590910905909307058093DC
:1058A0000605089508952F923F924F925F926F924E
:1058B0007F928F929F92AF92BF92CF92DF92EF92A0
:1058C000FF920F931F93DF93CF93CDB7DEB7A097CF
:1058D0000FB6F894DEBF0FBECDBF1C016A017B017D
:1058E000411551056105710541F440E350E060E068
:1058F00070E020E030E08BD055C08824992454011A
:10590000422E55246624772401E010E00C0F1D1F61
:10591000080D191DC701B601A30192010E94C1D44F
:10592000F80160830894811C911CA11CB11CC70163
:10593000B601A30192010E94C1D4C901DA016C0130
:105940007D01C114D104E104F104F1F681E0E82EF7
:10595000F12CEC0EFD1EE80CF91C3E010894611CB4
:10596000711CD501C4010197A109B1096C01C818C6
:10597000D90815C0F601EE0DFF1D40814A3010F424
:10598000405D01C0495C552747FD5095652F752F37
:10599000C10120E030E03BD00894E108F1086E142A
:1059A0007F0441F7A0960FB6F894DEBF0FBECDBFBF
:1059B000CF91DF911F910F91FF90EF90DF90CF90EB
:1059C000BF90AF909F908F907F906F905F904F901F
:1059D0003F902F9008952115310539F48091C00032
:1059E00085FFFCCF4093C60008955DCFEF92FF92F4
:1059F0000F931F939A01E62EFF2400E010E0B801F8
:105A0000A701E9DF1F910F91FF90EF900895EF92AA
:105A1000FF920F931F93CF93DF93EC017A018B01D9
:105A20002115310539F48091C00085FFFCCFE0924B
:105A3000C60019C02A303105A9F477FF0FC04DE226
:105A400050E060E070E020E030E0E1DF109500958C
:105A5000F094E094E11CF11C011D111DCE01B80170
:105A6000A7012AE020DFDF91CF911F910F91FF90D6
:105A7000EF900895EF92FF920F931F937B019A018D
:105A80000027F7FC0095102FB801A701C0DF1F9178
:105A90000F91FF90EF9008950F931F938C014DE0AD
:105AA00050E060E070E020E030E0B1DFC8014AE0A3
:105AB00050E060E070E020E030E0A9DF1F910F913E
:105AC0000895CF92DF92EF92FF920F931F938C0174
:105AD0009A016B01EE24FF24B701A6017CDFC80107
