:100000000C94770B0C94A40B0C94A40B0C94A40BE1
:100010000C94A40B0C94A40B0C94A40B0C94A40BA4
:100020000C94A40B0C94A40B0C94A40B0C94A40B94
:100030000C94A40B0C94A40B0C94A40B0C94A40B84
:100040000C94A40B0C94D5740C94A40B0C94A40BDA
:100050000C94A40B0C94A40B0C94E97D0C94FC89D7
:100060000C94A40B0C94D1260C94A40B0C94A40B0C
:100070000C94A40B0C94A40B0C94A40B0C94A40B44
:100080000C94A40B0C94A40B0C94A40B0C94A40B34
:100090000C94A40B0C94A40B0C94A40B0C945588F6
:1000A0000C94A40B0C94A40B0C94A40B0C94A40B14
:1000B0000C94A40B0C94A40B0C94A40B0C94A40B04
:1000C0000C94A40B0C94A40B0C94A40B0C94A40BF4
:1000D0000C94A40B0C94A40B0C94A40B0C94A40BE4
:1000E0000C94A40B084AD73B3BCE016E84BCBFFDE9
:1000F000C12F3D6C74319ABD56833DDA3D00C77FF8
:1001000011BED9E4BB4C3E916BAAAABE0000008090
:100110003F05A84CCDB2D44EB93836A9020C50B91F
:10012000918688083CA6AAAA2ABE000000803F4DFE
:10013000383420582059205A20450043616E6E6F94
:100140007420656E746572207375626469723A20FA
:10015000004D3234004D3233202573006175746FC9
:1001600025692E67006572726F72207772697469F3
:100170006E6720746F2066696C65004E6F74205343
:1001800044207072696E74696E67002F00534420BA
:100190007072696E74696E67206279746520002ED2
:1001A0000044656C6574696F6E206661696C656496
:1001B0002C2046696C653A200046696C65206465B0
:1001C0006C657465643A002E006F70656E20666120
:1001D000696C65642C2046696C653A200057726929
:1001E00074696E6720746F2066696C653A20002E12
:1001F000006F70656E206661696C65642C204669CD
:100200006C653A20002E006F70656E206661696C27
:1002100065642C2046696C653A200046696C65204F
:1002200073656C6563746564002053697A653A2070
:100230000046696C65206F70656E65643A20002E1B
:10024000006F70656E206661696C65642C2046697C
:100250006C653A20004E6F77206672657368206681
:10026000696C653A20004E6F7720646F696E672075
:1002700066696C653A20002220706F73002220703E
:100280006172656E743A2200535542524F5554497B
:100290004E452043414C4C207461726765743A228C
:1002A00000747279696E6720746F2063616C6C20D2
:1002B0007375622D67636F64652066696C65732072
:1002C0007769746820746F6F206D616E79206C653A
:1002D00076656C732E204D4158206C6576656C20D8
:1002E00069733A0053442063617264206F6B006F3E
:1002F00070656E526F6F74206661696C656400761C
:100300006F6C756D652E696E6974206661696C65C8
:100310006400534420696E6974206661696C00480A
:10032000617264636F6465642044656661756C74B2
:100330002053657474696E6773204C6F61646564E3
:100340000053746F7265642073657474696E6773AB
:1003500020726574726965766564002044002049E6
:10036000002020204D33303120500050494420736C
:10037000657474696E67733A00205A002059002032
:10038000204D323036205800486F6D65206F66660C
:1003900073657420286D6D293A00204500205A00AD
:1003A00020580020420020540020204D32303520BB
:1003B0005300416476616E636564207661726961A1
:1003C000626C65733A20533D4D696E2066656564C5
:1003D0007261746520286D6D2F73292C20543D4D5A
:1003E000696E2074726176656C2066656564726101
:1003F000746520286D6D2F73292C20423D6D696E28
:10040000696D756D207365676D656E742074696DB7
:100410006520286D73292C20583D6D6178696D75B4
:100420006D205859206A65726B20286D6D2F7329D5
:100430002C20205A3D6D6178696D756D205A206AB7
:1004400065726B20286D6D2F73292C2020453D6D22
:100450006178696D756D2045206A65726B20286D25
:100460006D2F73290020540020204D32303420534A
:1004700000416363656C65726174696F6E3A205305
:100480003D616363656C65726174696F6E2C2054A5
:100490003D7265747261637420616363656C65723B
:1004A0006174696F6E00204500205A0020590020B9
:1004B000204D3230312058004D6178696D756D20C6
:1004C000416363656C65726174696F6E20286D6D40
:1004D0002F7332293A00204500205A00205900206D
:1004E000204D3230332058004D6178696D756D2094
:1004F00066656564726174657320286D6D2F73295C
:100500003A00204500205A0020590020204D393261
:1005100020580053746570732070657220756E6981
:10052000743A0053657474696E67732053746F7204
:100530006564004572726F723A006563686F3A00D5
:100540005072696E7465722073746F707065642088
:1005500064756520746F206572726F72732E204609
:10056000697820746865206572726F7220616E64AC
:1005700020757365204D39393920746F2072657389
:10058000746172742E202854656D70657261747583
:1005900072652069732072657365742E20536574CB
:1005A000206974206166746572207265737461726B
:1005B00074696E6729005072696E74657220686193
:1005C0006C7465642E206B696C6C28292063616CE7
:1005D0006C656421006F6B00526573656E643A2030
:1005E000002200556E6B6E6F776E20636F6D6D61CC
:1005F0006E643A2022005A204F6666736574203A72
:1006000020007A5F6D61783A20007A5F6D696E3AFA
:1006100020005A204F6666736574005A204F666644
:10062000736574206F6B007A5F6D61783A20007A91
:100630005F6D696E3A2000795F6D696E3A200078CF
:100640005F6D696E3A2000205A3A0020593A002026
:10065000436F756E7420583A200020453A00205AA6
:100660003A0020593A00583A004649524D574152F3
:10067000455F4E414D453A4D61726C696E20563171
:100680002E302E323B20537072696E7465722F6764
:1006900072626C206D617368757020666F7220677E
:1006A000656E36204649524D574152455F55524C72
:1006B0003A68747470733A2F2F6769746875622E84
:1006C000636F6D2F4D61726C696E4669726D7761F3
:1006D00072652F4D61726C696E2050524F544F43BA
:1006E0004F4C5F56455253494F4E3A312E30204DB4
:1006F000414348494E455F545950453A4D32204593
:10070000585452554445525F434F554E543A312048
:10071000555549443A30303030303030302D30305B
:1007200030302D303030302D303030302D303030D2
:100730003030303030303030300A0020423A002043
:10074000453A00543A0020573A0020453A00543ABE
:10075000002042403A0020403A00202F003A00207A
:100760005400202F0020423A00202F006F6B2054AD
:100770003A002569206D696E2C2025692073656318
:1007800000456E642066696C65206C697374004274
:100790006567696E2066696C65206C69737400FF1B
:1007A000FFFF00004D4300007F430000484300006E
:1007B000A0400000A0400000004000000000000039
:1007C0000000000000000000000000000000000029
:1007D000000000004D4300007F43000048432569AE
:1007E00020686F757273202569206D696E75746558
:1007F0007300446F6E65207072696E74696E672055
:1008000066696C65005072696E7465722073746FEE
:10081000707065642064756520746F206572726FF6
:1008200072732E2046697820746865206572726F35
:100830007220616E6420757365204D3939392074DA
:100840006F20726573746172742E202854656D7008
:100850006572617475726520697320726573657461
:100860002E2053657420697420616674657220724D
:10087000657374617274696E6729004E6F204C69EC
:100880006E65204E756D62657220776974682063AD
:100890006865636B73756D2C204C617374204C69B3
:1008A0006E653A20004E6F20436865636B73756D0B
:1008B0002077697468206C696E65206E756D62655D
:1008C000722C204C617374204C696E653A20006371
:1008D0006865636B73756D206D69736D61746368B2
:1008E0002C204C617374204C696E653A20004C6971
:1008F0006E65204E756D626572206973206E6F742F
:10090000204C617374204C696E65204E756D626574
:10091000722B312C204C617374204C696E653A2027
:10092000004D31313000446F6E6520736176696E21
:10093000672066696C652E006F6B004D32390020B0
:1009400020506C616E6E65724275666665724279A2
:100950007465733A20002046726565204D656D6FA1
:1009600072793A20004A756C2031322032303232AE
:1009700000436F6D70696C65643A2000284D477CB8
:100980004A6F73682C204D322047656E6572616C2A
:10099000202D2041574247332076303031203031EE
:1009A0002F31342F32303136202D204F7269676954
:1009B0006E616C205A204D6F746F722900207C206C
:1009C000417574686F723A20004A756C203132208C
:1009D000323032322031323A32323A343400204C22
:1009E00061737420557064617465643A2000312E1F
:1009F000302E32004D61726C696E0020536F667448
:100A00007761726520526573657400205761746365
:100A100068646F67205265736574002042726F7757
:100A20006E206F757420526573657400204578746C
:100A300065726E616C20526573657400506F7765E6
:100A4000725570007374617274002200656E717566
:100A500065696E672022002200656E717565696E9A
:100A60006720220020746F6F206C6F6E672065789E
:100A700074727573696F6E2070726576656E7465D9
:100A8000640020636F6C6420657874727573696F9D
:100A90006E2070726576656E746564007C3C3E5EA7
:100AA0002B3D3F2F5B5D3B2C2A225C0045313A20D9
:100AB0000045303A20005A3A2000593A2000583A6E
:100AC00020004D53312C4D53322050696E730A0073
:100AD00024F404D9201BC40C5C0E9804C4095F02E2
:100AE00065077101F405F900FB04B30048048700B1
:100AF000C10369005803550003034500BE023A00D4
:100B00008402310053022A00290225000402200039
:100B1000E4011C00C8011900AF011700980114007E
:100B200084011300710110006101100051010E00D9
:100B300043010D0036010B002B010B0020010B00BF
:100B4000150109000C01090003010800FB00080061
:100B5000F3000800EB000700E4000600DE000600DA
:100B6000D8000600D2000600CC000500C700050032
:100B7000C2000500BD000400B9000400B500040077
:100B8000B1000400AD000400A9000400A5000300AA
:100B9000A20003009F0004009B00030098000300D4
:100BA0009500020093000300900003008D000200F6
:100BB0008B0003008800020086000200840003000E
:100BC000810002007F0002007D0002007B00020025
:100BD0007900020077000100760002007400020034
:100BE00072000100710002006F0002006D00010040
:100BF0006C0002006A000100690002006700010049
:100C0000660001006500010064000200620001004E
:100C100061000100600001005F0002005D00010052
:100C20005C0001005B0001005A0001005900010056
:100C30005800010057000100560001005500010056
:100C40005400010053000000530001005200010055
:100C500051000100500001004F0001004E00000053
:100C60004E0001004D0001004C0001004B0000004F
:100C70004B0001004A00010049000100480000004B
:100C80004800010047000100460000004600010046
:100C90004500000045000100440001004300000041
:100CA000430001004200000042000100410000003A
:100CB00041000100400001003F0000003F00010032
:100CC0003E0000003E0001003D0000003D0001002C
:100CD0003C0000003C0000003C0001003B00000024
:100CE0003B0001003A0000003A000100390000001A
:100CF0003900010038000000380000003800010011
:100D00003700000037000100360000003600000008
:100D100036000100350000003500000035000100FC
:100D200034000000340000003400010033000000F3
:100D300033000000330001003200000032000000E8
:100D400032000100310000003100000031000100DC
:100D50003000000030000000300001002F000000D3
:100D60002F0000002F0000002F0001002E000000C7
:100D70002E0000002E0001002D0000002D000000BC
:100D80002D0000002D0001002C0000002C000000B0
:100D90002C0000002C0001002B0000002B000000A4
:100DA0002B0000002B0001002A0000002A00000098
:100DB0002A0000002A00010029000000290000008C
:100DC000290000002900000029000100280000007F
:100DD0002800000028000000280000002800010072
:100DE0002700000027000000270000002700000067
:100DF0002700010026000000260000002600000059
:100E0000260000002600010025000000250000004B
:100E1000250000002500000025000000250001003D
:100E20002400000024000000240000002400000032
:100E30002400010023000000230000002300000024
:100E40002300000023000000230000002300010015
:100E5000220000002200000022000000220000000A
:100E600022000000220001002100000021000000FB
:100E700021000000210000002100000021000000EE
:100E800021000100200000002000000020000000E0
:100E900020000000200000002000000020000000D2
:100EA000200001001F0000001F0000001F000000C4
:100EB0001F0000001F0000001F0000001F000100B5
:100EC0001E0000001E0000001E0000001E000000AA
:100ED00024F4D43050C38E20C2A24017828B7011EC
:100EE000127A910D816CD90AA861E108C75866078A
:100EF000615143061E4B5D05C145A7041A4111040B
:100F0000093D9803713931034036DB0265339102A4
:100F1000D4305402802E1D02632CEE01752AC501C7
:100F2000B028A001102781018F2564012B244B01DB
:100F3000E0223401AC211F018D200D01801FFC0037
:100F4000841EED00971DDF00B81CD200E61BC60012
:100F5000201BBC00641AB200B219A8000A19A00034
:100F60006A189900D117910040178B00B5168400BC
:100F700031167E00B31579003A157300C7146F005F
:100F800058146A00EE1366008813630025135E0090
:100F9000C7125B006C12570015125400C1115100AA
:100FA00070114F0021114B00D61049008D104700E1
:100FB0004610440002104200C00F4000800F3E0067
:100FC000420F3C00060F3B00CB0E3800930E37005B
:100FD0005C0E3500270E3400F30D3200C10D3100D8
:100FE000900D3000600D2E00320D2D00050D2C00EF
:100FF000D90C2B00AE0C2900850C29005C0C2700B5
:10100000350C27000E0C2600E80B2400C40B24002E
:10101000A00B23007D0B23005A0B2100390B21006C
:10102000180B2000F80A1F00D90A1E00BB0A1E0078
:101030009D0A1D00800A1D00630A1C00470A1B0050
:101040002C0A1B00110A1A00F7091A00DD09190001
:10105000C4091900AB091900920917007B0918008F
:10106000630917004C0916003609160020091600FE
:101070000A091500F5081500E0081400CC08140052
:10108000B8081400A4081400900813007D0812008A
:101090006B081300580812004608120034081100AB
:1010A000230811001208110001081100F0071000B8
:1010B000E0071000D0071000C0071000B0070F00B5
:1010C000A107100091070E0083070F0074070F009F
:1010D00065070E0057070E0049070E003B070D007D
:1010E0002E070E0020070D0013070D0006070D0048
:1010F000F9060C00ED060D00E0060C00D4060C000D
:10110000C8060C00BC060C00B0060C00A4060B00C0
:1011100099060C008D060B0082060B0077060B006B
:101120006C060B0061060A0057060B004C060A000D
:1011300042060A0038060A002E060A0024060A00A3
:101140001A060A001006090007060A00FD05090034
:10115000F4050900EB050900E2050900D9050900BD
:10116000D0050900C7050900BE050900B50508003E
:10117000AD050800A50509009C05080094050800B8
:101180008C050800840508007C050800740508002B
:101190006C050700650508005D0507005605080099
:1011A0004E05070047050700400508003805070001
:1011B000310507002A050700230507001C05060066
:1011C000160507000F0507000805060002050700C1
:1011D000FB040600F5040700EE040600E804060020
:1011E000E2040700DB040600D5040600CF04060075
:1011F000C9040600C3040600BD040600B7040600C7
:10120000B1040500AC040600A6040600A004050015
:101210009B04060095040500900406008A0405005E
:1012200085040500800406007A04050075040500A5
:10123000700405006B0405006604050061040500E8
:101240005C04050057040500520405004D04050028
:1012500048040500430405003E0404003A04050068
:1012600035040500300404002C04050027040400A4
:10127000230405001E0404001A04040016040500DB
:10128000110404000D040400090405000404040012
:1012900000040400FC030400F8030400F403040049
:1012A000F0030400EC030400E8030400E40304007A
:1012B000E0030400DC030400D8030400D4030400AA
:1012C000D0030400CC030400C8030300C5030300DB
:1012D000205A3A0020593A0020583A00656E64734B
:1012E000746F7073206869743A200054656D70657E
:1012F00072617475726520686561746564206265E9
:1013000064207377697463686564206F66662E2055
:101310004D415854454D5020747269676765726538
:1013200064202121003A204578747275646572202A
:101330007377697463686564206F66662E204D4913
:101340004E54454D5020747269676765726564201C
:1013500021003A204578747275646572207377694C
:101360007463686564206F66662E204D415854454D
:101370004D50207472696767657265642021002092
:101380002D20496E76616C6964206578747275648D
:101390006572206E756D62657220210070012C01EE
:1013A00090012701B0012201C0011D01F0011801C7
:1013B0001002130130020E016002090190020401C3
:1013C000C002FF000003FA004003F5008003F000B4
:1013D000D003EB002004E6007004E100E004DC0030
:1013E0004005D700C005D2004006CD00D006C80099
:1013F0008007C3003008BE00F008B900C009B4007F
:10140000B00AAF00B00BAA00D00CA500000EA000DF
:10141000500F9B00C01096005012910000148C00D9
:10142000C0158700B0178200B0197D00D01B78006E
:10143000001E730040206E0090226900F0246400BA
:1014400040275F0090295A00E02B5500102E5000D5
:1014500020304B0010324600E033410090353C0014
:101460001037370070383200A0392D00B03A28000C
:10147000A03B2300603C1E00103D1900903D14006D
:10148000103E0F00703E0A00C03E0500003F000005
:10149000504944204175746F74756E652066696E9D
:1014A0006973686564212050757420746865206CC8
:1014B000617374204B702C204B6920616E64204B4B
:1014C0006420636F6E7374616E74732066726F6DE7
:1014D0002061626F766520696E746F20436F6E665F
:1014E000696775726174696F6E2E68005049442097
:1014F0004175746F74756E65206661696C656421F1
:101500002074696D656F75740020403A006F6B2020
:10151000543A006F6B20423A0050494420417574A0
:101520006F74756E65206661696C65642120546511
:101530006D706572617475726520746F6F20686973
:10154000676800204B643A2000204B693A20002055
:101550004B703A200020436C6173736963205049DB
:101560004420002054753A2000204B753A2000207A
:101570006D61783A2000206D696E3A200020643A4F
:10158000200020626961733A2000000021002400DD
:1015900027002A002D003000330001010000040163
:1015A00007010A0100002200250028002B002E0060
:1015B0003100340002010000050108010B010000A8
:1015C00020002300260029002C002F0032000001FB
:1015D00000000301060109010505050507050808C6
:1015E0000808020202020A0A0808040404040101AD
:1015F00001010101010103030303030303030407C2
:1016000007070C0C0C0C0C0C0C0C02020202060658
:101610000606060606060B0B0B0B0B0B0B0B01024B
:1016200010202008081020401020408002010201F4
:1016300008040201010204081020408080402010AC
:101640000804020180040201804020100804020105
:10165000080402010102040810204080010204086D
:10166000102040800000090A02080B0C0D07060339
:101670000401000000000000000000000000000065
:10168000000000000000000000000000000000005A
:1016900011100F000000000000000000000000001A
:1016A00000000000000000000000494E46494E497D
:1016B00054594E414ECDCCCC3D0AD7233C17B7D11F
:1016C0003877CC2B329595E6241FB14F0A000020C5
:1016D000410000C84200401C4620BCBE4CCA1B0E44
:1016E0005AAEC59D740065278129C4877C291124C1
:1016F0001FBECFEFD1E2DEBFCDBF00E00CBF14E0D4
:10170000A0E0B2E0E2E6F5E201E00BBF02C0079024
:101710000D92A835B107D9F71BBE12E1A8E5B4E0D8
:1017200001C01D92AD34B107E1F716E1CCEED6E170
:1017300004C02297FE010E945792C63ED107C9F706
:101740000E940D8D0C94A5920C940000A0E0B0E0D6
:10175000ECEAFBE00C947492EC015B0161157105FD
:1017600019F0FB0191838083F9908F2D90E00E9406
:101770005B92892BC9F7FDE2FF1621F4F990EE2464
:10178000E39405C02BE2F21609F4F990EE248E01E1
:1017900001501040C8016AEA76E143E050E069D2A6
:1017A000892BF9F48E010E5F1F4FC8016DEA76E1B7
:1017B00045E050E05ED2892B19F48E01095F1F4F7E
:1017C000A114B10419F0F50111830083E0FC04C0F9
:1017D00070E090E080E813C070E090E080E86FEF88
:1017E00007C1C80162EB76E143E050E042D2892BA9
:1017F00069F4A114B10429F470E090E080EC6FE783
:10180000F7C02296F501D183C083F6CF88249924AE
:1018100040E050E060E070E0EF2DE053EA30A0F5EA
:10182000F2E0EF2A8E2D90E09C0128703070E2FEED
:1018300006C0232B79F50894811C911C2BC0232B07
:1018400019F0089481089108DB01CA0112E0880FA1
:10185000991FAA1FBB1F1A95D1F7480F591F6A1F5E
:101860007B1F440F551F661F771F4E0F511D611DB3
:10187000711D483929E9520729E9620729E17207F0
:1018800048F084E0E82A06C0EE3F31F4E3FC39C0BA
:1018900098E0E92AF990C0CFE53311F0E53189F5F8
:1018A00029912D3219F4E0E1EE2A05C02B3219F00E
:1018B00081E090E003C0299182E090E0E22FE053C4
:1018C000EA3018F0C81BD90B1CC020E030E0FCE067
:1018D00020383F075CF4C901880F991F880F991FB2
:1018E000280F391F220F331F2E0F311DE991E053AE
:1018F000EA3068F3E4FE03C0309521953F4F820E35
:10190000931ECE2CDD24E1FE07C0A114B10421F00A
:101910002197F501D183C083CB01BA010E94C08E0B
:101920007B018C01F3E0CF22DD2423E0C216D10439
:1019300021F417FB109517F9109557016801C8019C
:10194000B70120E030E040E050E00E94208E882384
:1019500009F44AC097FE0DC029ECE22E26E1F22ED2
:101960009094819491089394C0E2D0E000E010E05C
:1019700012C091EEE92E96E1F92EF6CFF7012591EE
:10198000359145915491C601B5010E9400915B01CA
:101990006C018C1A9D0A8C169D0684F7D595C79507
:1019A0000F5F1F4F0630110529F08CEF9FEFE80EF7
:1019B000F91EF1CFC501D6017C018D018C2D880F58
:1019C0008D2D881F8F3F51F0C601B50120E030E01A
:1019D00040E050E00E94208E882331F482E290E0C3
:1019E00090934C1280934B127E2D9F2D802F612F50
:1019F000272F392F482F562FB901CA01CDB7DEB78F
:101A0000ECE00C9490922F923F925F926F927F92B3
:101A10008F929F92AF92BF92CF92DF92EF92FF92FE
:101A20000F931F93CF93DF938C011B01EA01611584
:101A3000710519F0FB0191838083209749F0CE0155
:101A40000297839728F020E030E040E050E0F6C0B5
:101A5000F801A1908F018A2D90E00E945B92892B62
:101A6000B9F7FDE2AF1631F4F801A1908F015524CA
:101A7000539407C0FBE2AF1619F4F801A1908F014F
:101A80005524209719F0C031D105C1F4F0E3AF1609
:101A900079F4F8018081883711F0883549F4F8012C
:101AA000A1800E5F1F4FF2E05F2AC0E1D0E006C0C8
:101AB000209721F480E3A816E9F427C0C830D105A7
:101AC00031F1C930D10524F4C230D10531F50CC053
:101AD000CA30D10589F0C031D105F9F4C12CD12C1F
:101AE000E12CB8E0FB2E28C0C12CD12CE12CA0E4C5
:101AF000FA2E22C0CAE0D0E0FCECCF2EFCECDF2EA8
:101B0000FCECEF2EFCE0FF2E17C0C8E0D0E0C12CAB
:101B1000D12CE12CE0E1FE2E0FC09E01442737FDC1
:101B20004095542F60E070E080E090E80E941892A9
:101B3000C901DA016C017D0120E030E040E050E0B5
:101B400060E03E01882477FC8094982C70EDB72EDD
:101B5000BA0CE9E0EB1570F48A2D81548A3118F43F
:101B600099ECB92E06C08A2D81568A3150F589EA42
:101B7000B82EBA0C8B2D90E08C179D0714F56F3F93
:101B8000E1F0C216D306E406F506B0F0CA01B901C9
:101B9000A40193010E94D2919B01AC012B0D311D38
:101BA000411D511D2130F0E03F07F0E04F07F0E804
:101BB0005F0710F461E001C06FEFF801A1908F01A1
:101BC000C5CF2114310481F0662331F0015010405B
:101BD000F1011183008308C051FE1AC00250104069
:101BE000F1011183008314C067FF12C050FC05C0CF
:101BF0002FEF3FEF4FEF5FE704C020E030E040E021
:101C000050E882E290E090934C1280934B1216C001
:101C100050FE08C050954095309521953F4F4F4F4D
:101C20005F4F0CC057FF0AC082E290E090934C12C5
:101C300080934B122FEF3FEF4FEF5FE7B901CA01DF
:101C4000DF91CF911F910F91FF90EF90DF90CF9098
:101C5000BF90AF909F908F907F906F905F903F90DC
:101C60002F900895FB01DC0105900D920020E1F713
:101C70000895FB01DC014150504088F08D91813482
:101C80001CF08B350CF4805E659161341CF06B3573
:101C90000CF4605E861B611171F3990B0895881B2B
:101CA000FCCFFB0155915523A9F0BF01DC014D91FB
:101CB00045174111E1F759F4CD010590002049F095
:101CC0004D9140154111C9F3FB014111EFCF81E066
:101CD00090E001970895FB01DC0104C08D91019013
:101CE000801921F441505040C8F7881B990B089582
:101CF000FB01DC0102C001900D9241505040D8F729
:101D00000895FB01DC018D9181341CF08B350CF4BE
:101D1000805E619161341CF06B350CF4605E861B53
:101D2000611189F3990B0895FB01DC010D900020EE
:101D3000E9F7119701900D920020E1F70895FC0159
:101D40008191861721F08823D9F799270895319733
:101D5000CF010895FB01DC018D91019080190110E4
:101D6000D9F3990B0895FB01DC0101900D9200203D
:101D7000E1F70895FB01DC014150504030F08D91B6
:101D80000190801919F40020B9F7881B990B089568
:101D9000FB01DC014150504048F001900D920020C1
:101DA000C9F701C01D9241505040E0F70895AEE0E0
:101DB000B0E0EDEDFEE00C947C920E891F898EE080
:101DC0008C831A8309838FEF9FE79E838D839E0107
:101DD000265E3F4FCE010196688D798DA9010AD00C
:101DE0002F813885020F131FF80110822E96E4E030
:101DF0000C949892ABE0B0E0E0E0FFE00C946E92BF
:101E00003C012B015A01FC0117821682838181FD5E
:101E100003C06FEF7FEFB9C19AE0892E1E010894CD
:101E2000211C311CF3012381F20123FD859123FF45
:101E300081912F01882309F4A5C1853239F423FD4E
:101E4000859123FF81912F01853221F490E0B30128
:101E5000B7D1E8CF982FFF24EE249924FFE1FF1596
:101E6000D0F09B3269F09C3228F4903259F09332D2
:101E700091F40EC09D3249F0903369F441E024C0E2
:101E800052E0F52A84E0F82A28C098E0F92A25C013
:101E9000E0E1FE2A22C0F7FC29C0892F80538A3056
:101EA00070F4F6FE05C0989C902C1124980E15C075
:101EB000E89CE02C1124E80EF0E2FF2A0EC09E32CE
:101EC00029F4F6FC5FC140E4F42A07C09C3619F4FB
:101ED00050E8F52A02C0983649F4F20123FD9591A5
:101EE00023FF91912F01992309F0B8CF892F8554B1
:101EF000833018F08052833038F444E050E0A40E70
:101F0000B51E5FE359830FC0933631F0933779F0F4
:101F1000933509F052C01FC0F5018081898342E0EA
:101F200050E0A40EB51E610101E010E011C0F50102
:101F3000C080D180F6FC03C06FEF7FEF02C0692D37
:101F400070E042E050E0A40EB51EC6012ED18C0117
:101F50005FE7F52213C0F501C080D180F6FC03C015
:101F60006FEF7FEF02C0692D70E042E050E0A40EF9
:101F7000B51EC6010FD18C0150E8F52AF3FE06C04C
:101F800018C080E290E0B3011BD1EA948E2D90E05E
:101F900008171907B0F30DC0F601F7FC8591F7FE9D
:101FA00081916F0190E0B3010BD1E110EA940150EF
:101FB00010400115110581F7E2C0943611F09936F1
:101FC00061F5F7FE08C0F50120813181428153811E
:101FD00084E090E00AC0F501808191819C01442752
:101FE00037FD4095542F82E090E0A80EB91E9FE681
:101FF000F92257FF09C050954095309521953F4FE4
:102000004F4F5F4FE0E8FE2ACA01B901A1012AE063
:1020100030E002D1D82ED2183FC0953729F41F2DB9
:102020001F7E2AE030E01DC01F2D197F9F3661F012
:10203000903720F4983509F0A5C00FC0903739F0DB
:10204000983709F09FC004C028E030E00AC0106152
:1020500014FD146020E130E004C014FD166020E19E
:1020600032E017FF08C0F5016081718182819381A0
:1020700044E050E008C0F50180819181BC0180E01E
:1020800090E042E050E0A40EB51EA101C5D0D82ECC
:10209000D2188FE7F82EF122F6FE0BC05EEFF52284
:1020A000D91438F4F4FE07C0F2FC05C08FEEF82214
:1020B00002C01D2D01C0192DF4FE0DC0FE01ED0D55
:1020C000F11D8081803319F499EEF92208C01F5F59
:1020D000F2FE05C003C08F2D867809F01F5F0F2D1B
:1020E000F3FC13C0F0FE0EC01E1510F09D2C0AC0AC
:1020F0009D2C9E0C911A1E2D05C080E290E0B3012C
:102100005FD01F5F1E15C8F304C01E1510F4E11A3E
:1021100001C0EE2404FF0EC080E390E0B30150D074
:1021200002FF1BC001FD03C088E790E00EC088E5F8
:1021300090E00BC0802F867881F001FF02C08BE217
:1021400001C080E2F7FC8DE290E0B30139D005C018
:1021500080E390E0B30134D09A94D914C8F3DA94B0
:10216000F101ED0DF11D808190E0B30129D0DD205A
:10217000B1F705C080E290E0B30122D0EA94EE20EE
:10218000C9F750CEF30166817781CB012B96E2E14E
:102190000C948A92FC010590615070400110D8F7B0
:1021A000809590958E0F9F1F0895FC01615070409F
:1021B00001900110D8F7809590958E0F9F1F08957C
:1021C0000F931F93CF93DF938C01EB018B8181FFE2
:1021D0001BC082FF0DC02E813F818C819D812817FD
:1021E000390764F4E881F9810193F983E88306C033
:1021F000E885F985802F1995892B31F48E819F818F
:1022000001969F838E8302C00FEF1FEFC801DF91FD
:10221000CF911F910F910895FA01AA27283051F10B
:10222000203181F1E8946F936E7F6E5F7F4F8F4F07
:102230009F4FAF4FB1E03ED0B4E03CD0670F781F66
:10224000891F9A1FA11D680F791F8A1F911DA11D4B
:102250006A0F711D811D911DA11D20D009F4689484
:102260003F912AE0269F11243019305D3193DEF62C
:10227000CF010895462F4770405D4193B3E00FD0E2
:10228000C9F7F6CF462F4F70405D4A3318F0495DCD
:1022900031FD4052419302D0A9F7EACFB4E0A695B0
:1022A0009795879577956795BA95C9F700976105D2
:1022B000710508959B01AC010A2E06945795479528
:1022C00037952795BA95C9F7620F731F841F951F1D
:1022D000A01D0895FC01128213820895FC018381E0
:1022E000882311F081E082830895FC0182818111AD
:1022F00012820895FC0184E394E0918380838781B6
:10230000882321F0CF0104960C945B650895EF9229
:10231000FF920F931F938C013EECE32E31E0F32EDE
:10232000E80EF91EC7010E940E65C7010E945B6599
:10233000F801108211821F910F91FF90EF90089584
:10234000CF92DF92EF92FF920F931F93CF93DF9381
:102350007C016B01DB010D900020E9F78D0101503C
:102360001040061B170BEEECF1E0EE0EFF1ED7013E
:102370001C92E2E3FEEFEE0EFF1ECB016EE470E076
:10238000DEDCEC01009731F4F8013197EC0DFD1D16
:1023900086010CC060E270E0D2DC8C010F5F1F4F41
:1023A000CE016AE270E0CBDCFC0131978DE08183E5
:1023B0008AE082831382C70186539E4FB8010E9430
:1023C000586D8EEC91E0E80EF91ED7018C918823B0
:1023D00019F1E3E3F5E0949108C08091C00085FF16
:1023E000FCCF9093C600319694919923B1F7E5E61E
:1023F000F1E0949108C08091C00085FFFCCF9093DC
:10240000C600319694919923B1F78091C00085FF61
:10241000FCCF8AE08093C600DF91CF911F910F918E
:10242000FF90EF90DF90CF900895CF93DF93EC0172
:102430008B81882309F43BC0EDE8F1E0949108C05A
:102440008091C00085FFFCCF9093C6003196949197
:102450009923B1F7CD57DD4F488159816A817B813E
:10246000C358D2408CED94E02AE030E00E94FE2771
:10247000EBE8F1E0949108C08091C00085FFFCCFAB
:102480009093C600319694919923B1F7C558DD4FCA
:10249000488159816A817B818CED94E02AE030E0AB
:1024A0000E94FE278091C00085FFFCCF12C0EBE7A1
:1024B000F1E0949108C08091C00085FFFCCF90931B
:1024C000C600319694919923B1F78091C00085FFA1
:1024D000FCCF8AE08093C600DF91CF9108952F92C0
:1024E0003F924F925F926F927F928F929F92AF92A4
:1024F000BF92CF92DF92EF92FF920F931F93DF93E1
:10250000CF93CDB7DEB7AC970FB6F894DEBF0FBE52
:10251000CDBF5C014B01FC018381882309F43BC1E1
:10252000C50182539E4F0E945B65F50112821A8A93
:102530001D8A198A188A84E394E09F878E875EE457
:10254000C52ED12CCA0CDB1C2FE230E0A20EB31E2C
:10255000F601B182A08221ED3FEFA20EB31EF4017D
:1025600080818F3209F08DC0C4016FE270E0E7DB3B
:102570007C010894E11CF11C3E010894611C711C53
:10258000260142E1242E312C2C0E3D1E75C0C701C0
:102590006FE270E0D4DB6C01009709F480C0E816AC
:1025A000F90608F07CC08C010E191F09C301B701A0
:1025B000A801EEDB060D171DF8011082F30107C01C
:1025C0008091C00085FFFCCF31969093C60090812A
:1025D0009923B1F78091C00085FFFCCFFAE0F0931A
:1025E000C600F201608171816115710519F460E026
:1025F00070E002C06C5F7F4FC101A30121E00E9427
:10260000476C882371F5E9ECF1E0949108C0809162
:10261000C00085FFFCCF9093C6003196949199231A
:10262000B1F7FE01319607C08091C00085FFFCCF55
:1026300031969093C60090819923B1F7E7ECF1E0D1
:10264000949108C08091C00085FFFCCF9093C60094
:10265000319694919923B1F78091C00085FFFCCF0A
:1026600094C02EE030E02C0F3D1FF2013183208317
:1026700076010894E11CF11CE114F10409F087CF04
:102680000BC080E590E0A80EB91EF601B182A082D1
:1026900020EB3FEFA20EB31ED82C092D02C0DE2C7A
:1026A0000F2D8EE490E0A80EB91EF5018081918176
:1026B00022EB3FEFA20EB31E009719F480E090E0EA
:1026C00001C004966D2D702F0E94136D882371F147
:1026D000E9EBF1E0949108C08091C00085FFFCCF48
:1026E0009093C600319694919923B1F78D2D902F38
:1026F0009C01F90107C08091C00085FFFCCF319695
:102700009093C60090819923B1F78091C00085FF16
:10271000FCCF8AE08093C60083E892E0A80EB91E41
:10272000F501108211821282138232C0E1EAF1E0D7
:10273000949108C08091C00085FFFCCF9093C600A3
:10274000319694919923B1F78D2D902F9C01F90129
:1027500007C08091C00085FFFCCF31969093C600E2
:1027600090819923B1F7EFE9F1E0949108C080914D
:10277000C00085FFFCCF9093C600319694919923B9
:10278000B1F78091C00085FFFCCF8AE08093C6003E
:10279000CE010E96AFDDAC960FB6F894DEBF0FBE3D
:1027A000CDBFCF91DF911F910F91FF90EF90DF9000
:1027B000CF90BF90AF909F908F907F906F905F90E1
:1027C0004F903F902F900895BF92CF92DF92EF925B
:1027D000FF920F931F93CF93DF938C01EB018FE256
:1027E0008993EE24E394FF2475EAC72E71E0D72E77
:1027F000C00ED11E6FE1B62E14C0FB9CC001112487
:102800008D589F4F800F911FBE010E946B6502C0C3
:102810002196E3948881882319F08CE88E15C0F7FF
:10282000F3942F2D30E0F60180819181281739072C
:1028300020F3E7FC07C0C80182539E4FBE010E94EF
:102840006B6501C01882DF91CF911F910F91FF90AE
:10285000EF90DF90CF90BF900895EF92FF920F938B
:102860001F93CF93DF938C01FC01138286A98823E9
:1028700021F0C801C3960E945B65E7EAEE2EE1E015
:10288000FE2EE00EF11EC70160E045E30E940A63E0
:10289000882309F5EAE3F5E0949108C08091C0002F
:1028A00085FFFCCF9093C600319694919923B1F7A0
:1028B000E2E1F3E0949108C08091C00085FFFCCF75
:1028C0009093C600319694919923B1F78091C000FE
:1028D00085FFFCCF7DC0E801C455DE4FCE01B701B6
:1028E00041E00E94E96D882341F5CE01B70140E047
:1028F0000E94E96D882309F5E3E3F5E0949108C0AF
:102900008091C00085FFFCCF9093C60031969491D2
:102910009923B1F7EFEFF2E0949108C08091C000E5
:1029200085FFFCCF9093C600319694919923B1F71F
:102930008091C00085FFFCCF4BC0C801C396BE018B
:102940000E944D68882309F5E3E3F5E0949108C0FF
:102950008091C00085FFFCCF9093C6003196949182
:102960009923B1F7EFEEF2E0949108C08091C00096
:1029700085FFFCCF9093C600319694919923B1F7CF
:102980008091C00085FFFCCF23C081E0F8018383E4
:10299000EAE3F5E0949108C08091C00085FFFCCF88
:1029A0009093C600319694919923B1F7E4EEF2E04A
:1029B000949108C08091C00085FFFCCF9093C60021
:1029C000319694919923B1F78091C00085FFFCCF97
:1029D0008AE08093C600D801AC5ABF4FF801F39645
:1029E0008BE101900D928150E1F7F80181A992A944
:1029F0000E5A1F4FF8019183808302551040C80181
:102A00008F96025B1F4FF80191838083DF91CF91F6
:102A10001F910F91FF90EF9008952F923F924F9248
:102A20005F926F927F929F92AF92BF92CF92DF920E
:102A3000EF92FF920F931F93DF93CF93CDB7DEB743
:102A4000CC55D0400FB6F894DEBF0FBECDBF6C01A1
:102A5000662311F527E832E0C20ED31ED6018C9111
:102A6000E9E7FDEFCE0EDF1E882309F4E0C02FE773
:102A700032E0C20ED31ED601ED90FD900D911C9157
:102A8000E1E8FDEFCE0EDF1E0E94448AE616F7064F
:102A90000807190708F4CBC027E832E0C20ED31E9E
:102AA000D6011C92E9E7FDEFCE0EDF1ED60113968C
:102AB0008C91882339F4C601D0DEF6018381882306
:102AC00009F4B5C000D000D0EDB7FEB731967E0155
:102AD0000894E11CF11CADB7BEB71296FC92EE92C1
:102AE00011978CE591E093838283D6019D968D9119
:102AF0009C919E97958384835AD98701EDB7FEB741
:102B000036960FB6F894FEBF0FBEEDBF57010AC050
:102B1000D8018C91992787FD90950E946392F801C6
:102B200081938F01F50101900020E9F73197EA19AF
:102B3000FB09802F8E198E175CF313E3A12EB12CA5
:102B4000AC0CBD1CC50140E050E060E070E00E94AC
:102B500044649924BDE3EB2EF12CEC0EFD1E2E01F6
:102B60000894411C511CAFE16A2E712C6C0E7D1E25
:102B7000F5E52F2EF1E03F2E40C0D8018C9190E07A
:102B80000E946392F80181938F01D7010D9000207C
:102B9000E9F71197AE19BF09802F8E198A176CF3C8
:102BA00027968FAD27978E3741F1C701B20145E0D7
:102BB00050E0E0D8009709F500D000D0EDB7FEB79F
:102BC0003196ADB7BEB712967C926E921197338252
:102BD000228255824482EBD8EDB7FEB736960FB607
:102BE000F894FEBF0FBEEDBFC3010E940A4981E504
:102BF00091E00E94914899249394C501B70140E067
:102C000050E00E946C67181614F48701BECF99201B
:102C100041F48FEF9FEFD6019E969C938E939D97E4
:102C200006C0F60185A596A5019696A785A7C45A64
:102C3000DF4F0FB6F894DEBF0FBECDBFCF91DF914F
:102C40001F910F91FF90EF90DF90CF90BF90AF90CA
:102C50009F907F906F905F904F903F902F9008953E
:102C60002F923F924F925F926F927F928F929F929C
:102C7000AF92BF92CF92DF92EF92FF920F931F938A
:102C8000DF93CF93CDB7DEB7CF58D0400FB6F894CF
:102C9000DEBF0FBECDBF8C012B016A01C757DF4FCE
:102CA00039832883C958D04084E090E0C80ED91EEB
:102CB000F8017196C957DF4FF983E883C758D040B0
:102CC00044E0642E712C600E711ECA57DF4F1882CB
:102CD000C658D04036E6E32EF12CEC0EFD1EC7019F
:102CE0000B96C557DF4F99838883CB58D04028E88F
:102CF000822E22E0922E800E911E9AE8A92E92E05A
:102D0000B92EA00EB11E87E4282E312C2C0E3D1EAC
:102D1000F1013496C357DF4FF983E883CD58D04093
:102D2000EAE3F5E08491C157DF4F8883CF58D04064
:102D300053C1F7018385482F50E0BA016871707064
:102D40006031710509F056C1F401208131812130D3
:102D5000310509F44FC12230310509F44BC1F701A7
:102D6000DE0111969081903239F08E2F8E198830C5
:102D700011F48EE28D939D933196C557DF4F888174
:102D80009981CB58D040E817F90761F71C921E864D
:102D9000F2018081882331F4CE010E9660E072E06A
:102DA0000E94940ECE010E96B2010E94940ECE01A6
:102DB0000E96BE016F5F7F4F0E94940ECE010E965D
:102DC00060E072E00E94940E1CA61FA61BA61AA625
:102DD00084E394E099A788A7CE018C96B601AE0152
:102DE0004F5F5F4F21E00E94476C882309F03FC08E
:102DF000F40180819181892BD1F5C157DF4F9881F2
:102E0000CF58D040EAE3F5E008C08091C00085FFCC
:102E1000FCCF9093C600319694919923B1F7E2E0EC
:102E2000F2E007C08091C00085FFFCCF31969093FF
:102E3000C60090819923B1F78091C00085FFFCCF37
:102E4000FAE0F093C600FE01319607C08091C00001
:102E500085FFFCCF31969093C60090819923B1F7FE
:102E60008091C00085FFFCCF8AE08093C600C357E5
:102E7000DF4FA881B981CD58D040FE01BC968BE1CF
:102E800001900D928150E1F78AA59BA5F1019383F2
:102E9000828384E394E091838083C801BE01625FF2
:102EA0007F4FA10120E030E0DBDEC10123DACE015B
:102EB000889620DA91C09E3209F48EC09F3509F4BD
:102EC0008BC0F80191899E3209F486C09F3509F4C0
:102ED00083C043FD81C080E06031710509F481E069
:102EE000F80184A7882349F4F7018085873409F025
:102EF00073C081858E3709F46FC0D301F7018081DB
:102F0000803241F08E2F8E19883011F48EE28D932D
:102F100080818D933196C557DF4F88819981CB5839
:102F2000D040E817F90759F71C92F401808191818C
:102F3000009701F5F20107C08091C00085FFFCCF2A
:102F400031969093C60090819923B1F7F30107C0A1
:102F50008091C00085FFFCCF31969093C600908190
:102F60009923B1F78091C00085FFFCCFFAE0F09380
:102F7000C60032C08130910539F4F501808191811C
:102F800001969183808328C0029731F5C757DF4FA0
:102F900088819981C958D040009731F0B3010E94CF
:102FA000810E892B71F42BC0CA57DF4F9881C65808
:102FB000D040292F30E0F501808191812817390711
:102FC000F1F0CA57DF4FF881C658D040FF5FCA57AB
:102FD000DF4FF883C658D040C601B701C957DF4F4D
:102FE00048815981C758D0400E946C6718160CF46C
:102FF000A0CE05C0F7019081992309F05CCFC1579D
:10300000DF4F0FB6F894DEBF0FBECDBFCF91DF917B
:103010001F910F91FF90EF90DF90CF90BF90AF90F6
:103020009F908F907F906F905F904F903F902F90E8
:103030000895CF92DF92EF92FF920F931F93DF9349
:10304000CF93CDB7DEB76F970FB6F894DEBF0FBE44
:10305000CDBF7C016A018C01025B1F4F805B9F4FDB
:10306000F8019183808328E832E0E20EF31E22E02B
:1030700030E0F701219331937F017183608326E76C
:103080003DEFE20EF31E049640E050E060E070E099
:103090000E944464F80120813181DE011596F90116
:1030A00034968BE101900D928150E1F7F901828114
:1030B00093819C838B8384E394E09A838983C70103
:1030C00065E172E08E010F5F1F4FA8019601C8DD18
:1030D000C80110D96F960FB6F894DEBF0FBECDBFF2
:1030E000CF91DF911F910F91FF90EF90DF90CF90E4
:1030F00008952F923F924F925F926F927F928F929C
:103100009F92AF92BF92CF92DF92EF92FF920F9376
:103110001F93DF93CF93CDB7DEB7AD970FB6F8947B
:10312000DEBF0FBECDBF6C014B014DA7DC01139676
:103130008C91882309F44EC3E1EDF1E0CE0EDF1E41
:10314000D6018C91EFE2FEEFCE0EDF1E882309F44C
:1031500018C1222309F0E0C029EE31E0C20ED31ECF
:10316000D6018C91E7E1FEEFCE0EDF1E882371F1D0
:10317000E3E3F5E0949108C08091C00085FFFCCFA7
:103180009093C600319694919923B1F7E1EAF2E069
:10319000949108C08091C00085FFFCCF9093C60039
:1031A000319694919923B1F78CED94E061E070E051
:1031B0004AE050E00E944D288091C00085FFFCCF7E
:1031C0008AE08093C6000E94132A04C3EAE3F5E074
:1031D000949108C08091C00085FFFCCF9093C600F9
:1031E000319694919923B1F7E8E8F2E0949108C000
:1031F0008091C00085FFFCCF9093C60031969491DA
:103200009923B1F7F40107C08091C00085FFFCCF7E
:1032100031969093C60090819923B1F7EDE7F2E0E3
:10322000949108C08091C00085FFFCCF9093C600A8
:10323000319694919923B1F7C6012EEE31E0C20E7A
:10324000D31EB601C1DA4BEF5FEFC40ED51ED60117
:103250009C91E7E1FEEFCE0EDF1E8DE8989FF00116
:103260001124E251FE4FEC0DFD1D07C08091C000FE
:1032700085FFFCCF31969093C60090819923B1F7DA
:10328000E7E7F2E0949108C08091C00085FFFCCF91
:103290009093C600319694919923B1F723E832E0D8
:1032A000C20ED31ED6014D915D916D917C91EDE7DB
:1032B000FDEFCE0EDF1E8CED94E02AE030E00E94A0
:1032C000FE278091C00085FFFCCF8AE08093C60076
:1032D000A60147515E4FDA012C91E22FF0E0EE0F8C
:1032E000FF1FEE0FFF1FEC0DFD1DE651FE4F83E8A3
:1032F00092E0C80ED91ED6014D905D906D907C90E5
:103300008DE79DEFC80ED91E408251826282738282
:103310002F5FDA012C932FC0EAE3F5E0949108C007
:103320008091C00085FFFCCF9093C60031969491A8
:103330009923B1F7E6E6F2E0949108C08091C000CD
:1033400085FFFCCF9093C600319694919923B1F7F5
:10335000F40107C08091C00085FFFCCF31969093A7
:10336000C60090819923B1F78091C00085FFFCCF02
:103370008AE08093C600C60182539E4F0E945B651F
:1033800039C0E9EEF1E0CE0EDF1ED6011C92E7E176
:10339000FEEFCE0EDF1EEAE3F5E0949108C08091C7
:1033A000C00085FFFCCF9093C6003196949199237D
:1033B000B1F7E5E5F2E0949108C08091C00085FF87
:1033C000FCCF9093C600319694919923B1F7F40104
:1033D00007C08091C00085FFFCCF31969093C60056
:1033E00090819923B1F78091C00085FFFCCF8AE0DE
:1033F0008093C600D60112961C921A8A1D8A198AD9
:10340000188A84E394E09F878E876EE4A62EB12C01
:10341000AC0CBD1CEFE2F0E0CE0EDF1ED501CD926C
:10342000DC92E1EDFFEFCE0EDF1ED4018C918F32E6
:1034300009F090C0C4016FE270E00E949F0E7C0111
:103440000894E11CF11C3E010894611C711C2501CB
:1034500052E1252E312C2C0E3D1E77C0C7016FE2A4
:1034600070E00E949F0E5C01009709F481C0E8168D
:10347000F90608F07DC08C010E191F09C301B701C0
:10348000A8010E94C80E060D171DF8011082F30155
:1034900007C08091C00085FFFCCF31969093C60095
:1034A00090819923B1F78091C00085FFFCCFFAE0AD
:1034B000F093C600D2016D917C916115710519F4EC
:1034C00060E070E002C06C5F7F4FC101A30121E0AA
:1034D0000E94476C882371F5E1E4F2E0949108C002
:1034E0008091C00085FFFCCF9093C60031969491E7
:1034F0009923B1F7FE01319607C08091C00085FF86
:10350000FCCF31969093C60090819923B1F7EFE3F9
:10351000F2E0949108C08091C00085FFFCCF9093A9
:10352000C600319694919923B1F78091C00085FF30
:10353000FCCF49C12EE030E02C0F3D1FF20131835A
:10354000208375010894E11CF11CE114F10409F0D9
:1035500085CF0BC040E550E0C40ED51ED501CD92FD
:10356000DC92E0EBFFEFCE0EDF1E082DF92C01C040
:103570000E2DF601E25BFF4F2DA5222309F4BEC0FC
:10358000608171816115710519F460E070E002C01D
:103590006C5F7F4FC60182539E4F402F5F2D21E00D
:1035A0000E94476C882309F479C04FED51E0C40EA6
:1035B000D51ED6014D915D916D917C91ECE9F0E0C5
:1035C000CE0EDF1ED6014D935D936D937C931397C2
:1035D000E5E8FDEFCE0EDF1EE1E3F2E0949108C0D6
:1035E0008091C00085FFFCCF9093C60031969491E6
:1035F0009923B1F7802F9F2D9C01F90107C080917D
:10360000C00085FFFCCF31969093C600908199232E
:10361000B1F7E9E2F2E0949108C08091C00085FF23
:10362000FCCF9093C600319694919923B1F78CED1D
:1036300094E02AE030E00E94FE278091C00085FFE0
:10364000FCCF8AE08093C60023E832E0C20ED31E8E
:10365000D6011D921D921D921C921397EDE7FDEF6E
:10366000CE0EDF1EEBE1F2E0949108C08091C00025
:1036700085FFFCCF9093C600319694919923B1F7C2
:103680008091C00085FFFCCF8AE08093C600C60110
:1036900060E070E0402F5F2DCCDC98C0E7E0F2E006
:1036A000949108C08091C00085FFFCCF9093C60024
:1036B000319694919923B1F7802F9F2D9C01F901A8
:1036C00007C08091C00085FFFCCF31969093C60063
:1036D00090819923B1F7E5E0F2E0949108C08091E0
:1036E000C00085FFFCCF9093C6003196949199233A
:1036F000B1F78091C00085FFFCCF65C0608171810A
:103700006115710519F460E070E002C06C5F7F4FD5
:10371000C60182539E4F402F5F2D26E50E94476CC5
:10372000882381F5E1EFF1E0949108C08091C00019
:1037300085FFFCCF9093C600319694919923B1F701
:10374000802F9F2D9C01F90107C08091C00085FF4B
:10375000FCCF31969093C60090819923B1F7EFEE9C
:10376000F1E0949108C08091C00085FFFCCF909358
:10377000C600319694919923B1F78091C00085FFDE
:10378000FCCF21C081E0D6018C93EDEDF1E0949166
:1037900008C08091C00085FFFCCF9093C600319691
:1037A00094919923B1F7F40107C08091C00085FF7F
:1037B000FCCF31969093C60090819923B1F7809108
:1037C000C00085FFFCCF8AE08093C600CE010E9634
:1037D0000E947A11AD960FB6F894DEBF0FBECDBF32
:1037E000CF91DF911F910F91FF90EF90DF90CF90DD
:1037F000BF90AF909F908F907F906F905F904F9011
:103800003F902F900895EF92FF920F931F93CF93C5
:10381000DF93EC010E94BC748E0107511E4FD8014A
:103820008C91BEECEB2EB1E0FB2EEC0EFD1E88233E
:1038300099F1C7010E945B65F80160816150608366
:103840008DE8689FB001112462517E4F6C0F7D1F7F
:10385000CE0141E021E04DDCD801EC91F0E0EE0F2B
:10386000FF1FEE0FFF1FEC0FFD1FE651FE4F4081C3
:10387000518162817381CD57DD4F488359836A83BB
:103880007B83C358D240C7010E9444648B81882344
:1038900089F181E08A832EC00E948872C7010E944C
:1038A0005B651A828FE291E00E9491488091EA095B
:1038B000882301F11092EA098091A107C82FD0E076
:1038C000CC0FDD1FC25DDE4E68817981882777FDD0
:1038D0008095982F0E94C28E20919D0330919E0367
:1038E00040919F035091A0030E942E90181614F44B
:1038F00019821882DF91CF911F910F91FF90EF9065
:103900000895FC0181E08183CF0140E021E0F1CB0B
:10391000EF92FF920F931F93DF93CF93CDB7DEB754
:103920006F970FB6F894DEBF0FBECDBF7C0188E85D
:1039300092E0E80EF91EF7011182108288E79DEFF0
:10394000E80EF91E87010D5C1F4FC80140E050E0F2
:1039500060E070E00E944464DE011596F8018BE19E
:1039600001900D928150E1F7F70181A992A99C8302
:103970008B8384E394E09A838983C70165E172E0D5
:103980008E010F5F1F4FA80120E030E069D9C80108
:103990000E947A116F960FB6F894DEBF0FBECDBFAE
:1039A000CF91DF911F910F91FF90EF9008950F93AA
:1039B0001F93CF93DF93DC01D3961C92D397D696B7
:1039C0001C92D697D2961C921E92D19784E394E0D3
:1039D000D0969C938E939F97AC5ABF4F1C92139690
:1039E0001C92A755B040FD01E05BFF4FAE5ABF4FA0
:1039F00011961C921E92A255B04091838083ED01D6
:103A0000C159DF4FFE0120E030E0482F14821782B9
:103A10001382128240839183215E3F4F7F9681E023
:103A20002633380799F7A855BE4F89E18C93139632
:103A30001C9258961C921B961C9213961C92A15D88
:103A4000B140FD01E653FE4FA453BE4F11961C92A8
:103A50001E9240839183A155BF4F1D921D921D92CE
:103A60001C92139718961D921D921D921C921397EB
:103A7000A358B24012961C92129713961C92139759
:103A80001C9211961C9211978D0101581D4FF8013F
:103A90001082118212821382AB55BE4F11961C9276
:103AA0001E92AC5BBF4F1C92FE01C901119201979F
:103AB000E9F7A256BF4F81E08C93A758B2409E967B
:103AC0001C921E929D970E94448A68577C4E8F4F8D
:103AD0009F4FF8016083718382839383DF91CF913D
:103AE0001F910F910895DF93CF93CDB7DEB76697FF
:103AF0000FB6F894DEBF0FBECDBF80911602909135
:103B00001702A0911802B09119028F87988BA98B88
:103B1000BA8BFE013F9624E630E08081F999FECF12
:103B20001FBA32BD21BD80BD0FB6F894FA9AF99A3A
:103B30000FBE2F5F3F4F2836310511F03196EDCF84
:103B4000EEE8F9E08081F999FECF1FBA32BD21BDC0
:103B500080BD0FB6F894FA9AF99A0FBE2F5F3F4FC7
:103B60002837310511F03196EDCFEEE7F9E080818D
:103B7000F999FECF1FBA32BD21BD80BD0FB6F894B2
:103B8000FA9AF99A0FBE2F5F3F4F2838310511F08E
:103B90003196EDCFEEE9F9E08081F999FECF1FBAB9
:103BA00032BD21BD80BD0FB6F894FA9AF99A0FBEC6
:103BB0002F5F3F4F2839310511F03196EDCFE2EB01
:103BC000F9E08081F999FECF1FBA32BD21BD80BDD9
:103BD0000FB6F894FA9AF99A0FBE2F5F3F4F2C391F
:103BE000310511F03196EDCFE6EBF9E08081F999DE
:103BF000FECF1FBA32BD21BD80BD0FB6F894FA9A30
:103C0000F99A0FBE2F5F3F4F203A310511F03196E0
:103C1000EDCFEEEAF9E08081F999FECF1FBA32BD0F
:103C200021BD80BD0FB6F894FA9AF99A0FBE2F5FA6
:103C30003F4F243A310511F03196EDCFE6ECF9E033
:103C40008081F999FECF1FBA32BD21BD80BD0FB66C
:103C5000F894FA9AF99A0FBE2F5F3F4F283A310530
:103C600011F03196EDCFEAE7F9E08081F999FECFC6
:103C70001FBA32BD21BD80BD0FB6F894FA9AF99AE9
:103C80000FBE2F5F3F4F2C3A310511F03196EDCF2B
:103C9000EAEBF9E08081F999FECF1FBA32BD21BD70
:103CA00080BD0FB6F894FA9AF99A0FBE2F5F3F4F76
:103CB000203B310511F03196EDCFEEEBF9E080813C
:103CC000F999FECF1FBA32BD21BD80BD0FB6F89461
:103CD000FA9AF99A0FBE2F5F3F4F243B310511F03E
:103CE0003196EDCFE2ECF9E08081F999FECF1FBA71
:103CF00032BD21BD80BD0FB6F894FA9AF99A0FBE75
:103D00002F5F3F4F283B310511F03196EDCFE2E8B0
:103D1000F7E08081F999FECF1FBA32BD21BD80BD89
:103D20000FB6F894FA9AF99A0FBE2F5F3F4F243CD2
:103D3000310511F03196EDCF8CED90E09A838983B7
:103D400086E490E09C838B831E821D8285EF90E049
:103D500098878F838EE690E09A8789871C861B86DA
:103D6000FE0131968081F999FECF1FBA32BD21BD87
:103D700080BD0FB6F894FA9AF99A0FBE2F5F3F4FA5
:103D8000263C310571F7FE0133968081F999FECF0B
:103D90001FBA32BD21BD80BD0FB6F894FA9AF99AC8
:103DA0000FBE2F5F3F4F283C310511F03196EDCF0C
:103DB000FE0135968081F999FECF1FBA32BD21BD33
:103DC00080BD0FB6F894FA9AF99A0FBE2F5F3F4F55
:103DD0002A3C310511F03196EDCFFE0137968081F6
:103DE000F999FECF1FBA32BD21BD80BD0FB6F89440
:103DF000FA9AF99A0FBE2F5F3F4F2C3C310511F014
:103E00003196EDCFFE0139968081F999FECF1FBA28
:103E100032BD21BD80BD0FB6F894FA9AF99A0FBE53
:103E20002F5F3F4F2E3C310511F03196EDCFFE0153
:103E30003B968081F999FECF1FBA32BD21BD80BD6E
:103E40000FB6F894FA9AF99A0FBE2F5F3F4F203DB4
:103E5000310511F03196EDCFEDE9F7E08081F99968
:103E6000FECF1FBA32BD21BD80BD0FB6F894FA9ABD
:103E7000F99A0FBE2F5F3F4F243D310511F0319667
:103E8000EDCFEEEAF3E08081F999FECF1FBA32BDA3
:103E900021BD80BD0FB6F894FA9AF99A0FBE2F5F34
:103EA0003F4F283D310511F03196EDCFE2EBF3E0C5
:103EB0008081F999FECF1FBA32BD21BD80BD0FB6FA
:103EC000F894FA9AF99A0FBE2F5F3F4F2C3D3105B7
:103ED00011F03196EDCFE6EBF3E08081F999FECF5A
:103EE0001FBA32BD21BD80BD0FB6F894FA9AF99A77
:103EF0000FBE2F5F3F4F203E310511F03196EDCFC1
:103F000080E290E09E878D87FE013D968081F99941
:103F1000FECF1FBA32BD21BD80BD0FB6F894FA9A0C
:103F2000F99A0FBE213E310521F0319621EE30E0A5
:103F3000EDCF20917107F999FECF1FBA82EE90E084
:103F400092BD81BD20BD0FB6F894FA9AF99A0FBEC2
:103F5000EBE7F3E083EE90E02081F999FECF1FBA02
:103F600092BD81BD20BD0FB6F894FA9AF99A0FBEA2
:103F7000863E910519F001963196EECF80911A0296
:103F800090911B02A0911C02B0911D028B8B9C8B07
:103F9000AD8BBE8BFE01739684E690E02081F9998B
:103FA000FECF1FBA92BD81BD20BD0FB6F894FA9A1C
:103FB000F99A0FBE8736910519F001963196EECF2A
:103FC000EAE3F5E0949108C08091C00085FFFCCF42
:103FD0009093C600319694919923B1F7E3E2F5E00E
:103FE000949108C08091C00085FFFCCF9093C600DB
:103FF000319694919923B1F78091C00085FFFCCF51
:104000008AE08093C60066960FB6F894DEBF0FBEB6
:10401000CDBFCF91DF910895DF93CF93CDB7DEB7BA
:10402000E0970FB6F894DEBF0FBECDBFDE0111964C
:10403000E4EEF3E080E101900D928150E1F7DE01C2
:104040005196E4EDF3E080E101900D928150E1F7AB
:10405000DE019196E4ECF3E080E101900D92815055
:10406000E1F789819A81AB81BC8180938E0990931D
:104070008F09A0939009B093910989899A89AB8996
:10408000BC8980937E0990937F09A0938009B093A7
:10409000810989A19AA1ABA1BCA180939E099093AB
:1040A0009F09A093A009B093A1098D819E81AF8142
:1040B000B8858093920990939309A0939409B09343
:1040C00095098D899E89AF89B88D809382099093D7
:1040D0008309A0938409B09385098DA19EA1AFA106
:1040E000B8A58093A2099093A309A093A409B093C3
:1040F000A50989859A85AB85BC858093960990939F
:104100009709A0939809B0939909898D9A8DAB8DE1
:10411000BC8D8093860990938709A0938809B093FA
:10412000890989A59AA5ABA5BCA58093A6099093FA
:10413000A709A093A809B093A9098D859E85AF858D
:10414000B88980939A0990939B09A0939C09B09396
:104150009D098D8D9E8DAF8DB8A180938A09909316
:104160008B09A0938C09B0938D098DA59EA5AFA551
:10417000B8A98093AA099093AB09A093AC09B09316
:10418000AD090E94225080E090E8ABE3B5E4809353
:10419000B2099093B309A093B409B093B509809381
:1041A000B6099093B709A093B809B093B90920E074
:1041B00030E040E050E02093AE093093AF094093E7
:1041C000B0095093B10980E29EE4A0E0B0E0809392
:1041D0007A0990937B09A0937C09B0937D09209381
:1041E000C6093093C7094093C8095093C90980E0B4
:1041F00090E0A0EAB1E48093BA099093BB09A09340
:10420000BC09B093BD098DEC9CECACECBEE3809393
:10421000BE099093BF09A093C009B093C10980E083
:1042200090E0A0EAB0E48093C2099093C309A09300
:10423000C409B093C50920938A0730938B07409334
:104240008C0750938D072093860730938707409300
:104250008807509389072093820730938307409300
:1042600084075093850788EB9EE1AFECB1E480931F
:10427000AE039093AF03A093B003B093B1036CEE81
:1042800071E588EF9FE30E942D7D6093B2037093E8
:10429000B3038093B4039093B5036CE57FE08DEA9C
:1042A00092E40E94397D6093B6037093B7038093C4
:1042B000B8039093B9030E94447C80E090E0A0E8AA
:1042C000BFE38093BA039093BB03A093BC03B09366
:1042D000BD031092710780E090E0A0E4B0E4809309
:1042E0007B0390937C03A0937D03B0937E030E9495
:1042F000C329EAE3F5E0949108C08091C00085FFEE
:10430000FCCF9093C600319694919923B1F7EFE1D9
:10431000F3E0949108C08091C00085FFFCCF90939A
:10432000C600319694919923B1F78091C00085FF22
:10433000FCCF8AE08093C600E0960FB6F894DEBF0B
:104340000FBECDBFCF91DF910895CF93DF93CAE326
:10435000D5E0FE01949108C08091C00085FFFCCF9C
:104360009093C600319694919923B1F7E3E1F5E07B
:10437000949108C08091C00085FFFCCF9093C60047
:10438000319694919923B1F78091C00085FFFCCFBD
:104390008AE08093C600FE019491EAE3F5E008C04C
:1043A0008091C00085FFFCCF9093C6003196949118
:1043B0009923B1F740918E0950918F09609190092E
:1043C000709191098BE095E00E94D82D409192095F
:1043D00050919309609194097091950988E095E056
:1043E0000E94D82D409196095091970960919809A3
:1043F0007091990985E095E00E94D82D40919A0925
:1044000050919B0960919C0970919D0982E095E013
:104410000E94D82DEEE1F2E007C08091C00085FF38
:10442000FCCF31969093C60090819923B1F780918B
:10443000C00085FFFCCF8AE08093C600FE01949106
:10444000EAE3F5E008C08091C00085FFFCCF9093BF
:10445000C600319694919923B1F7E8EEF4E0949177
:1044600008C08091C00085FFFCCF9093C6003196B4
:1044700094919923B1F78091C00085FFFCCF8AE029
:104480008093C600FE019491EAE3F5E008C08091B4
:10449000C00085FFFCCF9093C6003196949199237C
:1044A000B1F740917E0950917F0960918009709128
:1044B00081098FED94E00E94D82D4091820950919E
:1044C000830960918409709185098CED94E00E94C4
:1044D000D82D409186095091870960918809709183
:1044E000890989ED94E00E94D82D40918A09509164
:1044F0008B0960918C0970918D0986ED94E00E9482
:10450000D82DEEE1F2E007C08091C00085FFFCCF1E
:1045100031969093C60090819923B1F78091C000A5
:1045200085FFFCCF8AE08093C600FE019491EAE308
:10453000F5E008C08091C00085FFFCCF9093C600D5
:10454000319694919923B1F7E8EBF4E0949108C087
:104550008091C00085FFFCCF9093C6003196949166
:104560009923B1F78091C00085FFFCCF8AE080934A
:10457000C600FE019491EAE3F5E008C08091C00016
:1045800085FFFCCF9093C600319694919923B1F7A3
:1045900040919E0950919F096091A0097091A109D5
:1045A0008FEA94E00E94EA2D4091A2095091A3095C
:1045B0006091A4097091A5098CEA94E00E94EA2D0B
:1045C0004091A6095091A7096091A8097091A90985
:1045D00089EA94E00E94EA2D4091AA095091AB0922
:1045E0006091AC097091AD0986EA94E00E94EA2DD1
:1045F000EEE1F2E007C08091C00085FFFCCF31966C
:104600009093C60090819923B1F78091C00085FFF7
:10461000FCCF8AE08093C600FE019491EAE3F5E0C6
:1046200008C08091C00085FFFCCF9093C6003196F2
:1046300094919923B1F7E1E7F4E0949108C0809157
:10464000C00085FFFCCF9093C600319694919923CA
:10465000B1F78091C00085FFFCCF8AE08093C6004F
:10466000FE019491EAE3F5E008C08091C00085FF67
:10467000FCCF9093C600319694919923B1F7409165
:10468000B2095091B3096091B4097091B50988E6F7
:1046900094E00E94D82D4091B6095091B7096091DD
:1046A000B8097091B90985E694E00E94D82DEEE131
:1046B000F2E007C08091C00085FFFCCF3196909357
:1046C000C60090819923B1F78091C00085FFFCCF8F
:1046D0008AE08093C600FE019491EAE3F5E008C009
:1046E0008091C00085FFFCCF9093C60031969491D5
:1046F0009923B1F7E2EBF3E0949108C08091C000F8
:1047000085FFFCCF9093C600319694919923B1F721
:104710008091C00085FFFCCF8AE08093C600FE0137
:104720009491EAE3F5E008C08091C00085FFFCCFDA
:104730009093C600319694919923B1F74091AE09B8
:104740005091AF096091B0097091B10989EA93E085
:104750000E94D82D4091C6095091C7096091C8099F
:104760007091C90986EA93E00E94D82D40917A0998
:1047700050917B0960917C0970917D0983EA93E0F7
:104780000E94EA2D4091BA095091BB096091BC0981
:104790007091BD0980EA93E00E94D82D4091BE0936
:1047A0005091BF096091C0097091C1098DE993E0F2
:1047B0000E94D82D4091C2095091C3096091C4094B
:1047C0007091C5098AE993E00E94D82DEEE1F2E0EC
:1047D00007C08091C00085FFFCCF31969093C60042
:1047E00090819923B1F78091C00085FFFCCF8AE0CA
:1047F0008093C600FE019491EAE3F5E008C0809141
:10480000C00085FFFCCF9093C60031969491992308
:10481000B1F7E8E8F3E0949108C08091C00085FF0B
:10482000FCCF9093C600319694919923B1F7809173
:10483000C00085FFFCCF8AE08093C600FE01949102
:10484000EAE3F5E008C08091C00085FFFCCF9093BB
:10485000C600319694919923B1F740918207509107
:10486000830760918407709185078FE793E00E942A
:10487000D82D4091860750918707609188077091E5
:1048800089078CE793E00E94D82D40918A075091C8
:104890008B0760918C0770918D0789E793E00E94E8
:1048A000D82DEEE1F2E007C08091C00085FFFCCF7B
:1048B00031969093C60090819923B1F78091C00002
:1048C00085FFFCCF8AE08093C600FE019491EAE365
:1048D000F5E008C08091C00085FFFCCF9093C60032
:1048E000319694919923B1F7EBE6F3E0949108C0E7
:1048F0008091C00085FFFCCF9093C60031969491C3
:104900009923B1F78091C00085FFFCCF8AE08093A6
:10491000C600FE019491EAE3F5E008C08091C00072
:1049200085FFFCCF9093C600319694919923B1F7FF
:104930004091AE035091AF036091B0037091B10309
:1049400081E693E00E94D82D6091B2037091B30389
:104950008091B4039091B5030E94337DAB01BC01FB
:104960008EE593E00E94D82D6091B6037091B70355
:104970008091B8039091B9030E943F7DAB01BC01C7
:104980008BE593E00E94D82DEEE1F2E007C0809124
:10499000C00085FFFCCF31969093C600908199238B
:1049A000B1F78091C00085FFFCCF8AE08093C600FC
:1049B000DF91CF9108950F931F93DF93CF93CDB7DE
:1049C000DEB766970FB6F894DEBF0FBECDBF8091FD
:1049D0001A0290911B02A0911C02B0911D028B8BB8
:1049E0009C8BAD8BBE8BFE013F9604E610E0F999DF
:1049F000FECF12BD01BDF89A80B580830F5F1F4FB7
:104A00000836110511F03196F2CFCE014396BE0162
:104A1000615F7F4F43E050E00E94BA0E009709F0BB
:104A2000B3C1EEE8F9E0F999FECF12BD01BDF89AE5
:104A300080B580830F5F1F4F0837110511F0319645
:104A4000F2CFEEE7F9E0F999FECF12BD01BDF89A79
:104A500080B580830F5F1F4F0838110511F0319624
:104A6000F2CFEEE9F9E0F999FECF12BD01BDF89A57
:104A700080B580830F5F1F4F0839110511F0319603
:104A8000F2CF0E942250E2EBF9E0F999FECF12BD7D
:104A900001BDF89A80B580830F5F1F4F0C39110557
:104AA00011F03196F2CFE6EBF9E0F999FECF12BDA5
:104AB00001BDF89A80B580830F5F1F4F003A110542
:104AC00011F03196F2CFEEEAF9E0F999FECF12BD7E
:104AD00001BDF89A80B580830F5F1F4F043A11051E
:104AE00011F03196F2CFE6ECF9E0F999FECF12BD64
:104AF00001BDF89A80B580830F5F1F4F083A1105FA
:104B000011F03196F2CFEAE7F9E0F999FECF12BD44
:104B100001BDF89A80B580830F5F1F4F0C3A1105D5
:104B200011F03196F2CFEAEBF9E0F999FECF12BD20
:104B300001BDF89A80B580830F5F1F4F003B1105C0
:104B400011F03196F2CFEEEBF9E0F999FECF12BDFC
:104B500001BDF89A80B580830F5F1F4F043B11059C
:104B600011F03196F2CFE2ECF9E0F999FECF12BDE7
:104B700001BDF89A80B580830F5F1F4F083B110578
:104B800011F03196F2CFE2E8F7E0F999FECF12BDCD
:104B900001BDF89A80B580830F5F1F4F043C11055B
:104BA00011F03196F2CFFE013196F999FECF12BD88
:104BB00001BDF89A80B580830F5F1F4F063C110539
:104BC00099F7FE013396F999FECF12BD01BDF89A0F
:104BD00080B580830F5F1F4F083C110511F031969F
:104BE000F2CFFE013596F999FECF12BD01BDF89ABC
:104BF00080B580830F5F1F4F0A3C110511F031967D
:104C0000F2CFFE013796F999FECF12BD01BDF89A99
:104C100080B580830F5F1F4F0C3C110511F031965A
:104C2000F2CFFE013996F999FECF12BD01BDF89A77
:104C300080B580830F5F1F4F0E3C110511F0319638
:104C4000F2CFFE013B96F999FECF12BD01BDF89A55
:104C500080B580830F5F1F4F003D110511F0319625
:104C6000F2CFEDE9F7E0F999FECF12BD01BDF89A58
:104C700080B580830F5F1F4F043D110511F0319601
:104C8000F2CFEEEAF3E0F999FECF12BD01BDF89A3A
:104C900080B580830F5F1F4F083D110511F03196DD
:104CA000F2CFE2EBF3E0F999FECF12BD01BDF89A25
:104CB00080B580830F5F1F4F0C3D110511F03196B9
:104CC000F2CFE6EBF3E0F999FECF12BD01BDF89A01
:104CD00080B580830F5F1F4F003E110511F03196A4
:104CE000F2CFFE013D96F999FECF12BD01BDF89AB3
:104CF00080B58083013E110521F0319601EE10E070
:104D0000F2CFF999FECF82EE90E092BD81BDF89A84
:104D100080B580937107EBE7F3E023EE30E0F9997B
:104D2000FECF32BD21BDF89A80B58083263E310585
:104D300021F02F5F3F4F3196F2CF25D30E94447C64
:104D4000EAE3F5E0949108C08091C00085FFFCCFB4
:104D50009093C600319694919923B1F7E1E4F3E082
:104D6000949108C08091C00085FFFCCF9093C6004D
:104D7000319694919923B1F78091C00085FFFCCFC3
:104D80008AE08093C60001C047D9DFDA66960FB685
:104D9000F894DEBF0FBECDBFCF91DF911F910F9171
:104DA00008951F920F920FB60F920BB60F92112417
:104DB0002F933F934F938F939F93EF93FF93409144
:104DC000C600E091D804F091D90431969F012F7765
:104DD000307031978091DA049091DB0428173907FD
:104DE00039F0E85AFB4F40833093D9042093D8041C
:104DF000FF91EF919F918F914F913F912F910F9044
:104E00000BBE0F900FBE0F901F9018959A01AB012B
:104E1000203081EE380780E0480780E0580749F1EC
:104E200082E08093C00060E079E08DE390E00E9432
:104E30003A922150304040405040CA01B90122E02E
:104E400030E040E050E00E943A923093C500209359
:104E5000C4008091C10080618093C1008091C10035
:104E600088608093C1008091C10080688093C100F8
:104E700008951092C00020E130E0E7CF2091DA04DD
:104E80003091DB048091D8049091D9048217930764
:104E900019F42FEF3FEF0EC0F901E85AFB4F808164
:104EA0002F5F3F4F2F7730703093DB042093DA046D
:104EB000282F30E0C90108958091DA049091DB0435
:104EC0009093D9048093D804089508952F923F9227
:104ED0004F925F926F927F928F929F92AF92BF920A
:104EE000CF92DF92EF92FF920F931F93DF93CF93B6
:104EF000CDB7DEB7A0970FB6F894DEBF0FBECDBF1B
:104F00001C016A017B01411551056105710541F4E0
:104F100040E350E060E070E020E030E08BD055C02E
:104F2000882499245401422E55246624772401E0D4
:104F300010E00C0F1D1F080D191DC701B601A301BC
:104F400092010E941892F80160830894811C911CC0
:104F5000A11CB11CC701B601A30192010E941892C5
:104F6000C901DA016C017D01C114D104E104F1042D
:104F7000F1F681E0E82EF12CEC0EFD1EE80CF91C98
:104F80003E010894611C711CD501C4010197A1095F
:104F9000B1096C01C818D90815C0F601EE0DFF1D46
:104FA00040814A3010F4405D01C0495C552747FDFF
:104FB0005095652F752FC10120E030E03BD008945B
:104FC000E108F1086E147F0441F7A0960FB6F8943B
:104FD000DEBF0FBECDBFCF91DF911F910F91FF902C
:104FE000EF90DF90CF90BF90AF909F908F907F9089
:104FF0006F905F904F903F902F900895211531054D
:1050000039F48091C00085FFFCCF4093C60008951D
:105010005DCFEF92FF920F931F939A01E62EFF242C
:1050200000E010E0B801A701E9DF1F910F91FF90A8
:10503000EF900895EF92FF920F931F93CF93DF931A
:10504000EC017A018B012115310539F48091C00002
:1050500085FFFCCFE092C60019C02A303105A9F4C3
:1050600077FF0FC04DE250E060E070E020E030E0FC
:10507000E1DF10950095F094E094E11CF11C011D16
:10508000111DCE01B801A7012AE020DFDF91CF91E9
:105090001F910F91FF90EF900895EF92FF920F9361
:1050A0001F937B019A010027F7FC0095102FB80190
:1050B000A701C0DF1F910F91FF90EF9008950F930C
:1050C0001F938C014DE050E060E070E020E030E0A4
:1050D000B1DFC8014AE050E060E070E020E030E07D
:1050E000A9DF1F910F910895CF92DF92EF92FF9267
:1050F0000F931F938C019A016B01EE24FF24B701DB
:10510000A6017CDFC801DBDF1F910F91FF90EF90BC
:10511000DF90CF9008959F92AF92BF92CF92DF928F
:10512000EF92FF920F931F93CF93DF93EC017A01DD
:105130008B01922ECB01BA0120E030E040E050E03C
:105140000E94208E882364F4CE014DE250E060E09E
:1051500070E020E030E06EDF17FB109517F9109536
:1051600020E030E040E05FE3AA240BC0CA01B901AF
:1051700020E030E040E251E40E94278E9B01AC0128
:10518000A394A91498F3C801B7010E94478D7B012D
:105190008C010E94948E5B016C010E94C08E9B0169
:1051A000AC01C801B7010E94468D7B018C01CE0184
:1051B000B601A5012AE030E021DF992099F1EFE165
:1051C000F2E007C08091C00085FFFCCF319690933C
:1051D000C60090819923B1F725C0C801B70120E02E
:1051E00030E040E251E40E9400917B018C010E947A
:1051F0008F8E5B016C01CC24B7FCC094DC2CCE01FB
:10520000B601A5012AE030E015DFC601B5010E9414
:10521000C28E9B01AC01C801B7010E94468D7B0183
:105220008C019A949920C9F6DF91CF911F910F912B
:10523000FF90EF90DF90CF90BF90AF909F90089538
:105240006ACF089508958091AD0708950F931F9335
:10525000CF93DF938130910549F46F5F7F4F09F061
:1052600046C08DED94E00E94D71C41C0892B09F007
:105270003EC06F5F7F4FD9F584E394E09093A8061A
:105280008093A7068091AE06882321F08BEA96E0F2
:105290000E945B65C3E6D6E004E314E005C06F97A7
:1052A00085E0CD32D80751F0198308838F81882398
:1052B000B1F3CE0104960E945B65F1CF84E394E0E4
:1052C000998388838F81882321F0CE0104960E94E0
:1052D0005B6584E394E090930D0580930C058091C9
:1052E0001305882321F080E195E00E945B65DF9142
:1052F000CF911F910F91089580E090E06FEF7FEFC5
:10530000A5CF81E090E06FEF7FEFA0CFEF92FF920B
:105310000F931F939B01AC0180917107882321F1AA
:10532000CA01B90120E030E040E05FE30E94009153
:105330007B018C0120E030E040E050E00E94208EB4
:10534000882391F0C801B701A80197010E9400913C
:105350009B01AC01CA012BED3FE049E450E40E94FF
:1053600000919B01AC0104C020E030E040E85FE325
:1053700060E070E080E89FE30E94278E1F910F910C
:10538000FF90EF90089560917B0370917C03809172
:105390007D0390917E03BADF60937F037093800357
:1053A000809381039093820308950E94177D8091DA
:1053B000AD07882309F036C081E08093AD07809166
:1053C000B0079091B107A091B207B091B307809355
:1053D000B4079093B507A093B607B093B707E3E37C
:1053E000F5E0949108C08091C00085FFFCCF9093B8
:1053F000C600319694919923B1F7E0E4F5E09491D9
:1054000008C08091C00085FFFCCF9093C600319604
:1054100094919923B1F78091C00085FFFCCF8AE079
:105420008093C6000895CF93DF93F8940E94177D70
:10543000179A10929A07169A10929B07159A109233
:105440009C07149A84E060E00E94F98BE3E3F5E0A6
:10545000949108C08091C00085FFFCCF9093C60056
:10546000319694919923B1F7E6EBF5E0949108C059
:105470008091C00085FFFCCF9093C6003196949137
:105480009923B1F78091C00085FFFCCF8AE080931B
:10549000C6007894C5E0D0E006C068EC70E080E01B
:1054A00090E00E94B48A21978FEFCF3FD807A9F7E9
:1054B000F894FFCF0E94448A6093BA077093BB07A9
:1054C0008093BC079093BD07E091E307F091E40758
:1054D000EB51F84F80818823A9F4E5EDF5E0949134
:1054E00008C08091C00085FFFCCF9093C600319624
:1054F00094919923B1F78091C00085FFFCCF8AE099
:105500008093C60008956F927F928F929F92AF9280
:10551000BF92CF92DF92EF92FF920F931F93F82EDC
:105520006091C2077091C3078091C4079091C5072D
:105530002091C6073091C7074091C8075091C9070D
:105540000E943B903B014C0100D000D00DB71EB72C
:105550000F5F1F4F6091750370917603882777FD69
:105560008095982F0E94C28E2091940330919503CC
:1055700040919603509197030E94009120E030E003
:1055800040E752E40E94278E20E030E048EC52E4ED
:105590000E94278E5B016C01F80160827182828219
:1055A0009382F4828091A107858382E797E06EEC75
:1055B00077E042EC57E020E001E032E0E32E0E9489
:1055C0001C4B8091CE079091CF07A091D007B0914E
:1055D000D1078093720790937307A0937407B093D9
:1055E00075078091D2079091D307A091D407B0910D
:1055F000D5078093760790937707A0937807B093A9
:1056000079078091D6079091D707A091D807B091DC
:10561000D90780937A0790937B07A0937C07B09378
:105620007D078091DA079091DB07A091DC07B091AC
:10563000DD0780937E0790937F07A0938007B09348
:1056400081078DB79EB706960FB6F8949EBF0FBE22
:105650008DBF0E94448A6093BA077093BB07809302
:10566000BC079093BD071F910F91FF90EF90DF90C3
:10567000CF90BF90AF909F908F907F906F90089544
:10568000CF92DF92EF92FF920F931F930E94448A72
:105690006093BA077093BB078093BC079093BD07D4
:1056A00060917207709173078091740790917507EC
:1056B0002091CE073091CF074091D0075091D1076C
:1056C0000E94208E882309F07AC06091760770913D
:1056D000770780917807909179072091D2073091D0
:1056E000D3074091D4075091D5070E94208E88237C
:1056F00009F065C0609194037091950380919603C1
:105700009091970320E030E040E752E40E94278E1A
:105710007B018C018EEC97E062ED77E046ED57E07F
:105720002AED37E0E1EACE2EE7E0DE2E0E9470554A
:105730008091CE079091CF07A091D007B091D1076B
:105740008093720790937307A0937407B0937507C3
:105750008091D2079091D307A091D407B091D5073B
:105760008093760790937707A0937807B093790793
:105770008091D6079091D707A091D807B091D9070B
:1057800080937A0790937B07A0937C07B0937D0763
:105790008091DA079091DB07A091DC07B091DD07DB
:1057A00080937E0790937F07A0938007B093810733
:1057B0001F910F91FF90EF90DF90CF90089560912F
:1057C000750370917603882777FD8095982F0E9446
:1057D000C28E20919403309195034091960350918D
:1057E00097030E94009120E030E040E752E40E94DD
:1057F000278E20E030E048EC52E488CF8CED94E036
:105800005BDBE8EDF5E0949108C08091C00085FF76
:10581000FCCF9093C600319694919923B1F74091B3
:10582000B0075091B1076091B2077091B3074F5F15
:105830005F4F6F4F7F4F8CED94E02AE030E0FADB52
:105840008091C00085FFFCCF8AE08093C60032CEF5
:105850002F923F924F925F926F927F928F929F9280
:10586000AF92BF92CF92DF92EF92FF920F931F936E
:10587000DF93CF93CDB7DEB728970FB6F894DEBF8E
:105880000FBECDBF98878F838330910508F056C136
:10589000FC01E156F84FD4903C01660C771C660C75
:1058A000771C93012E58384F3A83298380E090E08B
:1058B000A0E0B0E0F90180839183A283B38382E703
:1058C00097E066E777E04AE757E02EE737E00E9487
:1058D0006A50F301EE55F84FE590F590059114915B
:1058E0006D2D772767FD7095882777FD8095982F18
:1058F0000E94C28E1B012C0193012253384F3C831E
:105900002B83C801B70120E030E040EC5FE30E9448
:105910000091A20191010E940091AB81BC816D9325
:105920007D938D939C931397F301EB59FC4FFE836A
:10593000ED83608171818281938160939403709380
:105940009503809396039093970320E030E040E71F
:1059500052E40E94278E7B018C018EEC97E062ED71
:1059600077E046ED57E02AED37E0A1EACA2EA7E03E
:10597000DA2E0E9470550E94BC7480E090E0A0E096
:10598000B0E0E981FA8180839183A283B38382E7C7
:1059900097E066E777E04AE757E02EE737E00E94B6
:1059A0006A50F301E255F84F85909590A590B49018
:1059B000C501B4019058A20191010E940091AB81F0
:1059C000BC816D937D938D939C9313976091940309
:1059D00070919503809196039091970320E030E0B9
:1059E00040E752E40E94278E7B018C018EEC97E009
:1059F00062ED77E046ED57E02AED37E00E94705502
:105A00000E94BC74C501B401A50194010E94478D98
:105A1000A20191010E940091EB81FC81608371835E
:105A200082839383AD81BE816D917D918D919C9197
:105A300020E030E040E05FE30E9400916093940337
:105A400070939503809396039093970320E030E042
:105A500040E752E40E94278E7B018C018EEC97E098
:105A600062ED77E046ED57E02AED37E00E94705591
:105A70000E94BC74F301E654F84F659175918591CD
:105A80009491F301EE57F84FA080B180C280D3808B
:105A9000A60195010E94478D7B018C01CB01D801A5
:105AA000E981FA8180839183A283B383F301EA536E
:105AB000F84F6591759185919491FEE88F2EF7E0EE
:105AC0009F2E860C971CA60195010E94478DD4013C
:105AD0006D937D938D939C931397F301EE52F84F42
