:100000000C94B4240C94E1240C94E1240C94E12489
:100010000C94E1240C94E1240C94E1240C94E1244C
:100020000C94E1240C94E1240C94E1240C94E1243C
:100030000C94E1240C94E1240C94E1240C94E1242C
:100040000C94E1240C941D990C94E1240C94E1246B
:100050000C94E1240C94E1240C940AA20C947AF3FD
:100060000C94E1240C9492470C94E1240C94E12428
:100070000C94E1240C94E1240C94E1240C94E124EC
:100080000C94E1240C94E1240C94E1240C94E124DC
:100090000C94E1240C94E1240C94E1240C94D3F10D
:1000A0000C94E1240C94E1240C94E1240C94E124BC
:1000B0000C94E1240C94E1240C94E1240C94E124AC
:1000C0000C94E1240C94E1240C94E1240C94E1249C
:1000D0000C94E1240C94E1240C94E1240C94E1248C
:1000E0000C94E124084AD73B3BCE016E84BCBFFD93
:1000F000C12F3D6C74319ABD56833DDA3D00C77FF8
:1001000011BED9E4BB4C3E916BAAAABE0000008090
:100110003F05A84CCDB2D44EB93836A9020C50B91F
:10012000918688083CA6AAAA2ABE000000803F014A
:10013000050800FF060121023520FFFF07FF06FF2B
:10014000090050221656808080800080153353A00D
:10015000A0A00257575050F850F85050025757205F
:1001600070A07028702013355580A040A020024751
:100170005740A0A040A0A050251353808080122695
:10018000564080808080401226568040404040800B
:100190000245559060F060900255552020F82020CF
:1001A000113353604080044151F011335340E0401B
:1001B00002465610102040808012365640A0A0A063
:1001C000A04012365640C0404040E0024656609083
:1001D000106080F0024656F0206010906002465693
:1001E0002060A0F02020024656F080E010906002CF
:1001F00046566080E0909060024656F01020204005
:100200004002465660906090906002465660909022
:10021000701060122555C0C000C0C0113656606015
:1002200000604080123656204080804020034353B7
:10023000F000F012365680402020408012365640A2
:10024000A020400040015858304898A8A89040305D
:10025000024656609090F09090024656E090E090F2
:1002600090E0024656609080809060024656E09092
:10027000909090E0024656F080E08080F002465672
:10028000F080E0808080024656609080B0906002EE
:1002900046569090F0909090123656E04040404084
:1002A000E002465670202020A04002465690A0C092
:1002B000A0A0900246568080808080F00246569032
:1002C000F0F090909002465690D0F0B0B090024678
:1002D00056609090909060024656E09090E080804A
:1002E000014757609090D0B06010024656E0909061
:1002F000E09090024656609040209060123656E0A2
:100300004040404040024656909090909060024697
:1003100056909090906060024656909090F0F090C9
:100320000246569090606090900256568888502001
:100330002020024656F010204080F0123656E08011
:10034000808080E002465680804020101012365691
:10035000E020202020E016325240A0014151F0164A
:100360002252804002445470909070024656808021
:10037000E09090E012345460808060024656101085
:100380007090907002445460B0C060024656205095
:1003900040E0404001455560907010600246568034
:1003A00080E09090901236564000C04040E01137F7
:1003B000572000202020A040024656808090E090E8
:1003C00090123656C040404040E0025454D0A8A895
:1003D000A8024454E09090900244546090906001D0
:1003E0004555E090E08080014555709070101002F6
:1003F0004454A0D0808012345460C020C0024656BD
:100400004040E04050200244549090907012345488
:10041000A0A0A04002545488A8A850024454906060
:1004200060900145559090709060024454F02040D7
:10043000F0024757304020C02040302216568080BE
:1004400080808080024757C02040304020C0064254
:100450005250A0FFFFFFFFFFFFFFFFFFFFFFFFFF67
:10046000FFFFFFFFFFFFFFFFFFFFFFFFFFFFFFFF9C
:10047000FFFFFFFF09005022165680008080808019
:100480000146562070A0A070200246562050E04041
:1004900050A002555588705070880256568850F802
:1004A00020F82022175780808000808080024757E4
:1004B0007080E0907010E0173151A002565670A87D
:1004C000C8C8A87014355560A06000E003435350BD
:1004D000A050123353E02020143151E002565670E0
:1004E000E8D8E8D870173151E015335340A04012D6
:1004F000355540E04000E014355540A02040E01460
:100500003555C020C020C01622524080014555906C
:100510009090E08002565678E8E868282824115127
:1005200080112252408014355540C04040E01435BF
:100530005540A04000E0034353A050A0024757801D
:100540008080A060F0200247578080A0D0102070EB
:1005500002475780408060A0F0201236564000408D
:1005600080A04002475740206090F090900247578B
:1005700020406090F0909002475760906090F0901B
:100580009002475750A06090F0909002475790001B
:100590006090F0909002475760906090F0909002C9
:1005A000465670A0A0F0A0B00147576090808090A0
:1005B00060400247574020F080E080F0024757201B
:1005C00040F080E080F00247576090F080E080F0DB
:1005D0000247579000F080E080F01237578040E0EB
:1005E000404040E01237572040E0404040E01237A2
:1005F0005740A0E0404040E0123757A000E04040A4
:1006000040E00256567048E848487002475750A0EC
:1006100090D0B09090024757402060909090600238
:1006200047572040609090906002475760906090DC
:1006300090906002475750A060909090600247579A
:1006400090006090909060123353A040A0024656F4
:1006500070B0B0D0D0E002475740209090909060AA
:1006600002475720409090909060024757609090CA
:100670009090906002475790009090909060025741
:10068000571020885020202002465680E09090E0AD
:10069000800246566090A0A090A0024757402000DC
:1006A0007090907002475720400070909070024701
:1006B000572050007090907002475750A0007090E3
:1006C00090700246565000709090700247576090AC
:1006D0006070909070025454F068B0781135556095
:1006E0008080604002475740200060B0C0600247F1
:1006F0005720400060B0C06002475760900060B073
:10070000C060024656500060B0C06012375780404B
:1007100000C04040E0123757204000C04040E01287
:10072000375740A000C04040E0123656A000C040FD
:1007300040E0024757A040A0107090600247575019
:10074000A000E09090900247574020006090906099
:100750000247572040006090906002475760900029
:100760006090906002475750A000609090600246F1
:10077000569000609090601235554000E0004002B5
:10078000445470B0D0E002475740200090909070E1
:1007900002475720400090909070024757609000A9
:1007A000909090700246569000909090700148583A
:1007B00020400090907090600147578080E090E06A
:1007C000808001475790009090709060000912005F
:1007D000FC0A01E803D720FFFD0EFD0BFD00000021
:1007E00009000E010B0B090400808080808080804E
:1007F0000000808004040409030790909090080A88
:100800000A090000242424FF2424FF242424070BA5
:100810000B0901FF107C929050381412927C100743
:100820000A0A09010042A4A4481010244A4A840775
:100830000A0A0901006090909060629488946201B5
:10084000040409040780808080030C0C0903FF2046
:100850004040808080808080404020030C0C090351
:10086000FF804040202020202020404080070707B4
:100870000901031092543854921007070709010127
:10088000101010FE1010100204040904FEC0C04035
:1008900080070101090104FE020202090400C0C030
:1008A000070A0A09010002040408101020404080D1
:1008B000070A0A090100384482828282828244380F
:1008C000070A0A090100103050901010101010FE95
:1008D000070A0A090100384482020408102040FE79
:1008E000070A0A090100FE020408180402028478BB
:1008F000070A0A090100040C14244484FE040404B9
:10090000070A0A090100FE808080F8040202847848
:10091000070A0A0901003C408080B8C4828244383A
:10092000070A0A090100FE0204040808101010104A
:10093000070A0A0901003844824438448282443854
:10094000070A0A09010038448282463A0202047802
:10095000020707090400C0C0000000C0C002090966
:100960000904FEC0C0000000C0C04080050909099C
:1009700002000810204080402010080704040901EC
:1009800002FE0000FE05090909020080402010084F
:1009900010204080070A0A09010038448202040836
:1009A00010100010070A0A09010038449AAAAAAADE
:1009B000AA9C403C070A0A09010010282828447C08
:1009C00044828282070A0A090100F8848284F8843A
:1009D000828284F8070A0A0901003C4280808080F4
:1009E0008080423C070A0A090100F88482828282E0
:1009F000828284F8070A0A090100FE808080F8805C
:100A0000808080FE070A0A090100FE808080F8804D
:100A100080808080070A0A09010038448280808E25
:100A200082824438070A0A09010082828282FE8299
:100A300082828282050A0A090200F82020202020F2
:100A4000202020F8070A0A0901003E0808080808C3
:100A500008888870070A0A09010082848890A0D05B
:100A600088848282070A0A09010080808080808051
:100A7000808080FE070A0A0901008282C6AA92824B
:100A800082828282070A0A0901008282C2A2928AB5
:100A900086828282070A0A0901007C82828282821F
:100AA0008282827C070A0A090100F884828284F823
:100AB00080808080080B0B0901FF3844828282828B
:100AC000828A443A01070A0A090100F88482828472
:100AD000F890888482070A0A0901007C8280807C61
:100AE000020202827C070A0A090100FE101010109F
:100AF0001010101010070A0A0901008282828282F7
:100B00008282824438070A0A0901008282824444B0
:100B10004428282810070A0A09010082828282924A
:100B2000929292AA44070A0A09010082824428107C
:100B30001028448282070A0A090100828244281090
:100B40001010101010070A0A090100FE0204081014
:100B500020408080FE040C0C0903FFF08080808020
:100B6000808080808080F0070A0A09010080404070
:100B700020101008040402040C0C0902FFF01010ED
:100B80001010101010101010F007040409010610C6
:100B90002844820801010900FFFF03030309030A37
:100BA0008040200707070901007C02027E82867AC6
:100BB000070A0A090100808080BCC2828282C2BC0E
:100BC0000707070901007C82808080827C070A0A6F
:100BD0000901000202027A86828282867A0707076A
:100BE0000901007C8282FE80827C070A0A090100DA
:100BF0001C22222020F820202020070A0A0901FDBB
:100C00007A84848478807C82827C070A0A090100C5
:100C1000808080BCC28282828282050A0A09020028
:100C2000600000E02020202020F8050D0D0902FDC5
:100C300018000038080808080808888870070A0A99
:100C4000090100808080848890B0C88482050A0AE7
:100C5000090200E02020202020202020F80707079C
:100C6000090100EC92929292928207070709010013
:100C7000BCC282828282820707070901007C8282CD
:100C80008282827C070A0A0901FDB8C4828282C47A
:100C9000B8808080070A0A0901FD3A4682828246AE
:100CA0003A0202020707070901009C6242404040E5
:100CB000400707070901007C82807C02827C0709CB
:100CC000090901002020FC20202020221C07070702
:100CD0000901008282828282867A07070709010061
:100CE0008282444428281007070709010082829263
:100CF0009292AA4407070709010082442810284459
:100D000082070A0A0901FD4242242424181810907F
:100D100060070707090100FE0408102040FE060BCB
:100D20000B0902001C20202020C0202020201C01B4
:100D30000C0C0904FF80808080808080808080800F
:100D400080060B0B090100E0101010100C101010A1
:100D500010E007030309010762928CFFFFFFFFFF0A
:100D6000FFFFFFFFFFFFFFFFFFFFFFFFFFFFFFFF93
:100D7000FFFFFFFFFFFFFFFFFFFFFFFF0000000976
:100D8000000E010B0B090400808000008080808031
:100D900080808006080809010008789490A0A47853
:100DA00040070A0A0901001C222020F8202060A226
:100DB0005C070606090103827C44447C82070A0A18
:100DC000090100828244287C107C101010010B0B5A
:100DD0000904FF8080808080008080808080040BF8
:100DE0000B0902FF6090806090909060109060030B
:100DF000020209030BA0A00809090900013C42995D
:100E0000A5A1A599423C05070709010360907090D0
:100E10007800F80708080901011224489090482436
:100E200012060404090102FC04040405010109027C
:100E300004F80809090900013C42B9A5BDA9A54269
:100E40003C060101090109FC040404090306609041
:100E50009060070909090101101010FE1010100020
:100E6000FE0406060901046090106080F004060686
:100E700009010460902010906003030309030A2015
:100E800040800709090901FE8282828282C6BA80F7
:100E900080070A0A0901007E8A8A8A7A0A0A0A0AEF
:100EA0000A020202090404C0C00403030902FD206F
:100EB000906003060609010440C0404040E005067A
:100EC000060901047088887000F807080809010104
:100ED0009048241212244890070A0A09010040C0D1
:100EE000404042E60A121A06070A0A09010040C0F9
:100EF00040404CF2020C101E070A0A0901006090E3
:100F0000201092660A121A06070A0A090100100048
:100F1000101020408082827C070E0E0901002010F4
:100F2000080010282828447C44828282070E0E097B
:100F300001000810200010282828447C4482828266
:100F4000070E0E0901001028440010282828447CB0
:100F500044828282070D0D090100345800102828B0
:100F600028447C44828282070D0D09010028280054
:100F700010282828447C44828282070E0E09010032
:100F80001028281010282828447C44828282070ACE
:100F90000A0901001E2828284E784888888E070DE7
:100FA0000D0901FD3C42808080808080423C082405
:100FB00018070E0E09010020100800FE808080F83E
:100FC00080808080FE070E0E09010008102000FEC0
:100FD000808080F880808080FE070E0E090100105E
:100FE000284400FE808080F880808080FE070D0D00
:100FF000090100282800FE808080F880808080FE23
:10100000050E0E09020040201000F82020202020AC
:10101000202020F8050E0E09020010204000F820C4
:1010200020202020202020F8050E0E09020020504C
:101030008800F82020202020202020F8050D0D0910
:101040000200505000F82020202020202020F80707
:101050000A0A09010078444242F2424242447807B7
:101060000D0D0901003458008282C2A2928A868244
:101070008282070E0E090100201008007C82828205
:1010800082828282827C070E0E09010008102000F5
:101090007C82828282828282827C070E0E0901001B
:1010A000102844007C82828282828282827C070DA8
:1010B0000D0901003458007C828282828282828201
:1010C0007C070D0D0901002828007C828282828223
:1010D0008282827C07070709010182442810284484
:1010E00082070C0C0901FF027C868A8A9292A2A2D6
:1010F000C27C80070E0E0901002010080082828247
:1011000082828282824438070E0E09010008102074
:101110000082828282828282824438070E0E090116
:1011200000102844008282828282828282443807B0
:101130000D0D09010028280082828282828282822B
:101140004438070E0E09010008102000828244284E
:10115000101010101010070A0A0901008080FC828C
:101160008282FC808080060A0A09010038444448D3
:10117000D04844444458070B0B09010020100800D4
:101180007C02027E82867A070B0B09010008102080
:10119000007C02027E82867A070B0B090100102870
:1011A00044007C02027E82867A070A0A0901003422
:1011B00058007C02027E82867A070A0A090100280A
:1011C00028007C02027E82867A070C0C090100103E
:1011D000282810007C02027E82867A070707090110
:1011E000006C12127E90926C070A0A0901FD7C8243
:1011F000808080827C104830070B0B090100201092
:1012000008007C8282FE80827C070B0B09010008AB
:101210001020007C8282FE80827C070B0B0901007B
:10122000102844007C8282FE80827C070A0A090121
:10123000002828007C8282FE80827C050C0C09023A
:10124000008040200000E02020202020F8050C0C29
:101250000902001020400000E02020202020F80596
:101260000C0C0902002050880000E02020202020E3
:10127000F8050B0B09020050500000E02020202050
:1012800020F8070B0B090100483050083C448282CB
:10129000824438070A0A090100345800BCC282821D
:1012A000828282070B0B090100201008007C8282D9
:1012B0008282827C070B0B090100081020007C82CF
:1012C000828282827C070B0B090100102844007C7B
:1012D00082828282827C070A0A0901003458007CDB
:1012E00082828282827C070A0A0901002828007C07
:1012F00082828282827C070909090100103810006D
:10130000FE001038100709090901FF027C8A8A9241
:10131000A2A27C80070B0B090100402010008282F2
:10132000828282867A070B0B090100081020008256
:1013300082828282867A070B0B0901001028440002
:101340008282828282867A070A0A0901002828009E
:101350008282828282867A070E0E0901FD040810BD
:101360000042422424241818109060070B0B090136
:10137000FE8080B8C4828282C4B88080070D0D09C7
:1013800001FD242400424224242418181090604DAA
:10139000383420582059205A20450043616E6E6F22
:1013A0007420656E746572207375626469723A2088
:1013B000004D3234004D3233202573006175746F57
:1013C00025692E67006572726F7220777269746981
:1013D0006E6720746F2066696C65004E6F742053D1
:1013E00044207072696E74696E67002F0053442048
:1013F0007072696E74696E67206279746520002E60
:101400000044656C6574696F6E206661696C656423
:101410002C2046696C653A200046696C652064653D
:101420006C657465643A002E006F70656E206661AD
:10143000696C65642C2046696C653A2000577269B6
:1014400074696E6720746F2066696C653A20002E9F
:10145000006F70656E206661696C65642C2046695A
:101460006C653A20002E006F70656E206661696CB5
:1014700065642C2046696C653A200046696C6520DD
:1014800073656C6563746564002053697A653A20FE
:101490000046696C65206F70656E65643A20002EA9
:1014A000006F70656E206661696C65642C2046690A
:1014B0006C653A20004E6F7720667265736820660F
:1014C000696C653A20004E6F7720646F696E672003
:1014D00066696C653A20002220706F7300222070CC
:1014E0006172656E743A2200535542524F55544909
:1014F0004E452043414C4C207461726765743A221A
:1015000000747279696E6720746F2063616C6C205F
:101510007375622D67636F64652066696C657320FF
:101520007769746820746F6F206D616E79206C65C7
:1015300076656C732E204D4158206C6576656C2065
:1015400069733A0053442063617264206F6B006FCB
:1015500070656E526F6F74206661696C65640076A9
:101560006F6C756D652E696E6974206661696C6556
:101570006400534420696E6974206661696C004898
:10158000617264636F6465642044656661756C7440
:101590002053657474696E6773204C6F6164656471
:1015A0000053746F7265642073657474696E677339
:1015B0002072657472696576656400204400204974
:1015C000002020204D3330312050005049442073FA
:1015D000657474696E67733A00205A0020590020C0
:1015E000204D323036205800486F6D65206F66669A
:1015F00073657420286D6D293A00204500205A003B
:1016000020580020420020540020204D3230352048
:101610005300416476616E6365642076617269612E
:10162000626C65733A20533D4D696E206665656452
:101630007261746520286D6D2F73292C20543D4DE7
:10164000696E2074726176656C206665656472618E
:10165000746520286D6D2F73292C20423D6D696EB5
:10166000696D756D207365676D656E742074696D45
:101670006520286D73292C20583D6D6178696D7542
:101680006D205859206A65726B20286D6D2F732963
:101690002C20205A3D6D6178696D756D205A206A45
:1016A00065726B20286D6D2F73292C2020453D6DB0
:1016B0006178696D756D2045206A65726B20286DB3
:1016C0006D2F73290020540020204D3230342053D8
:1016D00000416363656C65726174696F6E3A205393
:1016E0003D616363656C65726174696F6E2C205433
:1016F0003D7265747261637420616363656C6572C9
:101700006174696F6E00204500205A002059002046
:10171000204D3230312058004D6178696D756D2053
:10172000416363656C65726174696F6E20286D6DCD
:101730002F7332293A00204500205A0020590020FA
:10174000204D3230332058004D6178696D756D2021
:1017500066656564726174657320286D6D2F7329E9
:101760003A00204500205A0020590020204D3932EF
:1017700020580053746570732070657220756E690F
:10178000743A0053657474696E67732053746F7292
:101790006564004572726F723A006563686F3A0063
:1017A00053544F505045442E20005072696E74655A
:1017B000722073746F707065642064756520746F37
:1017C000206572726F72732E204669782074686586
:1017D000206572726F7220616E6420757365204D92
:1017E00039393920746F20726573746172742E20D8
:1017F0002854656D70657261747572652069732017
:1018000072657365742E2053657420697420616657
:101810007465722072657374617274696E672900F1
:101820004B494C4C45442E20005072696E746572D1
:101830002068616C7465642E206B696C6C282920AB
:1018400063616C6C656421006F6B00526573656E3B
:10185000643A20002200556E6B6E6F776E20636FC6
:101860006D6D616E643A2022004368616E67652089
:1018700066696C616D656E74005A204F66667365AB
:1018800074203A20007A5F6D61783A20007A5F6DAB
:10189000696E3A20005A204F6666736574005A20BC
:1018A0004F6666736574206F6B006C636420636FB2
:1018B0006E74726173742076616C75653A20007A7B
:1018C0005F6D61783A2000795F6D696E3A2000782B
:1018D0005F6D696E3A2000205A3A0020593A002084
:1018E000436F756E7420583A200020453A00205A04
:1018F0003A0020593A00583A004649524D57415251
:10190000455F4E414D453A4D61726C696E205631CE
:101910002E302E323B20537072696E7465722F67C1
:1019200072626C206D617368757020666F722067DB
:10193000656E36204649524D574152455F55524CCF
:101940003A68747470733A2F2F6769746875622EE1
:10195000636F6D2F4D61726C696E4669726D776150
:1019600072652F4D61726C696E2050524F544F4317
:101970004F4C5F56455253494F4E3A312E30204D11
:10198000414348494E455F545950453A4D324620EF
:1019900045585452554445525F434F554E543A3181
:1019A00020555549443A30303030303030302D30C9
:1019B0003030302D303030302D303030302D303030
:1019C000303030303030303030300A004D32462048
:1019D0004F66662E004D32462072656164792E0096
:1019E00042656420646F6E652E0020423A002045F7
:1019F0003A00543A004265642048656174696E6734
:101A00002E0048656174696E6720646F6E652E00F4
:101A100020573A0020453A00543A004865617469FD
:101A20006E672E2E2E002042403A0020403A0020C1
:101A30002F003A00205400202F0020423A00202F8F
:101A4000006F6B20543A002569206D696E2C2025AB
:101A5000692073656300456E642066696C65206C5F
:101A600069737400426567696E2066696C65206CF5
:101A7000697374004E6F206D6F76652E004D32468F
:101A80002072656164792E00526573756D696E67A9
:101A9000207072696E74005761697420666F7220DD
:101AA000757365722E2E2E00536C6565702E2E2E6A
:101AB00000FFFF010000514300007F430000484346
:101AC0000000A0400000A0400000A040000080C036
:101AD0000000000000004843000080C0000000003B
:101AE0000000000000004D4300007F430000484319
:101AF000256920686F757273202569206D696E7580
:101B000074657300446F6E65207072696E74696EDF
:101B1000672066696C650053544F505045442E2031
:101B2000005072696E7465722073746F70706564B2
:101B30002064756520746F206572726F72732E2039
:101B400046697820746865206572726F7220616ED4
:101B50006420757365204D39393920746F207265A2
:101B600073746172742E202854656D70657261748F
:101B70007572652069732072657365742E205365D4
:101B80007420697420616674657220726573746173
:101B90007274696E6729004E6F204C696E65204E25
:101BA000756D626572207769746820636865636B20
:101BB00073756D2C204C617374204C696E653A20EE
:101BC000004E6F20436865636B73756D2077697491
:101BD00068206C696E65206E756D6265722C204C94
:101BE000617374204C696E653A2000636865636BAD
:101BF00073756D206D69736D617463682C204C6121
:101C00007374204C696E653A20004C696E65204EF5
:101C1000756D626572206973206E6F74204C6173FC
:101C200074204C696E65204E756D6265722B312C87
:101C3000204C617374204C696E653A20004D31313F
:101C40003000446F6E6520736176696E6720666947
:101C50006C652E006F6B004D3239002020506C6196
:101C60006E6E657242756666657242797465733A26
:101C700020002046726565204D656D6F72793A20AF
:101C8000004A756C203132203230323200436F6DA1
:101C900070696C65643A2000284D477C4A6F736810
:101CA0002C4B796C65204D3246202D202841514225
:101CB00033662920763130302030372F32352F32BD
:101CC0003031382900207C20417574686F723A20C9
:101CD000004A756C20313220323032322031333AB2
:101CE00034303A303800204C617374205570646190
:101CF0007465643A2000312E302E32004D61726CD2
:101D0000696E0020536F6674776172652052657347
:101D1000657400205761746368646F67205265734F
:101D20006574002042726F776E206F757420526563
:101D3000736574002045787465726E616C2052651D
:101D400073657400506F77657255700073746172BB
:101D500074002200656E717565696E67202200222D
:101D600000656E717565696E6720220020746F6F63
:101D7000206C6F6E6720657874727573696F6E2062
:101D800070726576656E7465640020636F6C6420A4
:101D9000657874727573696F6E2070726576656EA2
:101DA000746564007C3C3E5E2B3D3F2F5B5D3B2CAD
:101DB0002A225C0045313A200045303A20005A3A48
:101DC0002000593A2000583A20004D53312C4D53F1
:101DD000322050696E730A0024F404D9201BC40C0D
:101DE0005C0E9804C4095F0265077101F405F900EF
:101DF000FB04B30048048700C10369005803550081
:101E000003034500BE023A008402310053022A0057
:101E10002902250004022000E4011C00C801190069
:101E2000AF01170098011400840113007101100024
:101E30006101100051010E0043010D0036010B003D
:101E40002B010B0020010B00150109000C010900FA
:101E500003010800FB000800F3000800EB00070086
:101E6000E4000600DE000600D8000600D2000600EE
:101E7000CC000500C7000500C2000500BD0004003D
:101E8000B9000400B5000400B1000400AD00040076
:101E9000A9000400A5000300A20003009F000400A5
:101EA0009B000300980003009500020093000300CC
:101EB000900003008D0002008B00030088000200E8
:101EC0008600020084000300810002007F000200FF
:101ED0007D0002007B000200790002007700010013
:101EE000760002007400020072000100710002001E
:101EF0006F0002006D0001006C0002006A0001002A
:101F00006900020067000100660001006500010031
:101F10006400020062000100610001006000010035
:101F20005F0002005D0001005C0001005B00010039
:101F30005A0001005900010058000100570001003B
:101F4000560001005500010054000100530000003C
:101F50005300010052000100510001005000010037
:101F60004F0001004E0000004E0001004D00010036
:101F70004C0001004B0000004B0001004A00010032
:101F8000490001004800000048000100470001002E
:101F90004600000046000100450000004500010029
:101FA0004400010043000000430001004200000023
:101FB000420001004100000041000100400001001A
:101FC0003F0000003F0001003E0000003E00010015
:101FD0003D0000003D0001003C0000003C0000000E
:101FE0003C0001003B0000003B0001003A00000003
:101FF0003A000100390000003900010038000000FB
:1020000038000000380001003700000037000100F0
:1020100036000000360000003600010035000000E8
:1020200035000000350001003400000034000000DD
:1020300034000100330000003300000033000100D1
:1020400032000000320000003200010031000000C8
:1020500031000000310001003000000030000000BD
:10206000300001002F0000002F0000002F000000B2
:102070002F0001002E0000002E0000002E000100A5
:102080002D0000002D0000002D0000002D0001009B
:102090002C0000002C0000002C0000002C0001008F
:1020A0002B0000002B0000002B0000002B00010083
:1020B0002A0000002A0000002A0000002A00010077
:1020C000290000002900000029000000290000006C
:1020D000290001002800000028000000280000005E
:1020E0002800000028000100270000002700000051
:1020F0002700000027000000270001002600000044
:102100002600000026000000260000002600010036
:10211000250000002500000025000000250000002B
:10212000250000002500010024000000240000001C
:10213000240000002400000024000100230000000F
:102140002300000023000000230000002300000003
:1021500023000000230001002200000022000000F4
:1021600022000000220000002200000022000100E6
:1021700021000000210000002100000021000000DB
:1021800021000000210000002100010020000000CB
:1021900020000000200000002000000020000000BF
:1021A0002000000020000000200001001F000000AF
:1021B0001F0000001F0000001F0000001F000000A3
:1021C0001F0000001F0001001E0000001E00000094
:1021D0001E0000001E00000024F4D43050C38E20E6
:1021E000C2A24017828B7011127A910D816CD90AAC
:1021F000A861E108C7586607615143061E4B5D059B
:10220000C145A7041A411104093D980371393103EE
:102210004036DB0265339102D4305402802E1D0219
:10222000632CEE01752AC501B028A0011027810199
:102230008F2564012B244B01E0223401AC211F01C6
:102240008D200D01801FFC00841EED00971DDF0016
:10225000B81CD200E61BC600201BBC00641AB200EA
:10226000B219A8000A19A0006A189900D1179100A4
:1022700040178B00B516840031167E00B315790027
:102280003A157300C7146F0058146A00EE13660005
:102290008813630025135E00C7125B006C125700A1
:1022A00015125400C111510070114F0021114B0043
:1022B000D61049008D10470046104400021042001D
:1022C000C00F4000800F3E00420F3C00060F3B0055
:1022D000CB0E3800930E37005C0E3500270E34000D
:1022E000F30D3200C10D3100900D3000600D2E0055
:1022F000320D2D00050D2C00D90C2B00AE0C290041
:10230000850C29005C0C2700350C27000E0C2600DC
:10231000E80B2400C40B2400A00B23007D0B23003A
:102320005A0B2100390B2100180B2000F80A1F005E
:10233000D90A1E00BB0A1E009D0A1D00800A1D004E
:10234000630A1C00470A1B002C0A1B00110A1A0012
:10235000F7091A00DD091900C4091900AB091900B1
:10236000920917007B091800630917004C09160031
:1023700036091600200916000A091500F50815008F
:10238000E0081400CC081400B8081400A4081400D5
:10239000900813007D0812006B0813005808120003
:1023A0004608120034081100230811001208110019
:1023B00001081100F0071000E0071000D00710001E
:1023C000C0071000B0070F00A107100091070E0012
:1023D00083070F0074070F0065070E0057070E00F4
:1023E00049070E003B070D002E070E0020070D00C9
:1023F00013070D0006070D00F9060C00ED060D0091
:10240000E0060C00D4060C00C8060C00BC060C004C
:10241000B0060C00A4060B0099060C008D060B00FC
:1024200082060B0077060B006C060B0061060A00A3
:1024300057060B004C060A0042060A0038060A003E
:102440002E060A0024060A001A060A0010060900D1
:1024500007060A00FD050900F4050900EB0509005F
:10246000E2050900D9050900D0050900C7050900E2
:10247000BE050900B5050800AD050800A505090061
:102480009C050800940508008C05080084050800D8
:102490007C050800740508006C0507006505080048
:1024A0005D050700560508004E05070047050700B3
:1024B0004005080038050700310507002A05070018
:1024C000230507001C050600160507000F05070079
:1024D0000805060002050700FB040600F5040700D6
:1024E000EE040600E8040600E2040700DB04060030
:1024F000D5040600CF040600C9040600C304060084
:10250000BD040600B7040600B1040500AC040600D3
:10251000A6040600A00405009B040600950405001F
:10252000900406008A040500850405008004060066
:102530007A04050075040500700405006B040500AD
:1025400066040500610405005C04050057040500ED
:10255000520405004D04050048040500430405002D
:102560003E0404003A04050035040500300404006C
:102570002C04050027040400230405001E040400A5
:102580001A04040016040500110404000D040400DC
:10259000090405000404040000040400FC03040012
:1025A000F8030400F4030400F0030400EC03040047
:1025B000E8030400E4030400E0030400DC03040077
:1025C000D8030400D4030400D0030400CC030400A7
:1025D000C8030300C5030300656E6473746F7073F2
:1025E000206869743A205A00205A3A00656E647374
:1025F000746F7073206869743A20590020593A004A
:10260000656E6473746F7073206869743A20580043
:1026100020583A00656E6473746F70732068697433
:102620003A20004572723A204D415854454D502091
:102630004245440054656D70657261747572652021
:10264000686561746564206265642073776974638A
:10265000686564206F66662E204D415854454D5084
:102660002074726967676572656420212100457274
:10267000723A204D494E54454D50003A20457874E9
:102680007275646572207377697463686564206F1E
:1026900066662E204D494E54454D50207472696730
:1026A00067657265642021004572723A204D415879
:1026B00054454D50003A2045787472756465722017
:1026C0007377697463686564206F66662E204D4178
:1026D0005854454D5020747269676765726564206F
:1026E0002100202D20496E76616C69642065787424
:1026F0007275646572206E756D626572202100705E
:10270000012C0190012701B0012201C0011D01F03F
:102710000118011002130130020E0160020901903C
:10272000020401C002FF000003FA004003F500802C
:1027300003F000D003EB002004E6007004E100E0A9
:1027400004DC004005D700C005D2004006CD00D013
:1027500006C8008007C3003008BE00F008B900C0FA
:1027600009B400B00AAF00B00BAA00D00CA500005D
:102770000EA000500F9B00C0109600501291000058
:10278000148C00C0158700B0178200B0197D00D0EE
:102790001B7800001E730040206E0090226900F03C
:1027A00024640040275F0090295A00E02B55001058
:1027B0002E500020304B0010324600E03341009094
:1027C000353C001037370070383200A0392D00B08A
:1027D0003A2800A03B2300603C1E00103D190090E9
:1027E0003D1400103E0F00703E0A00C03E05000080
:1027F0003F0000504944204175746F74756E652028
:1028000066696E6973686564212050757420746808
:1028100065206C617374204B702C204B6920616EB5
:1028200064204B6420636F6E7374616E74732066F2
:10283000726F6D2061626F766520696E746F2043E0
:102840006F6E66696775726174696F6E2E6800508D
:102850004944204175746F74756E65206661696CBA
:102860006564212074696D656F75740020403A00BD
:102870006F6B20543A006F6B20423A00504944205D
:102880004175746F74756E65206661696C6564214D
:102890002054656D706572617475726520746F6F18
:1028A000206869676800204B643A2000204B693A31
:1028B0002000204B703A200020436C6173736963E1
:1028C0002050494420002054753A2000204B753A8E
:1028D0002000206D61783A2000206D696E3A20005A
:1028E00020643A200020626961733A2000000609E2
:1028F00000FE06018902FE20FFFE07FE06FE000024
:102900000006000701060606020080808080008025
:10291000030303060103A0A0A00507070600FF505C
:1029200050F850F850500509090600FE2070A8A084
:102930007028A870200608080600FF40A84810204C
:102940004854080507070600FF609090609890685B
:102950000103030602038080800207070602FF408E
:102960008080808080400207070602FF8040404050
:102970004040800505050600008850F85088050590
:10298000050600002020F820200204040602FEC0F4
:10299000404080050101060002F802020206020022
:1029A000C0C0040606060100101020408080040606
:1029B00006060100609090909060030606060100F4
:1029C00040C0404040E00406060601006090102030
:1029D00040F0040606060100F020601010E0050635
:1029E0000606000010305090F8100406060601009C
:1029F000F080E01010E00406060601006080E09020
:102A00009060040606060100F01010204040040605
:102A100006060100609060909060040606060100C2
:102A2000609090701060020505060200C0C000C0F2
:102A3000C00207070602FEC0C000C0404080050576
:102A4000050600001860806018050303060001F801
:102A500000F8050505060000C0300830C00407076F
:102A60000601006090106040004005060606000068
:102A70007090A8B08070050606060000205088F807
:102A80008888050606060000F088F08888F00406AD
:102A90000606010060908080906004060606010032
:102AA000E090909090E0040606060100F080E0803F
:102AB00080F0040606060100F080E08080800406B5
:102AC00006060100609080B09060040606060100D2
:102AD0009090F0909090030606060100E040404080
:102AE00040E005060606000038101010906004064D
:102AF0000606010090A0C0A0909004060606010002
:102B00008080808080F005060606000088D8A8A88E
:102B1000888804060606010090D0B09090900506C3
:102B20000606000070888888887004060606010082
:102B3000E09090E080800407070601FF609090D04D
:102B4000B06010040606060100E09090E09090044A
:102B5000060606010060904020906005060606000B
:102B600000F8202020202004060606010090909006
:102B7000909060040606060100909090F060600559
:102B800006060600008888A8A8D88805060606005C
:102B900000885020205088050606060000888850CE
:102BA000202020040606060100F010204080F003DB
:102BB0000606060100E080808080E004060606012B
:102BC00000808040201010030606060100E020204F
:102BD0002020E005030306000320508805010106BC
:102BE00000FEF8020202060204804004040406010A
:102BF00000709090700406060601008080E09090BE
:102C0000E0040404060100708080700406060601DA
:102C10000010107090907004040406010060B0C0B1
:102C200070040606060100205040E04040040606FD
:102C30000601FE6090907010600406060601008098
:102C400080E09090900306060601004000C04040DE
:102C5000E00308080601FE200060202020A04004B8
:102C600006060601008080A0C0A0900306060601AB
:102C700000C040404040E0050404060000D0A8A881
:102C800088040404060100E0909090040404060106
:102C900000609090600406060601FEE09090E080DF
:102CA000800406060601FE70909070101004040463
:102CB000060100A0D0808004040406010070C0302A
:102CC000E00406060601004040E0405020040404F1
:102CD000060100909090700404040601009090603A
:102CE0006005040406000088A8A850040404060136
:102CF00000906060900406060601FE90909070902F
:102D000060040404060100F02040F00307070601F8
:102D100000204040804040200107070602FF8080DD
:102D200080808080800307070601008040402040AB
:102D3000408004020206010350A0FFFFFFFFFFFFD7
:102D4000FFFFFFFFFFFFFFFFFFFFFFFFFFFFFFFF93
:102D5000FFFFFFFFFFFFFFFFFFFFFF000000060078
:102D600007010606060200800080808080040606B7
:102D70000601FF2070A0A070200507070600FF30A5
:102D80004840F04040F8050505060000A85088506E
:102D9000A80506060600008850F820F8200107075D
:102DA0000602FF808080008080800407070601FF04
:102DB000708060906010E0030101060105A0060725
:102DC00007060000788494A494847803050506011E
:102DD0000160A06000E00505050600002850A05035
:102DE00028040303060100F010100401010601028B
:102DF000F00607070600007884B4A4A484780401D0
:102E000001060105F0040303060102609060050756
:102E1000070600FF2020F8202000F8030505060122
:102E20000140A02040E0030505060101C02040202C
:102E3000C002020206020440800405050601FF905C
:102E400090B0D08005060606000078E8E8682828DB
:102E5000010101060202800202020602FE40800316
:102E6000050506010140C04040E0030505060101DB
:102E700040A04000E0050505060000A0502850A035
:102E80000508080600FF40C0405070307810050863
:102E9000080600FF40C040506808103805080806C2
:102EA00000FFC0204030F030781004070706010012
:102EB0002000206080906005070706000040202069
:102EC0005070888805070706000010202050708881
:102ED00088050707060000205020507088880507E5
:102EE0000706000028502050708888050707060054
:102EF0000050002050708888050707060000205009
:102F0000205070888805060606000078A0F0A0A072
:102F1000B80408080601FE6090808090602040049C
:102F200007070601004020F080E080F00407070654
:102F300001002040F080E080F00407070601002037
:102F400050F080E080F00407070601005000F08098
:102F5000E080F00307070601008040E0404040E0C9
:102F60000307070601002040E0404040E003070758
:102F700006010040A0E0404040E0030707060100D2
:102F8000A000E0404040E00506060600007048E86A
:102F900048487004070706010050A090D0B09090F8
:102FA0000407070601004020609090906004070726
:102FB0000601002040609090906004070706010021
:102FC0002050609090906004070706010050A060B8
:102FD0009090906004070706010050006090909068
:102FE0006005050506000088502050880408080682
:102FF00001FF1070B0B0D0D0E080040707060100D8
:1030000040209090909060040707060100204090B7
:1030100090909060040707060100205090909090D7
:10302000600407070601005000909090906005072B
:103030000706000010208850202020040606060104
:103040000080E09090E0800406060601006090A0F9
:10305000A090A00407070601004020007090907027
:1030600004070706010020400070909070040707D5
:1030700006010020500070909070040707060100C0
:1030800050A0007090907004060606010050007079
:1030900090907004070706010020502070909070F7
:1030A00005040406000070A8B0780406060601FEB8
:1030B00070808070204004070706010040200060F7
:1030C000B0C07004070706010020400060B0C07067
:1030D00004070706010020500060B0C07004060617
:1030E000060100500060B0C07003070706010080B1
:1030F0004000C04040E0030707060100204000C038
:103100004040E003070706010040A000C04040E047
:10311000030606060100A000C04040E004070706C1
:1031200001003060107090906004070706010050A5
:10313000A000E09090900407070601004020006086
:1031400090906004070706010020400060909060A6
:1031500004070706010020500060909060040707F4
:1031600006010050A0006090906004060606010071
:103170005000609090600505050600002000F800F2
:103180002004040406010070B0D0E0040707060123
:103190000040200090909070040707060100204036
:1031A0000090909070040707060100205000909056
:1031B000907004060606010050009090907004097B
:1031C000090601FE2040009090907090600408086D
:1031D0000601FE8080E09090E080800408080601EF
:1031E000FE500090909070906000060900FE07016C
:1031F00099032B20FFFE08FE07FE000000060000DA
:10320000010707060200808080808000800303039E
:10321000060104A0A0A00507070600005050F850C2
:10322000F850500507070600002070A07028702095
:1032300005070706000048A8502050A8900507077A
:1032400006000040A0A040A8906801030306020405
:103250008080800307070601002040808080402096
:103260000307070601008040202020408005050557
:103270000600018850F85088050505060001202049
:10328000F820200303030601FF60408005010106CA
:103290000003F80303030601FF40E04005070706AB
:1032A0000000080810204080800507070600002065
:1032B0005088888850200507070600002060A0205D
:1032C0002020F8050707060000708808304080F8C5
:1032D000050707060000F808103008887005070782
:1032E00006000010305090F8101005070706000087
:1032F000F880B0C8088870050707060000304080D5
:10330000B0C88870050707060000F80810102040B4
:1033100040050707060000708888708888700507D8
:103320000706000070889868081060030707060108
:10333000FF40E0400040E0400307070601FF40E097
:1033400040006040800407070601001020408040D4
:103350002010050303060002F800F8040707060121
:10336000008040201020408005070706000070887C
:103370001020200020050707060000708898A8B0DC
:10338000807005070706000020508888F8888805A7
:103390000707060000F04848704848F00507070690
:1033A000000070888080808870050707060000F0A4
:1033B0004848484848F0050707060000F88080F0B4
:1033C0008080F8050707060000F88080F080808084
:1033D0000507070600007088808098887005070739
:1033E000060000888888F888888803070706010097
:1033F000E04040404040E00507070600003810105C
:10340000101090600507070600008890A0C0A090EB
:1034100088050707060000808080808080F8050707
:10342000070600008888D8A888888805070706004E
:10343000008888C8A8988888050707060000708853
:103440008888888870050707060000F08888F08063
:1034500080800508080600FF7088888888A87008A2
:10346000050707060000F08888F0A0908805070788
:103470000600007088807008887005070706000045
:10348000F8202020202020050707060000888888D3
:103490008888887005070706000088888850505083
:1034A00020050707060000888888A8A8D88805078F
:1034B0000706000088885020508888050707060006
:1034C0000088885020202020050707060000F80803
:1034D00010204080F8030707060100E0808080800C
:1034E00080E00507070600008080402010080803E0
:1034F0000707060100E02020202020E00503030646
:1035000000042050880501010600FFF802020206AF
:1035100002068040050505060000700878887805D9
:1035200007070600008080B0C888C8B005050506FA
:10353000000070888088700507070600000808688A
:10354000988898680505050600007088F880700561
:103550000707060000304840F040404005070706D6
:1035600000FE7888887808887005070706000080C4
:1035700080B0C88888880307070601004000C04063
:103580004040E00409090601FE10003010101090C0
:10359000906005070706000080808890E09088030F
:1035A0000707060100C04040404040E00505050611
:1035B0000000D0A8A8A888050505060000B0C888A6
:1035C000888805050506000070888888700507074B
:1035D0000600FEB0C888C8B080800507070600FE58
:1035E00068988898680808050505060000B0C88036
:1035F000808005050506000070807008F00507074B
:103600000600004040F04040483005050506000037
:10361000888888986805050506000088885050202D
:103620000505050600008888A8A8500505050600C0
:103630000088502050880507070600FE8888986893
:10364000088870050505060000F8102040F80407FA
:1036500007060100304020C0204030010707060265
:103660000080808080808080040707060100C020E1
:1036700040304020C005030306000448A890000025
:103680000001000000000001000000000001000037
:103690000000000100000000000100000000000127
:1036A0000000000000010000000000010000000018
:1036B0000001000000000001000000000001000007
:1036C00000000001000000000001000000000001F7
:1036D00000000000000100000000000100000000E8
:1036E00000010000000000010000000000010000D7
:1036F00000000001000000000001000000000001C7
:1037000000000000000100000000000100000000B7
:1037100000010000000000010000000000010000A6
:103720000000000100000000000100000000000196
:103730000000000000010000000000010000000087
:10374000000100000000000600000107070602005B
:10375000800080808080800507070600FF2078A019
:10376000A0A07820050707060000304840E0404848
:10377000B005050506000088705070880508080629
:1037800000FF88885020F82020200107070602004B
:10379000808080008080800508080600FF7080E03F
:1037A0009048380870030101060107A005070706C5
:1037B00000007088A8C8A888700406060601017079
:1037C00090B05000F00605050600002448904824FB
:1037D000040202060102F010040101060103F005D3
:1037E00007070600007088E8C8C888700501010650
:1037F0000007F803030306010440A040050606067F
:1038000000002020F82020F8040505060103609040
:103810002040F0040505060103E0106010E00202FC
:103820000206020640800506060600FF888888C852
:10383000B08005070706000078E8E8682828280116
:103840000101060203800202020602FE4080030517
:103850000506010340C04040E00406060601016081
:1038600090906000F00605050600009048244890FE
:103870000609090600FF40C04040E40C143C040661
:1038800009090600FF40C04040E81404081C05096F
:10389000090600FFC0204020C8182878080507073F
:1038A000060000200020204088700508080600005F
:1038B0004020708888F888880508080600001020D5
:1038C000708888F8888805080806000020507088ED
:1038D00088F8888805080806000048B0708888F8CD
:1038E00088880508080600005000708888F88888D5
:1038F0000508080600002050708888F888880607A8
:10390000070600003C50909CF0909C0509090600B9
:10391000FE708880808088702040050808060000BE
:1039200040F88080F08080F805080806000010F854
:103930008080F08080F805080806000020F880806C
:10394000F08080F805080806000050F88080F080BC
:1039500080F80308080601008040E040404040E055
:103960000308080601002040E040404040E0030812
:103970000806010040A0E040404040E0030808067F
:103980000100A000E040404040E0050707060000BD
:10399000F04848E84848F005080806000028508824
:1039A000C8A8988888050808060000402070888804
:1039B00088887005080806000010207088888888AC
:1039C00070050808060000205070888888887005F7
:1039D0000808060000285070888888887005080844
:1039E000060000500070888888887005050506006C
:1039F000008850205088050707060000709898A896
:103A0000C8C8700508080600004020888888888893
:103A100070050808060000102088888888887005CE
:103A2000080806000020500088888888700508086B
:103A300006000050008888888888700508080600FD
:103A400000102088885020202005070706000080ED
:103A5000F088F0808080050707060000708890A03D
:103A60009088B0050808060000402000700878889B
:103A7000780508080600001020007008788878058E
:103A800008080600002050007008788878050808AB
:103A9000060000285000700878887805070706009F
:103AA000005000700878887805080806000020504B
:103AB00020700878887806050506000078147C9048
:103AC0007C0507070600FE70888088702040050886
:103AD000080600004020007088F88070050808067D
:103AE00000001020007088F88070050808060000AB
:103AF0002050007088F8807005070706000050000D
:103B00007088F88070030808060100804000C040FB
:103B10004040E0030808060100408000C0404040EB
:103B2000E003080806010040A000C0404040E00655
:103B30000A0A0600FEA4A800FC8480808084FC069B
:103B40000A0A0600FE549400FC8404040484FC0564
:103B50000808060000285000B0C8888888050808B2
:103B60000600004020007088888870040A0A060257
:103B7000FE30408090909090909090040A0A060049
:103B8000FEC020109090909090909006070706003D
:103B900001448C8C8480403C06070706000188C4E1
:103BA000C4840408F00505050600012000F8002083
:103BB00005080806000040F0C888889878100508B5
:103BC00008060000E0F88888888888F8050505065A
:103BD00000012030F830200508080600002070F8A9
:103BE00020202020E00509090600FF2070A8A8B8C1
:103BF000888850200509090600FFE080C0B0A8A809
:103C00003028280509090600FFF8A88888888888D0
:103C1000A8F8050A0A0600FE205050505088A8A8AF
:103C200088700000000000000000000000007FFF1E
:103C3000E00000000000000000000000007000E054
:103C4000000000000000000000000000630C6000A5
:103C50000000000000000000000000470E200000EF
:103C6000000000000000000000004F0F20000000D6
:103C70000000000000000000005F0FA00000000036
:103C800000000000000000005E07A07F8000000030
:103C900000000000410400406020FFC00000000060
:103CA00000000020820040F020FFC0000000000063
:103CB000000020820040F020FFC000000000000053
:103CC000004104004060207F8000000000000000F0
:103CD0008208005E07A07F80000000000000010451
:103CE00010005F0FA0FFC0000000000000010410E2
:103CF000004F0F20FFC000000000000000820800FD
:103D0000470E20FFC00000000000000041040063D7
:103D10000C603F0000000000000000000000700088
:103D2000E01E0000000000000001FFFF807FFFE0B8
:103D30000C0000000000000001FFFF8000000000F8
:103D400000000000000000000000007FFFE0000015
:103D5000000000000000000000007000E000000013
:103D600000000000000000000061F860000000009A
:103D7000000000000000000041F8200000000000EA
:103D80000000000000000040F020000000000000E3
:103D90000000000000004060200000000000000063
:103DA00000000000005801A07F800000000000001B
:103DB000004104005C63A0FFC000000000000000A0
:103DC0002082005EF7A0FFC000000000000000207D
:103DD00082005EF7A0FFC000000000000000410468
:103DE000005C63A07F8000000000000000820800EB
:103DF0005801A07F80000000000000010410004076
:103E00006020FFC00000000000000104100040F02E
:103E100020FFC00000000000000082080041F820E0
:103E2000FFC00000000000000041040061F8603F96
:103E300000000000000000000000007000E01E0014
:103E400000000000000001FFFF807FFFE00C000089
:103E5000000000000001FFFF8000000059002D2D30
:103E60003A2D2D00B02000B0200007FFFFFFFFFF1C
:103E7000FFFFFFFFFFFFFFFFFFE00FFFFFFFFFFF61
:103E8000FFFFFFFFFFFFFFFFFFF01E00000000002D
:103E9000000000000000000000783C00000000006E
:103EA0000000000000000000003C7800000000005E
:103EB0000000000000000000001EF7FC00FF003FB3
:103EC000801F80FF7FFFF3FFFF0FE7FC01FF007FF4
:103ED000C01F81FE7FFFF3FFFF87C7FE01FF007F4A
:103EE000C01F81FC7FFFF3FFFFC3C7FE01FF007F00
:103EF000C01F83F87FFFF3FFFFC3C7FE03FF00FF70
:103F0000E01F87F87FFFF3FFFFC3C7FF03FF00FF3A
:103F1000E01F87F07FFFF3FFFFE3C7FF03FF00FF12
:103F2000E01F8FE07FFFF3FFFFE3C7FF07FF01FF05
:103F3000F01F9FE07E0003F00FE3C7FF87FF01FB48
:103F4000F01F9FC07E0003F007E3C7FF87FF01FB60
:103F5000F01FFF807E0003F007E3C7FF8FFF03FB26
:103F6000F81FFF807FFFE3F007E3C7FFCFDF03F118
:103F7000F81FFF007FFFE3F007E3C7EFCFDF03F198
:103F8000F81FFE007FFFE3FFFFC3C7EFDFDF07F18E
:103F9000FC1FFE007FFFE3FFFFC3C7E7FF9F07E0B3
:103FA000FC1FFF007FFFE3FFFFC3C7E7FF9F07FF83
:103FB000FC1FFF807FFFE3FFFF83C7E7FF1F0FFFAB
:103FC000FE1FFFC07E0003FFFF83C7E3FF1F0FFF3D
:103FD000FE1F9FC07E0003FFFFC3C7E3FF1F0FFF4D
:103FE000FE1F9FE07E0003FFFFC3C7E3FE1F1FFF0E
:103FF000FF1F8FF07FFFF3FFFFC3C7E1FE1F1FFF0F
:10400000FF1F87F87FFFF3F00FE3C7E1FE1F1FFFDD
:10401000FF1F83F87FFFF3F007E3C7E1FC1F3F803A
:104020003F9F83FC7FFFF3F007E3C7E0FC1F3F00E7
:104030001F9F81FE7FFFF3F007E3C7E0FC1F3F00F7
:104040001F9F80FF7FFFF3F007E3C7E0F81F7F00AB
:104050001FDF80FF7FFFF3F007E3C00000000000D8
:1040600000000000000000000003C00000FFFC1F73
:10407000FFFC01FC00FFFF800003C00003FFFE1FE8
:10408000FFFC01FE00FFFFE00003C00007FFFF1F71
:10409000FFFC03FE00FFFFE00003C00007FFFF9FDF
:1040A000FFFC03FE00FFFFF00003C0000FFFFF9FB7
:1040B000FFFC03FF00FFFFF00003C0000FFFFF9FA6
:1040C000FFFC07FF00FFFFF00003C0000FFFFF9F92
:1040D000FFFC07FF00FFFFF00003C0000FC01F9FA1
:1040E000800007FF80FFFFF00003C0000FC01F9F8C
:1040F00080000FFF80FC01F00003C0000FC01F9F75
:1041000080000FDF80FC01F00003C0000FC0001F23
:10411000FFF80FDFC0FC01F00003C0000FC7FF9FD6
:10412000FFF81FCFC0FC01F00003C0000FC7FF9FC6
:10413000FFF81F8FC0FC03F00003C0000FC7FF9FF4
:10414000FFF81F8FE0FFFFF00003C0000FC7FF9FC5
:10415000FFF83F87E0FFFFF00003C0000FC7FF9F9D
:10416000FFF83F07E0FFFFE00003C0000FC7FF9F1D
:10417000FFF83FFFF0FFFFE00003C0000FC01F9FEC
:1041800080007FFFF0FFFFE00003C0000FC01F9F13
:1041900080007FFFF0FFFFF00003C0000FC01F9FF3
:1041A00080007FFFF8FFFFF00003C0000FFFFF9FBC
:1041B000FFFCFFFFF8FC03F00003C0000FFFFF9FB0
:1041C000FFFCFFFFFCFC03F00003C0000FFFFF9F9C
:1041D000FFFCFC01FCFC03F00003C00007FFFF9F95
:1041E000FFFDFC00FCFC03F00003C00007FFFF1F05
:1041F000FFFDF800FEFC03F00003E00003FFFF1FDB
:10420000FFFDF800FEFC03F00007F00000FFFC1FBC
:10421000FFFFF8007EFC03F0000F780000000000B4
:104220000000000000000000001E3C000000000034
:104230000000000000000000003C1E000000000024
:10424000000000000000000000780FFFFFFFFFFFEC
:10425000FFFFFFFFFFFFFFFFFFF007FFFFFFFFFF75
:10426000FFFFFFFFFFFFFFFFFFE000004E6F205347
:10427000442063617264005072696E742066726FCC
:104280006D2053440053746F70207072696E740017
:10429000526573756D65207072696E74005061753A
:1042A0007365207072696E7400436F6E74726F6C08
:1042B00000507265706172650054756E6500496EDC
:1042C000666F2073637265656E005072696E74204C
:1042D00066726F6D205344005072696E742066726E
:1042E0006F6D20534400F92E2E004D61696E004D14
:1042F0003234004D3233202573004D38342058209D
:1043000059205A204500526573746F7265206661AA
:10431000696C73616665004C6F6164206D656D6FDB
:1043200072790053746F7265206D656D6F727900DC
:104330004C434420636F6E74726173740046696C01
:10434000616D656E74004D6F74696F6E0054656DBC
:104350007065726174757265004D61696E004C43E1
:104360004420636F6E74726173740046696C2E2012
:104370004469612E20310046696C2E204469612E0B
:104380002031004F6666004F6E20004F6666004F7A
:104390006E20004520696E206D6D3300436F6E7492
:1043A000726F6C004573746570732F6D6D0045738B
:1043B000746570732F6D6D005A73746570732F6D13
:1043C0006D005A73746570732F6D6D005973746549
:1043D00070732F6D6D005973746570732F6D6D0060
:1043E0005873746570732F6D6D00587374657073B6
:1043F0002F6D6D00412D7265747261637400412DE3
:104400007265747261637400416D6178206500416A
:104410006D6178206500416D6178207A00416D61A1
:1044200078207A00416D6178207900416D617820B3
:104430007900416D6178207800416D6178207800C5
:104440005654726176206D696E0056547261762002
:104450006D696E00566D696E00566D696E00566D21
:104460006178206500566D6178206500566D617831
:10447000207A00566D6178207A00566D6178207937
:1044800000566D6178207900566D6178207800566D
:104490006D617820780056652D6A65726B005665EF
:1044A0002D6A65726B00567A2D6A65726B00567ABA
:1044B0002D6A65726B005678792D6A65726B0056AD
:1044C00078792D6A65726B00416363656C004163A6
:1044D00063656C00436F6E74726F6C005072656838
:1044E0006561742041425320636F6E6600507265AF
:1044F0006865617420504C4120636F6E66005049BE
:10450000442D43005049442D43005049442D44005C
:104510005049442D44005049442D49005049442DF0
:1045200049005049442D50005049442D500020026C
:1045300020466163740020022046616374002002FB
:10454000204D6178002002204D6178002002204D2E
:10455000696E002002204D696E004F6666004F6E46
:1045600020004F6666004F6E20004175746F7465C1
:104570006D700046616E2073706565640046616E03
:104580002073706565640042656400426564004E96
:104590006F7A7A6C65004E6F7A7A6C6500436F6E45
:1045A00074726F6C0053746F7265206D656D6F72FD
:1045B000790042656400426564004E6F7A7A6C65EA
:1045C000004E6F7A7A6C650046616E207370656587
:1045D000640046616E2073706565640054656D709B
:1045E000657261747572650053746F7265206D65D4
:1045F0006D6F72790042656400426564004E6F7AA7
:104600007A6C65004E6F7A7A6C650046616E207335
:10461000706565640046616E207370656564005462
:10462000656D7065726174757265004D6F76652099
:1046300061786973004D383000537769746368207E
:10464000706F776572206F6E004D38310053776957
:1046500074636820706F776572206F666600436FC1
:104660006F6C646F776E005072656865617420418D
:104670004253005072656865617420504C4100538C
:10468000657420686F6D65206F666673657473006E
:10469000473238004175746F20686F6D65004D3882
:1046A000340044697361626C652073746570706571
:1046B0007273004D61696E004D6F766520302E314A
:1046C0006D6D004D6F766520316D6D004D6F7665B7
:1046D0002031306D6D0050726570617265004578F3
:1046E000747275646572004D6F7665205A004D6F67
:1046F00076652059004D6F76652058004D6F7665C0
:104700002061786973004578747275646572005A27
:104710000059005800507265686561742041425329
:10472000204265640050726568656174204142539F
:104730002031005072657061726500507265686565
:10474000617420504C412042656400507265686578
:10475000617420504C412031005072657061726567
:10476000004D363030004368616E67652066696CC5
:10477000616D656E7400466C6F77203000466C6F1B
:1047800077203000466C6F7700466C6F770046618B
:104790006E2073706565640046616E207370656598
:1047A000640042656400426564004E6F7A7A6C650D
:1047B000004E6F7A7A6C65005370656564005370C3
:1047C000656564004D61696E0043617264207265C5
:1047D0006D6F766564004361726420696E73657203
:1047E000746564004D3330302053363938205032F0
:1047F0003030004D33303020533635392050323090
:10480000300000002100240027002A002D00300085
:10481000330001010000040107010A010000220029
:10482000250028002B002E0031003400020100007A
:10483000050108010B0100002000230026002900CB
:104840002C002F00320000010000030106010901C5
:1048500005050505070508080808020202020A0AFC
:10486000080804040404010101010101010103031A
:10487000030303030303040707070C0C0C0C0C0CC5
:104880000C0C0202020206060606060606060B0BC2
:104890000B0B0B0B0B0B0102102020080810204003
:1048A00010204080020102010804020101020408F4
:1048B0001020408080402010080402018004020182
:1048C00080402010080402010804020101020408CB
:1048D0001020408001020408102040800000090AD6
:1048E00002080B0C0D070603040100000000000085
:1048F00000000000000000000000000000000000B8
:10490000000000000000000011100F000000000077
:104910000000000000000000000000000000000097
:104920000000494E46494E4954594E414ECDCCCCDB
:104930003D0AD7233C17B7D13877CC2B329595E673
:10494000241FB14F0A000020410000C84200401C53
:104950004620BCBE4CCA1B0E5AAEC59D74002648EC
:10496000424AB3E442F13D4A11241FBECFEFD1E2E7
:10497000DEBFCDBF00E00CBF14E0A0E0B2E0EAEA89
:10498000F8EF01E00BBF02C007900D92AE3BB107FC
:10499000D9F71BBE15E1AEEBB4E001C01D92A63302
:1049A000B107E1F719E4C6E6D9E404C02297FE0195
:1049B0000E94FBFBCE35D107C9F70E948BF60C9401
:1049C00049FC0C940000A0E0B0E0E9EEF4E20C94A5
:1049D00018FCEC015B016115710519F0FB01918375
:1049E0008083F9908F2D90E00E94FFFB892BC9F7FF
:1049F000FDE2FF1621F4F990EE24E39405C02BE2CA
:104A0000F21609F4F990EE248E0101501040C8010D
:104A100062E279E443E050E072D2892BF9F48E012E
:104A20000E5F1F4FC80165E279E445E050E067D2B0
:104A3000892B19F48E01095F1F4FA114B10419F0DD
:104A4000F50111830083E0FC04C070E090E080E891
:104A500013C070E090E080E86FEF07C1C8016AE220
:104A600079E443E050E04BD2892B69F4A114B104FE
:104A700029F470E090E080EC6FE7F7C02296F50132
:104A8000D183C083F6CF8824992440E050E060E0D1
:104A900070E0EF2DE053EA30A0F5F2E0EF2A8E2D22
:104AA00090E09C0128703070E2FE06C0232B79F55F
:104AB0000894811C911C2BC0232B19F008948108A9
:104AC0009108DB01CA0112E0880F991FAA1FBB1FC2
:104AD0001A95D1F7480F591F6A1F7B1F440F551FA6
:104AE000661F771F4E0F511D611D711D483929E941
:104AF000520729E9620729E1720748F084E0E82AB1
:104B000006C0EE3F31F4E3FC39C098E0E92AF990A1
:104B1000C0CFE53311F0E53189F529912D3219F433
:104B2000E0E1EE2A05C02B3219F081E090E003C0ED
:104B3000299182E090E0E22FE053EA3018F0C81BA0
:104B4000D90B1CC020E030E0FCE020383F075CF4CB
:104B5000C901880F991F880F991F280F391F220F2D
:104B6000331F2E0F311DE991E053EA3068F3E4FE64
:104B700003C0309521953F4F820E931ECE2CDD242D
:104B8000E1FE07C0A114B10421F02197F501D18302
:104B9000C083CB01BA010E9464F87B018C01F3E071
:104BA000CF22DD2423E0C216D10421F417FB109597
:104BB00017F9109557016801C801B70120E030E0EE
:104BC00040E050E00E94C4F7882309F44AC097FEF1
:104BD0000DC021E4E22E29E4F22E909481949108F4
:104BE0009394C0E2D0E000E010E012C099E5E92E15
:104BF00099E4F92EF6CFF70125913591459154911D
:104C0000C601B5010E94A4FA5B016C018C1A9D0AD1
:104C10008C169D0684F7D595C7950F5F1F4F0630FC
:104C2000110529F08CEF9FEFE80EF91EF1CFC501B9
:104C3000D6017C018D018C2D880F8D2D881F8F3F13
:104C400051F0C601B50120E030E040E050E00E94A4
:104C5000C4F7882331F482E290E090933515809375
:104C600034157E2D9F2D802F612F272F392F482F10
:104C7000562FB901CA01CDB7DEB7ECE00C9434FC75
:104C80002F923F925F926F927F928F929F92AF92FC
:104C9000BF92CF92DF92EF92FF920F931F93CF9329
:104CA000DF938C011B01EA016115710519F0FB010D
:104CB00091838083209749F0CE010297839728F053
:104CC00020E030E040E050E0F6C0F801A1908F0114
:104CD0008A2D90E00E94FFFB892BB9F7FDE2AF1609
:104CE00031F4F801A1908F015524539407C0FBE2E1
:104CF000AF1619F4F801A1908F015524209719F0EF
:104D0000C031D105C1F4F0E3AF1679F4F801808128
:104D1000883711F0883549F4F801A1800E5F1F4FE4
:104D2000F2E05F2AC0E1D0E006C0209721F480E3E2
:104D3000A816E9F427C0C830D10531F1C930D10532
:104D400024F4C230D10531F50CC0CA30D10589F048
:104D5000C031D105F9F4C12CD12CE12CB8E0FB2EE7
:104D600028C0C12CD12CE12CA0E4FA2E22C0CAE02C
:104D7000D0E0FCECCF2EFCECDF2EFCECEF2EFCE0C8
:104D8000FF2E17C0C8E0D0E0C12CD12CE12CE0E10F
:104D9000FE2E0FC09E01442737FD4095542F60E042
:104DA00070E080E090E80E94BCFBC901DA016C0170
:104DB0007D0120E030E040E050E060E03E018824EA
:104DC00077FC8094982C70EDB72EBA0CE9E0EB15C7
:104DD00070F48A2D81548A3118F499ECB92E06C0EA
:104DE0008A2D81568A3150F589EAB82EBA0C8B2D5E
:104DF00090E08C179D0714F56F3FE1F0C216D306C3
:104E0000E406F506B0F0CA01B901A40193010E94BD
:104E100076FB9B01AC012B0D311D411D511D213035
:104E2000F0E03F07F0E04F07F0E85F0710F461E0C3
:104E300001C06FEFF801A1908F01C5CF211431049B
:104E400081F0662331F001501040F101118300839D
:104E500008C051FE1AC002501040F10111830083B6
:104E600014C067FF12C050FC05C02FEF3FEF4FEF9B
:104E70005FE704C020E030E040E050E882E290E0EC
:104E8000909335158093341516C050FE08C0509588
:104E90004095309521953F4F4F4F5F4F0CC057FFC6
:104EA0000AC082E290E090933515809334152FEF7D
:104EB0003FEF4FEF5FE7B901CA01DF91CF911F913B
:104EC0000F91FF90EF90DF90CF90BF90AF909F90A9
:104ED0008F907F906F905F903F902F900895FB018F
:104EE000DC0105900D920020E1F70895FC0105908A
:104EF0000020E9F7809590958E0F9F1F0895FB0184
:104F0000DC014150504088F08D9181341CF08B358C
:104F10000CF4805E659161341CF06B350CF4605EBE
:104F2000861B611171F3990B0895881BFCCFFB015F
:104F3000DC014150504048F005900D920020C9F727
:104F400001C01D9241505040E0F70895FB0155917A
:104F50005523A9F0BF01DC014D9145174111E1F73F
:104F600059F4CD010590002049F04D9140154111B3
:104F7000C9F3FB014111EFCF81E090E00197089563
:104F8000FB01DC0104C08D910190801921F4415096
:104F90005040C8F7881B990B0895FB01DC0102C043
:104FA00001900D9241505040D8F70895FB01DC016B
:104FB0008D9181341CF08B350CF4805E61916134ED
:104FC0001CF06B350CF4605E861B611189F3990B44
:104FD0000895FB01DC010D900020E9F71197019085
:104FE0000D920020E1F70895FC018191861721F0D0
:104FF0008823D9F7992708953197CF010895FB01A8
:10500000DC018D91019080190110D9F3990B08955D
:10501000FB01DC0101900D920020E1F70895FB01F6
:10502000DC014150504030F08D910190801919F40D
:105030000020B9F7881B990B0895FB01DC01415052
:10504000504048F001900D920020C9F701C01D9218
:1050500041505040E0F70895AEE0B0E0E2E3F8E2FE
:105060000C9420FC0E891F898EE08C831A8309839F
:105070008FEF9FE79E838D839E01265E3F4FCE017B
:105080000196688D798DA9010AD02F813885020F8C
:10509000131FF80110822E96E4E00C943CFCABE068
:1050A000B0E0E5E5F8E20C9412FC3C012B015A015A
:1050B000FC0117821682838181FD03C06FEF7FEFB1
:1050C000B9C19AE0892E1E010894211C311CF301FC
:1050D0002381F20123FD859123FF81912F018823F4
:1050E00009F4A5C1853239F423FD859123FF81910F
:1050F0002F01853221F490E0B301B7D1E8CF982F8A
:10510000FF24EE249924FFE1FF15D0F09B3269F0D3
:105110009C3228F4903259F0933291F40EC09D32B3
:1051200049F0903369F441E024C052E0F52A84E06C
:10513000F82A28C098E0F92A25C0E0E1FE2A22C01A
:10514000F7FC29C0892F80538A3070F4F6FE05C021
:10515000989C902C1124980E15C0E89CE02C1124EA
:10516000E80EF0E2FF2A0EC09E3229F4F6FC5FC181
:1051700040E4F42A07C09C3619F450E8F52A02C02E
:10518000983649F4F20123FD959123FF91912F0167
:10519000992309F0B8CF892F8554833018F08052B5
:1051A000833038F444E050E0A40EB51E5FE3598329
:1051B0000FC0933631F0933779F0933509F052C030
:1051C0001FC0F5018081898342E050E0A40EB51E26
:1051D000610101E010E011C0F501C080D180F6FC52
:1051E00003C06FEF7FEF02C0692D70E042E050E036
:1051F000A40EB51EC6012ED18C015FE7F52213C0A7
:10520000F501C080D180F6FC03C06FEF7FEF02C0D4
:10521000692D70E042E050E0A40EB51EC6010FD12A
:105220008C0150E8F52AF3FE06C018C080E290E039
:10523000B3011BD1EA948E2D90E008171907B0F343
:105240000DC0F601F7FC8591F7FE81916F0190E0AA
:10525000B3010BD1E110EA94015010400115110582
:1052600081F7E2C0943611F0993661F5F7FE08C077
:10527000F501208131814281538184E090E00AC0B0
:10528000F501808191819C01442737FD4095542F81
:1052900082E090E0A80EB91E9FE6F92257FF09C0F0
:1052A00050954095309521953F4F4F4F5F4FE0E827
:1052B000FE2ACA01B901A1012AE030E002D1D82EAC
:1052C000D2183FC0953729F41F2D1F7E2AE030E009
:1052D0001DC01F2D197F9F3661F0903720F498353F
:1052E00009F0A5C00FC0903739F0983709F09FC07A
:1052F00004C028E030E00AC0106114FD146020E111
:1053000030E004C014FD166020E132E017FF08C051
:10531000F501608171818281938144E050E008C091
:10532000F50180819181BC0180E090E042E050E095
:10533000A40EB51EA101C5D0D82ED2188FE7F82E25
:10534000F122F6FE0BC05EEFF522D91438F4F4FE1C
:1053500007C0F2FC05C08FEEF82202C01D2D01C06F
:10536000192DF4FE0DC0FE01ED0DF11D808180337D
:1053700019F499EEF92208C01F5FF2FE05C003C0C0
:105380008F2D867809F01F5F0F2DF3FC13C0F0FE00
:105390000EC01E1510F09D2C0AC09D2C9E0C911A5B
:1053A0001E2D05C080E290E0B3015FD01F5F1E1587
:1053B000C8F304C01E1510F4E11A01C0EE2404FF66
:1053C0000EC080E390E0B30150D002FF1BC001FD8E
:1053D00003C088E790E00EC088E590E00BC0802F06
:1053E000867881F001FF02C08BE201C080E2F7FC09
:1053F0008DE290E0B30139D005C080E390E0B301C5
:1054000034D09A94D914C8F3DA94F101ED0DF11D5A
:10541000808190E0B30129D0DD20B1F705C080E2A2
:1054200090E0B30122D0EA94EE20C9F750CEF30108
:1054300066817781CB012B96E2E10C942EFCFC0176
:105440000590615070400110D8F7809590958E0FAF
:105450009F1F0895FC016150704001900110D8F722
:10546000809590958E0F9F1F08950F931F93CF9354
:10547000DF938C01EB018B8181FF1BC082FF0DC08C
:105480002E813F818C819D812817390764F4E88142
:10549000F9810193F983E88306C0E885F985802FB7
:1054A0001995892B31F48E819F8101969F838E837C
:1054B00002C00FEF1FEFC801DF91CF911F910F9135
:1054C0000895FA01AA27283051F1203181F1E8949A
:1054D0006F936E7F6E5F7F4F8F4F9F4FAF4FB1E0E7
:1054E0003ED0B4E03CD0670F781F891F9A1FA11DE2
:1054F000680F791F8A1F911DA11D6A0F711D811DE3
:10550000911DA11D20D009F468943F912AE0269FA7
:1055100011243019305D3193DEF6CF010895462F06
:105520004770405D4193B3E00FD0C9F7F6CF462FE7
:105530004F70405D4A3318F0495D31FD4052419350
:1055400002D0A9F7EACFB4E0A6959795879577950D
:105550006795BA95C9F700976105710508959B0194
:10556000AC010A2E06945795479537952795BA951D
:10557000C9F7620F731F841F951FA01D0895BF9266
:10558000CF92DF92EF92FF920F931F93CF93DF930F
:105590006C01E62EB42EF22EE8010BC0FE01049140
:1055A000C6016E2D4B2D20E07BD32196FA94F8E0B6
:1055B000EF0EFF2099F7DF91CF911F910F91FF9090
:1055C000EF90DF90CF90BF9008958F929F92AF920F
:1055D000BF92CF92DF92EF92FF920F931F93CF93E0
:1055E000DF935C01862EC42E922ED02EC22FD0E0E7
:1055F0009E0183E0220F331F8A95E1F7C5011CD07D
:10560000882359F40CC0C501682D4C2D292D870124
:10561000B6DFEC0EFD1EC394DA94DD20A1F7DF9116
:10562000CF911F910F91FF90EF90DF90CF90BF909F
:10563000AF909F908F9008950F93FC014150040FFD
:105640004F5F92A984A9841718F0091728F402C0A3
:10565000091798F0041788F46150260F6F5F91A91D
:1056600083A9861718F0291718F005C0291728F004
:1056700080E0261718F481E001C080E00F910895C2
:1056800081E008952EE93FE004C0F9013197F1F778
:1056900001970097D1F7089588E290E00197F1F71C
:1056A0000895FC01E60FF11D8491382F20E031961A
:1056B000E4912E0F311DC9010895FC0184910895D4
:1056C000FCDF882311F083E0089586E0089566E00A
:1056D000E8CF68E0E6CFFC013A96E4918E2F08957A
:1056E000FC013B96E4918E2F08959F92AF92BF925A
:1056F000CF92DF92EF92FF920F931F93CF93DF939E
:10570000EC01C62EFC80ED800F2D1E2D8F2D9E2DC1
:10571000D4DF982E8F2D9E2DD3DFA82E81E09816F2
:1057200019F48FE0B82E02C0BB24BA948F2D9E2DA1
:10573000D7DFD82EE0E6EC1550F48F2D9E2DC9DF73
:10574000009729F0B801680F791F81E613C0F0E4D3
:10575000FC1550F48F2D9E2DBADF009729F0B8016B
:10576000680F791F81E406C08F2D9E2DB4DFB8012C
:105770006F5E7F4FDC1408F454C0D81608F451C093
:10578000282F4A2D50E0FB0194919F3F19F46F5F41
:105790007F4F43C02C1509F035C09B012F5F3F4F51
:1057A0009920B1F49B8BF90184918C8B6D5F7F4FB5
:1057B000FB018491888B6F5F7F4FFB018491898B04
:1057C0006F5F7F4FFB018491655070408A8B18C0DA
:1057D000892F8F7082508A8B92959F70998BF901D7
:1057E0008491982F9F709C8B82958F708B8B6E5FAE
:1057F0007F4FFB0184916250704082958F70888B3F
:10580000FB0116C06E5F7F4FFB01849162507040B8
:105810008B21680F711D640F751F2D1511F02F5FFF
:10582000B2CF188A1B8A1C8A198A1A8AE0E0F0E033
:10583000CF01DF91CF911F910F91FF90EF90DF90FB
:10584000CF90BF90AF909F900895DC011496ED919A
:10585000FC911597309709F438C057968C9157975B
:10586000882339F43596849158968C9358973796B7
:105870000AC0813011F43F9601C03D96849158963C
:105880008C9358973196849159968C935997589642
:105890008C915897282F332727FD309559968C9156
:1058A0005997992787FD9095281B390B5A968C910B
:1058B0005A97803441F0289F9001112496E0369544
:1058C00027959A95E1F75B962C93089580E00895CB
:1058D00026E63CE2FC01368B258B0895CF93DF93BF
:1058E000EC018C819D818617970741F07D836C8345
:1058F000CE01ABDF86E69CE29E8B8D8BDF91CF9154
:1059000008954F925F926F927F928F929F92AF9283
:10591000BF92CF92DF92EF92FF920F931F93CF939C
:10592000DF937C01062FB42E622FDFDEEC0100979F
:1059300011F480E03BC0F701C480D58013897488DE
:105940008188800E82899B2C9718981AC701682D30
:10595000492D212F072D70DE882331F1C601B0DEDD
:1059600057E0A52EA10EA694A694A6946E01C80E8B
:10597000D11CBB244A2C552410C0FE010491C70140
:10598000612F462D20E08CD12196185F9E012C19A5
:105990002A1598F3C40CD51CB3946B2C690CB7145E
:1059A00018F4182DE601F2CFF7018089DF91CF912D
:1059B0001F910F91FF90EF90DF90CF90BF90AF902D
:1059C0009F908F907F906F905F904F900895DF929F
:1059D000EF92FF920F931F938C01E62EF42ED22E9E
:1059E000DC015596ED91FC9156971995F80EC8017A
:1059F0006E2D4F2D2D2D85DF1F910F91FF90EF9074
:105A0000DF900895EF92FF920F931F938C017B011B
:105A1000DC019F96ED91FC91D09782E01995D7011A
:105A2000ED91FC91C801B7014AE020E030E0199502
:105A3000F82ED8019F96ED91FC91D09783E01995AF
:105A4000D8019F96ED91FC91D09780E019958F2D0C
:105A50001F910F91FF90EF900895EF92FF920F9397
:105A60001F938C017B01DC019F96ED91FC91D097F7
:105A700082E01995D8019F96ED91FC91D09781E035
:105A80001995D701ED91FC91C801B70144E120E0DF
:105A900030E0199598012F5C3F4FD701ED91FC91B3
:105AA000C801B70147E11995D8019F96ED91FC9186
:105AB000D09780E019951F910F91FF90EF90089576
:105AC000FF920F931F93CF93DF93EC018B01EFA510
:105AD000F8A982E01995EFA5F8A981E01995D801F8
